:020000040000FA
:0400000027EF00F0F6
:100008004C82FACF10F0FBCF11F0D9CF12F0DACF33
:1000180013F0F2AA12EF00F014EF00F01DEF00F059
:10002800F2A419EF00F01BEF00F01DEF00F063ECF5
:100038001AF013C0DAFF12C0D9FF11C0FBFF10C0BD
:10004800FAFF4C921100F6EF17F0000E0101CB6F8A
:10005800000ECC6F000ECD6F000ECE6F000EBF6F7E
:10006800000EC06F000EC16F000EC26F000EC36F8E
:10007800000EC46F000EC56F000EC66FD4EC1AF0E8
:100088008A88000E156E000E146E65EC1BF0F29453
:10009800F2A451EF00F053EF00F04CEF00F0160E11
:1000A800146E1D0E156E6AEC1BF0F28EF28C95EC38
:1000B80010F0C00E0001A66FFF0EA76FACEC1AF08F
:1000C800E10E0001A66FFE0EA76FACEC1AF0C90E88
:1000D8000001A66FFF0EA76FACEC1AF0610E0001CD
:1000E800A66FFC0EA76FACEC1AF08AEC1BF0000EA2
:1000F800C1EC16F0FA0E0001A66FFF0EA76FACEC6C
:100108001AF04AEC1BF00009D8B48DEF00F08FEF1D
:1001180000F085EF00F0C0EC1AF00101BC6F7B0E17
:100128000001A66FFF0EA76FBCC1A8F0A96BACECCD
:100138001AF09FEF08F0410EA66FFB0EA76FACEC0C
:100148001AF0B10E0001A66FFD0EA76F0101BF5195
:10015800C35D0001BE6F0101C051C4590001BF6FEA
:100168000101C151C5590001C06F0101C251C659F1
:100178000001C16F0A0EC6EF00F0D890C133C0333A
:10018800BF33BE33E82EC1EF00F0BEC0A8F0BFC039
:10019800A9F0C0C0AAF0C1C0ABF0ACEC1AF0910E47
:1001A8000001A66FFF0EA76FACEC1AF0EE0E00016F
:1001B800A66FFF0EA76FCDC1A8F0CEC1A9F0AA6B9C
:1001C800AB6BACEC1AF0FD0E0001A66FFF0EA76F2B
:1001D800ACEC1AF0EE0E0001A66FFF0EA76FFF0E33
:1001E8000101CB150001A86FFF0E0101CC1500011C
:1001F800A96F000E0101CD150001AA6F000E0101C3
:10020800CE150001AB6FACEC1AF0AE0E0001A66F74
:10021800FF0EA76FACEC1AF00B0E0001A66FFF0ED5
:10022800A76FD5C0BEF0D6C0BFF0040EC06FD8907F
:10023800BF33BE33C02F1BEF01F0BEC0A8F0BFC054
:10024800A9F0ACEC1AF0430E0001A66FFB0EA76FE5
:10025800ACEC1AF0B10E0001A66FFF0EA76FACEC64
:100268001AF0DA0E0001A66FFF0EA76FACEC1AF0B9
:10027800F60E0001A66FFE0EA76FACEC1AF0870E03
:100288000001A66FFE0EA76FACEC1AF0430E00013A
:10029800A66FFB0EA76FACEC1AF06F0E0001A66FED
:1002A800FE0EA76FACEC1AF0430E0001A66FFB0E12
:1002B800A76FACEC1AF0AE0E0001A66FFC0EA76F8C
:1002C800ACEC1AF0360E0001A66FFC0EA76F020EFA
:1002D800A96F000EA86FACEC1AF00A0E0001A66F09
:1002E800FB0EA76F020EA96F000EA86FACEC1AF0F8
:1002F800430E0001A66FFB0EA76FACEC1AF0A90E17
:100308000001A66FFB0EA76FACEC1AF00A0E0001F5
:10031800A66FFC0EA76FACEC1AF0170E0001A66FC3
:10032800FD0EA76FACEC1AF0430E0001A66FFB0E92
:10033800A76FACEC1AF07EEF00F0D20EA66FFF0E9E
:10034800A76FACEC1AF07EEF00F0000E0101BE6F53
:10035800000EBD6FBE5109E1280EBD5DD8A0B7EFF4
:1003680001F0B9EF01F0BBEF01F0C7EF01F0F50EB6
:100378000001A66FFF0EA76FACEC1AF00101BD4B90
:10038800BE2BAEEF01F0FF007EEF00F0000E010182
:10039800BE6F000EBD6FBE5109E1280EBD5DD8A02D
:1003A800D8EF01F0DAEF01F0DCEF01F07EEF00F0BA
:1003B800F50E0001A66FFF0EA76FACEC1AF0010155
:1003C800BD4BBE2BCFEF01F0CBC1BFF1CCC1C0F10B
:1003D800CDC1C1F1CEC1C2F1000E0101B46F000E52
:1003E800B36F020EB45DD8A0FCEF01F0FEEF01F090
:1003F80000EF02F025EF02F0170E0001D025F66E8F
:10040800F76AF30EF722F86A000EF822D50E0101FA
:10041800B325D96E070EB421DA6E0800F5CFDFFFD9
:100428000001D02B190ED0651CEF02F01EEF02F070
:1004380020EF02F0000ED06F0101B34BB42BF5EFA3
:1004480001F0C2C015F0C3C016F0C4C017F0C5C093
:1004580018F0D50E196E070E1A6EAFEC17F0BDEC3A
:1004680019F00101D06FD029D8B43DEF02F03FEF69
:1004780002F033EF02F0C2C014F0C3C015F0C4C0DC
:1004880016F0C5C017F01CEC19F014C0C2F015C066
:10049800C3F016C0C4F017C0C5F0C2C0C3F1C3C0D2
:1004A800C4F1C4C0C5F1C5C0C6F1370E0001A66FBE
:1004B800FD0EA76FACEC1AF0750E0001A66FFD0ECD
:1004C800A76F0101BF51C35D0001BE6F0101C0519B
:1004D800C4590001BF6F0101C151C5590001C06F66
:1004E8000101C251C6590001C16F0A0E81EF02F025
:1004F800D890C133C033BF33BE33E82E7CEF02F04F
:10050800BEC0A8F0BFC0A9F0C0C0AAF0C1C0ABF07F
:10051800ACEC1AF0BFC1B4F0C0C1B5F0C1C1B6F0BF
:10052800C2C1B7F02FEC18F0C3C1B4F0C4C1B5F024
:10053800C5C1B6F0C6C1B7F02FEC18F09F0E000188
:10054800A66FFE0EA76FD0C1A8F0A96BACEC1AF08D
:100558007EEF00F0A00ED525D56F000ED621D66F00
:100568007EEF00F0410ED55D010ED659D8A0BFEF41
:1005780002F0C1EF02F07EEF00F0600ED525D56FD6
:10058800FF0ED621D66F7EEF00F0BFC1C7F1C0C104
:10059800C8F1C1C1C9F1C2C1CAF1000ED46F000EC1
:1005A800D36F010ED16F46EF03F00001D451D8A4E8
:1005B800E0EF02F0E2EF02F0D9EF02F0C7C115F068
:1005C800C8C116F0C9C117F0CAC118F0D50E196E06
:1005D800050E1A6E17EC17F0010E0001D46FC7C193
:1005E80014F0C8C115F0C9C116F0CAC117F01CEC47
:1005F80019F014C0C7F115C0C8F116C0C9F117C069
:10060800CAF10101C351C7190DE1C451C8190AE162
:10061800C551C91907E1C651CA19D8A416EF03F084
:1006280018EF03F01AEF03F063EF03F00001D35162
:10063800D8A421EF03F023EF03F01AEF03F0C7C1AA
:1006480015F0C8C116F0C9C117F0CAC118F0D50E07
:10065800196E030E1A6E17EC17F0010E0001D36F16
:10066800C7C114F0C8C115F0C9C116F0CAC117F046
:100678001CEC19F014C0C7F115C0C8F116C0C9F1B7
:1006880017C0CAF14AEC1BF00009D8A44EEF03F0DA
:1006980050EF03F063EF03F00101C351C7190DE1F7
:1006A800C451C8190AE1C551C91907E1C651CA1987
:1006B800D8A461EF03F063EF03F0D9EF02F0010E65
:1006C800466E4AEC1BF00009D8B46DEF03F06FEFEB
:1006D80003F071EF03F0C0EC1AF00001D151D8A477
:1006E80078EF03F07AEF03F071EF03F07EEF00F09C
:1006F800350EA66FF30EA76FACEC1AF04AEC1BF0A0
:100708000009D8B48AEF03F08CEF03F082EF03F00E
:10071800C0EC1AF0CBC1BFF1CCC1C0F1CDC1C1F161
:10072800CEC1C2F1CBC1D1F1CCC1D2F1CDC1D3F18F
:10073800CEC1D4F1000E0101CF6F010E486EB5EFA6
:1007480004F00001D451D8B4ACEF03F0AEEF03F0DD
:100758002DEF04F0D1C115F0D2C116F0D3C117F0B6
:10076800D4C118F0D50E196E050E1A6EAFEC17F03D
:10077800BDEC19F00101D06FD029D8B4C6EF03F051
:10078800C8EF03F0BCEF03F0D0511F0B050AD8B433
:10079800D0EF03F0D2EF03F0ECEF03F0D1C115F086
:1007A800D2C116F0D3C117F0D4C118F0D50E196E06
:1007B800050E1A6EAFEC17F0BDEC19F00101D06F01
:1007C800D029D8B4EAEF03F0ECEF03F0E0EF03F040
:1007D800000E0001D46F0101D0511F0B050AD8B4D7
:1007E800F8EF03F0FAEF03F01BEF04F0800ECF618F
:1007F80000EF04F002EF04F01BEF04F0CF51040DFA
:10080800D50EF324D96E010EF420DA6ED1C1DEFFC5
:10081800D2C1DEFFD3C1DEFFD4C1DEFF000ECF257B
:10082800D96EDA6A010EDA22D0C1DFFFCF2BD1C12F
:1008380014F0D2C115F0D3C116F0D4C117F01CECD6
:1008480019F014C0D1F115C0D2F116C0D3F117C0F8
:10085800D4F10001D351D8B434EF04F036EF04F0EA
:10086800B5EF04F0D1C115F0D2C116F0D3C117F01D
:10087800D4C118F0D50E196E030E1A6EAFEC17F02E
:10088800BDEC19F00101D06FD029D8B44EEF04F0B7
:1008980050EF04F044EF04F0D0511F0B050AD8B410
:1008A80058EF04F05AEF04F074EF04F0D1C115F0DA
:1008B800D2C116F0D3C117F0D4C118F0D50E196EF5
:1008C800030E1A6EAFEC17F0BDEC19F00101D06FF2
:1008D800D029D8B472EF04F074EF04F068EF04F094
:1008E800000E0001D36F0101D0511F0B050AD8B4C7
:1008F80080EF04F082EF04F0A3EF04F0800ECF61E4
:1009080088EF04F08AEF04F0A3EF04F0CF51040D50
:10091800D50EF324D96E010EF420DA6ED1C1DEFFB4
:10092800D2C1DEFFD3C1DEFFD4C1DEFF000ECF256A
:10093800D96EDA6A010EDA22D0C1DFFFCF2BD1C11E
:1009480014F0D2C115F0D3C116F0D4C117F01CECC5
:1009580019F014C0D1F115C0D2F116C0D3F117C0E7
:10096800D4F14AEC1BF00009D8B4BDEF04F0BFEF96
:1009780004F0A5EF03F0C0EC1AF0010E476ED4EFB7
:1009880005F0D451D8B4CBEF04F0CDEF04F04CEF20
:1009980005F0D1C115F0D2C116F0D3C117F0D4C1FA
:1009A80018F0D50E196E050E1A6EAFEC17F0BDECE7
:1009B80019F00101D06FD029D8B4E5EF04F0E7EFC2
:1009C80004F0DBEF04F0D0511F0B050AD8B4EFEFA9
:1009D80004F0F1EF04F00BEF05F0D1C115F0D2C12E
:1009E80016F0D3C117F0D4C118F0D50E196E050E44
:1009F8001A6EAFEC17F0BDEC19F00101D06FD029D9
:100A0800D8B409EF05F00BEF05F0FFEF04F0000E86
:100A18000001D46F0101D0511F0B050AD8B417EF9C
:100A280005F019EF05F03AEF05F0800ECF611FEFE2
:100A380005F021EF05F03AEF05F0CF51040DD50E82
:100A4800F324D96E010EF420DA6ED1C1DEFFD2C1D3
:100A5800DEFFD3C1DEFFD4C1DEFF000ECF25D96E85
:100A6800DA6A010EDA22D0C1DFFFCF2BD1C114F030
:100A7800D2C115F0D3C116F0D4C117F01CEC19F08F
:100A880014C0D1F115C0D2F116C0D3F117C0D4F1FA
:100A98000001D351D8B453EF05F055EF05F0D4EF6A
:100AA80005F0D1C115F0D2C116F0D3C117F0D4C1E9
:100AB80018F0D50E196E030E1A6EAFEC17F0BDECD8
:100AC80019F00101D06FD029D8B46DEF05F06FEFA0
:100AD80005F063EF05F0D0511F0B050AD8B477EF86
:100AE80005F079EF05F093EF05F0D1C115F0D2C10B
:100AF80016F0D3C117F0D4C118F0D50E196E030E35
:100B08001A6EAFEC17F0BDEC19F00101D06FD029C7
:100B1800D8B491EF05F093EF05F087EF05F0000EDC
:100B28000001D36F0101D0511F0B050AD8B49FEF04
:100B380005F0A1EF05F0C2EF05F0800ECF61A7EF39
:100B480005F0A9EF05F0C2EF05F0CF51040DD50E61
:100B5800F324D96E010EF420DA6ED1C1DEFFD2C1C2
:100B6800DEFFD3C1DEFFD4C1DEFF000ECF25D96E74
:100B7800DA6A010EDA22D0C1DFFFCF2BD1C114F01F
:100B8800D2C115F0D3C116F0D4C117F01CEC19F07E
:100B980014C0D1F115C0D2F116C0D3F117C0D4F1E9
:100BA8000001D451D8A4DBEF05F0DDEF05F0C5EF67
:100BB80004F0D351D8A4E3EF05F0E5EF05F0C5EF55
:100BC80004F0D251D8A4EBEF05F0EDEF05F0C5EF36
:100BD80004F0D1C1C3F1D2C1C4F1D3C1C5F1D4C1AC
:100BE800C6F1AE0EA66FFF0EA76FACEC1AF00101AE
:100BF800CF51D8B402EF06F004EF06F07EEF00F014
:100C0800210E0001A66FFE0EA76FACEC1AF0000EC5
:100C18000101B76F65EF06F0B751040DD50EF32447
:100C2800D96E010EF420DA6EDECFABF1DECFACF177
:100C3800DECFADF1DECFAEF1560E0001A66FFD0E90
:100C4800A76F000E0101B725D96EDA6A010EDA2204
:100C5800DF500001BE6FBE51A86FA96BACEC1AF053
:100C6800EE0E0001A66FFF0EA76FADC1A8F0AEC1D2
:100C7800A9F0AA6BAB6BACEC1AF0FD0E0001A66FE5
:100C8800FF0EA76FACEC1AF0E10E0001A66FFF0E85
:100C9800A76FFF0E0101AB150001A86FFF0E010140
:100CA800AC150001A96F000E0101AD150001AA6F76
:100CB800000E0101AE150001AB6FACEC1AF001019A
:100CC800B72BCF51B75DD8A06CEF06F06EEF06F0EA
:100CD80010EF06F07EEF00F0960EA66FFA0EA76FE3
:100CE800ACEC1AF0C80E0001A66FF30EA76FACECBF
:100CF8001AF0AE0E0001A66FFF0EA76FACEC1AF04B
:100D0800D00E0001A66FFA0EA76FACEC1AF0F60E23
:100D18000001A66FFC0EA76FACEC1AF0B60E00012E
:100D2800A66FFE0EA76FACEC1AF0770E0001A66F47
:100D3800FB0EA76FACEC1AF0810E0001A66FF30E44
:100D4800A76FACEC1AF0480E0001A66FFF0EA76F54
:100D5800ACEC1AF0560E0001A66FFE0EA76FACECB5
:100D68001AF04AEC1BF00009D8B4BDEF06F0BFEF4B
:100D780006F0B5EF06F0C0EC1AF0BFC1B8F1C0C17B
:100D8800B9F1C1C1BAF1C2C1BBF1C3C1AFF1C4C1AC
:100D9800B0F1C5C1B1F1C6C1B2F10101B851AF5D41
:100DA8000001BE6F0101B951B0590001BF6F0101C7
:100DB800BA51B1590001C06F0101BB51B2590001CC
:100DC800C16F0A0EEDEF06F0D890C133C033BF33C0
:100DD800BE33E82EE8EF06F0BEC0A1F1BFC0A2F115
:100DE800C0C0A3F1C1C0A4F1000E0101A76F000E9D
:100DF800A86F000EA96F000EAA6F57EF07F0B8C1D1
:100E080015F0B9C116F0BAC117F0BBC118F0D50E6C
:100E1800196E070E1A6E17EC17F0B8C114F0B9C1A5
:100E280015F0BAC116F0BBC117F01CEC19F014C0CC
:100E3800B8F115C0B9F116C0BAF117C0BBF1000E70
:100E48000101B66F000EB56F020EB619B511D8A420
:100E580030EF07F032EF07F034EF07F051EF07F00B
:100E6800D50EB525D96E070EB621DA6EDF50000112
:100E7800BE6FBE510101A56FA66B8E0E0001A66F55
:100E8800FD0EA76FA5C1A8F0A6C1A9F0ACEC1AF099
:100E98000101B54BB62B28EF07F0010EA727000E6E
:100EA800A823A923AA234AEC1BF00009D8A45FEFC2
:100EB80007F061EF07F074EF07F00101AF51B819BF
:100EC8000DE1B051B9190AE1B151BA1907E1B251AE
:100ED800BB19D8A472EF07F074EF07F003EF07F01F
:100EE8004AEC1BF00009D8B47CEF07F07EEF07F05E
:100EF80080EF07F0C0EC1AF0D30E0001A66FFC0ECD
:100F0800A76FA7C1A8F0A8C1A9F0A9C1AAF0AAC152
:100F1800ABF0A1C1ACF0A2C1ADF0A3C1AEF0A4C1C9
:100F2800AFF0ACEC1AF0DA0E0001A66FFB0EA76F5B
:100F3800ACEC1AF0D00E0001A66FFA0EA76FACEC5D
:100F48001AF0F60E0001A66FFC0EA76FACEC1AF0B3
:100F5800B60E0001A66FFE0EA76FACEC1AF0890E54
:100F68000001A66FFC0EA76FACEC1AF0CC0E0001C6
:100F7800A66FFE0EA76FACEC1AF07EEF00F08AECBD
:100F88001BF0000EC1EC16F0010E12EC14F07EEF0F
:100F980000F0610E0101BC19D8A4D5EF07F0D7EF16
:100FA80007F003EF08F0000ECB5F020ECC5B000EDB
:100FB800CD5B000ECE5B040ECE5DD8A0E6EF07F049
:100FC800E8EF07F0FAEF07F0930E0001A66FFD0EA9
:100FD800A76FACEC1AF0000E0101CB6FFE0ECC6FC0
:100FE800FF0ECD6F030ECE6F2DEF08F0200E00011F
:100FF800A66FFF0EA76FACEC1AF02DEF08F0000EED
:10100800CB27020ECC23000ECD23000ECE23040ED8
:10101800CE5DD8A012EF08F014EF08F026EF08F024
:10102800EA0E0001A66FFD0EA76FACEC1AF0000ED9
:101038000101CB6F000ECC6F000ECD6F000ECE6F8E
:101048002DEF08F0340E0001A66FFF0EA76FACEC71
:101058001AF05C0E0001A66FFF0EA76FACEC1AF039
:10106800EE0E0001A66FFF0EA76FCDC1A8F0CEC18E
:10107800A9F0AA6BAB6BACEC1AF0FD0E0001A66FE1
:10108800FF0EA76FACEC1AF0EE0E0001A66FFF0E74
:10109800A76FFF0E0101CB150001A86FFF0E01011C
:1010A800CC150001A96F000E0101CD150001AA6F32
:1010B800000E0101CE150001AB6FACEC1AF0AE0EBC
:1010C8000001A66FFF0EA76FACEC1AF07EEF00F0E0
:1010D800CBC115F0CCC116F0CDC117F0CEC118F0B8
:1010E800D50E196E070E1A6E17EC17F0A20E000136
:1010F800A66FFF0EA76FACEC1AF0CBC1B4F0CCC151
:10110800B5F0CDC1B6F0CEC1B7F02FEC18F0D50EC2
:101118000001B46F070EB56F8BEC11F07EEF00F095
:101128006F0EA66FFF0EA76FBCC1A8F0A96BACEC41
:101138001AF07EEF00F00101BC510001BE6FBF6BD9
:10114800BF51000AD8B4ABEF08F094EF08F0BE51D5
:101158002B0AD8B4AEEF02F0060AD8B4B6EF02F004
:101168001C0AD8B4E8EF01F00E0AD8B49FEF00F0DB
:101178007E0AD8B4CDEF07F0110AD8B4C9EF02F04F
:10118800070AD8B47CEF03F00D0AD8B4A9EF01F030
:101198003B0AD8B4CDEF07F0080AD8B4C3EF07F07C
:1011A800060AD8B4A1EF01F01D0AD8B46CEF08F014
:1011B800010AD8B470EF06F0090AD8B4CAEF01F0F2
:1011C80094EF08F027EF00F081C0D9FF82C0DAFF62
:1011D800DECFF6FFDDCFF7FFF86A0800F550250AE5
:1011E800D8A4F9EF08F0FBEF08F08DEF0BF081C001
:1011F800D9FF82C0DAFFDE2A000EDD22000E3A6E29
:10120800000E396E39C03DF03AC03EF03B683C688C
:10121800000E0001926F000E916F5AEF09F03D80A9
:1012280081C0D9FF82C0DAFFDE2A000EDD225AEF24
:1012380009F03D8214EF09F03D8414EF09F03D8672
:1012480014EF09F03D8814EF09F0000E926F010EBB
:10125800916F5AEF09F081C0D9FF82C0DAFFDECF63
:10126800F6FFDDCFF7FFF86A0800F550856F866B4B
:101278008651000AD8B443EF09F029EF09F08551E7
:10128800200AD8B423EF09F0030AD8B426EF09F0EE
:10129800080AD8B420EF09F0060AD8B413EF09F009
:1012A8001D0AD8B41DEF09F029EF09F091519211E8
:1012B800D8B461EF09F063EF09F02FEF09F03DA012
:1012C80068EF09F06AEF09F06BEF09F03D9281C011
:1012D800D9FF82C0DAFFDECFF6FFDDCFF7FFF86A6D
:1012E8000800F5502A0AD8A47CEF09F07EEF09F02F
:1012F800A7EF09F081C0D9FF82C0DAFFDE2A000E0D
:10130800DD2283C0D9FF84C0DAFFDFCF85F0020E6B
:10131800DE26DFCF86F0000EDD2285C0D9FF86C02D
:10132800DAFFDECF39F0DDCF3AF03ABEA0EF09F0B0
:101338009EEF09F0ECEF09F03D80396C3A1ED8B009
:101348003A2AECEF09F081C0D9FF82C0DAFFDECF7C
:101358001BF0DDCF1CF081EC12F01BC039F01CC073
:101368003AF0BEEF09F081C0D9FF82C0DAFFDE2A69
:10137800000EDD22D00E0001856FFF0E866F81C042
:10138800D9FF82C0DAFFDECFF6FFDDCFF7FFF86ABC
:101398000800F550876F886B855187278651882309
:1013A80088510AE10A0E875DD8A0DDEF09F0E0EF69
:1013B80009F0010EE1EF09F0000E936F946B935161
:1013C8009411D8A4EAEF09F0ECEF09F0B7EF09F0AF
:1013D80081C0D9FF82C0DAFFDECFF6FFDDCFF7FF8D
:1013E800F86A0800F550630AD8A4FDEF09F0FFEF8A
:1013F80009F026EF0AF081C0D9FF82C0DAFFDE2AA1
:10140800000EDD2283C0D9FF84C0DAFFDFCF85F06C
:10141800020EDE26DFCF86F0000EDD2285C0D9FF62
:1014280086C0DAFFDF509D6F7FC031F080C032F098
:101438009DC033F0C6EC18F031C07FF032C080F0A8
:10144800A9EF0BF081C0D9FF82C0DAFFDECFF6FF2B
:10145800DDCFF7FFF86A0800F550640AD8B437EF13
:101468000AF039EF0AF04CEF0AF081C0D9FF82C0C8
:10147800DAFFDECFF6FFDDCFF7FFF86A0800F55098
:10148800690AD8A44AEF0AF04CEF0AF08CEF0AF088
:1014980081C0D9FF82C0DAFFDE2A000EDD2283C0B8
:1014A800D9FF84C0DAFFDFCF85F0020EDE26DFCF5A
:1014B80086F0000EDD2285C0D9FF86C0DAFFDECFB8
:1014C80089F0DDCF8AF0000E8ABFFF0E8B6F8C6F1C
:1014D8008D6F8E6F8F6F906F7FC060F080C061F0EE
:1014E80089C062F08AC063F08BC064F08CC065F07C
:1014F8008DC066F08EC067F08FC068F090C069F04C
:10150800AAEC0BF060C07FF061C080F0A9EF0BF08F
:1015180081C0D9FF82C0DAFFDECFF6FFDDCFF7FF4B
:10152800F86A0800F550750AD8A49DEF0AF09FEFF5
:101538000AF0E0EF0AF081C0D9FF82C0DAFFDE2AA4
:10154800000EDD2283C0D9FF84C0DAFFDFCF85F02B
:10155800020EDE26DFCF86F0000EDD2285C0D9FF21
:1015680086C0DAFFDECF87F0DDCF88F087C095F040
:1015780088C096F0976B986B996B9A6B9B6B9C6B7A
:101588007FC060F080C061F095C062F096C063F0E3
:1015980097C064F098C065F099C066F09AC067F08B
:1015A8009BC068F09CC069F091EC0FF060C07FF0C0
:1015B80061C080F0A9EF0BF081C0D9FF82C0DAFFCB
:1015C800DECFF6FFDDCFF7FFF86A0800F550780A9E
:1015D800D8B4F1EF0AF0F3EF0AF006EF0BF081C090
:1015E800D9FF82C0DAFFDECFF6FFDDCFF7FFF86A5A
:1015F8000800F550580AD8A404EF0BF006EF0BF0DA
:1016080055EF0BF081C0D9FF82C0DAFFDECFF6FFBD
:10161800DDCFF7FFF86A0800F5CF9DF081C0D9FF4C
:1016280082C0DAFFDE2A000EDD2283C0D9FF84C023
:10163800DAFFDFCF85F0020EDE26DFCF86F0000E60
:10164800DD2285C0D9FF86C0DAFFDECF87F0DDCF87
:1016580088F087C095F088C096F0976B986B996B67
:101668009A6B9B6B9C6B7FC060F080C061F095C0EB
:1016780062F096C063F097C064F098C065F099C0B6
:1016880066F09AC067F09BC068F09CC069F09DC086
:101698006AF01CEC0DF060C07FF061C080F0A9EF2B
:1016A8000BF081C0D9FF82C0DAFFDECFF6FFDDCFB5
:1016B800F7FFF86A0800F550250AD8A466EF0BF082
:1016C80068EF0BF080EF0BF081C0D9FF82C0DAFF22
:1016D800DE2A000EDD22000E176E250E166E7FC064
:1016E80018F080C019F064EC17F0000E0001806F4C
:1016F800010E7F6FA9EF0BF081C0D9FF82C0DAFF1E
:10170800DE2A000EDD22000E806F000E7F6FA9EF2B
:101718000BF081C0D9FF82C0DAFFDECFF6FFDDCF44
:10172800F7FFF86A0800F550166E176A7FC018F0C0
:1017380080C019F064EC17F081C0D9FF82C0DAFFCD
:10174800DE2A000EDD2279EF0BF0120062C072F083
:1017580063C073F064C074F065C075F066C076F05D
:1017680067C077F068C078F069C079F0000179BF88
:10177800C0EF0BF0C3EF0BF0010EC4EF0BF0000E3F
:10178800706F716B70517111D8B4CDEF0BF0CFEF52
:101798000BF0DFEF0BF0791F781F771F761F751F8F
:1017A800741F731F726D000E7323742375237623C1
:1017B8007723782379233CBEE4EF0BF0E6EF0BF0B8
:1017C800E7EF0BF03D923CBEF4EF0BF03C5006E126
:1017D8003B04D8B0F2EF0BF0F4EF0BF0FAEF0BF09C
:1017E800000E6D6F010E6C6FFEEF0BF03BC06CF0DE
:1017F8003CC06DF039C06EF03AC06FF07051711195
:10180800D8A409EF0CF00BEF0CF012EF0CF03DA48C
:1018180010EF0CF012EF0CF015EF0CF06E07D8A0DB
:101828006F07000E7B6F1F0E7A6F000E01019F6F0E
:101838009BEF0CF07A07D8A07B07800E7A25D96E2B
:10184800010E7B21DA6E72C014F073C015F074C0FB
:1018580016F075C017F076C018F077C019F078C088
:101868001AF079C01BF00A0E1C6E000E1D6E000ED9
:101878001E6E000E1F6E000E206E000E216E000EF2
:10188800226E000E236ECEEC14F014C031F015C099
:1018980032F016C033F017C034F018C035F019C054
:1018A80036F01AC037F01BC038F031C026F033C00C
:1018B80027F060EC19F02650300FDF6E00016C073E
:1018C800D8A06D076E07D8A06F0772C014F073C058
:1018D80015F074C016F075C017F076C018F077C010
:1018E80019F078C01AF079C01BF00A0E1C6E000EB1
:1018F8001D6E000E1E6E000E1F6E000E206E000E76
:10190800216E000E226E000E236E4EEC13F014C0F2
:1019180072F015C073F016C074F017C075F018C0D7
:1019280076F019C077F01AC078F01BC079F0000182
:101938007BBFA7EF0CF07B5108E17A05D8A0A7EF91
:101948000CF0A9EF0CF0D9EF0CF07251731174116F
:1019580075117611771178117911D8A4B6EF0CF0BA
:10196800B8EF0CF01EEF0CF06DBFC5EF0CF06D5129
:1019780006E16C05D8B0C3EF0CF0C5EF0CF01EEF14
:101988000CF06FBFD0EF0CF06F5108E16E05D8A0D6
:10199800D0EF0CF0D2EF0CF0D9EF0CF03DB2D7EF4E
:1019A8000CF0D9EF0CF01EEF0CF070517111D8A4A7
:1019B800E0EF0CF0E2EF0CF0E9EF0CF03DA4E7EFFC
:1019C8000CF0E9EF0CF007EF0DF07A07D8A07B07D1
:1019D80070517111D8A4F3EF0CF0F5EF0CF0FBEF98
:1019E8000CF0000E6B6F2B0E6A6FFFEF0CF0000E01
:1019F8006B6F2D0E6A6F800E7A25D96E010E7B21D2
:101A0800DA6E6AC0DFFF60C026F061C027F0800E82
:101A18007A25286E010E7B21296E6EC02AF06FC0D0
:101A28002BF060EC16F026C060F027C061F01200C1
:101A38003CBE21EF0DF023EF0DF024EF0DF03D92A9
:101A48003CBE31EF0DF03C5006E13B04D8B02FEF1F
:101A58000DF031EF0DF038EF0DF0000E0001706F52
:101A6800010E6F6F3CEF0DF03BC06FF03CC070F0A3
:101A780039C071F03AC072F03DA845EF0DF047EF5C
:101A88000DF04CEF0DF00001FE0E7127FF0E7223D2
:101A980062C073F063C074F064C075F065C076F01E
:101AA80066C077F067C078F068C079F069C07AF0EE
:101AB800000E00017C6F1F0E7B6F000E01019F6FEF
:101AC8001AEF0EF07B07D8A07C070F0E73157D6FF9
:101AD8007E6B7EBF79EF0DF07E5109E10A0E7D5DC8
:101AE800D8A079EF0DF07BEF0DF083EF0DF0570ED6
:101AF8007D257D6F000E7E217E6F89EF0DF0300E03
:101B08007D257D6F000E7E217E6FBF0E316EFF0E2C
:101B1800326E6A51336E346A315033263250342271
:101B280034500AE11A0E335CD8A09DEF0DF0A0EFF7
:101B38000DF0010EA1EF0DF0000E6B6F6C6B6B5189
:101B48006C11D8B4AAEF0DF0ACEF0DF0DCEF0DF08E
:101B58009F0E316EFF0E326E200E7D11336E000E19
:101B68007E11346E315033263250342234500AE11B
:101B78001A0E335CD8A0C3EF0DF0C6EF0DF0010EBE
:101B8800C7EF0DF0000E6D6F6E6B6D516E11D8B40E
:101B9800D0EF0DF0D2EF0DF0DCEF0DF07DC01AF0B4
:101BA8007EC01BF097EC18F01AC07DF01BC07EF0C9
:101BB800800E00017B25D96E010E7C21DA6E7DC076
:101BC800DFFF6F07D8A070077107D8A0720773C02E
:101BD80031F074C032F075C033F076C034F077C09D
:101BE80035F078C036F079C037F07AC038F0050E95
:101BF80007EF0EF0D8903832373236323532343279
:101C0800333232323132E82EFEEF0DF031C073F04C
:101C180032C074F033C075F034C076F035C077F058
:101C280036C078F037C079F038C07AF000017CBF50
:101C380027EF0EF07C5109E1020E7B5DD8A027EF5B
:101C48000EF029EF0EF059EF0EF073517411751163
:101C580076117711781179117A11D8A436EF0EF030
:101C680038EF0EF066EF0DF070BF45EF0EF07051D3
:101C780006E16F05D8B043EF0EF045EF0EF066EFC2
:101C88000DF072BF50EF0EF0725108E17105D8A047
:101C980050EF0EF052EF0EF059EF0EF03DB257EF45
:101CA8000EF059EF0EF066EF0DF03DA85EEF0EF066
:101CB80060EF0EF076EF0EF07B07D8A07C07800E61
:101CC8007B25D96E010E7C21DA6E6AC0DFFF7B07A7
:101CD800D8A07C07800E7B25D96E010E7C21DA6E98
:101CE800300EDF6E60C026F061C027F0800E7B25C5
:101CF800286E010E7C21296E71C02AF072C02BF06B
:101D080060EC16F026C060F027C061F01200C282B5
:101D18000AEC1BF00001D551015C096ED65102583E
:101D28000A6E83EC1BF0010E0F6EC4CF0DF00E6A25
:101D38006FEF0FF04850D8B4A4EF0EF0A6EF0EF0F6
:101D4800B9EF0EF0010E0001D26F000E476E040EBF
:101D5800456E000E406E000E3F6ED50E4A6E050EA3
:101D68004B6E000E486E90EF0FF00001D151D8B4C1
:101D7800C0EF0EF0C2EF0EF090EF0FF0000E466EBF
:101D8800D50E4A6E050E4B6E000E406E000E3F6E6D
:101D9800020E456E90EF0FF00001D451D8A4D7EF92
:101DA8000EF0D9EF0EF090EF0FF03F504A24D96EA5
:101DB80040504B20DA6EDF500B6E0B50016E026AFA
:101DC8007EEC1AF03F4A402A020E40183F10D8A471
:101DD800F0EF0EF0F2EF0EF090EF0FF0000E0001B2
:101DE800D46FD50E4A6E030E4B6ED351D8A4FFEFB5
:101DF8000EF001EF0FF003EF0FF0030E456E0F50DA
:101E0800D8B409EF0FF00CEF0FF0010E0DEF0FF043
:101E1800000E0F6E000E406E000E3F6E4650D8B496
:101E280018EF0FF01AEF0FF090EF0FF0000E466E5C
:101E3800000E456E000ED16F90EF0FF00001D451E7
:101E4800D8A429EF0FF02BEF0FF090EF0FF03F50D1
:101E58004A24D96E40504B20DA6E0DC0DFFF3F4A4E
:101E6800402A020E40183F10D8A43DEF0FF03FEF74
:101E78000FF090EF0FF0010E0001D46FD50E4A6EEF
:101E8800030E4B6ED351D8B44CEF0FF04EEF0FF05A
:101E980050EF0FF0030E456E0F50D8B456EF0FF009
:101EA80059EF0FF0010E5AEF0FF0000E0F6E000EF3
:101EB800406E000E3F6E4750D8B465EF0FF067EFE5
:101EC8000FF090EF0FF0000E476E000ED26F000E6D
:101ED800456E90EF0FF045500B6E0C6A0C50000ADF
:101EE800D8B479EF0FF090EF0FF00B50000AD8B488
:101EF8009EEF0EF0010AD8B4D0EF0EF0030AD8B462
:101F0800D9EF0EF0010AD8B422EF0FF0070AD8B4BF
:101F18002BEF0FF090EF0FF012003CBE96EF0FF092
:101F280098EF0FF099EF0FF03D923CBEA6EF0FF03F
:101F38003C5006E13B04D8B0A4EF0FF0A6EF0FF039
:101F4800ADEF0FF0000E00016B6F010E6A6FB1EF7D
:101F58000FF03BC06AF03CC06BF039C06CF03AC07F
:101F68006DF062C06EF063C06FF064C070F065C061
:101F780071F066C072F067C073F068C074F069C031
:101F880075F0000E0001776F1F0E766F000E0101CD
:101F98009F6F46EF10F07607D8A07707800E76255A
:101FA800D96E010E7721DA6E6EC014F06FC015F08D
:101FB80070C016F071C017F072C018F073C019F035
:101FC80074C01AF075C01BF00A0E1C6E000E1D6E50
:101FD800000E1E6E000E1F6E000E206E000E216E8B
:101FE800000E226E000E236EF8EC15F014C031F0CE
:101FF80015C032F016C033F017C034F018C035F0F1
:1020080019C036F01AC037F01BC038F03150300F05
:10201800DF6E00016A07D8A06B076C07D8A06D07B0
:102028006EC014F06FC015F070C016F071C017F0D4
:1020380072C018F073C019F074C01AF075C01BF0A4
:102048000A0E1C6E000E1D6E000E1E6E000E1F6E18
:10205800000E206E000E216E000E226E000E236E02
:1020680080EC15F014C06EF015C06FF016C070F05B
:1020780017C071F018C072F019C073F01AC074F06C
:102088001BC075F0000176517711D8B44EEF10F0EF
:1020980050EF10F080EF10F06E516F117011711148
:1020A8007211731174117511D8A45DEF10F05FEF00
:1020B80010F0CFEF0FF06BBF6CEF10F06B5106E133
:1020C8006A05D8B06AEF10F06CEF10F0CFEF0FF0A0
:1020D8006DBF77EF10F06D5108E16C05D8A077EF70
:1020E80010F079EF10F080EF10F03DB27EEF10F0B5
:1020F80080EF10F0CFEF0FF060C026F061C027F03E
:10210800800E7625286E010E7721296E6CC02AF084
:102118006DC02BF060EC16F026C060F027C061F0AF
:1021280012000C0E0001A66FF40EA76FACEC1AF0AB
:102138004A0E0001A66FF40EA76FACEC1AF0880ED9
:102148000001A66FF40EA76FACEC1AF0C60E0001E2
:10215800A66FF40EA76FACEC1AF0040E0001A66F80
:10216800F50EA76FACEC1AF0420E0001A66FF50E43
:10217800A76FACEC1AF0800E0001A66FF50EA76FE2
:10218800ACEC1AF0FC0E0001A66FF50EA76FACECD4
:102198001AF0780E0001A66FF60EA76FACEC1AF0D5
:1021A800F40E0001A66FF60EA76FACEC1AF0320E13
:1021B8000001A66FF70EA76FACEC1AF0AE0E000187
:1021C800A66FF70EA76FACEC1AF0680E0001A66FA9
:1021D800F80EA76FACEC1AF0A60E0001A66FF80E69
:1021E800A76FACEC1AF0600E0001A66FF90EA76F8E
:1021F800ACEC1AF09E0E0001A66FF90EA76FACECBE
:102208001AF0DC0E0001A66FF90EA76FACEC1AF0FD
:102218001A0E0001A66FFA0EA76FACEC1AF0580E52
:102228000001A66FFA0EA76FACEC1AF0220E00019F
:10223800A66FF90EA76FACEC1AF0220E0001A66F7C
:10224800F90EA76FACEC1AF0E40E0001A66FF80EB9
:10225800A76FACEC1AF0EC0E0001A66FF70EA76F93
:10226800ACEC1AF02A0E0001A66FF80EA76FACECC2
:102278001AF0700E0001A66FF70EA76FACEC1AF0FB
:10228800B60E0001A66FF60EA76FACEC1AF03A0E68
:102298000001A66FF60EA76FACEC1AF0BE0E000197
:1022A800A66FF50EA76FACEC1AF0800E0001A66FB2
:1022B800F50EA76FACEC1AF0420E0001A66FF50EF2
:1022C800A76FACEC1AF0040E0001A66FF50EA76F0D
:1022D800ACEC1AF0C60E0001A66FF40EA76FACECBA
:1022E8001AF0880E0001A66FF40EA76FACEC1AF076
:1022F8004A0E0001A66FF40EA76FACEC1AF00C0E94
:102308000001A66FF40EA76FACEC1AF01200F30EE2
:102318000001A66FFF0EA76FACEC1AF0000E0001CB
:10232800BD6F000EBC6FBC51BD11D8B49EEF11F04B
:10233800A0EF11F0B5EF11F0070EBC15B66F000E47
:10234800BD15B76FB651B711D8A4ADEF11F0AFEF07
:1023580011F0B5EF11F08F0EA66FFF0EA76FACEC62
:102368001AF00001BC51BD11D8B4BDEF11F0BFEF98
:1023780011F018EF12F00F0EBC15B66F000EBD1558
:10238800B76FB651B711D8A4CCEF11F0CEEF11F05A
:1023980018EF12F08E0EA66FFF0EA76FACEC1AF0B6
:1023A800F00E0001BC25B86FFF0EBD21B96F07EF15
:1023B80012F0B851B425D96EB951B521DA6E200E94
:1023C800DF60E9EF11F0EBEF11F0F3EF11F07F0EA2
:1023D800A66FF30EA76FACEC1AF004EF12F0F70E2D
:1023E800A66FFF0EA76FB851B425D96EB951B521A4
:1023F800DA6EDF50B66FB651A86FA96BACEC1AF065
:102408000001B84BB92BBC51B85DBD51B959D8A022
:1024180010EF12F012EF12F0DDEF11F0AE0EA66F12
:10242800FF0EA76FACEC1AF0E80E0001A66FFF0EC6
:10243800A76FBC51B425D96EBD51B521DA6EDF50F6
:10244800B66FB651A86FA96BACEC1AF00001BC4B83
:10245800BD2B020EBD5DD8A034EF12F036EF12F09E
:1024680097EF11F08D0EA66FFF0EA76FACEC1AF068
:10247800F00E0001BC25BA6FFF0EBD21BB6F6FEFD8
:1024880012F0BA51B425D96EBB51B521DA6E200EBF
:10249800DF6051EF12F053EF12F05BEF12F07F0E96
:1024A800A66FF30EA76FACEC1AF06CEF12F0F70EF4
:1024B800A66FFF0EA76FBA51B425D96EBB51B521CF
:1024C800DA6EDF50B66FB651A86FA96BACEC1AF094
:1024D8000001BA4BBB2BBC51BA5DBD51BB59D8A04A
:1024E80078EF12F07AEF12F045EF12F0AE0EA66F09
:1024F800FF0EA76FACEC1AF01200000E296E000E4A
:10250800286E000E226E000E216E8DEF12F01B4A0F
:102518001C2A010E276E1BC0F6FF1CC0F7FFF86AC5
:102528000800F550200AD8B49CEF12F09EEF12F084
:10253800BCEF12F0F70E1D6EFF0E1E6E1BC0F6FFED
:102548001CC0F7FFF86A0800F5501F6E206A1D507E
:102558001F261E502022205009E1050E1F5CD8A01E
:10256800B8EF12F0BAEF12F0BCEF12F0000E276EBF
:1025780027C023F0246A23502410D8A4C6EF12F0F1
:10258800C8EF12F08BEF12F0D2EF12F0000E226EAD
:10259800010E216E1B4A1C2A09EF13F01BC0F6FF1F
:1025A8001CC0F7FFF86A0800F5501D6E1E6A1E5021
:1025B800000AD8B4E2EF12F009EF13F01D502B0A0D
:1025C800D8B4CEEF12F0060AD8B4CAEF12F009EF69
:1025D80013F028C014F029C015F0000E176E0A0E6B
:1025E800166EE7EC1AF01BC0F6FF1CC0F7FFF86A7E
:1025F8000800F550145E000E155A300E1424286E8B
:10260800000E1520296ECEEF12F0D00E1D6EFF0EB3
:102618001E6E1BC0F6FF1CC0F7FFF86A0800F550D5
:102628001F6E206A1D501F261E50202220500AE1CE
:102638000A0E1F5CD8A023EF13F026EF13F0010E4B
:1026480027EF13F0000E256E266A25502610D8A411
:1026580030EF13F032EF13F0EDEF12F021502210AB
:10266800D8A439EF13F03BEF13F049EF13F028C06B
:102678001DF029C01EF01D1E1E1E1D4A1E2A1DC04B
:102688001BF01EC01CF04DEF13F028C01BF029C032
:102698001CF01200000E256E23BE57EF13F055EF05
:1026A80013F069EF13F0231E221E211E201E1F1E89
:1026B8001E1E1D1E1C6C000E1D221E221F22202203
:1026C800212222222322010E256E1BBE70EF13F059
:1026D8006EEF13F082EF13F01B1E1A1E191E181E40
:1026E800171E161E151E146C000E15221622172210
:1026F800182219221A221B22010E251A20EE26F072
:10270800070EDE6AE806FDE21C501D101E101F10A1
:102718002010211022102310D8B495EF13F097EF52
:1027280013F0E9EF13F0010E246EA5EF13F0D89023
:102738001C361D361E361F362036213622362336E5
:10274800242A23AEAAEF13F0ACEF13F09BEF13F09B
:10275800D89026362736283629362A362B362C3670
:102768002D361C50145C1D5015581E5016581F50FD
:102778001758205018582150195822501A582350C9
:102788001B58D8A0CAEF13F0CCEF13F0DDEF13F00D
:102798001C50145E1D50155A1E50165A1F50175AB9
:1027A8002050185A2150195A22501A5A23501B5A8D
:1027B8002680D89023322232213220321F321E3214
:1027C8001D321C32242EACEF13F02550D8B4EFEF95
:1027D80013F0F1EF13F001EF14F02D1E2C1E2B1E39
:1027E8002A1E291E281E271E266C000E2722282294
:1027F80029222A222B222C222D2226C014F027C07F
:1028080015F028C016F029C017F02AC018F02BC000
:1028180019F02CC01AF02DC01BF012000001B66F81
:10282800000E0001B56F000EB46FFF0E27EC1BF011
:102838000001B44BB52BB5BF2BEF14F0B55109E12E
:102848000A0EB45DD8A02BEF14F02DEF14F019EF99
:1028580014F08A98FF0E27EC1BF0400E27EC1BF0B3
:10286800000E27EC1BF0000E27EC1BF0000E27ECE7
:102878001BF0000E27EC1BF0950E27EC1BF0FF0E4B
:1028880027EC1BF0FF0E27EC1BF00001B76F8A88BE
:10289800B605D8A452EF14F054EF14F05DEF14F01D
:1028A800060EA66FFE0EA76FB7C0A8F0A96BACEC1A
:1028B8001AF08A98FF0E27EC1BF0410E27EC1BF04C
:1028C800000E27EC1BF0000E27EC1BF0000E27EC87
:1028D8001BF0000E27EC1BF0FF0E27EC1BF0FF0E81
:1028E80027EC1BF0FF0E27EC1BF00001B76F8A885E
:1028F800B751D8A482EF14F084EF14F05DEF14F010
:10290800B605D8A48AEF14F08CEF14F095EF14F004
:102918003C0EA66FFE0EA76FB7C0A8F0A96BACEC73
:102928001AF08A98FF0E27EC1BF0500E27EC1BF0CC
:10293800000E27EC1BF0000E27EC1BF0020E27EC14
:102948001BF0000E27EC1BF0FF0E27EC1BF0FF0E10
:1029580027EC1BF0FF0E27EC1BF00001B76F8A88ED
:10296800B729D8B4BAEF14F0BCEF14F095EF14F00F
:10297800B605D8A4C2EF14F0C4EF14F0CDEF14F0EC
:10298800CE0EA66FFD0EA76FB7C0A8F0A96BACEC72
:102998001AF01200000E256E1BBED7EF14F0D5EF0B
:1029A80014F0E9EF14F01B1E1A1E191E181E171E2C
:1029B800161E151E146C000E152216221722182238
:1029C80019221A221B22010E256E23BEF0EF14F0E5
:1029D800EEEF14F000EF15F0231E221E211E201E1C
:1029E8001F1E1E1E1D1E1C6C000E1D221E221F22D5
:1029F80020222122222223221C501D101E101F10CB
:102A08002010211022102310D8B40DEF15F00FEF6D
:102A180015F057EF15F0010E246E1DEF15F0D89044
:102A28001C361D361E361F362036213622362336F2
:102A3800242A23AE22EF15F024EF15F013EF15F03A
:102A48001C50145C1D5015581E5016581F5017580E
:102A5800205018582150195822501A5823501B58E2
:102A6800D8A039EF15F03BEF15F04BEF15F01C50DF
:102A7800145E1D50155A1E50165A1F50175A2050D2
:102A8800185A2150195A22501A5A23501B5AD890B2
:102A980023322232213220321F321E321D321C32A2
:102AA800242E24EF15F02550D8B45DEF15F05FEF14
:102AB80015F06FEF15F01B1E1A1E191E181E171E93
:102AC800161E151E146C000E152216221722182227
:102AD80019221A221B2214C014F015C015F016C0B2
:102AE80016F017C017F018C018F019C019F01AC05E
:102AF8001AF01BC01BF0120020EE24F0070EDE6A4D
:102B0800E806FDE21C501D101E101F102010211099
:102B180022102310D8B493EF15F095EF15F0E7EFD6
:102B280015F0010E2C6EA3EF15F0D8901C361D364B
:102B38001E361F3620362136223623362C2A23AE5F
:102B4800A8EF15F0AAEF15F099EF15F0D8902436F4
:102B5800253626362736283629362A362B361C506F
:102B6800145C1D5015581E5016581F5017582050E9
:102B780018582150195822501A5823501B58D8A0B9
:102B8800C8EF15F0CAEF15F0DBEF15F01C50145E16
:102B98001D50155A1E50165A1F50175A2050185AB1
:102BA8002150195A22501A5A23501B5A2480D8905F
:102BB80023322232213220321F321E321D321C3281
:102BC8002C2EAAEF15F024C014F025C015F026C04D
:102BD80016F027C017F028C018F029C019F02AC02D
:102BE8001AF02BC01BF012001C501D101E101F10D5
:102BF8002010211022102310D8B405EF16F007EF8B
:102C080016F04FEF16F0010E246E15EF16F0D8905F
:102C18001C361D361E361F36203621362236233600
:102C2800242A23AE1AEF16F01CEF16F00BEF16F05D
:102C38001C50145C1D5015581E5016581F5017581C
:102C4800205018582150195822501A5823501B58F0
:102C5800D8A031EF16F033EF16F043EF16F01C5002
:102C6800145E1D50155A1E50165A1F50175A2050E0
:102C7800185A2150195A22501A5A23501B5AD890C0
:102C880023322232213220321F321E321D321C32B0
:102C9800242E1CEF16F014C014F015C015F016C041
:102CA80016F017C017F018C018F019C019F01AC09C
:102CB8001AF01BC01BF012003DA065EF16F067EF7D
:102CC80016F071EF16F028C01FF029C020F026C0BA
:102CD80021F027C022F03EEC19F02BBE76EF16F05B
:102CE80078EF16F07EEF16F02AC02FF02BC030F0E8
:102CF80082EF16F0000E306E000E2F6E000E2E6E54
:102D0800000E2D6E94EF16F0000E176E200E166E44
:102D180026C018F027C019F064EC17F02D4A2E2AA7
:102D28002F502D5C2E50800A2C6E3050800A2C5863
:102D3800D8A0A1EF16F0A3EF16F088EF16F03DB07B
:102D4800A8EF16F0AAEF16F0B4EF16F028C01FF09F
:102D580029C020F026C021F027C022F03EEC19F04F
:102D680028C014F029C015F048EC1AF02F5014248C
:102D7800266E30501520276E1200156E6CBAC7EFFC
:102D880016F0C9EF16F016EF17F01550040D010EE6
:102D9800F326000EF422310EF324F66EF30EF4201F
:102DA800F76EF86A000EF8220800F5CF6DFF15508F
:102DB800040D310EF324F66EF30EF420F76EF86A64
:102DC800000EF8220800F5CF6CFF000E6B6E155050
:102DD800040D020EF326000EF422310EF324F66ED3
:102DE800F30EF420F76EF86A000EF8220800F5CF0B
:102DF8006EFF1550040D030EF326000EF422310E5B
:102E0800F324F66EF30EF420F76EF86A000EF8223B
:102E18000800F5CF14F0144693501418FD0B14183D
:102E2800936E6C8A12008A98FF0E27EC1BF0510EE5
:102E380027EC1BF0185027EC1BF0175027EC1BF061
:102E4800165027EC1BF0155027EC1BF0FF0E27EC53
:102E58001BF0FF0E27EC1BF0FF0AD8B436EF17F073
:102E680038EF17F02DEF17F0FF0E27EC1BF0FF0AD5
:102E7800D8B441EF17F043EF17F038EF17F0000E12
:102E88001C6E000E1B6E1B501924D96E1C501A2084
:102E9800DA6EFF0E27EC1BF0DF6E1B4A1C2A020EAF
:102EA8001C5CD8A05AEF17F05CEF17F047EF17F04B
:102EB800FF0E27EC1BF0FF0E27EC1BF08A88120090
:102EC80018501910D8B46BEF17F06DEF17F076EFB4
:102ED80017F018501910D8A474EF17F076EF17F000
:102EE8007BEF17F016507EEC1BF0AEEF17F020EEDC
:102EF80004F01850D9261950DA22DE50DE10D8B462
:102F080088EF17F08AEF17F0A5EF17F020EE04F01E
:102F18001850D9261950DA2210EE02F01850E1267E
:102F28001950E222DE50E65CE650800A1E6EDE5042
:102F3800800A1E58D8B0A3EF17F0A5EF17F0AEEF30
:102F480017F020EE02F01850D9261950DA22DE2A9E
:102F5800000EDD2212008A98FF0E27EC1BF0580E97
:102F680027EC1BF0185027EC1BF0175027EC1BF030
:102F7800165027EC1BF0155027EC1BF0FF0E27EC22
:102F88001BF0FF0E27EC1BF0FF0AD8B4CEEF17F0AA
:102F9800D0EF17F0C5EF17F0FF0E27EC1BF0FF0E70
:102FA80027EC1BF0FF0E27EC1BF0FE0E27EC1BF0A6
:102FB800000E1C6E000E1B6E1B501924D96E1C507F
:102FC8001A20DA6EDF5027EC1BF01B4A1C2A020E6F
:102FD8001C5CD8A0F2EF17F0F4EF17F0E0EF17F051
:102FE8008A8812001A0EF66E370EF76E000EF86E0B
:102FF8000900F5CFD5F00900F5CFD6F0180EF66E1A
:10300800370EF76E000EF86E0900F5CF4AF009008A
:10301800F5CF4BF001EED5F018EE00F0EE6AE55072
:10302800E150FCE1E250FAE101EE00F0A00EEE6A98
:10303800E806FDE100EEC2F0130EEE6AE806FDE1D7
:1030480000EE39F0110EEE6AE806FDE14C904C9264
:10305800000129EF00F0800E0001A66FFF0EA76F98
:10306800ACEC1AF0EE0E0001A66FFF0EA76FB6C00B
:10307800A8F0B7C0A9F0AA6BAB6BACEC1AF0FD0EC8
:103088000001A66FFF0EA76FACEC1AF0EE0E000160
:10309800A66FFF0EA76FFF0EB415A86FFF0EB5152C
:1030A800A96F000EB615AA6F000EB715AB6FACEC82
:1030B8001AF0AE0E0001A66FFF0EA76FACEC1AF067
:1030C8001200A0C0A4F0A1C0A5F0000E0001C76FB7
:1030D800000EC66F83EF18F09EC07FF09FC080F08F
:1030E800A40E816F000E826FA2C083F0A3C084F08B
:1030F800E8EC08F000017F51C6278051C723A4C01F
:10310800F6FFA5C0F7FFF86A0800F5500009D8A433
:1031180090EF18F092EF18F070EF18F0C6C09EF01C
:10312800C7C09FF012009F0E1C6EFF0E1D6E1AC0C6
:103138001EF01BC01FF01C501E261D501F221F50C2
:103148000AE11A0E1E5CD8A0ACEF18F0AFEF18F029
:10315800010EB0EF18F0000E206E216A20502110E9
:10316800D8B4B9EF18F0BBEF18F0C1EF18F05F0E44
:103178001A141A6E1B6AC5EF18F01AC01AF01BC091
:103188001BF0120039503A10D8A4CDEF18F0CFEF49
:1031980018F0D5EF18F039C034F03AC035F0DBEF4D
:1031A80018F0FF0E3924346EFF0E3A20356E33C006
:1031B80080F1000E0101816F31C026F032C027F086
:1031C800800E286E010E296E34C02AF035C02BF00F
:1031D80060EC16F026C031F027C032F01200010E64
:1031E8001A6E200E14181510D8B4FDEF18F0FFEF62
:1031F80018F018EF19F0F70E166EFF0E176E14C0C0
:1032080018F015C019F01650182617501922195021
:1032180009E1050E185CD8A014EF19F016EF19F0A3
:1032280018EF19F0000E1A6E1AC014F0156A120081
:10323800000E1426020E1522000E1622000E17226A
:10324800040E175CD8A02BEF19F02DEF19F035EF0D
:1032580019F0000E146E000E156E000E166E000E9C
:10326800176E14C014F015C015F016C016F017C06C
:1032780017F01200000E256E000E246E4FEF19F0A5
:1032880023C016F0176A21C018F022C019F064ECA8
:1032980017F0244A252A24501F24D96E25502020AF
:1032A800DA6EDF50236E2350D8A45DEF19F05FEF7C
:1032B80019F044EF19F0120027BE6DEF19F02750EE
:1032C80006E12604D8B06BEF19F06DEF19F07BEF2B
:1032D80019F026C028F027C029F0281E291E284AE0
:1032E800292A28C026F029C027F07FEF19F026C028
:1032F80026F027C027F01200080EB86E900EAB6EAD
:10330800240EAC6E820EAF6E060EB06E000E146EFA
:10331800000E156E74EC1BF0000E146E000E156E88
:103328006FEC1BF0000E146E000E156E79EC1BF09E
:10333800000E496E12009F0E166EFF0E176E200EBD
:103348001410186E000E1510196E16501826175006
:10335800192219500AE11A0E185CD8A0B6EF19F014
:10336800B9EF19F0010EBAEF19F0000E146E156AD4
:1033780012008A980D0E27EC1BF0156E8A88152806
:10338800D8A4C9EF19F0CBEF19F0CEEF19F0FF0E62
:10339800D8EF19F0FF0E27EC1BF0FF0E27EC1BF0FF
:1033A800FF0E27EC1BF0155012009F0E166EFF0E35
:1033B800176E14C018F015C019F0165018261750BB
:1033C800192219500AE11A0E185CD8A0EEEF19F06C
:1033D800F1EF19F0010EF2EF19F0000E146E156AF4
:1033E8001200BF0E166EFF0E176E14C018F015C02F
:1033F80019F0165018261750192219500AE11A0EFA
:10340800185CD8A00AEF1AF00DEF1AF0010E0EEFB3
:103418001AF0000E146E156A1200D00E166EFF0E0A
:10342800176E14C018F015C019F01650182617504A
:10343800192219500AE10A0E185CD8A026EF1AF0D2
:1034480029EF1AF0010E2AEF1AF0000E146E156A11
:103458001200D59C000ED76E000ED66ED650D7CF70
:1034680016F0176A16C017F0166A1610416E175034
:10347800426EF294F28A1C0E146E370E156E6AECC8
:103488001BF09F0ED56E120014C016F015C017F071
:1034980050EF1AF0144A152A14C0D9FF15C0DAFFE4
:1034A800DF50D8A45AEF1AF05CEF1AF04EEF1AF07A
:1034B8001650145C146E17501558156E1200F294BD
:1034C8004250D76E41C0D6FF43504410D8B46FEF76
:1034D8001AF071EF1AF07DEF1AF002D87DEF1AF0AA
:1034E8000500FA6E4350FD6E4450FE6EFF6AFA50B6
:1034F8001200120001C003F002C004F0D890043298
:103508000332D890043203320350BE6E01C003F078
:10351800030E0316033AF00E0316BD50CF0B03102B
:10352800BD6E1200000E896E000E8A6E000E8B6E44
:103538009268E50E936EBB0E946E3C0E0F013A6FC7
:10354800310E396F2F0E386F000E616EF18E12003A
:10355800A80E0001B26F000EB36F000E9E6F000E32
:103568009F6FA6C0A0F0A7C0A1F0B20EA26F000E78
:10357800A36F65EC18F012009EAAC5EF1AF0C7EF0A
:103588001AF0C0EF1AF0000E496EABA2CEEF1AF097
:10359800D0EF1AF0D2EF1AF0AB98AB88AE50120009
:1035A80088EC1BF054EC1BF096EC1AF019EC1BF0AD
:1035B80034EC1BF0FAEC1AF05DEC1BF02DEC1AF071
:1035C80080EC19F0120014501602F3CF18F0F4CF63
:1035D80019F014501702F350192615501602F3501B
:1035E800192618C014F019C015F012003C0EBD6E53
:1035F800000EB66E800EB76E010EB96E000EBF6E6D
:103608001F0EBE6EFC0E0F0149171200D6CF07F031
:10361800D7CF08F00850036E0750056E03C006F0B8
:1036280005C001F006C002F01200700ED36E040E41
:10363800D26E400E9B6ED2AE24EF1BF026EF1BF02D
:103648001FEF1BF01200146E14C06FFFA4AE2FEF13
:103658001BF031EF1BF02AEF1BF0A49E6F501200F5
:10366800000EC16E260EC06E000EC36E000EC46E34
:10367800110EC26E1200146E9EA845EF1BF047EFA4
:103688001BF040EF1BF014C0ADFF12009EBA4FEFC5
:103698001BF052EF1BF0010E53EF1BF0000E12004F
:1036A800400E6D6E010E6C6E010E6E6E93926C9AEA
:1036B80012003F0EBB6E000EBC6E9E921C0EBA6EC0
:1036C80012001550D76E14C0D6FF120014C043F074
:1036D80015C044F0120014C0CCF015C0CDF0120093
:1036E80014C0CEF015C0CFF0120014C0CAF015C037
:1036F800CBF01200156E15503FEC1BF012000A506B
:10370800D76E09C0D6FF1200D09E12006C9A120024
:06371800D5054006120079
:10F3160000809FBBD5E9F8FFFFF8E9D5BB9F806168
:10F32600452B1708010108172B45610140010050C4
:10F336007265737320616E79206B657920746F2016
:10F346007374617274207265636F7264696E67208C
:10F35600617564696F20616E6420707265737320D5
:10F36600616E79206B657920746F2073746F7020DD
:10F376007265636F7264696E672E004C6F672066F4
:10F38600696C65206E616D653A2042726F777365B0
:10F3960020616E642070726F766964652061202E2C
:10F3A60063737620657874656E73696F6E20746F0B
:10F3B60020796F75722066696C65206E616D650DCA
:10F3C6000A00546F2073706F6F6C207465726D69DC
:10F3D6006E616C20636F6E74656E747320696E74F3
:10F3E6006F20612066696C6520666F6C6C6F772094
:10F3F600746865736520696E737472756374696F7A
:10F406006E733A0D0A002E2E2E2E2E2E2E2E2E2EF8
:10F416002E2E2E2E2E2E2E2E2E2E2E2E2E2E2E2E06
:10F426002E2E2E2E2E2E2E2E2E2E2E2E2E2E2E2EF6
:10F436002E2E2E2E2E2E2E2E2E2E2E2E2E2E2E2EE6
:10F446002E0D0A002E2E2E2E2E2E2E2E2E2E2E2E49
:10F456002E2E2E2E2E2E2E2E2E3F3F3F3F3F3F3F4F
:10F466003F3F3F3F3F3F3F3F3F3F2E2E2E2E2E2E0C
:10F476002E2E2E2E2E2E2E2E2E2E2E2E2E2E2E0DC7
:10F486000A002E2E2E2E2E2E2E2E2E2E2E2E2E2EE8
:10F496002E2E2E3F3F3F3F3F3F3F3F3F3F3F3F3FA9
:10F4A6003F3F3F3F3F3F3F3F3F3F3F3F2E2E2E2EAA
:10F4B6002E2E2E2E2E2E2E2E2E2E2E2E2E0D0A00D9
:10F4C6002E2E2E2E2E2E2E2E2E2E2E2E2E2E3F3F34
:10F4D6003F3F3F3F3F3F3F3F3F3F3F3F3F3F3F3F36
:10F4E6003F3F3F3F3F3F3F3F3F3F3F3F3F2E2E2E59
:10F4F6002E2E2E2E2E2E2E2E2E2E2E0D0A002E2E99
:10F506002E2E2E2E2E2E2E2E2E2E3F3F3F3F3F3FAF
:10F516003F3F3F3F3F3F3F3F3F3F3F3F3F3F3F3FF5
:10F526003F3F3F3F3F3F3F3F3F3F3F3F3F2E2E2E18
:10F536002E2E2E2E2E2E2E2E2E0D0A002E2E2E2E58
:10F546002E2E2E2E2E2E3F3F3F3F3F3F3F3F3F3F2B
:10F556003F3F3F3F3F3F3F3F3F3F3F3F3F3F3F3FB5
:10F566003F3F3F3F3F3F3F3F3F3F3F3F3F2E2E2ED8
:10F576002E2E2E2E2E2E2E0D0A002E2E2E2E2E2E18
:10F586002E2E2E3F3F3F3F3F3F3F3F3F3F3F3F3FB8
:10F596003F3F3F3F3F3F3F3F3F3F3F3F3F3F3F3F75
:10F5A6003F3F3F3F3F3F3F3F3F3F3F3F2E2E2E2EA9
:10F5B6002E2E2E2E2E0D0A002E2E2E2E2E2E2E3FC7
:10F5C6003F3F3F3F3F3F3F3F3F3F3F3F3F3F3F3F45
:10F5D6003A3A3A3A3A3A3A3A3A3A3A3F3F3F3F3F6C
:10F5E6003F3F3F3F3F3F3F3F3F3F3F3F2E2E2E2E69
:10F5F6002E2E2E0D0A002E2E2E2E2E2E2E3F3F3F65
:10F606003F3F3F3F3F3F3F3F3F3F3F3F3F3F3F3F04
:10F616003F3F3F3F3F3F3F3F3F3F3F3F3F3F3F3FF4
:10F626003F3F3F3F3F3F3F3F3F3F2E2E2E2E2E2E4A
:10F636002E0D0A002E2E2E2E2E2E3F3F3F3F3F3FF1
:10F646003F3F3F3F3F3F3F3F3F3A3A3A3A3A3F3FDD
:10F656003F3F3F3F3F3A3A3A3A3A3F3F3F3F3F3FCD
:10F666003F3F3F3F3F3F3F3F3F2E2E2E2E2E2E0D3C
:10F676000A002E2E2E2E2E2E3F3F3F3F3F3F3F3F6E
:10F686003F3F3F3F3F3F3F3F3F3F3F3F3F3F3F3F84
:10F696003F3F3F3F3F3F3F3F3F3F3F3F3F3F3F3F74
:10F6A6003F3F3F3F3F3F3F2E2E2E2E2E2E0D0A0070
:10F6B6002E2E2E2E2E3F3F3F3F3F3F3F3F3F3F3FA9
:10F6C6003F3F3F3A3A3A3A3F3F3F3F3F3F3F3F3F58
:10F6D6003F3F3F3F3A3A3A3A3F3F3F3F3F3F3F3F48
:10F6E6003F3F3F3F3F3F2E2E2E2E2E0D0A002E2E41
:10F6F6002E2E2E3F3F3F3F3F3F3F3F3F3F3F3F3F47
:10F706003F3F3F3F3F3F3F3F3F3F3F3F3F3F3F3F03
:10F716003F3F3F3F3F3F3F3F3F3F3F3F3F3F3F3FF3
:10F726003F3F3F3F2E2E2E2E2E0D0A002E2E2E2E22
:10F736003F3F3F3F3A3A3A3A3A3A3A3A3A3A3A3F0A
:10F746003F3F3F3F3F3F3F3F3F3F3F3F3F3F3F3FC3
:10F756003F3F3F3F3A3A3A3A3A3A3A3A3A3A3A3FEA
:10F766003F3F3F2E2E2E2E0D0A002E2E2E2E3F3FD1
:10F776003F3F3F3F3F3F3F3F3F3F3F3F3A3A3A3FA2
:10F786003F3F3F3F3F3F3F3F3F3F3F3F3F3F3F3F83
:10F796003A3A3A3F3F3F3F3F3F3F3F3F3F3F3F3F82
:10F7A6003F2E2E2E2E0D0A002E2E2E3F3F3A3A3A8F
:10F7B6003A3A3A3A3A3A3A3A3A3A3A3A3A3A3A3AA3
:10F7C6003A3F3F3F3F3F3F3F3F3F3A3A3A3A3A3A66
:10F7D6003A3A3A3A3A3A3A3A3A3A3A3A3A3A3F3F79
:10F7E6002E2E2E0D0A002E2E2E3F3F3F3F3F3F3F2F
:10F7F6003F3F3F3F3F3F3A3A3A3F3F3F3F3F3F3F22
:10F806003F3F3F3F3F3F3F3F3F3F3F3F3F3F3A3A0C
:10F816003A3F3F3F3F3F3F3F3F3F3F3F3F3F2E2E19
:10F826002E0D0A002E2E2E2E3F3F3F3F3F3F3F3FDD
:10F836003F3F3F3F3F3A3A3A3F3F3F3F3F3F3F3FE1
:10F846003F3F3F3F3F3F3F3F3F3F3F3A3A3A3F3FD1
:10F856003F3F3F3F3F3F3F3F3F3F3F3F2E2E2E0D17
:10F866000A002E2E3F3F3F3A3A3A3A3A3A3A3A3A65
:10F876003A3A3A3A3A3A3A3A3A3A3A3A3A3A3A3AE2
:10F886003A3A3A3A3A3A3A3A3A3A3A3A3A3A3A3AD2
:10F896003A3A3A3A3A3A3A3A3F3F3F2E2E0D0A0062
:10F8A6002E2E3F3F3F3F3A3A3A3A3A3A3A3A3A3AB6
:10F8B6003A3A3A3A3A3A3A3A3A3A3A3A3F3F3F3A93
:10F8C6003A3A3A3A3A3A3A3A3A3A3A3A3A3A3A3A92
:10F8D6003A3A3A3A3A3F3F3F3F2E2E0D0A002E2E35
:10F8E6002E3F3F3F3F3F3F3F3F3F3F3F3F3F3F3F33
:10F8F6003F3F3F3F3F3F3F3F3F3F3F3F3F3F3F3F12
:10F906003F3F3F3F3F3F3F3F3F3F3F3F3F3F3F3F01
:10F916003F3F3F3F3F3F3F2E2E0D0A002E2E3F3FDB
:10F926003F3F3F3F3F3F3F3F3F3F3F3F3F3F3F3FE1
:10F936003F3F3F3F3F3F3F3F3F3F3F3F3F3F3F3FD1
:10F946003F3F3F3F3F3F3F3F3F3F3F3F3F3F3F3FC1
:10F956003F3F3F3F3F2E2E0D0A002E3F3F3F3F3F8A
:10F966003F3A3A3A3A3A3A3A3A3A3A3A3A3A3A3AEC
:10F976003A3A3A3A3A3F3F3F3F3F3A3A3A3A3A3AC8
:10F986003A3A3A3A3A3A3A3A3A3A3A3A3A3A3A3FCC
:10F996003F3F3F3F2E0D0A002E3F3F3F3F3F3F3F39
:10F9A6003A3A3A3A3A3A3A3A3A3A3A3A3A3A3A3AB1
:10F9B6003A3A3F3F3F3F3F3F3F3A3A3A3A3A3A3A7E
:10F9C6003A3A3A3A3A3A3A3A3A3A3A3A3F3F3F3F7D
:10F9D6003F3F2E0D0A002E3F3F3F3F3F3F3F3A3A03
:10F9E6003A3A3A3A3A3A3A3A3A3A3A3A3A3A3A3F6C
:10F9F6003F3F3F3F3F3F3F3F3A3A3A3A3A3A3A3A39
:10FA06003A3A3A3A3A3A3A3A3A3A3F3F3F3F3F3F32
:10FA16002E0D0A002E3F3F3F3F3F3F3F3F3A3A3AC7
:10FA26003A3A3A3A3A3A3A3A3A3A3A3A3F3F3F3F1C
:10FA36003F3F3F3F3F3F3F3A3A3A3A3A3A3A3A3AFD
:10FA46003A3A3A3A3A3A3F3F3F3F3F3F3F3F2E0D21
:10FA56000A002E3F3F3F3F3F3F3F3F3F3F3A3A3A44
:10FA66003A3A3A3A3A3A3A3F3F3F3F3F3F3F3F3FC3
:10FA76003F3F3F3F3F3F3F3F3A3A3A3A3A3A3A3AB8
:10FA86003A3A3F3F3F3F3F3F3F3F3F3F2E0D0A0041
:10FA9600596F75206D6179207465726D696E617438
:10FAA600652073706F6F6C696E6720617420616E7C
:10FAB6007974696D6520776974682061206B657952
:10FAC6002070726573732E0D0A0052696768742080
:10FAD6006D6F75736520636C69636B206F6E207440
:10FAE6006865207570706572206C656674206F6637
:10FAF600207468652050755454592077696E646F78
:10FB0600770D0A00313A207772697465206120709A
:10FB16006572666563742032362076616C75652081
:10FB260073696E65207761766520746F20746865E9
:10FB360020534420636172640D0A000D0A2D2D2D99
:10FB46002D2D2D2D2D2D2D2D2D2D2D2D2D2D2D2DDF
:10FB56002D2D2D2D2D2D2D2D2D2D2D2D2D2D2D2DCF
:10FB66002D2D2D2D2D2D2D2D2D2D2D2D2D2D0D0A02
:10FB76000053656C6563743A20202020205365731A
:10FB860073696F6E206C6F6767696E673A20416CA8
:10FB96006C2073657373696F6E206F7574707574FE
:10FBA6000D0A002B2F2D20496E6372656173652F38
:10FBB6004465637265617365207468652073616D61
:10FBC600706C652072617465206279203130207511
:10FBD600730D0A00546F20636C6F7365207468653B
:10FBE6002066696C6520666F6C6C6F77207468653B
:10FBF600736520696E737472756374696F6E733A98
:10FC0600200D0A00573A205772697465206D6963A2
:10FC1600726F70686F6E65203D3E205344206361AD
:10FC2600726420617420313630302075730D0A00FD
:10FC3600723A2072656164206120626C6F636B208A
:10FC46006F662025642062797465732066726F6D15
:10FC560020534420636172640D0A004E6F20636F67
:10FC66006E66696775726174696F6E206F6620646F
:10FC76006576656C6F706D656E7420626F61726417
:10FC86000D0A0053656C6563743A202020202053CA
:10FC9600657373696F6E20206C6F6767696E673A6C
:10FCA600204E6F6E650D0A00612F412064656372F8
:10FCB600656173652F696E63726561736520726530
:10FCC600616420616464726573730D0A0053706F1A
:10FCD6006F6C6564202575206F7574206F662074BF
:10FCE600686520257520626C6F636B732E0D0A00A4
:10FCF60053656C6563743A20202020204368616E4A
:10FD060067652073657474696E67732E2E2E0D0AEF
:10FD160000733A2073706F6F6C206D656D6F72792A
:10FD260020746F2061206373762066696C650D0A06
:10FD360000577269746520626C6F636B2073696E1D
:10FD460020776176652076616C7565733A0D0A00D9
:10FD560053746174757320636F64653A202564205B
:10FD66002D2D2D2D20416464726573733A20004158
:10FD76006D6F756E74206F6620626C6F636B732097
:10FD860073746F7265643A2025640D0A00556E64BB
:10FD96006572666C6F77656420746F206869676842
:10FDA60020616464726573730D0A0009506C617991
:10FDB600206C656E67746820696E20626C6F636B79
:10FDC600733A2025640D0A00426C6F636B204C6504
:10FDD6006E67746820526573706F6E73653A20257E
:10FDE600780D0A004F766572666C6F7765642074CD
:10FDF6006F206C6F7720616464726573730D0A00FF
:10FE0600434D44302C2052657365742052657370DF
:10FE16006F6E73653A2025780D0A004C6973746914
:10FE26006E67207772697465206661696C757265A4
:10FE3600733A200D0A00434D44312C20496E6974F3
:10FE460020526573706F6E73653A2025780D0A002F
:10FE5600507265737320616E79206B657920746FBB
:10FE66002073746172740D0A00693A20496E6974D0
:10FE760069616C697A6520534420636172640D0A76
:10FE8600007A3A20436C6561722074686520746557
:10FE9600726D696E616C0D0A00202020205374611A
:10FEA6007475733A2020202020253032780D0A0000
:10FEB60053656C6563743A20202020204C6F676779
:10FEC600696E670D0A0053656C6563743A202020DD
:10FED60020204170706C79200D0A00534420636124
:10FEE6007264202B20706C61796261636B0D0A006D
:10FEF6005A3A2052657365742070726F6365737326
:10FF06006F720D0A000973616D706C652072617401
:10FF1600653A20256475730D0A0044656372656150
:10FF260073656420616464726573730D0A00496EBB
:10FF36006372656173656420616464726573730DD1
:10FF46000A0053656C6563743A20202020204170B6
:10FF5600706C790D0A0053442063617264206164F9
:10FF660064726573733A202000556E6B6E6F776E00
:10FF7600206B65792025630D0A002020202041642E
:10FF860064726573733A202020200009736443610C
:10FF96007264416464726573733A200052656164E9
:10FFA60020626C6F636B3A200D0A003F3A20686549
:10FFB6006C70206D656E750D0A004C6162203130E3
:10FFC6000D0A004465762732310D0A006F3A096F33
:10FFD6006B0D0A006F3A206B0D0A00253034780D40
:10FFE6000A0025303278200025303478000D0A0AC0
:0AFFF600002563003E20003A0000E1
:020000040020DA
:08000000FFFFFFFFFFFFFFFF00
:020000040030CA
:0E000000FF281F3CFFBF85FF0FC00FE00F4021
:00000001FF
