:020000040000FA
:0400000027EF00F0F6
:100008004D82FACF0EF0FBCF0FF0D9CF10F0DACF38
:1000180011F0F2AA12EF00F014EF00F01DEF00F05B
:10002800F2A419EF00F01BEF00F01DEF00F0E7EC71
:1000380014F011C0DAFF10C0D9FF0FC0FBFF0EC0CB
:10004800FAFF4D921100E2EF12F0000E0001C26FAC
:10005800000EC36F000EC46F000EC56F40EC15F0A4
:100068008A88000E136E000E126ED1EC15F0F29411
:10007800F2A441EF00F043EF00F03CEF00F0D60EA1
:10008800126E1B0E136ED6EC15F0F28EF28CC2ECCB
:100098000AF0CB0E0001A16FFF0EA26F18EC15F04D
:1000A800700E0001A16FFF0EA26F18EC15F0C20EC2
:1000B8000001A16FFF0EA26F18EC15F0FF0E0001F2
:1000C800A16FFC0EA26F18EC15F0F8EC15F0000EFD
:1000D800ADEC11F0FA0E0001A16FFF0EA26F18EC43
:1000E80015F0B6EC15F00009D8B47DEF00F07FEFFD
:1000F80000F075EF00F02CEC15F00001BF6F8E0ECC
:10010800A16FFF0EA26FBFC0A3F0A46B18EC15F08F
:1001180032EF05F0DF0EA16FFB0EA26F18EC15F0A1
:100128005D0E0001A16FFF0EA26F18EC15F0EE0E28
:100138000001A16FFF0EA26FC4C0A3F0C5C0A4F058
:10014800A56BA66B18EC15F0FD0E0001A16FFF0E54
:10015800A26F18EC15F0EE0E0001A16FFF0EA26F52
:10016800FF0EC215A36FFF0EC315A46F000EC415B2
:10017800A56F000EC515A66F18EC15F01D0E000131
:10018800A16FEB0EA26F18EC15F0E10E0001A16F44
:10019800FB0EA26F18EC15F0B30E0001A16FFF0E55
:1001A800A26F18EC15F0DC0E0001A16FFF0EA26F14
:1001B80018EC15F00C0E0001A16FFF0EA26F18ECE1
:1001C80015F0B20E0001A16FFE0EA26F18EC15F02B
:1001D800E10E0001A16FFB0EA26F18EC15F09A0E4C
:1001E8000001A16FFE0EA26F18EC15F0E10E0001E0
:1001F800A16FFB0EA26F18EC15F0710E0001A16F34
:10020800FD0EA26F18EC15F0D40E0001A16FFC0EC4
:10021800A26F020EA46F000EA36F18EC15F0A80EC3
:100228000001A16FFB0EA26F020EA46F000EA36F58
:1002380018EC15F0E10E0001A16FFB0EA26F18EC8F
:1002480015F0470E0001A16FFC0EA26F18EC15F017
:10025800A80E0001A16FFC0EA26F18EC15F0B70EE6
:100268000001A16FFD0EA26F18EC15F0E10E000160
:10027800A16FFB0EA26F18EC15F06EEF00F0D40E14
:10028800A16FFF0EA26F18EC15F06EEF00F0000ED4
:10029800C16F000EC06FF50EA16FFF0EA26F18ECB4
:1002A80015F00001C04BC12BC15109E1280EC05DFA
:1002B800D8A061EF01F063EF01F04FEF01F0FF000C
:1002C8006EEF00F0000EC16F000EC06FF50EA16F4B
:1002D800FF0EA26F18EC15F00001C04BC12BC151E5
:1002E80009E1280EC05DD8A07CEF01F07EEF01F097
:1002F8006AEF01F06EEF00F0000EBE6F000EBD6FEA
:10030800AF0ED025F66EF76AEA0EF722F86A000EED
:10031800F822F80EBD25D96E040EBE21DA6E08004B
:10032800F5CFDFFFD02B190ED0659DEF01F09FEFC1
:1003380001F0A1EF01F0000ED06FBD4BBE2B020EF5
:10034800BE5DD8A0AAEF01F0ACEF01F084EF01F098
:10035800C2C013F0C3C014F0C4C015F0C5C016F075
:10036800F80E176E040E186E9BEC12F041EC14F0A8
:100378000001BC6FBC29D8B4C4EF01F0C6EF01F08E
:10038800BAEF01F0D70EA16FFD0EA26F18EC15F0B1
:10039800930E0001A16FFF0EA26F18EC15F0EE0E80
:1003A8000001A16FFF0EA26FC4C0A3F0C5C0A4F0E6
:1003B800A56BA66B18EC15F0FD0E0001A16FFF0EE2
:1003C800A26F18EC15F0EE0E0001A16FFF0EA26FE0
:1003D800FF0EC215A36FFF0EC315A46F000EC41540
:1003E800A56F000EC515A66F18EC15F01D0E0001BF
:1003F800A16FEB0EA26F18EC15F0CA0E0001A16FE9
:10040800FE0EA26FBCC0A3F0A46B18EC15F0C2C01E
:1004180012F0C3C013F0C4C014F0C5C015F0A0ECAE
:1004280013F012C0C2F013C0C3F014C0C4F015C05A
:10043800C5F06EEF00F0A00EF625F66F000EF7215E
:10044800F76F6EEF00F0410EF65D010EF759D8A078
:1004580030EF02F032EF02F06EEF00F0600EF6259A
:10046800F66FFF0EF721F76F6EEF00F05D0EA16FCC
:10047800FA0EA26F18EC15F0B6EC15F00009D8B416
:1004880048EF02F04AEF02F040EF02F02CEC15F0D2
:10049800BCEF02F00001D351D8B455EF02F057EF8A
:1004A80002F085EF02F0C2C013F0C3C014F0C4C05C
:1004B80015F0C5C016F0F80E176E020E186E9BECFC
:1004C80012F041EC14F00001BC6FBC29D8B46FEFF6
:1004D80002F071EF02F065EF02F0000ED36FC2C0B8
:1004E80012F0C3C013F0C4C014F0C5C015F0A0ECDE
:1004F80013F012C0C2F013C0C3F014C0C4F015C08A
:10050800C5F00001D251D8B48CEF02F08EEF02F0A2
:10051800BCEF02F0C2C013F0C3C014F0C4C015F0A1
:10052800C5C016F0F80E176E000E186E9BEC12F090
:1005380041EC14F00001BC6FBC29D8B4A6EF02F05E
:10054800A8EF02F09CEF02F0000ED26FC2C012F0CA
:10055800C3C013F0C4C014F0C5C015F0A0EC13F06C
:1005680012C0C2F013C0C3F014C0C4F015C0C5F067
:10057800B6EC15F00009D8B4C4EF02F0C6EF02F0EB
:100588004EEF02F02CEC15F0010E496E39EF03F036
:10059800D351D8B4D2EF02F0D4EF02F002EF03F057
:1005A800C2C013F0C3C014F0C4C015F0C5C016F023
:1005B800F80E176E020E186E9BEC12F041EC14F058
:1005C8000001BC6FBC29D8B4ECEF02F0EEEF02F0EA
:1005D800E2EF02F0000ED36FC2C012F0C3C013F0F6
:1005E800C4C014F0C5C015F0A0EC13F012C0C2F0DE
:1005F80013C0C3F014C0C4F015C0C5F00001D25137
:10060800D8B409EF03F00BEF03F039EF03F0C2C0E1
:1006180013F0C3C014F0C4C015F0C5C016F0F80E2E
:10062800176E000E186E9BEC12F041EC14F00001EE
:10063800BC6FBC29D8B423EF03F025EF03F019EF02
:1006480003F0000ED26FC2C012F0C3C013F0C4C0D2
:1006580014F0C5C015F0A0EC13F012C0C2F013C01E
:10066800C3F014C0C4F015C0C5F00001D351D8A41C
:1006780040EF03F042EF03F0CCEF02F0D251D8A4E0
:1006880048EF03F04AEF03F0CCEF02F0D151D8A4C1
:1006980050EF03F052EF03F0CCEF02F06EEF00F0F2
:1006A800340EA16FFB0EA26F18EC15F0F00E0001CE
:1006B800A16FFA0EA26F18EC15F01D0E0001A16FC4
:1006C800EB0EA26F18EC15F06E0E0001A16FFB0E79
:1006D800A26F18EC15F0960E0001A16FFD0EA26F27
:1006E80018EC15F0E10E0001A16FFE0EA26F18ECD8
:1006F80015F0150E0001A16FFC0EA26F18EC15F095
:10070800A90E0001A16FFA0EA26F18EC15F0490EA0
:100718000001A16FFF0EA26F18EC15F0810E000109
:10072800A16FFE0EA26F18EC15F0B6EC15F00009DB
:10073800D8B4A1EF03F0A3EF03F099EF03F02CEC8A
:1007480015F0C2C013F0C3C014F0C4C015F0C5C082
:1007580016F0F80E176E040E186E03EC12F0C2C0F5
:1007680012F0C3C013F0C4C014F0C5C015F0A0EC5B
:1007780013F012C0C2F013C0C3F014C0C4F015C007
:10078800C5F0000E0001BB6F000EBA6FE4EF03F076
:10079800F80EBA25D96E040EBB21DA6EDF50B56F9C
:1007A800B551B86FB96BE90EA16FFF0EA26FB8C053
:1007B800A3F0B9C0A4F018EC15F00001BA4BBB2B9C
:1007C800B6EC15F00009D8A4ECEF03F0EEEF03F057
:1007D800F9EF03F0020E0001BB19BA11D8A4F7EF24
:1007E80003F0F9EF03F0CCEF03F0B6EC15F00009D5
:1007F800D8B401EF04F003EF04F005EF04F02CEC9B
:1008080015F0270E0001A16FFD0EA26F18EC15F070
:10081800780E0001A16FFC0EA26F18EC15F06E0E99
:100828000001A16FFB0EA26F18EC15F0960E0001E7
:10083800A16FFD0EA26F18EC15F0E10E0001A16F7B
:10084800FE0EA26F18EC15F04C0E0001A16FFD0E04
:10085800A26F18EC15F0F70E0001A16FFE0EA26F43
:1008680018EC15F06EEF00F0F8EC15F0000EADEC9A
:1008780011F0010E74EC0FF06EEF00F0610EBF196D
:10088800D8A449EF04F04BEF04F075EF04F0000E24
:10089800C25F020EC35B000EC45B000EC55B040E94
:1008A800C55DD8A05AEF04F05CEF04F06DEF04F0DA
:1008B800F60EA16FFD0EA26F18EC15F0000E0001E8
:1008C800C26FFE0EC36FFF0EC46F030EC56F9DEFA0
:1008D80004F0210EA16FFF0EA26F18EC15F09DEF2A
:1008E80004F0000EC227020EC323000EC423000E1C
:1008F800C523040EC55DD8A084EF04F086EF04F08C
:1009080097EF04F0300EA16FFE0EA26F18EC15F0F1
:10091800000E0001C26F000EC36F000EC46F000E00
:10092800C56F9DEF04F0350EA16FFF0EA26F18EC96
:1009380015F05D0E0001A16FFF0EA26F18EC15F007
:10094800EE0E0001A16FFF0EA26FC4C0A3F0C5C0D8
:10095800A4F0A56BA66B18EC15F0FD0E0001A16FB5
:10096800FF0EA26F18EC15F0EE0E0001A16FFF0E3E
:10097800A26FFF0EC215A36FFF0EC315A46F000E62
:10098800C415A56F000EC515A66F18EC15F01D0E41
:100998000001A16FEB0EA26F18EC15F06EEF00F0DE
:1009A800C2C013F0C3C014F0C4C015F0C5C016F01F
:1009B800F80E176E040E186E03EC12F0A40E000168
:1009C800A16FFF0EA26F18EC15F0930E0001A16F36
:1009D800FF0EA26F18EC15F0EE0E0001A16FFF0ECE
:1009E800A26FC4C0A3F0C5C0A4F0A56BA66B18EC99
:1009F80015F0FD0E0001A16FFF0EA26F18EC15F0A7
:100A0800EE0E0001A16FFF0EA26FFF0EC215A36FBD
:100A1800FF0EC315A46F000EC415A56F000EC515F3
:100A2800A66F18EC15F01D0E0001A16FEB0EA26F5A
:100A380018EC15F0F80E0001AB6F040EAC6F28EC43
:100A48000CF06EEF00F0820EA16FFF0EA26FBFC018
:100A5800A3F0A46B18EC15F06EEF00F00001BF5185
:100A6800B56FB66BB651000AD8B43DEF05F027EF65
:100A780005F0B5512B0AD8B41FEF02F0060AD8B416
:100A880027EF02F01C0AD8B480EF01F00E0AD8B4A0
:100A98008EEF00F07E0AD8B442EF04F0160AD8B4FC
:100AA8003AEF02F00D0AD8B44BEF01F03B0AD8B484
:100AB80042EF04F0080AD8B438EF04F0060AD8B4B4
:100AC80043EF01F01D0AD8B4D4EF04F0010AD8B4FA
:100AD80054EF03F0090AD8B466EF01F027EF05F0E8
:100AE80027EF00F07EC0D9FF7FC0DAFFDECFF6FF28
:100AF800DDCFF7FFF86A0800F550250AD8A487EF7C
:100B080005F089EF05F0C7EF07F07EC0D9FF7FC079
:100B1800DAFFDE2A000EDD22000E3D6E000E3C6E6E
:100B28003CC040F03DC041F03E683F68000E000107
:100B3800976F000E966FE8EF05F040807EC0D9FFF2
:100B48007FC0DAFFDE2A000EDD22E8EF05F04082E2
:100B5800A2EF05F04084A2EF05F04086A2EF05F071
:100B68004088A2EF05F0000E976F010E966FE8EF30
:100B780005F07EC0D9FF7FC0DAFFDECFF6FFDDCFFC
:100B8800F7FFF86A0800F550826F836B8351000AFB
:100B9800D8B4D1EF05F0B7EF05F08251200AD8B4E8
:100BA800B1EF05F0030AD8B4B4EF05F0080AD8B4D9
:100BB800AEEF05F0060AD8B4A1EF05F01D0AD8B4C7
:100BC800ABEF05F0B7EF05F096519711D8B4EFEFFA
:100BD80005F0F1EF05F0BDEF05F040A0F6EF05F0E8
:100BE800F8EF05F0F9EF05F040927EC0D9FF7FC01D
:100BF800DAFFDECFF6FFDDCFF7FFF86A0800F55021
:100C08002A0AD8A40AEF06F00CEF06F035EF06F032
:100C18007EC0D9FF7FC0DAFFDE2A000EDD2280C049
:100C2800D9FF81C0DAFFDFCF82F0020EDE26DFCFE8
:100C380083F0000EDD2282C0D9FF83C0DAFFDECF49
:100C48003CF0DDCF3DF03DBE2EEF06F02CEF06F078
:100C58007AEF06F040803C6C3D1ED8B03D2A7AEF12
:100C680006F07EC0D9FF7FC0DAFFDECF19F0DDCFF6
:100C78001AF01EEC0DF019C03CF01AC03DF04CEF14
:100C880006F07EC0D9FF7FC0DAFFDE2A000EDD2223
:100C9800D00E0001826FFF0E836F7EC0D9FF7FC028
:100CA800DAFFDECFF6FFDDCFF7FFF86A0800F55070
:100CB800846F856B825184278351852385510AE18E
:100CC8000A0E845DD8A06BEF06F06EEF06F0010EF9
:100CD8006FEF06F0000E986F996B98519911D8A490
:100CE80078EF06F07AEF06F045EF06F07EC0D9FF00
:100CF8007FC0DAFFDECFF6FFDDCFF7FFF86A080026
:100D0800F550630AD8A48BEF06F08DEF06F0B4EF28
:100D180006F07EC0D9FF7FC0DAFFDE2A000EDD2292
:100D280080C0D9FF81C0DAFFDFCF82F0020EDE2655
:100D3800DFCF83F0000EDD2282C0D9FF83C0DAFF47
:100D4800DF509A6F7CC01DF07DC01EF09AC01FF066
:100D5800E2EC10F01DC07CF01EC07DF0E3EF07F060
:100D68007EC0D9FF7FC0DAFFDECFF6FFDDCFF7FF09
:100D7800F86A0800F550640AD8B4C5EF06F0C7EF62
:100D880006F0DAEF06F07EC0D9FF7FC0DAFFDECFCB
:100D9800F6FFDDCFF7FFF86A0800F550690AD8A416
:100DA800D8EF06F0DAEF06F01AEF07F07EC0D9FFA9
:100DB8007FC0DAFFDE2A000EDD2280C0D9FF81C0A5
:100DC800DAFFDFCF82F0020EDE26DFCF83F0000EDF
:100DD800DD2282C0D9FF83C0DAFFDECF86F0DDCF07
:100DE80087F0000E87BFFF0E886F896F8A6F8B6F41
:100DF8008C6F8D6F7CC02FF07DC030F086C031F0D5
:100E080087C032F088C033F089C034F08AC035F02A
:100E18008BC036F08CC037F08DC038F0E4EC07F0AA
:100E28002FC07CF030C07DF0E3EF07F07EC0D9FF23
:100E38007FC0DAFFDECFF6FFDDCFF7FFF86A0800E4
:100E4800F550780AD8B42BEF07F02DEF07F040EFF4
:100E580007F07EC0D9FF7FC0DAFFDECFF6FFDDCF17
:100E6800F7FFF86A0800F550580AD8A43EEF07F0D3
:100E780040EF07F08FEF07F07EC0D9FF7FC0DAFFA1
:100E8800DECFF6FFDDCFF7FFF86A0800F5CF9AF05E
:100E98007EC0D9FF7FC0DAFFDE2A000EDD2280C0C7
:100EA800D9FF81C0DAFFDFCF82F0020EDE26DFCF66
:100EB80083F0000EDD2282C0D9FF83C0DAFFDECFC7
:100EC80084F0DDCF85F084C08EF085C08FF0906B04
:100ED800916B926B936B946B956B7CC02FF07DC07C
:100EE80030F08EC031F08FC032F090C033F091C036
:100EF80034F092C035F093C036F094C037F095C006
:100F080038F09AC039F055EC09F02FC07CF030C0A9
:100F18007DF0E3EF07F07EC0D9FF7FC0DAFFDECFB8
:100F2800F6FFDDCFF7FFF86A0800F550250AD8A4C8
:100F3800A0EF07F0A2EF07F0BAEF07F07EC0D9FFE5
:100F48007FC0DAFFDE2A000EDD22000E156E250EA8
:100F5800146E7CC016F07DC017F050EC12F0000E35
:100F680000017D6F010E7C6FE3EF07F07EC0D9FFB3
:100F78007FC0DAFFDE2A000EDD22000E7D6F000E34
:100F88007C6FE3EF07F07EC0D9FF7FC0DAFFDECFCA
:100F9800F6FFDDCFF7FFF86A0800F550146E156A02
:100FA8007CC016F07DC017F050EC12F07EC0D9FF5F
:100FB8007FC0DAFFDE2A000EDD22B3EF07F0120051
:100FC80031C070F032C071F033C072F034C073F0C9
:100FD80035C074F036C075F037C076F038C077F099
:100FE800000177BFFAEF07F0FDEF07F0010EFEEF03
:100FF80007F0000E6E6F6F6B6E516F11D8B407EF6C
:1010080008F009EF08F019EF08F0771F761F751F31
:10101800741F731F721F711F706D000E712372236E
:10102800732374237523762377233FBE1EEF08F0BE
:1010380020EF08F021EF08F040923FBE2EEF08F0B5
:101048003F5006E13E04D8B02CEF08F02EEF08F030
:1010580034EF08F0000E6B6F010E6A6F38EF08F07E
:101068003EC06AF03FC06BF03CC06CF03DC06DF014
:101078006E516F11D8A443EF08F045EF08F04CEF1C
:1010880008F040A44AEF08F04CEF08F04FEF08F0E2
:101098006C07D8A06D07000E796F1F0E786F000ED1
:1010A800F36FD4EF08F07807D8A07907D40E782525
:1010B800D96E000E7921DA6E70C012F071C013F08B
:1010C80072C014F073C015F074C016F075C017F034
:1010D80076C018F077C019F00A0E1A6E000E1B6E53
:1010E800000E1C6E000E1D6E000E1E6E000E1F6E92
:1010F800000E206E000E216E30EC10F012C060F071
:1011080013C061F014C062F015C063F016C064F03B
:1011180017C065F018C066F019C067F060C024F009
:1011280062C025F0E4EC13F02450300FDF6E0001AC
:101138006A07D8A06B076C07D8A06D0770C012F0BB
:1011480071C013F072C014F073C015F074C016F0BB
:1011580075C017F076C018F077C019F00A0E1A6E2D
:10116800000E1B6E000E1C6E000E1D6E000E1E6E15
:10117800000E1F6E000E206E000E216EB0EC0EF0F9
:1011880012C070F013C071F014C072F015C073F083
:1011980016C074F017C075F018C076F019C077F053
:1011A800000179BFE0EF08F0795108E17805D8A08F
:1011B800E0EF08F0E2EF08F012EF09F0705171115A
:1011C800721173117411751176117711D8A4EFEF9C
:1011D80008F0F1EF08F057EF08F06BBFFEEF08F0EA
:1011E8006B5106E16A05D8B0FCEF08F0FEEF08F095
:1011F80057EF08F06DBF09EF09F06D5108E16C0574
:10120800D8A009EF09F00BEF09F012EF09F040B28E
:1012180010EF09F012EF09F057EF08F06E516F1157
:10122800D8A419EF09F01BEF09F022EF09F040A448
:1012380020EF09F022EF09F040EF09F07807D8A075
:1012480079076E516F11D8A42CEF09F02EEF09F031
:1012580034EF09F0000E696F2B0E686F38EF09F054
:10126800000E696F2D0E686FD40E7825D96E000EAA
:101278007921DA6E68C0DFFF2FC024F030C025F076
:10128800D40E7825266E000E7921276E6CC028F0C2
:101298006DC029F04CEC11F024C02FF025C030F0BF
:1012A80012003FBE5AEF09F05CEF09F05DEF09F05C
:1012B80040923FBE6AEF09F03F5006E13E04D8B0C5
:1012C80068EF09F06AEF09F071EF09F0000E00010C
:1012D8006D6F010E6C6F75EF09F03EC06CF03FC08A
:1012E8006DF03CC06EF03DC06FF040A87EEF09F095
:1012F80080EF09F085EF09F00001FE0E6E27FF0E62
:101308006F2331C070F032C071F033C072F034C056
:1013180073F035C074F036C075F037C076F038C059
:1013280077F0000E0001796F1F0E786F000EF36FD3
:1013380052EF0AF07807D8A079070F0E70157A6F68
:101348007B6B7BBFB1EF09F07B5109E10A0E7A5D37
:10135800D8A0B1EF09F0B3EF09F0BBEF09F0570ED1
:101368007A257A6F000E7B217B6FC1EF09F0300E72
:101378007A257A6F000E7B217B6FBF0E606FFF0EA0
:10138800616F3950626F636B6051622761516323EB
:1013980063510AE11A0E625DD8A0D5EF09F0D8EFC3
:1013A80009F0010ED9EF09F0000E686F696B6851FA
:1013B8006911D8B4E2EF09F0E4EF09F014EF0AF08C
:1013C8009F0E606FFF0E616F200E7A11626F000E24
:1013D8007B11636F605162276151632363510AE196
:1013E8001A0E625DD8A0FBEF09F0FEEF09F0010EBE
:1013F800FFEF09F0000E6A6F6B6B6A516B11D8B47E
:1014080008EF0AF00AEF0AF014EF0AF07AC018F0B1
:101418007BC019F048EC13F018C07AF019C07BF0C3
:10142800D40E00017825D96E000E7921DA6E7AC0C3
:10143800DFFF6C07D8A06D076E07D8A06F0770C0D4
:1014480060F071C061F072C062F073C063F074C084
:1014580064F075C065F076C066F077C067F0050E79
:101468003FEF0AF0D89067336633653364336333EC
:10147800623361336033E82E36EF0AF060C070F0F3
:1014880061C071F062C072F063C073F064C074F040
:1014980065C075F066C076F067C077F079BF5EEF1B
:1014A8000AF0795109E1020E785DD8A05EEF0AF0E2
:1014B80060EF0AF090EF0AF0705171117211731118
:1014C8007411751176117711D8A46DEF0AF06FEFCA
:1014D8000AF09EEF09F06DBF7CEF0AF06D5106E14E
:1014E8006C05D8B07AEF0AF07CEF0AF09EEF09F0AD
:1014F8006FBF87EF0AF06F5108E16E05D8A087EF3C
:101508000AF089EF0AF090EF0AF040B28EEF0AF085
:1015180090EF0AF09EEF09F040A895EF0AF097EFD8
:101528000AF0ADEF0AF07807D8A07907D40E78252D
:10153800D96E000E7921DA6E39C0DFFF7807D8A09E
:101548007907D40E7825D96E000E7921DA6E300E1F
:10155800DF6E2FC024F030C025F0D40E7825266E1B
:10156800000E7921276E6EC028F06FC029F04CEC70
:1015780011F024C02FF025C030F01200CD0E00016C
:10158800A16FEA0EA26F18EC15F0200E0001A16FF2
:10159800EB0EA26F18EC15F0C60E0001A16FEB0E52
:1015A800A26F18EC15F06C0E0001A16FEC0EA26F83
:1015B80018EC15F0120E0001A16FED0EA26F18ECD9
:1015C80015F0B80E0001A16FED0EA26F18EC15F022
:1015D8005E0E0001A16FEE0EA26F18EC15F0040E5E
:1015E8000001A16FEF0EA26F18EC15F0570E000165
:1015F800A16FEF0EA26F18EC15F0500E0001A16F4D
:10160800F00EA26F18EC15F0F60E0001A16FF00EA7
:10161800A26F18EC15F09C0E0001A16FF10EA26FDD
:1016280018EC15F0420E0001A16FF20EA26F18EC33
:1016380015F0E80E0001A16FF20EA26F18EC15F07C
:101648008E0E0001A16FF30EA26F18EC15F0340E88
:101658000001A16FF40EA26F18EC15F0DA0E00016C
:10166800A16FF40EA26F18EC15F0800E0001A16FA7
:10167800F50EA26F18EC15F0D30E0001A16FF50E50
:10168800A26F18EC15F0CC0E0001A16FF60EA26F38
:1016980018EC15F0180E0001A16FF80EA26F18ECE7
:1016A80015F0720E0001A16FF70EA26F18EC15F07D
:1016B800BE0E0001A16FF80EA26F18EC15F0110E06
:1016C8000001A16FF90EA26F18EC15F00A0E0001C7
:1016D800A16FFA0EA26F18EC15F0640E0001A16F4D
:1016E800F90EA26F18EC15F0B70E0001A16FF90EF4
:1016F800A26F18EC15F06B0E0001A16FF80EA26F27
:1017080018EC15F01F0E0001A16FF70EA26F18EC70
:1017180015F01F0E0001A16FF70EA26F18EC15F05F
:10172800C50E0001A16FF70EA26F18EC15F0790E27
:101738000001A16FF60EA26F18EC15F0260E00013D
:10174800A16FF60EA26F18EC15F02D0E0001A16F17
:10175800F50EA26F18EC15F0870E0001A16FF40EBC
:10176800A26F18EC15F0E10E0001A16FF30EA26F45
:1017780018EC15F03B0E0001A16FF30EA26F18ECE8
:1017880015F0950E0001A16FF20EA26F18EC15F07E
:10179800EF0E0001A16FF10EA26F18EC15F0490EC3
:1017A8000001A16FF10EA26F18EC15F0A30E000155
:1017B800A16FF00EA26F18EC15F0FD0E0001A16FDD
:1017C800EF0EA26F18EC15F0AA0E0001A16FEF0E34
:1017D800A26F18EC15F0B10E0001A16FEE0EA26F0A
:1017E80018EC15F00B0E0001A16FEE0EA26F18ECAD
:1017F80015F0650E0001A16FED0EA26F18EC15F043
:10180800BF0E0001A16FEC0EA26F18EC15F0190EB7
:101818000001A16FEC0EA26F18EC15F0730E000119
:10182800A16FEB0EA26F18EC15F0CD0E0001A16FA1
:10183800EA0EA26F18EC15F0CD0E0001A16FEA0EAA
:10184800A26F18EC15F01200F30E0001A16FFF0E45
:10185800A26F18EC15F0000E0001B46F000EB36F04
:10186800B351B411D8B43BEF0CF03DEF0CF052EF8C
:101878000CF0070EB315AD6F000EB415AE6FAD5179
:10188800AE11D8A44AEF0CF04CEF0CF052EF0CF06C
:10189800A20EA16FFF0EA26F18EC15F00001B35154
:1018A800B411D8B45AEF0CF05CEF0CF0B5EF0CF0B3
:1018B8000F0EB315AD6F000EB415AE6FAD51AE116E
:1018C800D8A469EF0CF06BEF0CF0B5EF0CF0A10E9B
:1018D800A16FFF0EA26F18EC15F0F00E0001B325F2
:1018E800AF6FFF0EB421B06FA4EF0CF0AF51AB2572
:1018F800D96EB051AC21DA6E200EDF6086EF0CF0A5
:1019080088EF0CF090EF0CF0A70EA16FFA0EA26F03
:1019180018EC15F0A1EF0CF0F70EA16FFF0EA26FF7
:10192800AF51AB25D96EB051AC21DA6EDF50AD6F37
:10193800AD51A36FA46B18EC15F00001AF4BB02BA1
:10194800B351AF5DB451B059D8A0ADEF0CF0AFEFC3
:101958000CF07AEF0CF01D0EA16FEB0EA26F18ECD5
:1019680015F0E30E0001A16FFF0EA26FB351AB2576
:10197800D96EB451AC21DA6EDF50AD6FAD51A36FA3
:10198800A46B18EC15F00001B34BB42B020EB45D38
:10199800D8A0D1EF0CF0D3EF0CF034EF0CF0A00E80
:1019A800A16FFF0EA26F18EC15F0F00E0001B32521
:1019B800B16FFF0EB421B26F0CEF0DF0B151AB2532
:1019C800D96EB251AC21DA6E200EDF60EEEF0CF06A
:1019D800F0EF0CF0F8EF0CF0A70EA16FFA0EA26F63
:1019E80018EC15F009EF0DF0F70EA16FFF0EA26FBE
:1019F800B151AB25D96EB251AC21DA6EDF50AD6F63
:101A0800AD51A36FA46B18EC15F00001B14BB22BCC
:101A1800B351B15DB451B259D8A015EF0DF017EF1D
:101A28000DF0E2EF0CF01D0EA16FEB0EA26F18EC9B
:101A380015F01200000E276E000E266E000E206EA6
:101A4800000E1F6E2AEF0DF0194A1A2A010E256E94
:101A580019C0F6FF1AC0F7FFF86A0800F550200A07
:101A6800D8B439EF0DF03BEF0DF059EF0DF0F70E4C
:101A78001B6EFF0E1C6E19C0F6FF1AC0F7FFF86A3E
:101A88000800F5501D6E1E6A1B501D261C501E2294
:101A98001E5009E1050E1D5CD8A055EF0DF057EF5B
:101AA8000DF059EF0DF0000E256E25C021F0226AC9
:101AB80021502210D8A463EF0DF065EF0DF028EF48
:101AC8000DF06FEF0DF0000E206E010E1F6E194A1B
:101AD8001A2AA6EF0DF019C0F6FF1AC0F7FFF86A28
:101AE8000800F5501B6E1C6A1C50000AD8B47FEF22
:101AF8000DF0A6EF0DF01B502B0AD8B46BEF0DF0CC
:101B0800060AD8B467EF0DF0A6EF0DF026C012F064
:101B180027C013F0000E156E0A0E146E53EC15F064
:101B280019C0F6FF1AC0F7FFF86A0800F550125EF0
:101B3800000E135A300E1224266E000E1320276E44
:101B48006BEF0DF0D00E1B6EFF0E1C6E19C0F6FF6A
:101B58001AC0F7FFF86A0800F5501D6E1E6A1B5080
:101B68001D261C501E221E500AE10A0E1D5CD8A01C
:101B7800C0EF0DF0C3EF0DF0010EC4EF0DF0000E35
:101B8800236E246A23502410D8A4CDEF0DF0CFEF94
:101B98000DF08AEF0DF01F502010D8A4D6EF0DF0ED
:101BA800D8EF0DF0E6EF0DF026C01BF027C01CF0B3
:101BB8001B1E1C1E1B4A1C2A1BC019F01CC01AF035
:101BC800EAEF0DF026C019F027C01AF01200C28201
:101BD80076EC15F00001F651015C096EF7510258D8
:101BE8000A6EEFEC15F0C4CF0DF096EF0EF04A0434
:101BF800D8A401EF0EF003EF0EF0AFEF0EF0010ED8
:101C08000001D16F020E486E000E436E000E426E48
:101C1800F80EF46F020EF56F010E4C6E010E4A6E4F
:101C2800AFEF0EF04C50D8B41CEF0EF01EEF0EF0D4
:101C380027EF0EF00001D351D8A425EF0EF027EFBF
:101C48000EF0AFEF0EF04C50D8A42DEF0EF02FEFA2
:101C58000EF03AEF0EF00001D251D8B436EF0EF084
:101C680038EF0EF03AEF0EF0AFEF0EF042500001F1
:101C7800F425D96E4350F521DA6E0DC0DFFF424AD4
:101C8800432A020E43184210D8A44DEF0EF04FEF2E
:101C98000EF0AFEF0EF04C50D8B455EF0EF057EFF2
:101CA8000EF069EF0EF0010ED36FF80EF46F000E10
:101CB800F56FD251D8B463EF0EF065EF0EF079EFFF
:101CC8000EF0010E486E79EF0EF0010ED26FF80E8D
:101CD800F46F020EF56FD351D8B475EF0EF077EFAD
:101CE8000EF079EF0EF065EF0EF04C50D8B47FEFA0
:101CF8000EF082EF0EF0010E83EF0EF0000E4C6E28
:101D0800000E436E000E426E4950D8B48EEF0EF0AE
:101D180090EF0EF0AFEF0EF0000ED16F000E486E90
:101D2800AFEF0EF048500B6E0C6A0C50000AD8B496
:101D3800A0EF0EF0AFEF0EF00B50000AD8B4FBEF97
:101D48000DF0010AD8B416EF0EF0030AD8B43AEF32
:101D58000EF0AFEF0EF01200000E236E21BEB9EFA9
:101D68000EF0B7EF0EF0CBEF0EF0211E201E1F1E57
:101D78001E1E1D1E1C1E1B1E1A6C000E1B221C2262
:101D88001D221E221F2220222122010E236E19BE8F
:101D9800D2EF0EF0D0EF0EF0E4EF0EF0191E181E81
:101DA800171E161E151E141E131E126C000E13226B
:101DB800142215221622172218221922010E231A7C
:101DC80020EE24F0070EDE6AE806FDE21A501B102A
:101DD8001C101D101E101F1020102110D8B4F7EF72
:101DE8000EF0F9EF0EF04BEF0FF0010E226E07EF39
:101DF8000FF0D8901A361B361C361D361E361F3685
:101E080020362136222A21AE0CEF0FF00EEF0FF00C
:101E1800FDEF0EF0D890243625362636273628369C
:101E280029362A362B361A50125C1B5013581C5070
:101E380014581D5015581E5016581F50175820502A
:101E4800185821501958D8A02CEF0FF02EEF0FF08A
:101E58003FEF0FF01A50125E1B50135A1C50145AC1
:101E68001D50155A1E50165A1F50175A2050185AEE
:101E78002150195A2480D890213220321F321E3224
:101E88001D321C321B321A32222E0EEF0FF0235055
:101E9800D8B451EF0FF053EF0FF063EF0FF02B1E94
:101EA8002A1E291E281E271E261E251E246C000EEB
:101EB800252226222722282229222A222B2224C030
:101EC80012F025C013F026C014F027C015F028C062
:101ED80016F029C017F02AC018F02BC019F012000C
:101EE8000001AD6F000E0001AC6F000EAB6FFF0E6E
:101EF80093EC15F00001AB4BAC2BACBF8DEF0FF0A2
:101F0800AC5109E10A0EAB5DD8A08DEF0FF08FEF51
:101F18000FF07BEF0FF08A98FF0E93EC15F0400E50
:101F280093EC15F0000E93EC15F0000E93EC15F001
:101F3800000E93EC15F0000E93EC15F0950E93EC53
:101F480015F0FF0E93EC15F0FF0E93EC15F0000161
:101F5800AE6F8A88AD05D8A4B4EF0FF0B6EF0FF0D6
:101F6800BFEF0FF04C0EA16FFE0EA26FAEC0A3F034
:101F7800A46B18EC15F08A98FF0E93EC15F0410E3F
:101F880093EC15F0000E93EC15F0000E93EC15F0A1
:101F9800000E93EC15F0000E93EC15F0FF0E93EC89
:101FA80015F0FF0E93EC15F0FF0E93EC15F0000101
:101FB800AE6F8A88AE51D8A4E4EF0FF0E6EF0FF0C9
:101FC800BFEF0FF0AD05D8A4ECEF0FF0EEEF0FF078
:101FD800F7EF0FF0670EA16FFE0EA26FAEC0A3F071
:101FE800A46B18EC15F08A98FF0E93EC15F0500EC0
:101FF80093EC15F0000E93EC15F0000E93EC15F031
:10200800020E93EC15F0000E93EC15F0FF0E93EC16
:1020180015F0FF0E93EC15F0FF0E93EC15F0000190
:10202800AE6F8A88AE29D8B41CEF10F01EEF10F0FE
:10203800F7EF0FF0AD05D8A424EF10F026EF10F05D
:102048002FEF10F0140EA16FFE0EA26FAEC0A3F01A
:10205800A46B18EC15F01200000E236E19BE39EFB0
:1020680010F037EF10F04BEF10F0191E181E171E66
:10207800161E151E141E131E126C000E1322142297
:1020880015221622172218221922010E236E21BEAC
:1020980052EF10F050EF10F062EF10F0211E201EEA
:1020A8001F1E1E1E1D1E1C1E1B1E1A6C000E1B2230
:1020B8001C221D221E221F22202221221A501B1000
:1020C8001C101D101E101F1020102110D8B46FEF07
:1020D80010F071EF10F0B9EF10F0010E226E7FEFE3
:1020E80010F0D8901A361B361C361D361E361F3691
:1020F80020362136222A21AE84EF10F086EF10F028
:1021080075EF10F01A50125C1B5013581C501458DD
:102118001D5015581E5016581F5017582050185843
:1021280021501958D8A09BEF10F09DEF10F0ADEF9B
:1021380010F01A50125E1B50135A1C50145A1D509E
:10214800155A1E50165A1F50175A2050185A215007
:10215800195AD890213220321F321E321D321C32B9
:102168001B321A32222E86EF10F02350D8B4BFEF5C
:1021780010F0C1EF10F0D1EF10F0191E181E171E45
:10218800161E151E141E131E126C000E1322142286
:102198001522162217221822192212C012F013C073
:1021A80013F014C014F015C015F016C016F017C0BF
:1021B80017F018C018F019C019F012003C503D1063
:1021C800D8A4E9EF10F0EBEF10F0F1EF10F03CC0FD
:1021D80023F03DC024F0F7EF10F0FF0E3C24236EEF
:1021E800FF0E3D20246E40A0FCEF10F0FEEF10F033
:1021F80007EF11F01FC014F0156A1DC016F01EC0BD
:1022080017F050EC12F024BE0CEF11F00EEF11F0A5
:1022180010EF11F014EF11F0000E246E000E236E73
:10222800000E226E000E216E26EF11F0000E156EC4
:10223800200E146E1DC016F01EC017F050EC12F0E0
:10224800214A222A2350215C2250800A206E2450E1
:10225800800A2058D8A033EF11F035EF11F01AEFAB
:1022680011F040B03AEF11F03CEF11F045EF11F0EA
:102278001FC014F0156A1DC016F01EC017F050ECF0
:1022880012F0010E21241D6E000E22201E6E120077
:1022980040A051EF11F053EF11F05DEF11F026C09F
:1022A8001DF027C01EF024C01FF025C020F0C2EC8E
:1022B80013F029BE62EF11F064EF11F06AEF11F02C
:1022C80028C02DF029C02EF06EEF11F0000E2E6EF2
:1022D800000E2D6E000E2C6E000E2B6E80EF11F08E
:1022E800000E156E200E146E24C016F025C017F0CF
:1022F80050EC12F02B4A2C2A2D502B5C2C50800AC3
:102308002A6E2E50800A2A58D8A08DEF11F08FEF30
:1023180011F074EF11F040B094EF11F096EF11F056
:10232800A0EF11F026C01DF027C01EF024C01FF03A
:1023380025C020F0C2EC13F026C012F027C013F01D
:10234800CCEC14F02D501224246E2E501320256E40
:102358001200136E6CBAB3EF11F0B5EF11F002EF83
:1023680012F01350040D010EF326000EF422C90ECC
:10237800F324F66EEA0EF420F76EF86A000EF822DF
:102388000800F5CF6DFF1350040DC90EF324F66E47
:10239800EA0EF420F76EF86A000EF8220800F5CF6E
:1023A8006CFF000E6B6E1350040D020EF326000E28
:1023B800F422C90EF324F66EEA0EF420F76EF86ADA
:1023C800000EF8220800F5CF6EFF1350040D030E1F
:1023D800F326000EF422C90EF324F66EEA0EF4205A
:1023E800F76EF86A000EF8220800F5CF12F01246D0
:1023F80093501218FD0B1218936E6C8A12008A986B
:10240800FF0E93EC15F0510E93EC15F0165093EC6B
:1024180015F0155093EC15F0145093EC15F013507B
:1024280093EC15F0FF0E93EC15F0FF0E93EC15F0FE
:10243800FF0AD8B422EF12F024EF12F019EF12F0CD
:10244800FF0E93EC15F0FF0AD8B42DEF12F02FEF22
:1024580012F024EF12F0000E1A6E000E196E1950C9
:102468001724D96E1A501820DA6EFF0E93EC15F067
:10247800DF6E194A1A2A020E1A5CD8A046EF12F02B
:1024880048EF12F033EF12F0FF0E93EC15F0FF0E49
:1024980093EC15F08A88120016501710D8B457EF2D
:1024A80012F059EF12F062EF12F016501710D8A47C
:1024B80060EF12F062EF12F067EF12F01450EAECDE
:1024C80015F09AEF12F020EE04F01650D9261750A6
:1024D800DA22DE50DE10D8B474EF12F076EF12F084
:1024E80091EF12F020EE04F01650D9261750DA2298
:1024F80010EE02F01650E1261750E222DE50E65C9C
:10250800E650800A1C6EDE50800A1C58D8B08FEF47
:1025180012F091EF12F09AEF12F020EE02F016503E
:10252800D9261750DA22DE2A000EDD2212008A98F8
:10253800FF0E93EC15F0580E93EC15F0165093EC33
:1025480015F0155093EC15F0145093EC15F013504A
:1025580093EC15F0FF0E93EC15F0FF0E93EC15F0CD
:10256800FF0AD8B4BAEF12F0BCEF12F0B1EF12F0D4
:10257800FF0E93EC15F0FF0E93EC15F0FF0E93ECA5
:1025880015F0FE0E93EC15F0000E1A6E000E196E83
:1025980019501724D96E1A501820DA6EDF5093ECB0
:1025A80015F0194A1A2A020E1A5CD8A0DEEF12F0AA
:1025B800E0EF12F0CCEF12F08A881200E80EF66E07
:1025C8002B0EF76E000EF86E00EEF4F010EE04F02D
:1025D8000900F5CFEEFFE550E150FAE1F60EF66E90
:1025E8002B0EF76E000EF86E0900F5CF4CF000EEDA
:1025F800F8F016EE00F0EE6AE550E150FCE1E2502A
:10260800FAE100EEC6F02E0EEE6AE806FDE100EEF5
:102618003CF0100EEE6AE806FDE14D904D92000187
:1026280029EF00F09DC03AF09EC03BF0000E00017B
:10263800C76F000EC66F34EF13F09BC07CF09CC0D0
:102648007DF03A0E7E6F000E7F6F9FC080F0A0C0B5
:1026580081F076EC05F000017C51C6277D51C72337
:102668003AC0F6FF3BC0F7FFF86A0800F5500009CA
:10267800D8A441EF13F043EF13F021EF13F0C6C0D5
:102688009BF0C7C09CF012009F0E1A6EFF0E1B6EC7
:1026980018C01CF019C01DF01A501C261B501D2212
:1026A8001D500AE11A0E1C5CD8A05DEF13F060EF14
:1026B80013F0010E61EF13F0000E1E6E1F6A1E501C
:1026C8001F10D8B46AEF13F06CEF13F072EF13F029
:1026D8005F0E1814186E196A76EF13F018C018F008
:1026E80019C019F01200010E186E200E12181310DE
:1026F800D8B481EF13F083EF13F09CEF13F0F70ECB
:10270800146EFF0E156E12C016F013C017F0145099
:10271800162615501722175009E1050E165CD8A089
:1027280098EF13F09AEF13F09CEF13F0000E186E69
:1027380018C012F0136A1200000E1226020E13229D
:10274800000E1422000E1522040E155CD8A0AFEF5F
:1027580013F0B1EF13F0B9EF13F0000E126E000E84
:10276800136E000E146E000E156E12C012F013C018
:1027780013F014C014F015C015F01200000E236EEB
:10278800000E226ED3EF13F021C014F0156A1FC09B
:1027980016F020C017F050EC12F0224A232A2250DB
:1027A8001D24D96E23501E20DA6EDF50216E215071
:1027B800D8A4E1EF13F0E3EF13F0C8EF13F0120021
:1027C80025BEF1EF13F0255006E12404D8B0EFEF51
:1027D80013F0F1EF13F0FFEF13F024C026F025C03B
:1027E80027F0261E271E264A272A26C024F027C09F
:1027F80025F003EF14F024C024F025C025F01200C2
:10280800080EB86E900EAB6E240EAC6E820EAF6ED4
:10281800060EB06E000E126E000E136EE0EC15F090
:10282800000E126E000E136EDBEC15F0000E126E29
:10283800000E136EE5EC15F0000E4B6E12009F0EA5
:10284800146EFF0E156E200E1210166E000E131069
:10285800176E145016261550172217500AE11A0E33
:10286800165CD8A03AEF14F03DEF14F0010E3EEFDD
:1028780014F0000E126E136A12008A980D0E93EC73
:1028880015F0136E8A881328D8A44DEF14F04FEF73
:1028980014F052EF14F0FF0E5CEF14F0FF0E93ECFF
:1028A80015F0FF0E93EC15F0FF0E93EC15F0135096
:1028B80012009F0E146EFF0E156E12C016F013C094
:1028C80017F0145016261550172217500AE11A0E41
:1028D800165CD8A072EF14F075EF14F0010E76EFC5
:1028E80014F0000E126E136A1200BF0E146EFF0E63
:1028F800156E12C016F013C017F014501626155096
:10290800172217500AE11A0E165CD8A08EEF14F0A1
:1029180091EF14F0010E92EF14F0000E126E136A8C
:102928001200D00E146EFF0E156E12C016F013C0F2
:1029380017F0145016261550172217500AE10A0EE0
:10294800165CD8A0AAEF14F0ADEF14F0010EAEEFAC
:1029580014F0000E126E136A1200D59C000ED76E8A
:10296800000ED66ED650D7CF14F0156A14C015F0E5
:10297800146A1410446E1550456EF294F28AF40EDF
:10298800126E2B0E136ED6EC15F0970ED56E120044
:1029980012C014F013C015F0D4EF14F0124A132A21
:1029A80012C0D9FF13C0DAFFDF50D8A4DEEF14F04D
:1029B800E0EF14F0D2EF14F01450125C126E1550C0
:1029C8001358136E1200F2944550D76E44C0D6FFC8
:1029D80046504710D8B4F3EF14F0F5EF14F001EFB8
:1029E80015F002D801EF15F00500FA6E4650FD6E9D
:1029F8004750FE6EFF6AFA5012001200000E896EF0
:102A0800000E8A6E000E8B6E9268E50E936EBB0EFA
:102A1800946E3C0E0F013A6F310E396F2F0E386FDE
:102A2800000E616EF18E1200A30E0001A96F000E58
:102A3800AA6F000E9B6F000E9C6FA1C09DF0A2C0F4
:102A48009EF0A90E9F6F000EA06F16EC13F01200F7
:102A58009EAA31EF15F033EF15F02CEF15F0000EAC
:102A68004B6EABA23AEF15F03CEF15F03EEF15F0C8
:102A7800AB98AB88AE501200F6EC15F0C0EC15F030
:102A880002EC15F085EC15F0A0EC15F066EC15F0ED
:102A9800C9EC15F0B1EC14F004EC14F0120012506B
:102AA8001402F3CF16F0F4CF17F012501502F350BA
:102AB800172613501402F350172616C012F017C029
:102AC80013F012003C0EBD6E000EB66E800EB76E8F
:102AD800010EB96E000EBF6E1F0EBE6EFC0E0F010A
:102AE80049171200D6CF07F0D7CF08F00850036E69
:102AF8000750056E03C006F005C001F006C002F0DD
:102B08001200700ED36E040ED26E400E9B6ED2AEC3
:102B180090EF15F092EF15F08BEF15F01200126E92
:102B280012C06FFFA4AE9BEF15F09DEF15F096EF66
:102B380015F0A49E6F501200000EC16E260EC06ED6
:102B4800000EC36E000EC46E110EC26E1200126E1D
:102B58009EA8B1EF15F0B3EF15F0ACEF15F012C069
:102B6800ADFF12009EBABBEF15F0BEEF15F0010ED7
:102B7800BFEF15F0000E1200400E6D6E010E6C6E68
:102B8800010E6E6E93926C9A12003F0EBB6E000E91
:102B9800BC6E9E921C0EBA6E12001350D76E12C0F5
:102BA800D6FF120012C046F013C047F0120012C040
:102BB800CCF013C0CDF0120012C0CEF013C0CFF08D
:102BC800120012C0CAF013C0CBF01200136E1350DB
:102BD800ABEC15F012000A50D76E09C0D6FF1200F0
:0F2BE800F8024006D09E12006C9A1200120001F3
:10EAAE0000809FBBD5E9F8FFFFF8E9D5BB9F8061D9
:10EABE00452B1708010108172B4561014001002065
:10EACE002020202020202020202020202020202038
:10EADE002020202020202020202020202020202028
:10EAEE002020202020202020202020202020202018
:10EAFE002020202020202020202020202020202008
:10EB0E002020202020202020202020202020200D0A
:10EB1E000A0020202020202020202020202020201D
:10EB2E0020202020202020202020202020202020D7
:10EB3E0020202020373737373737373737373737B3
:10EB4E0020202020202020202020202020202020B7
:10EB5E0020202020202020202020202020202020A7
:10EB6E0020200D0A002020202020202020202020E0
:10EB7E002020202020202020202020202020202087
:10EB8E0020202037373737373749494949494949CE
:10EB9E0049373737373737202020202020202020B4
:10EBAE002020202020202020202020202020202057
:10EBBE0020202020200D0A00202020202020202090
:10EBCE002020202020202020202020202020202037
:10EBDE002020202037373737494949494949494983
:10EBEE004949494949493F4937373737202020207D
:10EBFE002020202020202020202020202020202007
:10EC0E0020202020202020200D0A0020202020203F
:10EC1E0020202020202020202020202020202020E6
:10EC2E002020202037373737493F3F2B7E7E7E3AD4
:10EC3E003A3A3A3A3A7E7E7E7E2B2B3F3F49373721
:10EC4E003737202020202020202020202020202088
:10EC5E0020202020202020202020200D0A002020EF
:10EC6E002020202020202020202020202020202096
:10EC7E002020202020203737374949494937373758
:10EC8E0037373737373737373737373737374949E2
:10EC9E0049494937373720202020202020202020A6
:10ECAE0020202020202020202020202020200D0A7F
:10ECBE000020202020202020202020202020202066
:10ECCE0020202020202020373737493F7E3A3A3AFD
:10ECDE002C2C2C2C2C2C2C3A2C2C2C2C2C2C2C2C58
:10ECEE002C3A3A3A7E2B3F493737372020202020C6
:10ECFE002020202020202020202020202020202006
:10ED0E00200D0A002020202020202020202020203E
:10ED1E00202020202020202020373749494937370E
:10ED2E003737494949494949493F3F3F3F3F49499B
:10ED3E0049494949493737373749493F37373720E6
:10ED4E0020202020202020202020202020202020B5
:10ED5E00202020200D0A00202020202020202020EE
:10ED6E00202020202020202020203737373F3D3AFA
:10ED7E003A2C2C2C2C3A3A7E7E3D3D3D3D3D3D3D80
:10ED8E003D3D3D3D7E7E3A3A3A2C2C2C3A3A7E2B36
:10ED9E003F37373720202020202020202020202001
:10EDAE00202020202020200D0A002020202020209E
:10EDBE0020202020202020202020202037374949C5
:10EDCE00493737374949493F3F3F2B2B2B2B2B2BAD
:10EDDE002B2B2B2B2B2B2B2B2B3F3F3F49494937D3
:10EDEE00373737493F373737202020202020202043
:10EDFE00202020202020202020200D0A002020204E
:10EE0E0020202020202020202020202020203737C6
:10EE1E00493F3A2C2C2C2C3A7E3D3D2B2B2B2B2B69
:10EE2E002B2B2B2B2B2B2B2B2B2B2B2B2B2B3D3D00
:10EE3E007E3A2C2C2C2C3A2B3F4937372020202081
:10EE4E00202020202020202020202020200D0A00FD
:10EE5E0020202020202020202020202020202020A4
:10EE6E003737494937373749493F3F3F2B2B2B2BF4
:10EE7E002B2B2B2B2B2B2B2B2B2B2B2B2B2B2B2BD4
:10EE8E002B2B2B2B3F3F49493737374949493737CA
:10EE9E002020202020202020202020202020202064
:10EEAE000D0A00202020202020202020202020209D
:10EEBE0020203737497E3A2C2C2C3A7E3D2B2B2B9B
:10EECE002B2B2B2B2B2B2B2B2B2B2B2B2B2B2B2B84
:10EEDE002B2B2B2B2B2B2B2B3D7E3A2C2C2C3A7E9B
:10EEEE002B493737202020202020202020202020B2
:10EEFE002020200D0A00202020202020202020204D
:10EF0E00202020203737494937373749493F2B2BA7
:10EF1E002B2B2B2B2B2B2B2B2B2B2B2B2B2B2B2B33
:10EF2E002B2B2B2B2B2B2B2B2B2B2B2B2B3F3F49DD
:10EF3E0049373749494937372020202020202020C3
:10EF4E002020202020200D0A0020202020202020FC
:10EF5E00202020202020374949373749493F3F2B71
:10EF6E002B2B2B2B2B2B2B2B2B2B2B2B2B2B2B2BE3
:10EF7E002B2B2B2B2B2B2B2B2B2B2B2B2B2B2B2BD3
:10EF8E002B2B3F3F49493737493F37372020202029
:10EF9E002020202020202020200D0A0020202020AC
:10EFAE002020202020202020203737497E3A2C2C6C
:10EFBE003A7E3D2B2B2B2B2B2B2B2B2B2B2B2B2B1F
:10EFCE002B2B2B2B2B2B2B2B2B2B2B2B2B2B2B2B83
:10EFDE002B2B2B2B3D7E3A2C2C3A7E2B4937372070
:10EFEE002020202020202020202020200D0A00205C
:10EFFE00202020202020202020202037373F3A2C90
:10F00E002C3A7E3D2B2B2B2B2B2B2B2B2B2B2B2BCD
:10F01E002B2B2B2B2B2B2B2B2B2B2B2B2B2B2B2B32
:10F02E002B2B2B2B2B2B2B2B2B2B7E3A2C2C3A2BAF
:10F03E003F37372020202020202020202020200D88
:10F04E000A00202020202020202020202037374991
:10F05E00493737493F3F2B2B2B2B2B2B2B2B2B2B76
:10F06E002B2B2B2B2B2B2B2B2B2B2B2B2B2B2B2BE2
:10F07E002B2B2B2B2B2B2B2B2B2B2B2B2B2B3F49A0
:10F08E00493737494937372020202020202020209B
:10F09E0020200D0A002020202020202020202020AB
:10F0AE0037497E2C2C2C7E3D2B2B2B2B2B2B2B2BBD
:10F0BE002B2B2B2B2B2B2B2B2B2B2B2B2B2B2B2B92
:10F0CE002B2B2B2B2B2B2B2B2B2B2B2B2B2B2B2B82
:10F0DE002B2B7E3A2C2C3A2B493720202020202017
:10F0EE0020202020200D0A0020202020202020205B
:10F0FE002020373749373749493F2B2B2B2B2B2BCA
:10F10E002B2B2B2B2B2B2B2B2B2B2B2B2B2B2B2B41
:10F11E002B2B2B2B2B2B2B2B2B2B2B2B2B2B2B2B31
:10F12E002B2B2B2B2B3F3F493737493F373720208F
:10F13E0020202020202020200D0A0020202020200A
:10F14E002020202037373F3A2C2C3A3D2B2B2B2BCF
:10F15E002B2B2B2B2B2B2B2B2B2B2B2B2B2E2E2EE8
:10F16E002E2E2E2E2E2E2E2E2B2B2B2B2B2B2B2BC9
:10F17E002B2B2B2B2B2B2B2B2B3D7E2C2C3A2B3F47
:10F18E0037372020202020202020200D0A0020208C
:10F19E0020202020202020373F493749493F2B2B64
:10F1AE002B2B2B2B2B2B2B2B2B2B2B2B2B2B2B2BA1
:10F1BE002B2B2B2B2B2B2B2B2B2B2B2B2B2B2B2B91
:10F1CE002B2B2B2B2B2B2B2B2B2B2B2B2B3F494931
:10F1DE0037494949372020202020202020200D0AA1
:10F1EE0000202020202020202037373D3A2C3A7E48
:10F1FE002B2B2B2B2B2B2B2B2B2B2B2B2B2B3D2E3C
:10F20E002E2E2E2E2E2E2E2E2E2E2E2E2E2E2E2E10
:10F21E002E2E3A2B2B2B2B2B2B2B2B2B2B2B2B2B1B
:10F22E002B7E3A2C3A7E3F3737202020202020207C
:10F23E00200D0A002020202020202020373F493793
:10F24E0049493F2B2B2B2B2B2B2B2B2B2B2B2B2BB0
:10F25E002B2B2B2B2B2B2B2B2B2B2B2B2B2B2B2BF0
:10F26E002B2B2B2B2B2B2B2B2B2B2B2B2B2B2B2BE0
:10F27E002B2B2B2B3F49493749494937202020203A
:10F28E00202020200D0A002020202020202037378B
:10F29E003D3A2C3A3D2B2B2B2B2B2B2B2B2B2B2B6D
:10F2AE002B2B2E2E2E2E2E2B2B2B2B2B2B2B2B2B91
:10F2BE002B2B2B2B2B2B2E2E2E2E2E2B2B2B2B2B81
:10F2CE002B2B2B2B2B2B2B2B3D3A3A3A7E3F3737C2
:10F2DE00202020202020200D0A0020202020202069
:10F2EE0020373F4949493F3F2B2B2B2B2B2B2B2BC9
:10F2FE002B2B2B2B2B2B2B2B2B2B2B2B2B2B2B2B50
:10F30E002B2B2B2B2B2B2B2B2B2B2B2B2B2B2B2B3F
:10F31E002B2B2B2B2B2B2B2B2B2B2B2B3F493749D3
:10F32E00494937202020202020200D0A00202020AF
:10F33E0020202037373D3A3A3A3D2B2B2B2B2B2BC7
:10F34E002B2B2B2B2B2B2E2E2E2E2B2B2B2B2B2BF3
:10F35E002B2B2B2B2B2B2B2B2B2B2B2B2B2B2B3DDD
:10F36E002E2E2E7E2B2B2B2B2B2B2B2B2B2B2B3D71
:10F37E007E3A3A3D3F37372020202020200D0A00CC
:10F38E0020202020202037494949493F2B2B3D2E54
:10F39E002E2E2E2E2E2E2E2E2E2E2B2B2B2B2B2B91
:10F3AE002B2B2B2B2B2B2B2B2B2B2B2B2B2B2B2B9F
:10F3BE002B2B2B2B2B3A2E2E2E2E2E2E2E2E2E2E62
:10F3CE003D2B2B3F4949493F373720202020202015
:10F3DE000D0A00202020202020373F7E3A7E3D2B34
:10F3EE002B2B2B2B2B2B2B2B2B2B2E2E2E2B2B2B56
:10F3FE002B2B2B2B2B2B2B2B2B2B2B2B2B2B2B2B4F
:10F40E002B2B2B2B2B2B2B2B2E2E2E2B2B2B2B2B35
:10F41E002B2B2B2B2B2B3D7E3A7E2B49372020205E
:10F42E002020200D0A0020202020203737492B3D98
:10F43E007E2E2E2E2E2E2E2E2E2E2E2E2E2E2E2E8E
:10F44E002E2E2E2E2E2E2E2E2E2E3A2B2B2B2B2BD1
:10F45E007E2E2E2E2E2E2E2E2E2E2E2E2E2E2E2E6E
:10F46E002E2E2E2E2E2E2E2E2E2E3A3D2B493F3761
:10F47E003720202020200D0A002020202020374970
:10F48E007E7E7E3D2B2B2B2B2B2B2B2B2B2B3A2EA1
:10F49E002E2E2B2B2B2B2B2B2B2B2B2B2B2B2B2BA8
:10F4AE002B2B2B2B2B2B2B2B2B2B2B2B2B2B2B7E4B
:10F4BE002E2E2E2B2B2B2B2B2B2B2B2B2B3D7E7ECD
:10F4CE007E2B493720202020200D0A0020202020CE
:10F4DE0020373F493D7E2C2E2E2E2E2E2E2E2E2EBA
:10F4EE002E2E2E2E2E2E2E2E2E2E2E2E2E2E2E2E2E
:10F4FE002E2E2E2E2E2E2E2E2E2E2E2E2E2E2E2E1E
:10F50E002E2E2E2E2E2E2E2E2E2E2E2E2E2E2E2E0D
:10F51E002C7E3D4949493720202020200D0A00200D
:10F52E0020202037373D7E7E3D2B2B2B2B2B2B2B5C
:10F53E002B2B2B2E2E2E2B2B2B2B2B2B2B2B2B2B04
:10F54E002B2B2B2B2B2B2B2B2B2B2B2B2B2B2B2BFD
:10F55E002B2B2B2B2B2B2B2E2E2E2B2B2B2B2B2BE4
:10F56E002B2B2B2B3D7E7E3D3F3737202020200D31
:10F57E000A0020202020374949497E2C2E2E2E2E7F
:10F58E002E2E2E2E2E2E2E2E2E2E2E2E2E2E2E2E8D
:10F59E002E2E2E2E2E2E2E2E2E2E2E2E2E2E2E2E7D
:10F5AE002E2E2E2E2E2E2E2E2E2E2E2E2E2E2E2E6D
:10F5BE002E2E2E2E2E2E2E2C7E49493F37372020D2
:10F5CE0020200D0A0020202020373F49493F2B2EB6
:10F5DE002E2E2E2E2E2E2E2E2E2E2E2E2E2E2E2E3D
:10F5EE002E2E2E2E2E2E2E2E2E2E2E2E2E2E2E2E2D
:10F5FE002E2E2E2E2E2E2E2E2E2E2E2E2E2E2E2E1D
:10F60E002E2E2E2E2E2E2E2E2E2E2B3F4949493F9C
:10F61E0037202020200D0A0020202020373F3D3D9E
:10F62E003D2B2B2B2B2B2B2B2B2B2B2E2E2E2B2B01
:10F63E002B2B2B2B2B2B2B2B2B2B2B2B2B2B2B2B0C
:10F64E002B2B2B2B2B2B2B2B2B2B2B2B2B2B2B2BFC
:10F65E002B2E2E2E2B2B2B2B2B2B2B2B2B2B3D3DBF
:10F66E003D2B4937202020200D0A0020202037373F
:10F67E002B3D3D2B2B2B2B2B2B2B2B2B2B2C2E2EA1
:10F68E002B2B2B2B2B2B2B2B2B2B2B2B2B2B2B2BBC
:10F69E002B2B2B2B2B2B2B2B2B2B2B2B2B2B2B2BAC
:10F6AE002B2B2B2B2B2E2E2E2B2B2B2B2B2B2B2B93
:10F6BE002B2B3D3D3D3F37372020200D0A002020CB
:10F6CE002037373F49493F2B2E2E2E2E2E2E2E2EF3
:10F6DE002E2E2E2E2E2E2E2E2E2E2E2E2E2E2E2E3C
:10F6EE002E2E2E2B2B2B2B2B2E2E2E2E2E2E2E2E3B
:10F6FE002E2E2E2E2E2E2E2E2E2E2E2E2E2E2E2E1C
:10F70E002E2E2E2B3F3F49493F37372020200D0A02
:10F71E0000202020372B2B2B2B2B2B2B2B2B2B2B6B
:10F72E002B2B2B2B2B2B2B2B2B2B2B2B2B2B2B2B1B
:10F73E002B2B2B2B2B2B2B2B2B2B2B2B2B2B2B2B0B
:10F74E002B2B2B2B2B2B2B2B2B2B2B2B2B2B2B2BFB
:10F75E002B2B2B2B2B2B2B2B2B2B2B2B3F372020E1
:10F76E00200D0A00202020373F493F3F2B2B2B2E08
:10F77E002E2E2E2E2E2E2E2E2E2E2E2E2E2E2E2E9B
:10F78E002E2E2E2E2E2E2E2E2B2B2B2B2B2B2B2EA0
:10F79E002E2E2E2E2E2E2E2E2E2E2E2E2E2E2E2E7B
:10F7AE002E2E2E2E2E2E2E2E2B2B2B3F3F493F3F15
:10F7BE00372020200D0A0020202037492B2B2B2B01
:10F7CE002B2B2B2B2B2B2B2B2B2E2E2B2B2B2B2B75
:10F7DE002B2B2B2B2B2B2B2B2B2B2B2B2B2B2B2B6B
:10F7EE002B2B2B2B2B2B2B2B2B2B2B2B2B2B2B2B5B
:10F7FE002B2B2E2E2B2B2B2B2B2B2B2B2B2B2B3D33
:10F80E002B2B49372020200D0A00202020373F497E
:10F81E00493F2B2B2B2E2E2E2E2E2E2E2E2E2E2ED7
:10F82E002E2E2E2E2E2E2E2E2E2E2E2E2E2E2E2BED
:10F83E002B2B2B2B2E2E2E2E2E2E2E2E2E2E2E2EE6
:10F84E002E2E2E2E2E2E2E2E2E2E2E2E2E2E7E2B7D
:10F85E002B3F49493F49372020200D0A00202037F1
:10F86E00372B2B2B2B2B2B2B2B2B2B2B2B2B2E2EC8
:10F87E002E2E2E2E2E2E2E2E2E2E3D2B2B2B2B2B9A
:10F88E002B2B2B2B2B2B2B2B2B2B2B2B2B2B2B2EB7
:10F89E002E2E2E2E2E2E2E2E2E2E2E2B2B2B2B2B89
:10F8AE002B2B2B2B2B2B2B2B2B373720200D0A0002
:10F8BE00202037373F3F3F3F2B2B2B7E2E2E2E2ED9
:10F8CE002E2E2E2E2E2E2E2E2E2E2E2E2E2E2E2E4A
:10F8DE002E2E2E2E2B2B2B2B2B2B2B2E2E2E2E2E4F
:10F8EE002E2E2E2E2E2E2E2E2E2E2E2E2E2E2E2E2A
:10F8FE002E2E2E2E2B2B2B2B3F3F3F2B3737202000
:10F90E000D0A00202037373F3F3F2B2B2B2B2B2E62
:10F91E002E2E2E2E2E2E2E2E2E2E2E2E2E2E2E2EF9
:10F92E002E2E2E2E2E2E2B2B2B2B2B2B2B2B2B2E04
:10F93E002E2E2E2E2E2E2E2E2E2E2E2E2E2E2E2ED9
:10F94E002E2E2E2E2E2E2B2B2B2B2B3F3F3F3F378B
:10F95E003720200D0A00202037493F3F3F2B2B2B0D
:10F96E002B2B2B3D2E2E2E2E2E2E2E2E2E2E2E2EA3
:10F97E002E2E2E2E2E2E2E7E2B2B2B2B2B2B2B2B61
:10F98E002B2B2B2B2E2E2E2E2E2E2E2E2E2E2E2E95
:10F99E002E2E2E2E2E2E2E2E2B2B2B2B2B2B3F3F69
:10F9AE003F2B493720200D0A00202037492B3F2BB3
:10F9BE002B2B2B2B2B2B2B2B2E2E2E2E2E2E2E2E71
:10F9CE002E2E2E2E2E2E2E2E2E2B2B2B2B2B2B2B5E
:10F9DE002B2B2B2B2B2B2B2B2E2E2E2E2E2E2E2E51
:10F9EE002E2E2E2E2E2E2E2E2E2B2B2B2B2B2B2B3E
:10F9FE002B2B3F2B3F493720200D0A002020374963
:10FA0E003F3F3F2B2B2B2B2B2B2E2E2E2E2E2E2EE7
:10FA1E002E2E2E2E2E2E2E2E2E2E2E2E2E2E3D2BEC
:10FA2E002B2B2B2B2B2B2B2B2B2E2E2E2E2E2E2E03
:10FA3E002E2E2E2E2E2E2E2E2E2E2E2E2E2E2B2BDE
:10FA4E002B2B2B2B3F3F3F3F493720200D0A0050D9
:10FA5E007265737320616E79206B657920746F20E7
:10FA6E007374617274207265636F7264696E67205D
:10FA7E00617564696F20616E6420707265737320A6
:10FA8E00616E79206B657920746F2073746F7020AE
:10FA9E007265636F7264696E672E004C6F672066C5
:10FAAE00696C65206E616D653A2042726F77736581
:10FABE0020616E642070726F766964652061202EFD
:10FACE0063737620657874656E73696F6E20746FDC
:10FADE0020796F75722066696C65206E616D650D9B
:10FAEE000A00546F2073706F6F6C207465726D69AD
:10FAFE006E616C20636F6E74656E747320696E74C4
:10FB0E006F20612066696C6520666F6C6C6F772064
:10FB1E00746865736520696E737472756374696F4A
:10FB2E006E733A0D0A00596F75206D6179207465F8
:10FB3E00726D696E6174652073706F6F6C696E673C
:10FB4E0020617420616E7974696D652077697468BF
:10FB5E002061206B65792070726573732E0D0A001B
:10FB6E005269676874206D6F75736520636C696385
:10FB7E006B206F6E20746865207570706572206CD6
:10FB8E00656674206F6620746865205075545459EC
:10FB9E002077696E646F770D0A00313A20777269AB
:10FBAE00746520612070657266656374203236203C
:10FBBE0076616C75652073696E6520776176652058
:10FBCE00746F2074686520534420636172640D0A5B
:10FBDE00000D0A2D2D2D2D2D2D2D2D2D2D2D2D2DB7
:10FBEE002D2D2D2D2D2D2D2D2D2D2D2D2D2D2D2D37
:10FBFE002D2D2D2D2D2D2D2D2D2D2D2D2D2D2D2D27
:10FC0E002D2D2D2D0D0A0053656C6563743A202041
:10FC1E0020202053657373696F6E206C6F67676960
:10FC2E006E673A20416C6C2073657373696F6E203A
:10FC3E006F75747075740D0A002B2F2D20496E632D
:10FC4E0072656173652F44656372656173652074B7
:10FC5E0068652073616D706C6520726174652062D9
:10FC6E00792031302075730D0A00546F20636C6F4C
:10FC7E007365207468652066696C6520666F6C6CB0
:10FC8E006F7720746865736520696E73747275631F
:10FC9E0074696F6E733A200D0A00573A20577269D5
:10FCAE007465206D6963726F70686F6E65203D3E7E
:10FCBE0020534420636172642061742031363030E9
:10FCCE002075730D0A00723A2072656164206120FE
:10FCDE00626C6F636B206F66202564206279746599
:10FCEE00732066726F6D20534420636172640D0A37
:10FCFE00004E6F20636F6E66696775726174696F0F
:10FD0E006E206F6620646576656C6F706D656E74BF
:10FD1E0020626F6172640D0A0053706F6F6C6564C0
:10FD2E0020353132206F7574206F6620746865201F
:10FD3E0035313220626C6F636B732E0D0A00536582
:10FD4E006C6563743A202020202053657373696FAD
:10FD5E006E20206C6F6767696E673A204E6F6E6516
:10FD6E000D0A00612F412064656372656173652F12
:10FD7E00696E63726561736520726561642061648A
:10FD8E0064726573730D0A0053656C6563743A2073
:10FD9E00202020204368616E676520736574746946
:10FDAE006E67732E2E2E0D0A00733A2073706F6FCE
:10FDBE006C206D656D6F727920746F206120637396
:10FDCE00762066696C650D0A00577269746520624B
:10FDDE006C6F636B2073696E207761766520766138
:10FDEE006C7565733A0D0A00556E646572666C6FBC
:10FDFE0077656420746F2068696768206164647237
:10FE0E006573730D0A00426C6F636B204C656E67F1
:10FE1E00746820526573706F6E73653A2025780D85
:10FE2E000A004F766572666C6F77656420746F207A
:10FE3E006C6F7720616464726573730D0A00434DB5
:10FE4E0044302C20526573657420526573706F6E4A
:10FE5E0073653A2025780D0A00434D44312C204914
:10FE6E006E697420526573706F6E73653A202578D3
:10FE7E000D0A00507265737320616E79206B65797F
:10FE8E0020746F2073746172740D0A00693A2049F0
:10FE9E006E697469616C697A65205344206361727E
:10FEAE00640D0A007A3A20436C65617220746865AD
:10FEBE00207465726D696E616C0D0A002020202021
:10FECE005374617475733A202020202025303278C7
:10FEDE000D0A0053656C6563743A20202020204C77
:10FEEE006F6767696E670D0A0053656C6563743AD8
:10FEFE0020202020204170706C79200D0A005A3A83
:10FF0E002052657365742070726F636573736F72C0
:10FF1E000D0A0044656372656173656420616464F3
:10FF2E00726573730D0A00496E6372656173656461
:10FF3E0020616464726573730D0A0053656C6563AA
:10FF4E00743A20202020204170706C790D0A0053E5
:10FF5E0044206361726420616464726573733A2035
:10FF6E002000534420636172642074657374696E5B
:10FF7E00670D0A00556E6B6E6F776E206B6579207C
:10FF8E0025630D0A0020202020416464726573737E
:10FF9E003A20202020005265616420626C6F636BF2
:10FFAE003A200D0A003F3A2068656C70206D656E30
:10FFBE00750D0A004465762732310D0A004C6162D8
:10FFCE002030390D0A006F3A096F6B0D0A006F3A37
:10FFDE00206B0D0A0025303278200025640D0A00B2
:10FFEE0025303478000D0A0A002563003E20003AC1
:02FFFE00000001
:020000040020DA
:08000000FFFFFFFFFFFFFFFF00
:020000040030CA
:0E000000FF281F3CFFBF85FF0FC00FE00F4021
:00000001FF
