:020000040000FA
:0400000027EF00F0F6
:100008004C82FACF10F0FBCF11F0D9CF12F0DACF33
:1000180013F0F2AA12EF00F014EF00F01DEF00F059
:10002800F2A419EF00F01BEF00F01DEF00F0CFEC89
:100038001AF013C0DAFF12C0D9FF11C0FBFF10C0BD
:10004800FAFF4C921100C5EF18F0000E0101D66FAF
:10005800000ED76F000ED86F000ED96F000EB86F64
:10006800000EB96F000EBA6F000EBB6F000EC06FA6
:10007800000EC16F000EC26F000EC36F40EC1BF084
:100088008A88000E156E000E146ED1EC1BF0F294E7
:10009800F2A451EF00F053EF00F04CEF00F0F80E2F
:1000A800146E1F0E156ED6EC1BF0F28EF28CFAEC65
:1000B80010F0BF0E0001A66FFF0EA76F18EC1BF023
:1000C800E00E0001A66FFE0EA76F18EC1BF0C80E1D
:1000D8000001A66FFF0EA76F18EC1BF0600E000161
:1000E800A66FFC0EA76F18EC1BF0F6EC1BF0000EC9
:1000F80090EC17F0F90E0001A66FFF0EA76F18EC31
:100108001BF0B6EC1BF00009D8B48DEF00F08FEFB0
:1001180000F085EF00F02CEC1BF00101CD6F7A0E9A
:100128000001A66FFF0EA76FCDC1A8F0A96B18EC50
:100138001BF00CEF09F0400EA66FFB0EA76F18EC32
:100148001BF0B00E0001A66FFD0EA76F0101B8519C
:10015800C05D0001BE6F0101B951C1590001BF6FF7
:100168000101BA51C2590001C06F0101BB51C35905
:100178000001C16F0A0EC6EF00F0D890C133C0333A
:10018800BF33BE33E82EC1EF00F0BEC0A8F0BFC039
:10019800A9F0C0C0AAF0C1C0ABF018EC1BF0900EDB
:1001A8000001A66FFF0EA76F18EC1BF0ED0E000103
:1001B800A66FFF0EA76FD8C1A8F0D9C1A9F0AA6B86
:1001C800AB6B18EC1BF0FC0E0001A66FFF0EA76FBF
:1001D80018EC1BF0ED0E0001A66FFF0EA76FFF0EC7
:1001E8000101D6150001A86FFF0E0101D715000106
:1001F800A96F000E0101D8150001AA6F000E0101B8
:10020800D9150001AB6F18EC1BF0AD0E0001A66FFD
:10021800FF0EA76F18EC1BF00A0E0001A66FFF0E69
:10022800A76FD1C0BEF0D2C0BFF0040EC06FD89087
:10023800BF33BE33C02F1BEF01F0BEC0A8F0BFC054
:10024800A9F018EC1BF0420E0001A66FFB0EA76F79
:1002580018EC1BF0B00E0001A66FFF0EA76F18EC8C
:100268001BF0D90E0001A66FFF0EA76F18EC1BF04C
:10027800F50E0001A66FFE0EA76F18EC1BF0860E98
:100288000001A66FFE0EA76F18EC1BF0420E0001CE
:10029800A66FFB0EA76F18EC1BF06E0E0001A66F81
:1002A800FE0EA76F18EC1BF0420E0001A66FFB0EA6
:1002B800A76F18EC1BF0AD0E0001A66FFC0EA76F20
:1002C80018EC1BF0350E0001A66FFC0EA76F020E8E
:1002D800A96F000EA86F18EC1BF0090E0001A66F9D
:1002E800FB0EA76F020EA96F000EA86F18EC1BF08B
:1002F800420E0001A66FFB0EA76F18EC1BF0A80EAC
:100308000001A66FFB0EA76F18EC1BF0090E000189
:10031800A66FFC0EA76F18EC1BF0160E0001A66F57
:10032800FD0EA76F18EC1BF0420E0001A66FFB0E26
:10033800A76F18EC1BF07EEF00F0D10EA66FFF0E32
:10034800A76F18EC1BF07EEF00F0000E0101CF6FD5
:10035800000ECE6FCF5109E1280ECE5DD8A0B7EFC1
:1003680001F0B9EF01F0BBEF01F0C7EF01F0F40EB7
:100378000001A66FFF0EA76F18EC1BF00101CE4B12
:10038800CF2BAEEF01F0FF007EEF00F0000E010171
:10039800CF6F000ECE6FCF5109E1280ECE5DD8A0E9
:1003A800D8EF01F0DAEF01F0DCEF01F07EEF00F0BA
:1003B800F40E0001A66FFF0EA76F18EC1BF00101E9
:1003C800CE4BCF2BCFEF01F0D6C1C5F1D7C1C6F1C7
:1003D800D8C1C7F1D9C1C8F1B6EC1BF00009D8B42F
:1003E800F8EF01F0FAEF01F0F0EF01F02CEC1BF060
:1003F800000E0101AF6F6BEF02F0000E0101BD6F3F
:10040800000EBC6F020EBD5DD8A00DEF02F00FEF1D
:1004180002F011EF02F036EF02F0FB0E0001CC25DE
:10042800F66EF76AF20EF722F86A000EF822DE0E70
:100438000101BC25D96E070EBD21DA6E0800F5CF83
:10044800DFFF0001CC2B190ECC652DEF02F02FEF4A
:1004580002F031EF02F0000ECC6F0101BC4BBD2B56
:1004680006EF02F0630E0001A66FF30EA76F18ECFB
:100478001BF0C5C115F0C6C116F0C7C117F0C8C139
:1004880018F0DE0E196E070E1A6E7EEC18F029ECC5
:100498001AF00101D56FD529D8B455EF02F057EFFE
:1004A80002F04BEF02F0C5C114F0C6C115F0C7C188
:1004B80016F0C8C117F088EC19F014C0C5F115C0C2
:1004C800C6F116C0C7F117C0C8F10101AF2B800EE5
:1004D800AF6171EF02F073EF02F07DEF02F0B6EC5E
:1004E8001BF00009D8B47BEF02F07DEF02F001EFBA
:1004F80002F0C5C1C0F1C6C1C1F1C7C1C2F1C8C1CE
:10050800C3F10101D651C55DA76FD751C659A86F70
:10051800D851C759A96FD951C859AA6F090E0001F6
:10052800BE6FD8900101AA33A933A833A7330001BD
:10053800BE2F95EF02F0360EA66FFD0EA76F18ECD2
:100548001BF0740E0001A66FFD0EA76FA7C1A8F0DF
:10055800A8C1A9F0A9C1AAF0AAC1ABF018EC1BF078
:100568007F0E0001A66FFF0EA76F18EC1BF0ED0EB3
:100578000001A66FFF0EA76FD8C1A8F0D9C1A9F0D6
:10058800AA6BAB6B18EC1BF0FC0E0001A66FFF0EFC
:10059800A76F18EC1BF0ED0E0001A66FFF0EA76FFA
:1005A800FF0E0101D6150001A86FFF0E0101D71536
:1005B8000001A96F000E0101D8150001AA6F000EF5
:1005C8000101D9150001AB6F18EC1BF0AD0E00014D
:1005D800A66FFF0EA76F18EC1BF09E0E0001A66F0A
:1005E800FE0EA76FD5C1A8F0A96B18EC1BF07EEF23
:1005F80000F0A00ED125D16F000ED221D26F7EEF70
:1006080000F0410ED15D010ED259D8A00EEF03F0D3
:1006180010EF03F07EEF00F0600ED125D16FFF0ED2
:10062800D221D26F7EEF00F0B8C1D0F1B9C1D1F1BB
:10063800BAC1D2F1BBC1D3F1000ED06F000ECF6F9B
:10064800010ECD6F80EF03F00001D051D8A42FEF39
:1006580003F031EF03F028EF03F0D0C115F0D1C15A
:1006680016F0D2C117F0D3C118F0DE0E196E050EC0
:100678001A6EE6EC17F0010E0001D06FD0C114F02D
:10068800D1C115F0D2C116F0D3C117F088EC19F01A
:1006980014C0D0F115C0D1F116C0D2F117C0D3F1F2
:1006A8000001CF51D8A45BEF03F05DEF03F054EFE6
:1006B80003F0D0C115F0D1C116F0D2C117F0D3C1E3
:1006C80018F0DE0E196E030E1A6EE6EC17F0010E26
:1006D8000001CF6FD0C114F0D1C115F0D2C116F00E
:1006E800D3C117F088EC19F014C0D0F115C0D1F1BE
:1006F80016C0D2F117C0D3F1B6EC1BF00009D8A48C
:1007080088EF03F08AEF03F09DEF03F00101C05179
:10071800D0190DE1C151D1190AE1C251D21907E12D
:10072800C351D319D8A49BEF03F09DEF03F028EF32
:1007380003F0B6EC1BF00009D8B4A5EF03F0A7EF5F
:1007480003F0ABEF03F02CEC1BF0010E466E00013A
:10075800CD51D8A4B2EF03F0B4EF03F0ABEF03F040
:100768007EEF00F0190EA66FF30EA76F18EC1BF0C2
:10077800B6EC1BF00009D8B4C4EF03F0C6EF03F0E1
:10078800BCEF03F02CEC1BF0D6C1B8F1D7C1B9F11E
:10079800D8C1BAF1D9C1BBF1D6C1DAF1D7C1DBF101
:1007A800D8C1DCF1D9C1DDF1000E0101D46F010E11
:1007B800486EEFEF04F00001D051D8B4E6EF03F033
:1007C800E8EF03F067EF04F0DAC115F0DBC116F0CB
:1007D800DCC117F0DDC118F0DE0E196E050E1A6EB9
:1007E8007EEC18F029EC1AF00101D56FD529D8B4A0
:1007F80000EF04F002EF04F0F6EF03F0D5511F0B01
:10080800050AD8B40AEF04F00CEF04F026EF04F060
:10081800DAC115F0DBC116F0DCC117F0DDC118F044
:10082800DE0E196E050E1A6E7EEC18F029EC1AF021
:100838000101D56FD529D8B424EF04F026EF04F0D0
:100848001AEF04F0000E0001D06F0101D5511F0B03
:10085800050AD8B432EF04F034EF04F055EF04F091
:10086800800ED4613AEF04F03CEF04F055EF04F049
:10087800D451040DDE0EF324D96E010EF420DA6E85
:10088800DAC1DEFFDBC1DEFFDCC1DEFFDDC1DEFF7A
:10089800000ED425D96EDA6A010EDA22D5C1DFFF3F
:1008A800D42BDAC114F0DBC115F0DCC116F0DDC1C0
:1008B80017F088EC19F014C0DAF115C0DBF116C096
:1008C800DCF117C0DDF10001CF51D8B46EEF04F0B0
:1008D80070EF04F0EFEF04F0DAC115F0DBC116F0A9
:1008E800DCC117F0DDC118F0DE0E196E030E1A6EAA
:1008F8007EEC18F029EC1AF00101D56FD529D8B48F
:1009080088EF04F08AEF04F07EEF04F0D5511F0B56
:10091800050AD8B492EF04F094EF04F0AEEF04F0B7
:10092800DAC115F0DBC116F0DCC117F0DDC118F033
:10093800DE0E196E030E1A6E7EEC18F029EC1AF012
:100948000101D56FD529D8B4ACEF04F0AEEF04F0AF
:10095800A2EF04F0000E0001CF6F0101D5511F0B6B
:10096800050AD8B4BAEF04F0BCEF04F0DDEF04F0E8
:10097800800ED461C2EF04F0C4EF04F0DDEF04F0A0
:10098800D451040DDE0EF324D96E010EF420DA6E74
:10099800DAC1DEFFDBC1DEFFDCC1DEFFDDC1DEFF69
:1009A800000ED425D96EDA6A010EDA22D5C1DFFF2E
:1009B800D42BDAC114F0DBC115F0DCC116F0DDC1AF
:1009C80017F088EC19F014C0DAF115C0DBF116C085
:1009D800DCF117C0DDF1B6EC1BF00009D8B4F7EF75
:1009E80004F0F9EF04F0DFEF03F02CEC1BF0010E3C
:1009F800476E0EEF06F0D051D8B405EF05F007EFBB
:100A080005F086EF05F0DAC115F0DBC116F0DCC1A0
:100A180017F0DDC118F0DE0E196E050E1A6E7EECA9
:100A280018F029EC1AF00101D56FD529D8B41FEFB9
:100A380005F021EF05F015EF05F0D5511F0B050A5C
:100A4800D8B429EF05F02BEF05F045EF05F0DAC132
:100A580015F0DBC116F0DCC117F0DDC118F0DE0EB1
:100A6800196E050E1A6E7EEC18F029EC1AF00101C9
:100A7800D56FD529D8B443EF05F045EF05F039EF28
:100A880005F0000E0001D06F0101D5511F0B050ABA
:100A9800D8B451EF05F053EF05F074EF05F0800E70
:100AA800D46159EF05F05BEF05F074EF05F0D45110
:100AB800040DDE0EF324D96E010EF420DA6EDAC1CD
:100AC800DEFFDBC1DEFFDCC1DEFFDDC1DEFF000EC5
:100AD800D425D96EDA6A010EDA22D5C1DFFFD42B0C
:100AE800DAC114F0DBC115F0DCC116F0DDC117F076
:100AF80088EC19F014C0DAF115C0DBF116C0DCF18E
:100B080017C0DDF10001CF51D8B48DEF05F08FEF9C
:100B180005F00EEF06F0DAC115F0DBC116F0DCC106
:100B280017F0DDC118F0DE0E196E030E1A6E7EEC9A
:100B380018F029EC1AF00101D56FD529D8B4A7EF20
:100B480005F0A9EF05F09DEF05F0D5511F0B050A3B
:100B5800D8B4B1EF05F0B3EF05F0CDEF05F0DAC189
:100B680015F0DBC116F0DCC117F0DDC118F0DE0EA0
:100B7800196E030E1A6E7EEC18F029EC1AF00101BA
:100B8800D56FD529D8B4CBEF05F0CDEF05F0C1EF7F
:100B980005F0000E0001CF6F0101D5511F0B050AAA
:100BA800D8B4D9EF05F0DBEF05F0FCEF05F0800EC7
:100BB800D461E1EF05F0E3EF05F0FCEF05F0D45167
:100BC800040DDE0EF324D96E010EF420DA6EDAC1BC
:100BD800DEFFDBC1DEFFDCC1DEFFDDC1DEFF000EB4
:100BE800D425D96EDA6A010EDA22D5C1DFFFD42BFB
:100BF800DAC114F0DBC115F0DCC116F0DDC117F065
:100C080088EC19F014C0DAF115C0DBF116C0DCF17C
:100C180017C0DDF10001D051D8A415EF06F017EF89
:100C280006F0FFEF04F0CF51D8A41DEF06F01FEF38
:100C380006F0FFEF04F0CE51D8A425EF06F027EF19
:100C480006F0FFEF04F0DAC1C0F1DBC1C1F1DCC18D
:100C5800C2F1DDC1C3F1AD0EA66FFF0EA76F18EC90
:100C68001BF00101D451D8B43CEF06F03EEF06F07A
:100C78007EEF00F0200E0001A66FFE0EA76F18ECA5
:100C88001BF0000E0101C46F9FEF06F0C451040D64
:100C9800DE0EF324D96E010EF420DA6EDECFB0F149
:100CA800DECFB1F1DECFB2F1DECFB3F1550E0001E8
:100CB800A66FFD0EA76F000E0101C425D96EDA6A72
:100CC800010EDA22DF500001BE6FBE51A86FA96B7A
:100CD80018EC1BF0ED0E0001A66FFF0EA76FB2C156
:100CE800A8F0B3C1A9F0AA6BAB6B18EC1BF0FC0E13
:100CF8000001A66FFF0EA76F18EC1BF0E00E0001B5
:100D0800A66FFF0EA76FFF0E0101B0150001A86FB7
:100D1800FF0E0101B1150001A96F000E0101B21506
:100D28000001AA6F000E0101B3150001AB6F18ECAA
:100D38001BF00101C42BD451C45DD8A0A6EF06F066
:100D4800A8EF06F04AEF06F07EEF00F0950EA66FCA
:100D5800FA0EA76F18EC1BF0AC0E0001A66FF30E8D
:100D6800A76F18EC1BF0AD0E0001A66FFF0EA76F62
:100D780018EC1BF0CF0E0001A66FFA0EA76F18EC47
:100D88001BF0F50E0001A66FFC0EA76F18EC1BF008
:100D9800B50E0001A66FFE0EA76F18EC1BF0760EBD
:100DA8000001A66FFB0EA76F18EC1BF0650E000183
:100DB800A66FF30EA76F18EC1BF0470E0001A66F85
:100DC800FF0EA76F18EC1BF0550E0001A66FFE0E64
:100DD800A76F18EC1BF0B6EC1BF00009D8B4F7EFBE
:100DE80006F0F9EF06F0EFEF06F02CEC1BF0B8C1B7
:100DF800C9F1B9C1CAF1BAC1CBF1BBC1CCF1C0C10B
:100E0800B4F1C1C1B5F1C2C1B6F1C3C1B7F10101B5
:100E1800C951B45D0001BE6F0101CA51B559000145
:100E2800BF6F0101CB51B6590001C06F0101CC5110
:100E3800B7590001C16F0A0E27EF07F0D890C133E8
:100E4800C033BF33BE33E82E22EF07F0BEC0A1F196
:100E5800BFC0A2F1C0C0A3F1C1C0A4F1000E01013E
:100E6800AB6F000EAC6F000EAD6F000EAE6F91EF62
:100E780007F0C9C115F0CAC116F0CBC117F0CCC133
:100E880018F0DE0E196E070E1A6EE6EC17F0C9C1DF
:100E980014F0CAC115F0CBC116F0CCC117F088EC1C
:100EA80019F014C0C9F115C0CAF116C0CBF117C0AA
:100EB800CCF1000E0101BF6F000EBE6F020EBF190C
:100EC800BE11D8A46AEF07F06CEF07F06EEF07F0D9
:100ED8008BEF07F0DE0EBE25D96E070EBF21DA6E46
:100EE800DF500001BE6FBE510101A56FA66B8D0ECC
:100EF8000001A66FFD0EA76FA5C1A8F0A6C1A9F0B5
:100F080018EC1BF00101BE4BBF2B62EF07F0010E7E
:100F1800AB27000EAC23AD23AE23B6EC1BF00009C3
:100F2800D8A499EF07F09BEF07F0AEEF07F00101A7
:100F3800B451C9190DE1B551CA190AE1B651CB1915
:100F480007E1B751CC19D8A4ACEF07F0AEEF07F022
:100F58003DEF07F0B6EC1BF00009D8B4B6EF07F088
:100F6800B8EF07F0BAEF07F02CEC1BF0D20E000137
:100F7800A66FFC0EA76FABC1A8F0ACC1A9F0ADC1BC
:100F8800AAF0AEC1ABF0A1C1ACF0A2C1ADF0A3C153
:100F9800AEF0A4C1AFF018EC1BF0D90E0001A66F9B
:100FA800FB0EA76F18EC1BF0CF0E0001A66FFA0E10
:100FB800A76F18EC1BF0F50E0001A66FFC0EA76FCB
:100FC80018EC1BF0B50E0001A66FFE0EA76F18EC0B
:100FD8001BF0880E0001A66FFC0EA76F18EC1BF023
:100FE800CB0E0001A66FFE0EA76F18EC1BF07EEF6C
:100FF80000F0F6EC1BF0000E90EC17F0010E77EC09
:1010080014F07EEF00F0610E0101CD19D8A40FEFA6
:1010180008F011EF08F03DEF08F0000ED65F020E61
:10102800D75B000ED85B000ED95B040ED95DD8A043
:1010380020EF08F022EF08F034EF08F0920E0001DC
:10104800A66FFD0EA76F18EC1BF0000E0101D66FFE
:10105800FE0ED76FFF0ED86F030ED96F67EF08F03B
:101068001F0E0001A66FFF0EA76F18EC1BF067EFAD
:1010780008F0000ED627020ED723000ED823000E44
:10108800D923040ED95DD8A04CEF08F04EEF08F034
:1010980060EF08F0E90E0001A66FFD0EA76F18ECCF
:1010A8001BF0000E0101D66F000ED76F000ED86F2F
:1010B800000ED96F67EF08F0330E0001A66FFF0E20
:1010C800A76F18EC1BF05B0E0001A66FFF0EA76F51
:1010D80018EC1BF0ED0E0001A66FFF0EA76FD8C12C
:1010E800A8F0D9C1A9F0AA6BAB6B18EC1BF0FC0EE9
:1010F8000001A66FFF0EA76F18EC1BF0ED0E0001A4
:10110800A66FFF0EA76FFF0E0101D6150001A86F8D
:10111800FF0E0101D7150001A96F000E0101D815B6
:101128000001AA6F000E0101D9150001AB6F18EC80
:101138001BF0AD0E0001A66FFF0EA76F18EC1BF099
:101148007EEF00F0D6C115F0D7C116F0D8C117F060
:10115800D9C118F0DE0E196E070E1A6EE6EC17F0FC
:10116800A10E0001A66FFF0EA76F18EC1BF07F0EF3
:101178000001A66FFF0EA76F18EC1BF0ED0E000123
:10118800A66FFF0EA76FD8C1A8F0D9C1A9F0AA6BA6
:10119800AB6B18EC1BF0FC0E0001A66FFF0EA76FDF
:1011A80018EC1BF0ED0E0001A66FFF0EA76FFF0EE7
:1011B8000101D6150001A86FFF0E0101D715000126
:1011C800A96F000E0101D8150001AA6F000E0101D8
:1011D800D9150001AB6F18EC1BF0AD0E0001A66F1E
:1011E800FF0EA76F18EC1BF0DE0E0001B46F070EA0
:1011F800B56FF0EC11F07EEF00F06E0EA66FFF0EEB
:10120800A76FCDC1A8F0A96B18EC1BF07EEF00F01A
:101218000101CD510001BE6FBF6BBF51000AD8B4A8
:1012280018EF09F001EF09F0BE512B0AD8B4FDEF11
:1012380002F0060AD8B405EF03F01C0AD8B4E8EFA8
:1012480001F00E0AD8B49FEF00F07E0AD8B407EF79
:1012580008F0110AD8B418EF03F0070AD8B4B6EFAB
:1012680003F00D0AD8B4A9EF01F03B0AD8B407EF90
:1012780008F0080AD8B4FDEF07F0060AD8B4A1EFC1
:1012880001F01D0AD8B4A6EF08F0010AD8B4AAEFF5
:1012980006F0090AD8B4CAEF01F001EF09F027EF08
:1012A80000F081C0D9FF82C0DAFFDECFF6FFDDCFC4
:1012B800F7FFF86A0800F550250AD8A466EF09F088
:1012C80068EF09F0FAEF0BF081C0D9FF82C0DAFFAE
:1012D800DE2A000EDD22000E3A6E000E396E39C08D
:1012E8003DF03AC03EF03B683C68000E0001926F4A
:1012F800000E916FC7EF09F03D8081C0D9FF82C011
:10130800DAFFDE2A000EDD22C7EF09F03D8281EF09
:1013180009F03D8481EF09F03D8681EF09F03D88B1
:1013280081EF09F0000E926F010E916FC7EF09F07F
:1013380081C0D9FF82C0DAFFDECFF6FFDDCFF7FF2D
:10134800F86A0800F550856F866B8651000AD8B494
:10135800B0EF09F096EF09F08551200AD8B490EF64
:1013680009F0030AD8B493EF09F0080AD8B48DEF4E
:1013780009F0060AD8B480EF09F01D0AD8B48AEF3C
:1013880009F096EF09F091519211D8B4CEEF09F017
:10139800D0EF09F09CEF09F03DA0D5EF09F0D7EFA9
:1013A80009F0D8EF09F03D9281C0D9FF82C0DAFF79
:1013B800DECFF6FFDDCFF7FFF86A0800F5502A0AFE
:1013C800D8A4E9EF09F0EBEF09F014EF0AF081C0B7
:1013D800D9FF82C0DAFFDE2A000EDD2283C0D9FFE2
:1013E80084C0DAFFDFCF85F0020EDE26DFCF86F07D
:1013F800000EDD2285C0D9FF86C0DAFFDECF39F0C6
:10140800DDCF3AF03ABE0DEF0AF00BEF0AF059EFD4
:101418000AF03D80396C3A1ED8B03A2A59EF0AF0E2
:1014280081C0D9FF82C0DAFFDECF1BF0DDCF1CF010
:10143800E6EC12F01BC039F01CC03AF02BEF0AF0B2
:1014480081C0D9FF82C0DAFFDE2A000EDD22D00E6D
:101458000001856FFF0E866F81C0D9FF82C0DAFF59
:10146800DECFF6FFDDCFF7FFF86A0800F550876F8B
:10147800886B855187278651882388510AE10A0E8F
:10148800875DD8A04AEF0AF04DEF0AF0010E4EEF43
:101498000AF0000E936F946B93519411D8A457EFF0
:1014A8000AF059EF0AF024EF0AF081C0D9FF82C090
:1014B800DAFFDECFF6FFDDCFF7FFF86A0800F55058
:1014C800630AD8A46AEF0AF06CEF0AF093EF0AF007
:1014D80081C0D9FF82C0DAFFDE2A000EDD2283C078
:1014E800D9FF84C0DAFFDFCF85F0020EDE26DFCF1A
:1014F80086F0000EDD2285C0D9FF86C0DAFFDF50F6
:101508009D6F7FC01FF080C020F09DC021F05DEC72
:1015180016F01FC07FF020C080F016EF0CF081C0DD
:10152800D9FF82C0DAFFDECFF6FFDDCFF7FFF86A1A
:101538000800F550640AD8B4A4EF0AF0A6EF0AF040
:10154800B9EF0AF081C0D9FF82C0DAFFDECFF6FF1B
:10155800DDCFF7FFF86A0800F550690AD8A4B7EF9D
:101568000AF0B9EF0AF0F9EF0AF081C0D9FF82C09A
:10157800DAFFDE2A000EDD2283C0D9FF84C0DAFF3D
:10158800DFCF85F0020EDE26DFCF86F0000EDD22EB
:1015980085C0D9FF86C0DAFFDECF89F0DDCF8AF0BB
:1015A800000E8ABFFF0E8B6F8C6F8D6F8E6F8F6FE3
:1015B800906F7FC060F080C061F089C062F08AC01F
:1015C80063F08BC064F08CC065F08DC066F08EC08F
:1015D80067F08FC068F090C069F017EC0CF060C03D
:1015E8007FF061C080F016EF0CF081C0D9FF82C097
:1015F800DAFFDECFF6FFDDCFF7FFF86A0800F55017
:10160800750AD8A40AEF0BF00CEF0BF04DEF0BF0B6
:1016180081C0D9FF82C0DAFFDE2A000EDD2283C036
:10162800D9FF84C0DAFFDFCF85F0020EDE26DFCFD8
:1016380086F0000EDD2285C0D9FF86C0DAFFDECF36
:1016480087F0DDCF88F087C095F088C096F0976B5B
:10165800986B996B9A6B9B6B9C6B7FC060F080C09A
:1016680061F095C062F096C063F097C064F098C0CE
:1016780065F099C066F09AC067F09BC068F09CC09E
:1016880069F0F8EC0EF060C07FF061C080F016EFF2
:101698000CF081C0D9FF82C0DAFFDECFF6FFDDCFC4
:1016A800F7FFF86A0800F550780AD8B45EEF0BF037
:1016B80060EF0BF073EF0BF081C0D9FF82C0DAFF47
:1016C800DECFF6FFDDCFF7FFF86A0800F550580ABD
:1016D800D8A471EF0BF073EF0BF0C2EF0BF081C0E1
:1016E800D9FF82C0DAFFDECFF6FFDDCFF7FFF86A59
:1016F8000800F5CF9DF081C0D9FF82C0DAFFDE2A4D
:10170800000EDD2283C0D9FF84C0DAFFDFCF85F069
:10171800020EDE26DFCF86F0000EDD2285C0D9FF5F
:1017280086C0DAFFDECF87F0DDCF88F087C095F07E
:1017380088C096F0976B986B996B9A6B9B6B9C6BB8
:101748007FC060F080C061F095C062F096C063F021
:1017580097C064F098C065F099C066F09AC067F0C9
:101768009BC068F09CC069F09DC06AF089EC0DF0E0
:1017780060C07FF061C080F016EF0CF081C0D9FF27
:1017880082C0DAFFDECFF6FFDDCFF7FFF86A080088
:10179800F550250AD8A4D3EF0BF0D5EF0BF0EDEFF9
:1017A8000BF081C0D9FF82C0DAFFDE2A000EDD22ED
:1017B800000E176E250E166E7FC018F080C019F047
:1017C80033EC18F0000E0001806F010E7F6F16EFEA
:1017D8000CF081C0D9FF82C0DAFFDE2A000EDD22BC
:1017E800000E806F000E7F6F16EF0CF081C0D9FFDE
:1017F80082C0DAFFDECFF6FFDDCFF7FFF86A080018
:10180800F550166E176A7FC018F080C019F033ECD7
:1018180018F081C0D9FF82C0DAFFDE2A000EDD226F
:10182800E6EF0BF0120062C072F063C073F064C0A0
:1018380074F065C075F066C076F067C077F068C070
:1018480078F069C079F0000179BF2DEF0CF030EF26
:101858000CF0010E31EF0CF0000E706F716B7051CF
:101868007111D8B43AEF0CF03CEF0CF04CEF0CF0DF
:10187800791F781F771F761F751F741F731F726D6E
:10188800000E732374237523762377237823792313
:101898003CBE51EF0CF053EF0CF054EF0CF03D92BE
:1018A8003CBE61EF0CF03C5006E13B04D8B05FEF62
:1018B8000CF061EF0CF067EF0CF0000E6D6F010E8D
:1018C8006C6F6BEF0CF03BC06CF03CC06DF039C036
:1018D8006EF03AC06FF070517111D8A476EF0CF029
:1018E80078EF0CF07FEF0CF03DA47DEF0CF07FEF6C
:1018F8000CF082EF0CF06E07D8A06F07000E7B6F1C
:101908001F0E7A6F000E01019F6F08EF0DF07A0726
:10191800D8A07B07800E7A25D96E010E7B21DA6E5E
:1019280072C014F073C015F074C016F075C017F0CB
:1019380076C018F077C019F078C01AF079C01BF09B
:101948000A0E1C6E000E1D6E000E1E6E000E1F6E1F
:10195800000E206E000E216E000E226E000E236E09
:1019680033EC15F014C031F015C032F016C033F066
:1019780017C034F018C035F019C036F01AC037F067
:101988001BC038F031C026F033C027F0CCEC19F07A
:101998002650300FDF6E00016C07D8A06D076E0768
:1019A800D8A06F0772C014F073C015F074C016F099
:1019B80075C017F076C018F077C019F078C01AF023
:1019C80079C01BF00A0E1C6E000E1D6E000E1E6EF6
:1019D800000E1F6E000E206E000E216E000E226E8D
:1019E800000E236EB3EC13F014C072F015C073F040
:1019F80016C074F017C075F018C076F019C077F0EB
:101A08001AC078F01BC079F000017BBF14EF0DF00D
:101A18007B5108E17A05D8A014EF0DF016EF0DF010
:101A280046EF0DF07251731174117511761177111B
:101A380078117911D8A423EF0DF025EF0DF08BEF75
:101A48000CF06DBF32EF0DF06D5106E16C05D8B0AA
:101A580030EF0DF032EF0DF08BEF0CF06FBF3DEF74
:101A68000DF06F5108E16E05D8A03DEF0DF03FEF86
:101A78000DF046EF0DF03DB244EF0DF046EF0DF0DE
:101A88008BEF0CF070517111D8A44DEF0DF04FEFA2
:101A98000DF056EF0DF03DA454EF0DF056EF0DF09C
:101AA80074EF0DF07A07D8A07B0770517111D8A494
:101AB80060EF0DF062EF0DF068EF0DF0000E6B6F48
:101AC8002B0E6A6F6CEF0DF0000E6B6F2D0E6A6FA8
:101AD800800E7A25D96E010E7B21DA6E6AC0DFFF8F
:101AE80060C026F061C027F0800E7A25286E010EAE
:101AF8007B21296E6EC02AF06FC02BF02FEC17F0F7
:101B080026C060F027C061F012003CBE8EEF0DF0D9
:101B180090EF0DF091EF0DF03D923CBE9EEF0DF071
:101B28003C5006E13B04D8B09CEF0DF09EEF0DF061
:101B3800A5EF0DF0000E0001706F010E6F6FA9EF99
:101B48000DF03BC06FF03CC070F039C071F03AC086
:101B580072F03DA8B2EF0DF0B4EF0DF0B9EF0DF053
:101B68000001FE0E7127FF0E722362C073F063C07E
:101B780074F064C075F065C076F066C077F067C031
:101B880078F068C079F069C07AF0000E00017C6FC7
:101B98001F0E7B6F000E01019F6F87EF0EF07B0712
:101BA800D8A07C070F0E73157D6F7E6B7EBFE6EFA6
:101BB8000DF07E5109E10A0E7D5DD8A0E6EF0DF02B
:101BC800E8EF0DF0F0EF0DF0570E7D257D6F000E5C
:101BD8007E217E6FF6EF0DF0300E7D257D6F000EB5
:101BE8007E217E6FBF0E316EFF0E326E6A51336EEC
:101BF800346A315033263250342234500AE11A0EF6
:101C0800335CD8A00AEF0EF00DEF0EF0010E0EEFC8
:101C18000EF0000E6B6F6C6B6B516C11D8B417EF34
:101C28000EF019EF0EF049EF0EF09F0E316EFF0E19
:101C3800326E200E7D11336E000E7E11346E3150DF
:101C480033263250342234500AE11A0E335CD8A0BD
:101C580030EF0EF033EF0EF0010E34EF0EF0000E01
:101C68006D6F6E6B6D516E11D8B43DEF0EF03FEF96
:101C78000EF049EF0EF07DC01AF07EC01BF030EC7C
:101C880019F01AC07DF01BC07EF0800E00017B2584
:101C9800D96E010E7C21DA6E7DC0DFFF6F07D8A0F8
:101CA80070077107D8A0720773C031F074C032F0A2
:101CB80075C033F076C034F077C035F078C036F0B0
:101CC80079C037F07AC038F0050E74EF0EF0D8906E
:101CD80038323732363235323432333232323132C8
:101CE800E82E6BEF0EF031C073F032C074F033C0E1
:101CF80075F034C076F035C077F036C078F037C06C
:101D080079F038C07AF000017CBF94EF0EF07C5176
:101D180009E1020E7B5DD8A094EF0EF096EF0EF06D
:101D2800C6EF0EF073517411751176117711781191
:101D380079117A11D8A4A3EF0EF0A5EF0EF0D3EF26
:101D48000DF070BFB2EF0EF0705106E16F05D8B01C
:101D5800B0EF0EF0B2EF0EF0D3EF0DF072BFBDEFA3
:101D68000EF0725108E17105D8A0BDEF0EF0BFEF7B
:101D78000EF0C6EF0EF03DB2C4EF0EF0C6EF0EF057
:101D8800D3EF0DF03DA8CBEF0EF0CDEF0EF0E3EF63
:101D98000EF07B07D8A07C07800E7B25D96E010E3C
:101DA8007C21DA6E6AC0DFFF7B07D8A07C07800E33
:101DB8007B25D96E010E7C21DA6E300EDF6E60C095
:101DC80026F061C027F0800E7B25286E010E7C214D
:101DD800296E71C02AF072C02BF02FEC17F026C0C4
:101DE80060F027C061F012003CBEFDEF0EF0FFEF7F
:101DF8000EF000EF0FF03D923CBE0DEF0FF03C509F
:101E080006E13B04D8B00BEF0FF00DEF0FF014EF25
:101E18000FF0000E00016B6F010E6A6F18EF0FF0E4
:101E28003BC06AF03CC06BF039C06CF03AC06DF052
:101E380062C06EF063C06FF064C070F065C071F08E
:101E480066C072F067C073F068C074F069C075F05E
:101E5800000E0001776F1F0E766F000E01019F6F55
:101E6800ADEF0FF07607D8A07707800E7625D96EEC
:101E7800010E7721DA6E6EC014F06FC015F070C0D5
:101E880016F071C017F072C018F073C019F074C062
:101E98001AF075C01BF00A0E1C6E000E1D6E000EA7
:101EA8001E6E000E1F6E000E206E000E216E000EBC
:101EB800226E000E236EC7EC16F014C031F015C068
:101EC80032F016C033F017C034F018C035F019C01E
:101ED80036F01AC037F01BC038F03150300FDF6EC3
:101EE80000016A07D8A06B076C07D8A06D076EC001
:101EF80014F06FC015F070C016F071C017F072C002
:101F080018F073C019F074C01AF075C01BF00A0EEF
:101F18001C6E000E1D6E000E1E6E000E1F6E000E53
:101F2800206E000E216E000E226E000E236EE5EC70
:101F380015F014C06EF015C06FF016C070F017C021
:101F480071F018C072F019C073F01AC074F01BC099
:101F580075F0000176517711D8B4B5EF0FF0B7EFEF
:101F68000FF0E7EF0FF06E516F11701171117211D0
:101F7800731174117511D8A4C4EF0FF0C6EF0FF0E8
:101F880036EF0FF06BBFD3EF0FF06B5106E16A0528
:101F9800D8B0D1EF0FF0D3EF0FF036EF0FF06DBFE1
:101FA800DEEF0FF06D5108E16C05D8A0DEEF0FF001
:101FB800E0EF0FF0E7EF0FF03DB2E5EF0FF0E7EFDE
:101FC8000FF036EF0FF060C026F061C027F0800EEA
:101FD8007625286E010E7721296E6CC02AF06DC017
:101FE8002BF02FEC17F026C060F027C061F012002C
:101FF800C28276EC1BF00001D151015C096ED2510E
:1020080002580A6EEFEC1BF0010E0F6EC4CF0DF0F4
:102018000E6AD8EF10F04850D8B415EF10F017EF4B
:1020280010F028EF10F0010E0001CE6F040E456E7F
:10203800000E406E000E3F6EDE0E4A6E050E4B6EB1
:10204800010E486EF9EF10F00001CD51D8B42FEF12
:1020580010F031EF10F0F9EF10F0DE0E4A6E050EB9
:102068004B6E000E406E000E3F6E020E456EF9EF8D
:1020780010F00001D051D8A444EF10F046EF10F052
:10208800F9EF10F03F504A24D96E40504B20DA6ED9
:10209800DF500B6E0B50016E026AEAEC1AF03F4AF1
:1020A800402A020E40183F10D8A45DEF10F05FEFF1
:1020B80010F0F9EF10F0010E0001D06FDE0E4A6E3D
:1020C800030E4B6ECF51D8B46CEF10F06EEF10F0DA
:1020D80070EF10F0030E456E0F50D8B476EF10F085
:1020E80079EF10F0010E7AEF10F0000E0F6E000E6F
:1020F800406E000E3F6E4650D8B485EF10F087EF63
:1021080010F0F9EF10F0000E456E000ECD6FF9EFEC
:1021180010F00001D051D8A494EF10F096EF10F011
:10212800F9EF10F03F504A24D96E40504B20DA6E38
:102138000DC0DFFF3F4A402A020E40183F10D8A4C6
:10214800A8EF10F0AAEF10F0F9EF10F0010E00015F
:10215800D06FDE0E4A6E030E4B6ECF51D8B4B7EF78
:1021680010F0B9EF10F0BBEF10F0030E456E0F50F2
:10217800D8B4C1EF10F0C4EF10F0010EC5EF10F0A5
:10218800000E0F6E000E406E000E3F6E4750D8B422
:10219800D0EF10F0D2EF10F0F9EF10F0000ECE6F84
:1021A800000E456EF9EF10F045500B6E0C6A0C509E
:1021B800000AD8B4E2EF10F0F9EF10F00B50000A63
:1021C800D8B40FEF10F0010AD8B43DEF10F0030AAD
:1021D800D8B446EF10F0010AD8B48DEF10F0070A12
:1021E800D8B496EF10F0F9EF10F01200F00E0001DD
:1021F800A66FF30EA76F18EC1BF02F0E0001A66F49
:10220800F40EA76F18EC1BF06E0E0001A66FF40E0B
:10221800A76F18EC1BF0AD0E0001A66FF40EA76FA8
:1022280018EC1BF0EC0E0001A66FF40EA76F18EC6B
:102238001BF02B0E0001A66FF50EA76F18EC1BF014
:102248006A0E0001A66FF50EA76F18EC1BF0E80EDA
:102258000001A66FF50EA76F18EC1BF0660E0001C3
:10226800A66FF60EA76F18EC1BF0E40E0001A66F20
:10227800F60EA76F18EC1BF0230E0001A66FF70EE1
:10228800A76F18EC1BF0A10E0001A66FF70EA76F41
:1022980018EC1BF05E0E0001A66FF80EA76F18EC85
:1022A8001BF09D0E0001A66FF80EA76F18EC1BF02F
:1022B8005A0E0001A66FF90EA76F18EC1BF0990EC5
:1022C8000001A66FF90EA76F18EC1BF0D80E0001DD
:1022D800A66FF90EA76F18EC1BF0170E0001A66F7A
:1022E800FA0EA76F18EC1BF0560E0001A66FFA0E37
:1022F800A76F18EC1BF01B0E0001A66FF90EA76F55
:1023080018EC1BF01B0E0001A66FF90EA76F18EC56
:102318001BF0DC0E0001A66FF80EA76F18EC1BF07F
:102328001F0E0001A66FF80EA76F18EC1BF0E00E49
:102338000001A66FF70EA76F18EC1BF0620E0001E4
:10234800A66FF70EA76F18EC1BF0A50E0001A66F7D
:10235800F60EA76F18EC1BF0270E0001A66FF60EFD
:10236800A76F18EC1BF0A90E0001A66FF50EA76F5A
:1023780018EC1BF06A0E0001A66FF50EA76F18EC9B
:102388001BF02B0E0001A66FF50EA76F18EC1BF0C3
:10239800EC0E0001A66FF40EA76F18EC1BF0AD0E43
:1023A8000001A66FF40EA76F18EC1BF06E0E00016B
:1023B800A66FF40EA76F18EC1BF02F0E0001A66F86
:1023C800F40EA76F18EC1BF0F00E0001A66FF30EC9
:1023D800A76F18EC1BF01200F20E0001A66FFF0E9B
:1023E800A76F18EC1BF0000E0001BD6F000EBC6F4C
:1023F800BC51BD11D8B403EF12F005EF12F01AEF7B
:1024080012F0070EBC15B66F000EBD15B76FB651AA
:10241800B711D8A412EF12F014EF12F01AEF12F05D
:102428008E0EA66FFF0EA76F18EC1BF00001BC51B3
:10243800BD11D8B422EF12F024EF12F07DEF12F0A4
:102448000F0EBC15B66F000EBD15B76FB651B7119C
:10245800D8A431EF12F033EF12F07DEF12F08D0EA9
:10246800A66FFF0EA76F18EC1BF0F00E0001BC253D
:10247800B86FFF0EBD21B96F6CEF12F0B851B425DB
:10248800D96EB951B521DA6E200EDF604EEF12F029
:1024980050EF12F058EF12F0630EA66FF30EA76F0D
:1024A80018EC1BF069EF12F0F60EA66FFF0EA76F7F
:1024B800B851B425D96EB951B521DA6EDF50B66F6F
:1024C800B651A86FA96B18EC1BF00001B84BB92BDB
:1024D800BC51B85DBD51B959D8A075EF12F077EF6E
:1024E80012F042EF12F0AD0EA66FFF0EA76F18ECB8
:1024F8001BF0E70E0001A66FFF0EA76FBC51B425B5
:10250800D96EBD51B521DA6EDF50B66FB651A86FDE
:10251800A96B18EC1BF00001BC4BBD2B020EBD5D76
:10252800D8A099EF12F09BEF12F0FCEF11F08C0E8F
:10253800A66FFF0EA76F18EC1BF0F00E0001BC256C
:10254800BA6FFF0EBD21BB6FD4EF12F0BA51B4259C
:10255800D96EBB51B521DA6E200EDF60B6EF12F0EE
:10256800B8EF12F0C0EF12F0630EA66FF30EA76F6C
:1025780018EC1BF0D1EF12F0F60EA66FFF0EA76F46
:10258800BA51B425D96EBB51B521DA6EDF50B66F9A
:10259800B651A86FA96B18EC1BF00001BA4BBB2B06
:1025A800BC51BA5DBD51BB59D8A0DDEF12F0DFEFC9
:1025B80012F0AAEF12F0AD0EA66FFF0EA76F18EC7F
:1025C8001BF01200000E296E000E286E000E226EFF
:1025D800000E216EF2EF12F01B4A1C2A010E276E24
:1025E8001BC0F6FF1CC0F7FFF86A0800F550200A68
:1025F800D8B401EF13F003EF13F021EF13F0F70E47
:102608001D6EFF0E1E6E1BC0F6FF1CC0F7FFF86A9A
:102618000800F5501F6E206A1D501F261E502022EC
:10262800205009E1050E1F5CD8A01DEF13F01FEF25
:1026380013F021EF13F0000E276E27C023F0246A51
:1026480023502410D8A42BEF13F02DEF13F0F0EF44
:1026580012F037EF13F0000E226E010E216E1B4AA6
:102668001C2A6EEF13F01BC0F6FF1CC0F7FFF86AB8
:102678000800F5501D6E1E6A1E50000AD8B447EFB8
:1026880013F06EEF13F01D502B0AD8B433EF13F08C
:10269800060AD8B42FEF13F06EEF13F028C014F029
:1026A80029C015F0000E176E0A0E166E53EC1BF0BB
:1026B8001BC0F6FF1CC0F7FFF86A0800F550145E4F
:1026C800000E155A300E1424286E000E1520296E9F
:1026D80033EF13F0D00E1D6EFF0E1E6E1BC0F6FFFB
:1026E8001CC0F7FFF86A0800F5501F6E206A1D50DD
:1026F8001F261E50202220500AE10A0E1F5CD8A077
:1027080088EF13F08BEF13F0010E8CEF13F0000E2F
:10271800256E266A25502610D8A495EF13F097EF5A
:1027280013F052EF13F021502210D8A49EEF13F0AB
:10273800A0EF13F0AEEF13F028C01DF029C01EF073
:102748001D1E1E1E1D4A1E2A1DC01BF01EC01CF089
:10275800B2EF13F028C01BF029C01CF01200000EC5
:10276800256E23BEBCEF13F0BAEF13F0CEEF13F0D3
:10277800231E221E211E201E1F1E1E1E1D1E1C6C17
:10278800000E1D221E221F22202221222222232265
:10279800010E256E1BBED5EF13F0D3EF13F0E7EF54
:1027A80013F01B1E1A1E191E181E171E161E151EA4
:1027B800146C000E152216221722182219221A222A
:1027C8001B22010E251A20EE26F0070EDE6AE80607
:1027D800FDE21C501D101E101F1020102110221089
:1027E8002310D8B4FAEF13F0FCEF13F04EEF14F007
:1027F800010E246E0AEF14F0D8901C361D361E36D2
:102808001F362036213622362336242A23AE0FEFF0
:1028180014F011EF14F000EF14F0D8902636273694
:10282800283629362A362B362C362D361C50145C81
:102838001D5015581E5016581F501758205018581C
:102848002150195822501A5823501B58D8A02FEF3E
:1028580014F031EF14F042EF14F01C50145E1D50C8
:10286800155A1E50165A1F50175A2050185A2150E0
:10287800195A22501A5A23501B5A2680D8902332AC
:102888002232213220321F321E321D321C32242EB7
:1028980011EF14F02550D8B454EF14F056EF14F09B
:1028A80066EF14F02D1E2C1E2B1E2A1E291E281E14
:1028B800271E266C000E2722282229222A222B22B4
:1028C8002C222D2226C014F027C015F028C016F09F
:1028D80029C017F02AC018F02BC019F02CC01AF024
:1028E8002DC01BF012000001B66F000E0001B56F7D
:1028F800000EB46FFF0E93EC1BF00001B44BB52B28
:10290800B5BF90EF14F0B55109E10A0EB45DD8A037
:1029180090EF14F092EF14F07EEF14F08A98FF0E07
:1029280093EC1BF0400E93EC1BF0000E93EC1BF0A5
:10293800000E93EC1BF0000E93EC1BF0000E93ECD2
:102948001BF0950E93EC1BF0FF0E93EC1BF0FF0EA3
:1029580093EC1BF00001B76F8A88B605D8A4B7EFCF
:1029680014F0B9EF14F0C2EF14F0050EA66FFE0EC6
:10297800A76FB7C0A8F0A96B18EC1BF08A98FF0ED8
:1029880093EC1BF0410E93EC1BF0000E93EC1BF044
:10299800000E93EC1BF0000E93EC1BF0000E93EC72
:1029A8001BF0FF0E93EC1BF0FF0E93EC1BF0FF0ED9
:1029B80093EC1BF00001B76F8A88B751D8A4E7EFF2
:1029C80014F0E9EF14F0C2EF14F0B605D8A4EFEF55
:1029D80014F0F1EF14F0FAEF14F03B0EA66FFE0EB0
:1029E800A76FB7C0A8F0A96B18EC1BF08A98FF0E68
:1029F80093EC1BF0500E93EC1BF0000E93EC1BF0C5
:102A0800000E93EC1BF0020E93EC1BF0000E93ECFF
:102A18001BF0FF0E93EC1BF0FF0E93EC1BF0FF0E68
:102A280093EC1BF00001B76F8A88B729D8B41FEF61
:102A380015F021EF15F0FAEF14F0B605D8A427EF3A
:102A480015F029EF15F032EF15F0CD0EA66FFD0E3B
:102A5800A76FB7C0A8F0A96B18EC1BF01200000E06
:102A6800256E1BBE3CEF15F03AEF15F04EEF15F052
:102A78001B1E1A1E191E181E171E161E151E146C54
:102A8800000E152216221722182219221A221B229A
:102A9800010E256E23BE55EF15F053EF15F065EFC7
:102AA80015F0231E221E211E201E1F1E1E1E1D1E67
:102AB8001C6C000E1D221E221F22202221222222EF
:102AC80023221C501D101E101F1020102110221030
:102AD8002310D8B472EF15F074EF15F0BCEF15F0B1
:102AE800010E246E82EF15F0D8901C361D361E3666
:102AF8001F362036213622362336242A23AE87EF86
:102B080015F089EF15F078EF15F01C50145C1D5086
:102B180015581E5016581F50175820501858215035
:102B2800195822501A5823501B58D8A09EEF15F058
:102B3800A0EF15F0B0EF15F01C50145E1D50155A9B
:102B48001E50165A1F50175A2050185A2150195AF9
:102B580022501A5A23501B5AD8902332223221323B
:102B680020321F321E321D321C32242E89EF15F0FE
:102B78002550D8B4C2EF15F0C4EF15F0D4EF15F016
:102B88001B1E1A1E191E181E171E161E151E146C43
:102B9800000E152216221722182219221A221B2289
:102BA80014C014F015C015F016C016F017C017F0B1
:102BB80018C018F019C019F01AC01AF01BC01BF081
:102BC800120020EE24F0070EDE6AE806FDE21C5033
:102BD8001D101E101F102010211022102310D8B411
:102BE800F8EF15F0FAEF15F04CEF16F0010E2C6E19
:102BF80008EF16F0D8901C361D361E361F362036C4
:102C08002136223623362C2A23AE0DEF16F00FEF8D
:102C180016F0FEEF15F0D8902436253626362736DE
:102C2800283629362A362B361C50145C1D50155868
:102C38001E5016581F501758205018582150195810
:102C480022501A5823501B58D8A02DEF16F02FEFFA
:102C580016F040EF16F01C50145E1D50155A1E5009
:102C6800165A1F50175A2050185A2150195A2250D4
:102C78001A5A23501B5A2480D890233222322132E8
:102C880020321F321E321D321C322C2E0FEF16F04E
:102C980024C014F025C015F026C016F027C017F080
:102CA80028C018F029C019F02AC01AF02BC01BF050
:102CB800120039503A10D8A464EF16F066EF16F0F7
:102CC8006CEF16F039C025F03AC026F072EF16F016
:102CD800FF0E3924256EFF0E3A20266E3DA077EFB1
:102CE80016F079EF16F082EF16F021C016F0176A89
:102CF8001FC018F020C019F033EC18F026BE87EF7B
:102D080016F089EF16F08BEF16F08FEF16F0000E25
:102D1800266E000E256E000E246E000E236EA1EFA7
:102D280016F0000E176E200E166E1FC018F020C089
:102D380019F033EC18F0234A242A2550235C245038
:102D4800800A226E2650800A2258D8A0AEEF16F0CC
:102D5800B0EF16F095EF16F03DB0B5EF16F0B7EFFF
:102D680016F0C0EF16F021C016F0176A1FC018F051
:102D780020C019F033EC18F0010E23241F6E000E4A
:102D88002420206E12001C501D101E101F10201031
:102D9800211022102310D8B4D4EF16F0D6EF16F075
:102DA8001EEF17F0010E246EE4EF16F0D8901C36D3
:102DB8001D361E361F362036213622362336242A63
:102DC80023AEE9EF16F0EBEF16F0DAEF16F01C5031
:102DD800145C1D5015581E5016581F501758205077
:102DE80018582150195822501A5823501B58D8A047
:102DF80000EF17F002EF17F012EF17F01C50145EF7
:102E08001D50155A1E50165A1F50175A2050185A3E
:102E18002150195A22501A5A23501B5AD89023323B
:102E28002232213220321F321E321D321C32242E11
:102E3800EBEF16F014C014F015C015F016C016F01C
:102E480017C017F018C018F019C019F01AC01AF0F6
:102E58001BC01BF012003DA034EF17F036EF17F03F
:102E680040EF17F028C01FF029C020F026C021F03D
:102E780027C022F0AAEC19F02BBE45EF17F047EF58
:102E880017F04DEF17F02AC02FF02BC030F051EF9C
:102E980017F0000E306E000E2F6E000E2E6E000E14
:102EA8002D6E63EF17F0000E176E200E166E26C0FB
:102EB80018F027C019F033EC18F02D4A2E2A2F509D
:102EC8002D5C2E50800A2C6E3050800A2C58D8A0C9
:102ED80070EF17F072EF17F057EF17F03DB077EF7C
:102EE80017F079EF17F083EF17F028C01FF029C00B
:102EF80020F026C021F027C022F0AAEC19F028C043
:102F080014F029C015F0B4EC1AF02F501424266ED2
:102F180030501520276E1200156E6CBA96EF17F018
:102F280098EF17F0E5EF17F01550040D010EF32692
:102F3800000EF422150EF324F66EF30EF420F76E4D
:102F4800F86A000EF8220800F5CF6DFF1550040D41
:102F5800150EF324F66EF30EF420F76EF86A000EE1
:102F6800F8220800F5CF6CFF000E6B6E1550040DAB
:102F7800020EF326000EF422150EF324F66EF30E5D
:102F8800F420F76EF86A000EF8220800F5CF6EFFFD
:102F98001550040D030EF326000EF422150EF3242B
:102FA800F66EF30EF420F76EF86A000EF8220800A9
:102FB800F5CF14F0144693501418FD0B1418936EA3
:102FC8006C8A12008A98FF0E93EC1BF0510E93EC5A
:102FD8001BF0185093EC1BF0175093EC1BF0165095
:102FE80093EC1BF0155093EC1BF0FF0E93EC1BF0C9
:102FF800FF0E93EC1BF0FF0AD8B405EF18F007EFAB
:1030080018F0FCEF17F0FF0E93EC1BF0FF0AD8B492
:1030180010EF18F012EF18F007EF18F0000E1C6E02
:10302800000E1B6E1B501924D96E1C501A20DA6E24
:10303800FF0E93EC1BF0DF6E1B4A1C2A020E1C5C71
:10304800D8A029EF18F02BEF18F016EF18F0FF0EA4
:1030580093EC1BF0FF0E93EC1BF08A8812001850BB
:103068001910D8B43AEF18F03CEF18F045EF18F003
:1030780018501910D8A443EF18F045EF18F04AEF8C
:1030880018F01650EAEC1BF07DEF18F020EE04F073
:103098001850D9261950DA22DE50DE10D8B457EF6E
:1030A80018F059EF18F074EF18F020EE04F01850EB
:1030B800D9261950DA2210EE02F01850E1261950DC
:1030C800E222DE50E65CE650800A1E6EDE50800A80
:1030D8001E58D8B072EF18F074EF18F07DEF18F0A2
:1030E80020EE02F01850D9261950DA22DE2A000EF6
:1030F800DD2212008A98FF0E93EC1BF0580E93EC19
:103108001BF0185093EC1BF0175093EC1BF0165063
:1031180093EC1BF0155093EC1BF0FF0E93EC1BF097
:10312800FF0E93EC1BF0FF0AD8B49DEF18F09FEF49
:1031380018F094EF18F0FF0E93EC1BF0FF0E93ECD1
:103148001BF0FF0E93EC1BF0FE0E93EC1BF0000E31
:103158001C6E000E1B6E1B501924D96E1C501A20B1
:10316800DA6EDF5093EC1BF01B4A1C2A020E1C5C23
:10317800D8A0C1EF18F0C3EF18F0AFEF18F08A88A5
:103188001200F20EF66E370EF76E000EF86E09009A
:10319800F5CFD1F00900F5CFD2F0F00EF66E370E6C
:1031A800F76E000EF86E0900F5CF4AF00900F5CF6A
:1031B8004BF001EEDEF018EE00F0EE6AE550E1505B
:1031C800FCE1E250FAE101EE00F0A00EEE6AE8063A
:1031D800FDE100EEC2F00F0EEE6AE806FDE100EE3A
:1031E80039F0110EEE6AE806FDE14C904C920001B0
:1031F80029EF00F0A0C0A4F0A1C0A5F0000E0001C6
:10320800C36F000EC26F1CEF19F09EC07FF09FC005
:1032180080F0A40E816F000E826FA2C083F0A3C05D
:1032280084F055EC09F000017F51C2278051C32377
:10323800A4C0F6FFA5C0F7FFF86A0800F55000091A
:10324800D8A429EF19F02BEF19F009EF19F0C2C033
:103258009EF0C3C09FF012009F0E1C6EFF0E1D6EE5
:103268001AC01EF01BC01FF01C501E261D501F2226
:103278001F500AE11A0E1E5CD8A045EF19F048EF5E
:1032880019F0010E49EF19F0000E206E216A205046
:103298002110D8B452EF19F054EF19F05AEF19F081
:1032A8005F0E1A141A6E1B6A5EEF19F01AC01AF034
:1032B8001BC01BF01200010E1A6E200E14181510F8
:1032C800D8B469EF19F06BEF19F084EF19F0F70E25
:1032D800166EFF0E176E14C018F015C019F01650B0
:1032E800182617501922195009E1050E185CD8A0A4
:1032F80080EF19F082EF19F084EF19F0000E1A6EC2
:103308001AC014F0156A1200000E1426020E1522B7
:10331800000E1622000E1722040E175CD8A097EF95
:1033280019F099EF19F0A1EF19F0000E146E000EC4
:10333800156E000E166E000E176E14C014F015C030
:1033480015F016C016F017C017F01200000E256E03
:10335800000E246EBBEF19F023C016F0176A21C0C7
:1033680018F022C019F033EC18F0244A252A24500A
:103378001F24D96E25502020DA6EDF50236E23508B
:10338800D8A4C9EF19F0CBEF19F0B0EF19F012007B
:1033980027BED9EF19F0275006E12604D8B0D7EF99
:1033A80019F0D9EF19F0E7EF19F026C028F027C077
:1033B80029F0281E291E284A292A28C026F029C0B3
:1033C80027F0EBEF19F026C026F027C027F01200EF
:1033D800080EB86E900EAB6E240EAC6E820EAF6EF9
:1033E800060EB06E000E146E000E156EE0EC1BF0AB
:1033F800000E146E000E156EDBEC1BF0000E146E42
:10340800000E156EE5EC1BF0000E496E12009F0EC3
:10341800166EFF0E176E200E1410186E000E151083
:10342800196E165018261750192219500AE11A0E4B
:10343800185CD8A022EF1AF025EF1AF0010E26EF3B
:103448001AF0000E146E156A12008A980D0E93EC8D
:103458001BF0156E8A881528D8A435EF1AF037EFB7
:103468001AF03AEF1AF0FF0E44EF1AF0FF0E93EC41
:103478001BF0FF0E93EC1BF0FF0E93EC1BF01550A6
:1034880012009F0E166EFF0E176E14C018F015C0AE
:1034980019F0165018261750192219500AE11A0E59
:1034A800185CD8A05AEF1AF05DEF1AF0010E5EEF23
:1034B8001AF0000E146E156A1200BF0E166EFF0E7B
:1034C800176E14C018F015C019F0165018261750AA
:1034D800192219500AE11A0E185CD8A076EF1AF0D2
:1034E80079EF1AF0010E7AEF1AF0000E146E156AD1
:1034F8001200D00E166EFF0E176E14C018F015C00D
:1035080019F0165018261750192219500AE10A0EF8
:10351800185CD8A092EF1AF095EF1AF0010E96EF0A
:103528001AF0000E146E156A1200D59C000ED76EA4
:10353800000ED66ED650D7CF16F0176A16C017F001
:10354800166A1610416E1750426EF294F28AF40E03
:10355800146E370E156ED6EC1BF09F0ED56E12004A
:1035680014C016F015C017F0BCEF1AF0144A152A4B
:1035780014C0D9FF15C0DAFFDF50D8A4C6EF1AF07F
:10358800C8EF1AF0BAEF1AF01650145C146E175000
:103598001558156E1200F2944250D76E41C0D6FFEE
:1035A80043504410D8B4DBEF1AF0DDEF1AF0E9EF1E
:1035B8001AF002D8E9EF1AF00500FA6E4350FD6ED2
:1035C8004450FE6EFF6AFA501200120001C003F068
:1035D80002C004F0D89004320332D8900432033287
:1035E8000350BE6E01C003F0030E0316033AF00E3B
:1035F8000316BD50CF0B0310BD6E1200000E896E6E
:10360800000E8A6E000E8B6E9268E50E936EBB0EEE
:10361800946E3C0E0F013A6F310E396F2F0E386FD2
:10362800000E616EF18E1200A80E0001B26F000E3E
:10363800B36F000E9E6F000E9F6FA6C0A0F0A7C0CC
:10364800A1F0B20EA26F000EA36FFEEC18F01200EC
:103658009EAA31EF1BF033EF1BF02CEF1BF0000E8E
:10366800496EABA23AEF1BF03CEF1BF03EEF1BF0AC
:10367800AB98AB88AE501200F4EC1BF0C0EC1BF01A
:1036880002EC1BF085EC1BF0A0EC1BF066EC1BF0C9
:10369800C9EC1BF099EC1AF0ECEC19F0120014507C
:1036A8001602F3CF18F0F4CF19F014501702F350A4
:1036B800192615501602F350192618C014F019C00F
:1036C80015F012003C0EBD6E000EB66E800EB76E81
:1036D800010EB96E000EBF6E1F0EBE6EFC0E0F01FE
:1036E80049171200D6CF07F0D7CF08F00850036E5D
:1036F8000750056E03C006F005C001F006C002F0D1
:103708001200700ED36E040ED26E400E9B6ED2AEB7
:1037180090EF1BF092EF1BF08BEF1BF01200146E72
:1037280014C06FFFA4AE9BEF1BF09DEF1BF096EF4C
:103738001BF0A49E6F501200000EC16E260EC06EC4
:10374800000EC36E000EC46E110EC26E1200146E0F
:103758009EA8B1EF1BF0B3EF1BF0ACEF1BF014C049
:10376800ADFF12009EBABBEF1BF0BEEF1BF0010EBF
:10377800BFEF1BF0000E1200400E6D6E010E6C6E56
:10378800010E6E6E93926C9A12003F0EBB6E000E85
:10379800BC6E9E921C0EBA6E12001550D76E14C0E5
:1037A800D6FF120014C043F015C044F0120014C034
:1037B800C8F015C0C9F0120014C0CAF015C0CBF08B
:1037C800120014C0C6F015C0C7F01200156E1550CF
:1037D800ABEC1BF012000A50D76E09C0D6FF1200DE
:0E37E800D09E12006C9A1200DE054006120000
:10F2FA0000809FBBD5E9F8FFFFF8E9D5BB9F806185
:10F30A00452B1708010108172B45610140010050E0
:10F31A007265737320616E79206B657920746F2032
:10F32A007374617274207265636F7264696E6720A8
:10F33A00617564696F20616E6420707265737320F1
:10F34A00616E79206B657920746F2073746F7020F9
:10F35A007265636F7264696E672E004C6F67206610
:10F36A00696C65206E616D653A2042726F777365CC
:10F37A0020616E642070726F766964652061202E48
:10F38A0063737620657874656E73696F6E20746F27
:10F39A0020796F75722066696C65206E616D650DE6
:10F3AA000A00546F2073706F6F6C207465726D69F8
:10F3BA006E616C20636F6E74656E747320696E740F
:10F3CA006F20612066696C6520666F6C6C6F7720B0
:10F3DA00746865736520696E737472756374696F96
:10F3EA006E733A0D0A002E2E2E2E2E2E2E2E2E2E15
:10F3FA002E2E2E2E2E2E2E2E2E2E2E2E2E2E2E2E23
:10F40A002E2E2E2E2E2E2E2E2E2E2E2E2E2E2E2E12
:10F41A002E2E2E2E2E2E2E2E2E2E2E2E2E2E2E2E02
:10F42A002E2E0D0A002E2E2E2E2E2E2E2E2E2E2E65
:10F43A002E2E2E2E2E2E2E2E2E2E3F3F3F3F3F3F7C
:10F44A003F3F3F3F3F3F3F3F3F3F3F2E2E2E2E2E17
:10F45A002E2E2E2E2E2E2E2E2E2E2E2E2E2E2E2EC2
:10F46A002E0D0A002E2E2E2E2E2E2E2E2E2E2E2E25
:10F47A002E2E2E2E2E3F3F3F3F3F3F3F3F3F3F3FE7
:10F48A003F3F3F3F3F3F3F3F3F3F3F3F3F3F2E2EA4
:10F49A002E2E2E2E2E2E2E2E2E2E2E2E2E2E2E2E82
:10F4AA000D0A002E2E2E2E2E2E2E2E2E2E2E2E2EE5
:10F4BA002E3F3F3F3F3F3F3F3F3F3F3F3F3F3F3F63
:10F4CA003F3F3F3F3F3F3F3F3F3F3F3F3F3F3F3F42
:10F4DA002E2E2E2E2E2E2E2E2E2E2E2E2E2E2E0D63
:10F4EA000A002E2E2E2E2E2E2E2E2E2E2E2E3F3F62
:10F4FA003F3F3F3F3F3F3F3F3F3F3F3F3F3F3F3F12
:10F50A003F3F3F3F3F3F3F3F3F3F3F3F3F3F3F3F01
:10F51A003F2E2E2E2E2E2E2E2E2E2E2E2E2E0D0A35
:10F52A00002E2E2E2E2E2E2E2E2E2E3F3F3F3F3FCA
:10F53A003F3F3F3F3F3F3F3F3F3F3F3F3F3F3F3FD1
:10F54A003F3F3F3F3F3F3F3F3F3F3F3F3F3F3F3FC1
:10F55A003F3F2E2E2E2E2E2E2E2E2E2E2E0D0A0012
:10F56A002E2E2E2E2E2E2E2E2E3F3F3F3F3F3F3F3A
:10F57A003F3F3F3F3F3F3F3F3F3F3F3F3F3F3F3F91
:10F58A003F3F3F3F3F3F3F3F3F3F3F3F3F3F3F3F81
:10F59A003F3F2E2E2E2E2E2E2E2E2E2E0D0A002ED2
:10F5AA002E2E2E2E2E2E3F3F3F3F3F3F3F3F3F3FC7
:10F5BA003F3F3F3F3F3F3F3A3A3A3A3A3A3A3A3A7E
:10F5CA003A3A3F3F3F3F3F3F3F3F3F3F3F3F3F3F4B
:10F5DA003F3F3F2E2E2E2E2E2E2E2E0D0A002E2E81
:10F5EA002E2E2E2E2E3F3F3F3F3F3F3F3F3F3F3F76
:10F5FA003F3F3F3F3F3F3F3F3F3F3F3F3F3F3F3F11
:10F60A003F3F3F3F3F3F3F3F3F3F3F3F3F3F3F3F00
:10F61A003F3F2E2E2E2E2E2E2E2E0D0A002E2E2E51
:10F62A002E2E2E3F3F3F3F3F3F3F3F3F3F3F3F3F13
:10F63A003F3F3A3A3A3A3A3A3A3A3A3A3A3A3A3A16
:10F64A003A3A3A3F3F3F3F3F3F3F3F3F3F3F3F3FCF
:10F65A003F3F2E2E2E2E2E2E2E0D0A002E2E2E2E11
:10F66A002E2E3F3F3F3F3F3F3F3F3F3F3F3F3F3FC2
:10F67A003F3F3F3F3F3F3F3F3F3F3F3F3F3F3F3F90
:10F68A003F3F3F3F3F3F3F3F3F3F3F3F3F3F3F3F80
:10F69A003F2E2E2E2E2E2E2E0D0A002E2E2E2E2EE2
:10F6AA003F3F3F3F3F3F3F3F3F3F3F3F3F3F3A3A6A
:10F6BA003A3A3A3A3A3F3F3F3F3F3F3F3A3A3A3A7D
:10F6CA003A3A3A3F3F3F3F3F3F3F3F3F3F3F3F3F4F
:10F6DA003F2E2E2E2E2E2E0D0A002E2E2E2E2E3F91
:10F6EA003F3F3F3F3F3F3F3F3F3F3F3F3F3F3F3F20
:10F6FA003F3F3F3F3F3F3F3F3F3F3F3F3F3F3F3F10
:10F70A003F3F3F3F3F3F3F3F3F3F3F3F3F3F3F3FFF
:10F71A002E2E2E2E2E2E0D0A002E2E2E2E3F3F3F3F
:10F72A003F3A3A3A3A3A3A3A3A3A3A3A3F3F3F3F16
:10F73A003F3F3F3F3F3F3F3F3F3F3F3F3F3F3F3FCF
:10F74A003F3A3A3A3A3A3A3A3A3A3A3A3F3F3F3FF6
:10F75A002E2E2E2E2E0D0A002E2E2E2E3F3F3F3FEE
:10F76A003F3F3F3F3F3F3F3F3F3F3A3A3A3A3A3FB8
:10F77A003F3F3F3F3F3F3F3F3F3F3F3F3A3A3A3AA3
:10F78A003A3F3F3F3F3F3F3F3F3F3F3F3F3F3F2E95
:10F79A002E2E2E2E0D0A002E2E2E3F3F3A3A3A3AA0
:10F7AA003A3A3A3A3A3A3A3A3A3A3A3A3A3A3A3AAF
:10F7BA003F3F3F3F3F3F3F3F3F3A3A3A3A3A3A3A72
:10F7CA003A3A3A3A3A3A3A3A3A3A3A3A3A3F3F2E91
:10F7DA002E2E2E0D0A002E2E2E2E3F3F3F3F3F3F4C
:10F7EA003F3F3F3F3F3F3F3A3A3A3F3F3F3F3F3F2E
:10F7FA003F3F3F3F3F3F3F3F3F3F3F3F3F3A3A3A1E
:10F80A003F3F3F3F3F3F3F3F3F3F3F3F3F3F2E2E20
:10F81A002E2E0D0A002E2E2E3F3F3F3F3F3F3F3FE9
:10F82A003F3F3F3F3F3F3F3F3F3F3F3F3F3F3F3FDE
:10F83A003F3F3F3F3F3F3F3F3F3F3F3F3F3F3F3FCE
:10F84A003F3F3F3F3F3F3F3F3F3F3F3F3F2E2E2EF1
:10F85A002E0D0A002E2E2E3F3F3A3A3A3A3A3A3ABB
:10F86A003A3A3A3A3A3A3A3A3A3A3A3A3A3A3A3AEE
:10F87A003A3A3A3A3A3A3A3A3A3A3A3A3A3A3A3ADE
:10F88A003A3A3A3A3A3A3A3A3A3A3F3F3F2E2E2EE3
:10F89A000D0A002E2E3F3F3F3F3A3A3A3A3A3A3A59
:10F8AA003A3A3A3A3A3A3A3A3A3A3A3A3A3A3A3FA9
:10F8BA003F3F3A3A3A3A3A3A3A3A3A3A3A3A3A3A94
:10F8CA003A3A3A3A3A3A3A3A3F3F3F3F2E2E2E0DCB
:10F8DA000A002E2E2E3F3F3F3F3F3F3F3F3F3F3FD5
:10F8EA003F3F3F3F3F3F3F3F3F3F3F3F3F3F3F3F1E
:10F8FA003F3F3F3F3F3F3F3F3F3F3F3F3F3F3F3F0E
:10F90A003F3F3F3F3F3F3F3F3F3F3F2E2E2E0D0A97
:10F91A00002E2E3F3F3F3F3F3F3F3F3F3F3F3F3F4E
:10F92A003F3F3F3F3F3F3F3F3F3F3F3F3F3F3F3FDD
:10F93A003F3F3F3F3F3F3F3F3F3F3F3F3F3F3F3FCD
:10F94A003F3F3F3F3F3F3F3F3F3F2E2E2E0D0A0096
:10F95A002E2E3F3F3F3F3F3A3A3A3A3A3A3A3A3AFC
:10F96A003A3A3A3A3A3A3A3A3A3A3A3F3F3F3F3FD4
:10F97A003A3A3A3A3A3A3A3A3A3A3A3A3A3A3A3ADD
:10F98A003A3A3A3A3A3F3F3F3F3F2E2E0D0A002E6F
:10F99A003F3F3F3F3F3F3F3A3A3A3A3A3A3A3A3A9A
:10F9AA003A3A3A3A3A3A3A3A3A3F3F3F3F3F3F3F8A
:10F9BA003A3A3A3A3A3A3A3A3A3A3A3A3A3A3A3A9D
:10F9CA003A3A3A3F3F3F3F3F3F2E2E0D0A002E3F25
:10F9DA003F3F3F3F3F3F3A3A3A3A3A3A3A3A3A3A5F
:10F9EA003A3A3A3A3A3A3A3F3F3F3F3F3F3F3F3F40
:10F9FA003A3A3A3A3A3A3A3A3A3A3A3A3A3A3A3A5D
:10FA0A003A3A3F3F3F3F3F3F2E2E0D0A002E3F3FDF
:10FA1A003F3F3F3F3F3F3A3A3A3A3A3A3A3A3A3A1E
:10FA2A003A3A3A3A3A3F3F3F3F3F3F3F3F3F3F3FF5
:10FA3A003A3A3A3A3A3A3A3A3A3A3A3A3A3A3A3F17
:10FA4A003F3F3F3F3F3F3F2E2E0D0A002E2E3F3FA6
:10FA5A003F3F3F3F3F3F3F3A3A3A3A3A3A3A3A3AD9
:10FA6A003A3F3F3F3F3F3F3F3F3F3F3F3F3F3F3FA1
:10FA7A003F3F3A3A3A3A3A3A3A3A3A3A3F3F3F3FBE
:10FA8A003F3F3F3F3F3F2E2E0D0A00596F75206DB5
:10FA9A006179207465726D696E6174652073706F27
:10FAAA006F6C696E6720617420616E7974696D6527
:10FABA0020776974682061206B657920707265739C
:10FACA00732E0D0A005269676874206D6F7573652D
:10FADA0020636C69636B206F6E2074686520757093
:10FAEA00706572206C656674206F66207468652084
:10FAFA0050755454592077696E646F770D0A003136
:10FB0A003A20777269746520612070657266656350
:10FB1A00742032362076616C75652073696E6520B3
:10FB2A007761766520746F2074686520534420637A
:10FB3A006172640D0A000D0A2D2D2D2D2D2D2D2DEE
:10FB4A002D2D2D2D2D2D2D2D2D2D2D2D2D2D2D2DDB
:10FB5A002D2D2D2D2D2D2D2D2D2D2D2D2D2D2D2DCB
:10FB6A002D2D2D2D2D2D2D2D2D0D0A0053656C6556
:10FB7A0063743A202020202053657373696F6E20C6
:10FB8A006C6F6767696E673A20416C6C20736573A6
:10FB9A0073696F6E206F75747075740D0A002B2F60
:10FBAA002D20496E6372656173652F4465637265C2
:10FBBA00617365207468652073616D706C6520726D
:10FBCA006174652062792031302075730D0A005402
:10FBDA006F20636C6F7365207468652066696C6555
:10FBEA0020666F6C6C6F7720746865736520696E28
:10FBFA00737472756374696F6E733A200D0A0057D5
:10FC0A003A205772697465206D6963726F70686F04
:10FC1A006E65203D3E205344206361726420617406
:10FC2A0020313630302075730D0A00723A20726521
:10FC3A006164206120626C6F636B206F66202564AB
:10FC4A002062797465732066726F6D205344206355
:10FC5A006172640D0A004E6F20636F6E6669677584
:10FC6A00726174696F6E206F6620646576656C6F69
:10FC7A00706D656E7420626F6172640D0A0053655F
:10FC8A006C6563743A202020202053657373696F72
:10FC9A006E20206C6F6767696E673A204E6F6E65DB
:10FCAA000D0A00612F412064656372656173652FD7
:10FCBA00696E63726561736520726561642061644F
:10FCCA0064726573730D0A0053706F6F6C656420FC
:10FCDA002575206F7574206F6620746865202575F8
:10FCEA0020626C6F636B732E0D0A0053656C65633B
:10FCFA00743A20202020204368616E67652073656E
:10FD0A007474696E67732E2E2E0D0A00733A20736F
:10FD1A00706F6F6C206D656D6F727920746F2061E2
:10FD2A00206373762066696C650D0A0057726974E0
:10FD3A006520626C6F636B2073696E2077617665EC
:10FD4A002076616C7565733A0D0A00537461747597
:10FD5A007320636F64653A202564202D2D2D2D2094
:10FD6A00416464726573733A2000416D6F756E74F5
:10FD7A00206F6620626C6F636B732073746F726599
:10FD8A00643A2025640D0A00556E646572666C6FCC
:10FD9A0077656420746F206869676820616464729B
:10FDAA006573730D0A0009506C6179206C656E6782
:10FDBA00746820696E20626C6F636B733A202564E5
:10FDCA000D0A00426C6F636B204C656E6774682085
:10FDDA00526573706F6E73653A2025780D0A004F6D
:10FDEA00766572666C6F77656420746F206C6F77C6
:10FDFA0020616464726573730D0A00434D44302CAC
:10FE0A0020526573657420526573706F6E73653A1C
:10FE1A002025780D0A004C697374696E6720777221
:10FE2A00697465206661696C757265733A200D0A9A
:10FE3A0000434D44312C20496E6974205265737019
:10FE4A006F6E73653A2025780D0A005072657373D8
:10FE5A0020616E79206B657920746F2073746172EA
:10FE6A00740D0A00693A20496E697469616C697A8D
:10FE7A006520534420636172640D0A007A3A204374
:10FE8A006C65617220746865207465726D696E6153
:10FE9A006C0D0A00202020205374617475733A2077
:10FEAA0020202020253032780D0A0053656C6563C6
:10FEBA00743A20202020204C6F6767696E670D0A0C
:10FECA000053656C6563743A2020202020417070CD
:10FEDA006C79200D0A0053442063617264202B2040
:10FEEA00706C61796261636B0D0A005A3A2052653F
:10FEFA007365742070726F636573736F720D0A0095
:10FF0A000973616D706C6520726174653A202564AD
:10FF1A0075730D0A004465637265617365642061D7
:10FF2A006464726573730D0A00496E637265617366
:10FF3A00656420616464726573730D0A0053656CAD
:10FF4A006563743A20202020204170706C790D0A74
:10FF5A000053442063617264206164647265737340
:10FF6A003A202000556E6B6E6F776E206B65792094
:10FF7A0025630D0A00202020204164647265737392
:10FF8A003A2020202000097364436172644164644A
:10FF9A00726573733A20005265616420626C6F6304
:10FFAA006B3A200D0A003F3A2068656C70206D6537
:10FFBA006E750D0A004C61622031300D0A004465ED
:10FFCA00762732310D0A006F3A096F6B0D0A006FFE
:10FFDA003A206B0D0A00253034780D0A002530329C
:10FFEA0078200025303478000D0A0A002563003E87
:05FFFA0020003A0000A8
:020000040020DA
:08000000FFFFFFFFFFFFFFFF00
:020000040030CA
:0E000000FF281F3CFFBF85FF0FC00FE00F4021
:00000001FF
