:020000040000FA
:0400000059EF76F04E
:10EACC0001C06AF002C06BF0120001C06EF002C00F
:10EADC006FF0120001C06CF002C06DF012000A5011
:10EAEC00D76E09C0D6FF1200026E02509BEC75F077
:10EAFC0012003F0EBB6E000EBC6E9E921C0EBA6EC8
:10EB0C0012009EBA8CEF75F08FEF75F0010E90EF3E
:10EB1C0075F0000E1200F2B496EF75F099EF75F0E7
:10EB2C00010E9AEF75F0000E1200016E9EA8A1EF77
:10EB3C0075F0A3EF75F09CEF75F001C0ADFF1200FE
:10EB4C002CEC76F0B3EC75F0D0EC75F07FEC75F046
:10EB5C0004EC76F08EEC76F01200700ED36E040E90
:10EB6C00D26E400E9B6ED2AEBEEF75F0C0EF75F05C
:10EB7C00B9EF75F01200D6CF07F0D7CF08F00850D8
:10EB8C00036E0750056E03C006F005C001F006C009
:10EB9C0002F012003C0EBD6E000EB66E800EB76E0B
:10EBAC00010EB96E000EBF6E1F0EBE6EFC0E0F0175
:10EBBC00491712008099B1C7DBEAF6FEFFFEF6EAB0
:10EBCC00DBC7B19980674F3925160A0200020A1675
:10EBDC0025394F679EAAF5EF75F0F7EF75F0F0EF5A
:10EBEC0075F0000E5F6EABA2FEEF75F000EF76F0E5
:10EBFC0002EF76F0AB98AB88AE501200D59CD7687C
:10EC0C00C10ED66ED650D7CF01F0026A01C002F009
:10EC1C00016A01100001686F0250696FF294970E3F
:10EC2C00D56E12005D0E0001926F000E936F000EF8
:10EC3C00536E000E546E5BC055F05CC056F0920ED5
:10EC4C00576E000E586EEFEC76F01200000E896EC7
:10EC5C00000E8A6E000E8B6E92689368BB0E946EDB
:10EC6C003C0E0F013A6F3F0E396F2F0E386F000EAE
:10EC7C00616EF18E120001C003F002C004F0D89056
:10EC8C0004320332D890043203320350BE6E01C0FA
:10EC9C0003F0030E0316033AF00E0316BD50CF0B10
:10ECAC000310BD6E1200C00EF66EEB0EF76E000E6A
:10ECBC00F86E00EEBBF010EE20F00900F5CFEEFF81
:10ECCC00E550E150FAE100EE60F0300EEE6AE80635
:10ECDC00FDE15F6A00013BEF7CF001C003F002C074
:10ECEC0004F07BEF76F0014A022A01C0D9FF02C082
:10ECFC00DAFFDF50D8A485EF76F087EF76F079EF66
:10ED0C0076F00350015C016E04500258026E120042
:10ED1C00080EB86E900EAB6E240EAC6E820EAF6EFB
:10ED2C00060EB06E000E016E000E026E6BEC75F0EE
:10ED3C00000E016E000E026E70EC75F0000E016E8E
:10ED4C00000E026E66EC75F0000E5F6E120014BEC3
:10ED5C00BAEF76F0145006E11304D8B0B8EF76F0A1
:10ED6C00BAEF76F0C8EF76F013C015F014C016F0B9
:10ED7C00151E161E154A162A15C013F016C014F0CF
:10ED8C00CCEF76F013C013F014C014F01200000E88
:10ED9C00126E000E116EDEEF76F010C003F0046AF6
:10EDAC000EC005F00FC006F021EC77F0114A122AC4
:10EDBC0011500C24D96E12500D20DA6EDF50106EEB
:10EDCC001050D8A4ECEF76F0EEEF76F0D3EF76F0AF
:10EDDC00120055C059F056C05AF0000E0001616F78
:10EDEC00000E606F0DEF77F053C042F054C043F04B
:10EDFC00590E446E000E456E57C046F058C047F091
:10EE0C00B1EC79F04250000160274350612359C0A6
:10EE1C00F6FF5AC0F7FFF86A0800F5500009D8A4AD
:10EE2C001AEF77F01CEF77F0FAEF76F060C053F042
:10EE3C0061C054F0120005500610D8B428EF77F0DA
:10EE4C002AEF77F033EF77F005500610D8A431EFA6
:10EE5C0077F033EF77F038EF77F003507AEC75F00A
:10EE6C006BEF77F020EE04F00550D9260650DA222D
:10EE7C00DE50DE10D8B445EF77F047EF77F062EF55
:10EE8C0077F020EE04F00550D9260650DA2210EE69
:10EE9C0002F00550E1260650E222DE50E65CE65018
:10EEAC00800A0B6EDE50800A0B58D8B060EF77F0FA
:10EEBC0062EF77F06BEF77F020EE02F00550D92679
:10EECC000650DA22DE2A000EDD221200000166A1B5
:10EEDC0072EF77F074EF77F07EEF77F015C00CF0EF
:10EEEC0016C00DF013C00EF014C00FF0CDEC76F080
:10EEFC0018BE83EF77F085EF77F08BEF77F017C0C4
:10EF0C001CF018C01DF08FEF77F0000E1D6E000E78
:10EF1C001C6E000E1B6E000E1A6EA1EF77F0000E29
:10EF2C00046E200E036E13C005F014C006F021EC25
:10EF3C0077F01A4A1B2A1C501A5C1B50800A196E57
:10EF4C001D50800A1958D8A0AEEF77F0B0EF77F0CB
:10EF5C0095EF77F0000166B1B6EF77F0B8EF77F088
:10EF6C00C2EF77F015C00CF016C00DF013C00EF008
:10EF7C0014C00FF0CDEC76F015C001F016C002F005
:10EF8C0073EC76F01C500124136E1D500220146E8D
:10EF9C001200000162516311D8A4D7EF77F0D9EFBA
:10EFAC0077F0DFEF77F062C012F063C013F0E5EF9B
:10EFBC0077F0FF0E6225126EFF0E6321136E66A1B1
:10EFCC00EAEF77F0ECEF77F0F5EF77F00EC003F0A7
:10EFDC00046A0CC005F00DC006F021EC77F013BEEE
:10EFEC00FAEF77F0FCEF77F0FEEF77F002EF78F0C6
:10EFFC00000E136E000E126E000E116E000E106ECF
:10F00C0014EF78F0000E046E200E036E0CC005F0A9
:10F01C000DC006F021EC77F0104A112A1250105C4A
:10F02C001150800A0F6E1350800A0F58D8A021EF90
:10F03C0078F023EF78F008EF78F0000166B129EF53
:10F04C0078F02BEF78F034EF78F00EC003F0046A10
:10F05C000CC005F00DC006F021EC77F0010E102469
:10F06C000C6E000E11200D6E1200000E126E08BEFA
:10F07C0044EF78F042EF78F056EF78F0081E071E58
:10F08C00061E051E041E031E021E016C000E02222B
:10F09C00032204220522062207220822010E126EE8
:10F0AC0010BE5DEF78F05BEF78F06DEF78F0101E2E
:10F0BC000F1E0E1E0D1E0C1E0B1E0A1E096C000EC2
:10F0CC000A220B220C220D220E220F221022095092
:10F0DC000A100B100C100D100E100F101010D8B4CD
:10F0EC007AEF78F07CEF78F0C4EF78F0010E116EC7
:10F0FC008AEF78F0D89009360A360B360C360D3676
:10F10C000E360F361036112A10AE8FEF78F091EFC5
:10F11C0078F080EF78F00950015C0A5002580B50DF
:10F12C0003580C5004580D5005580E5006580F50EB
:10F13C00075810500858D8A0A6EF78F0A8EF78F030
:10F14C00B8EF78F00950015E0A50025A0B50035A7E
:10F15C000C50045A0D50055A0E50065A0F50075AAF
:10F16C001050085AD89010320F320E320D320C3229
:10F17C000B320A320932112E91EF78F01250D8B4BA
:10F18C00CAEF78F0CCEF78F0DCEF78F0081E071EB1
:10F19C00061E051E041E031E021E016C000E02221A
:10F1AC0003220422052206220722082201C001F0B4
:10F1BC0002C002F003C003F004C004F005C005F067
:10F1CC0006C006F007C007F008C008F01200000ED9
:10F1DC00126E10BEF6EF78F0F4EF78F008EF79F0DD
:10F1EC00101E0F1E0E1E0D1E0C1E0B1E0A1E096C71
:10F1FC00000E0A220B220C220D220E220F221022AC
:10F20C00010E126E08BE0FEF79F00DEF79F021EFC1
:10F21C0079F0081E071E061E051E041E031E021E84
:10F22C00016C000E02220322042205220622072270
:10F23C000822010E121A20EE13F0070EDE6AE80601
:10F24C00FDE209500A100B100C100D100E100F10CF
:10F25C001010D8B434EF79F036EF79F088EF79F0FC
:10F26C00010E116E44EF79F0D89009360A360B3640
:10F27C000C360D360E360F361036112A10AE49EFFD
:10F28C0079F04BEF79F03AEF79F0D89013361436D9
:10F29C00153616361736183619361A360950015CDB
:10F2AC000A5002580B5003580C5004580D50055876
:10F2BC000E5006580F50075810500858D8A069EF38
:10F2CC0079F06BEF79F07CEF79F00950015E0A5020
:10F2DC00025A0B50035A0C50045A0D50055A0E503A
:10F2EC00065A0F50075A1050085A1380D8901032F3
:10F2FC000F320E320D320C320B320A320932112E11
:10F30C004BEF79F01250D8B48EEF79F090EF79F092
:10F31C00A0EF79F01A1E191E181E171E161E151EA8
:10F32C00141E136C000E14221522162217221822FA
:10F33C0019221A2213C001F014C002F015C003F0F8
:10F34C0016C004F017C005F018C006F019C007F07D
:10F35C001AC008F0120044C0D9FF45C0DAFFDECF56
:10F36C00F6FFDDCFF7FFF86A0800F550250AD8A4A0
:10F37C00C2EF79F0C4EF79F0ADEF7AF044C0D9FF69
:10F38C0045C0DAFFDE2A000EDD22000E0001636F9D
:10F39C00000E626F62C066F063C067F064696569F5
:10F3AC0044C0D9FF45C0DAFFDECFF6FFDDCFF7FF53
:10F3BC00F86A0800F550630AD8A4E7EF79F0E9EF92
:10F3CC0079F010EF7AF044C0D9FF45C0DAFFDE2A9D
:10F3DC00000EDD2246C0D9FF47C0DAFFDFCF48F070
:10F3EC00020EDE26DFCF49F0000EDD2248C0D9FF29
:10F3FC0049C0DAFFDF50526E42C00CF043C00DF032
:10F40C0052C00EF0CFEC77F00CC042F00DC043F0C0
:10F41C00C9EF7AF044C0D9FF45C0DAFFDECFF6FF62
:10F42C00DDCFF7FFF86A0800F550640AD8B421EF75
:10F43C007AF023EF7AF036EF7AF044C0D9FF45C06A
:10F44C00DAFFDECFF6FFDDCFF7FFF86A0800F550E4
:10F45C00690AD8A434EF7AF036EF7AF076EF7AF0C6
:10F46C0044C0D9FF45C0DAFFDE2A000EDD2246C0BB
:10F47C00D9FF47C0DAFFDFCF48F0020EDE26DFCF20
:10F48C0049F0000EDD2248C0D9FF49C0DAFFDECFBB
:10F49C004AF0DDCF4BF0000E4BBEFF0E4C6E4D6EA6
:10F4AC004E6E4F6E506E516E42C01EF043C01FF038
:10F4BC004AC020F04BC021F04CC022F04DC023F0CC
:10F4CC004EC024F04FC025F050C026F051C027F09C
:10F4DC00CAEC7AF01EC042F01FC043F0C9EF7AF0BC
:10F4EC0044C0D9FF45C0DAFFDECFF6FFDDCFF7FF12
:10F4FC00F86A0800F550250AD8A487EF7AF089EF4E
:10F50C007AF0A0EF7AF044C0D9FF45C0DAFFDE2ACA
:10F51C00000EDD22000E046E250E036E42C005F0B7
:10F52C0043C006F021EC77F0000E436E010E426EE4
:10F53C00C9EF7AF044C0D9FF45C0DAFFDE2A000ECD
:10F54C00DD22000E436E000E426EC9EF7AF044C00D
:10F55C00D9FF45C0DAFFDECFF6FFDDCFF7FFF86A43
:10F56C000800F550036E046A42C005F043C006F073
:10F57C0021EC77F044C0D9FF45C0DAFFDE2A000E3B
:10F58C00DD229AEF7AF0120020C038F021C039F059
:10F59C0022C03AF023C03BF024C03CF025C03DF023
:10F5AC0026C03EF027C03FF03FBEDFEF7AF0E2EF1F
:10F5BC007AF0010EE3EF7AF0000E366E376A3650B1
:10F5CC003710D8B4ECEF7AF0EEEF7AF0FEEF7AF079
:10F5DC003F1E3E1E3D1E3C1E3B1E3A1E391E386C05
:10F5EC00000E39223A223B223C223D223E223F226F
:10F5FC00000165BF04EF7BF006EF7BF007EF7BF0BB
:10F60C00669365BF14EF7BF0655106E16405D8B0D5
:10F61C0012EF7BF014EF7BF01AEF7BF0000E336EE1
:10F62C00010E326E1EEF7BF064C032F065C033F019
:10F63C0062C034F063C035F036503710D8A429EFCF
:10F64C007BF02BEF7BF032EF7BF066A530EF7BF09D
:10F65C0032EF7BF035EF7BF03406D8A03506000E88
:10F66C00416E1F0E406E000E8F6FB9EF7BF040069F
:10F67C00D8A04106700E4024D96E000E4120DA6EDF
:10F68C0038C001F039C002F03AC003F03BC004F0BE
:10F69C003CC005F03DC006F03EC007F03FC008F08E
:10F6AC000A0E096E000E0A6E000E0B6E000E0C6E2A
:10F6BC00000E0D6E000E0E6E000E0F6E000E106E14
:10F6CC003BEC78F001C028F002C029F003C02AF00E
:10F6DC0004C02BF005C02CF006C02DF007C02EF096
:10F6EC0008C02FF028C013F02AC014F0ADEC76F04F
:10F6FC001350300FDF6E3206D8A033063406D8A074
:10F70C00350638C001F039C002F03AC003F03BC0F6
:10F71C0004F03CC005F03DC006F03EC007F03FC011
:10F72C0008F00A0E096E000E0A6E000E0B6E000E2B
:10F73C000C6E000E0D6E000E0E6E000E0F6E000E97
:10F74C00106EEDEC78F001C038F002C039F003C057
:10F75C003AF004C03BF005C03CF006C03DF007C0D9
:10F76C003EF008C03FF041BEC4EF7BF0415008E1D1
:10F77C004004D8A0C4EF7BF0C6EF7BF0F7EF7BF032
:10F78C00385039103A103B103C103D103E103F10D1
:10F79C00D8A4D3EF7BF0D5EF7BF03DEF7BF033BEFD
:10F7AC00E2EF7BF0335006E13204D8B0E0EF7BF0AF
:10F7BC00E2EF7BF03DEF7BF035BEEDEF7BF03550AB
:10F7CC0008E13404D8A0EDEF7BF0EFEF7BF0F7EF1E
:10F7DC007BF0000166B3F5EF7BF0F7EF7BF03DEFCC
:10F7EC007BF036503710D8A4FEEF7BF000EF7CF0A6
:10F7FC0008EF7CF0000166A506EF7CF008EF7CF0CA
:10F80C0026EF7CF04006D8A0410636503710D8A41D
:10F81C0012EF7CF014EF7CF01AEF7CF0000E316EDE
:10F82C002B0E306E1EEF7CF0000E316E2D0E306EF6
:10F83C00700E4024D96E000E4120DA6E30C0DFFF0E
:10F84C001EC013F01FC014F0700E4024156E000E75
:10F85C004120166E34C017F035C018F06CEC77F000
:10F86C0013C01EF014C01FF0120020EEBBF010EEFF
:10F87C0096F01F0EDBCFE3FFE806FCE2010E000161
:10F88C00B66FA6EC75F0000E026E000E016E41EC28
:10F89C0076F0000E0A6E000E096E75EC75F0F2949F
:10F8AC00F2A45BEF7CF05DEF7CF056EF7CF0CC0EBD
:10F8BC005B6EFF0E5C6E18EC76F0370E5B6EFF0E17
:10F8CC005C6E18EC76F0E20E5B6EFF0E5C6E18EC64
:10F8DC0076F0FA0E5B6EFF0E5C6E18EC76F087EC31
:10F8EC0075F00009D8B47DEF7CF07FEF7CF075EFFC
:10F8FC007CF0F0EC75F00001B76F38EF7EF0880EFD
:10F90C005B6EFD0E5C6E18EC76F0880E5B6EFD0E79
:10F91C005C6E18EC76F0BD0E5B6EFF0E5C6E18EC38
:10F92C0076F0F30E5B6EFF0E5C6E18EC76F0840EC8
:10F93C005B6EFF0E5C6E18EC76F06C0E5B6EFF0E61
:10F94C005C6E18EC76F0FA0E5B6EFE0E5C6E18ECCC
:10F95C0076F0530E5B6EFD0E5C6E18EC76F0EF0ECF
:10F96C005B6EFD0E5C6E18EC76F0800E5B6EFE0E20
:10F97C005C6E18EC76F0880E5B6EFD0E5C6E18EC0F
:10F98C0076F075EF7CF0EB0E5B6EFF0E5C6E18EC98
:10F99C0076F075EF7CF0000EB86FED0E5B6EFD0E21
:10F9AC005C6E18EC76F00001B82B270EB865E1EF11
:10F9BC007CF0E3EF7CF0D3EF7CF0FF0075EF7CF094
:10F9CC00000EB86FED0E5B6EFD0E5C6E18EC76F0F3
:10F9DC000001B82B270EB865F6EF7CF0F8EF7CF041
:10F9EC00E8EF7CF075EF7CF0B60775EF7CF0B62B8A
:10F9FC0075EF7CF0220E5B6EFE0E5C6E18EC76F0F2
:10FA0C00D20E5B6EFE0E5C6E18EC76F0540E5B6ED6
:10FA1C00FE0E5C6E18EC76F0000E026E000E016E9F
:10FA2C0041EC76F0160E5B6EFD0E5C6E18EC76F00B
:10FA3C00AA0E5B6EFE0E5C6E18EC76F087EC75F021
:10FA4C000009D8B42CEF7DF02EEF7DF024EF7DF083
:10FA5C00F0EC75F0010E026E000E016E41EC76F0CA
:10FA6C00D70E5B6EFC0E5C6E18EC76F0530E5B6E74
:10FA7C00FF0E5C6E18EC76F087EC75F00009D8B4CC
:10FA8C004AEF7DF04CEF7DF042EF7DF0F0EC75F03D
:10FA9C0075EF7CF0220E5B6EFE0E5C6E18EC76F051
:10FAAC00D20E5B6EFE0E5C6E18EC76F0540E5B6E36
:10FABC00FE0E5C6E18EC76F0990E5B6EFF0E5C6EB3
:10FACC0018EC76F0BC0E5B6EFD0E5C6E18EC76F0EE
:10FADC00000E0001BA6F000EB96F960E0001B92529
:10FAEC00D96E000EBA21DA6EDF50946F9451016E0C
:10FAFC00026A41EC76F01A0E5B6EFF0E5C6E960E8F
:10FB0C000001B925D96E000EBA21DA6EDF50946F60
:10FB1C0094515D6E5E6A18EC76F087EC75F0000916
:10FB2C00D8B49BEF7DF09DEF7DF093EF7DF0010E4F
:10FB3C000001B925946F000EBA21956F1F0E941514
:10FB4C00B96FBA6BF0EC75F0780AD8A4B0EF7DF011
:10FB5C00B2EF7DF073EF7DF0000E026E000E016EC1
:10FB6C0041EC76F0D70E5B6EFF0E5C6E18EC76F007
:10FB7C0075EF7CF0220E5B6EFE0E5C6E18EC76F070
:10FB8C00D20E5B6EFE0E5C6E18EC76F0540E5B6E55
:10FB9C00FE0E5C6E18EC76F0530E5B6EFF0E5C6E18
:10FBAC0018EC76F013EF7EF0C1EC75F07F0E0124AB
:10FBBC00096EF30E02200A6E75EC75F0F29491EC5E
:10FBCC0075F00009D8B4EDEF7DF0EFEF7DF0E5EFC7
:10FBDC007DF0B6C094F0960E0001B925D96E000EDA
:10FBEC00BA21DA6EDF50956F942BFFEF7DF0D89031
:10FBFC009533942FFDEF7DF000019551016E026A53
:10FC0C0041EC76F0010E0001B925946F000EBA217B
:10FC1C00956F1F0E9415B96FBA6B87EC75F00009D0
:10FC2C00D8B41BEF7EF01DEF7EF0DAEF7DF0000E06
:10FC3C00026E000E016E41EC76F0F0EC75F0D70E12
:10FC4C005B6EFF0E5C6E18EC76F075EF7CF0AC0E14
:10FC5C005B6EFF0E5C6EB7C05DF05E6A18EC76F002
:10FC6C0075EF7CF0B751946F956B9551000AD8B431
:10FC7C0042EF7EF02DEF7EF094512B0AD8B4FAEFC0
:10FC8C007CF0060AD8B4FDEF7CF0120AD8B485EFEC
:10FC9C007CF06C0AD8B400EF7DF0090AD8B4D1EF2F
:10FCAC007CF0350AD8B4C9EF7CF01F0AD8B4C0EF89
:10FCBC007DF0030AD8B450EF7DF0090AD8B4E6EF12
:10FCCC007CF02DEF7EF000EF00F000437572726552
:10FCDC006E746C792067656E65726174696E6720ED
:10FCEC006120313030252520647574792063796367
:10FCFC006C652050574D2077617665666F726D206C
:10FD0C006F6E205243322E0D0A0043757272656E6F
:10FD1C00746C792067656E65726174696E672061B9
:10FD2C00203025252064757479206379636C6520F7
:10FD3C0050574D2077617665666F726D206F6E201F
:10FD4C005243322E0D0A00733A207374657020747E
:10FD5C0068726F7567682073696E65207761766568
:10FD6C00207461626C652077697468205049432067
:10FD7C00382D6269742050574D0D0A002D2D2D2DF4
:10FD8C002D2D2D2D2D2D2D2D2D2D2D2D2D2D2D2D97
:10FD9C002D2D2D2D2D2D2D2D2D2D2D2D2D2D2D2D87
:10FDAC002D2D2D2D2D2D2D2D2D2D2D2D2D0D0A00E7
:10FDBC00507265737320616E79206F746865722060
:10FDCC006B657920746F2073746570207468726F22
:10FDDC007567682073696E65207461626C652E0DA1
:10FDEC000A0A00533A2073696E676C652073746558
:10FDFC00702050574D2064757479206379636C655D
:10FE0C002066726F6D2030252520746F20313030C4
:10FE1C0025252E0D0A00436F6E6E656374206A757E
:10FE2C006D706572206F7665722074686520524320
:10FE3C00322F4C50465F696E206865616465722094
:10FE4C0070696E732E0D0A00436F6E6E65637420BD
:10FE5C004368616E6E656C20322073636F70652031
:10FE6C0070726F626520746F204C50465F6F7574B2
:10FE7C002E0D0A00703A2047656E6572617465201C
:10FE8C00612073696E652077617665207573696E84
:10FE9C00672050574D202B204C50460D0A005072B5
:10FEAC0065737320616E79206B657920746F2063A4
:10FEBC0068616E6765207468697320746F203130D7
:10FECC0030252E0D0A00436F6E6E656374204368F7
:10FEDC00616E6E656C20312073636F70652070727B
:10FEEC006F626520746F205243322E0D0A002B2F47
:10FEFC002D3A20696E6372656173652F6465637258
:10FF0C006561736520766F6C756D650D0A004375C0
:10FF1C007272656E74204C6F6164447574795661AD
:10FF2C006C7565203D2025640D0A00416E616C6F77
:10FF3C00672077617665666F726D2067656E657296
:10FF4C0061746F720D0A00507265737320616E7963
:10FF5C00206B657920746F20657869742E0D0A000A
:10FF6C007A3A20436C6561722074686520746572FE
:10FF7C006D696E616C0D0A005A3A20526573657496
:10FF8C002070726F636573736F720D0A0050726527
:10FF9C007373207820746F20657869742E0D0A00B5
:10FFAC00556E6B6E6F776E206B65792025630D0A2D
:10FFBC00003F3A2068656C70206D656E750D0A0007
:10FFCC00696E4C61622031300D0A004578697420ED
:10FFDC0050574D0D0A004465762732310D0A006FDB
:10FFEC003A096F6B0D0A006F3A206B0D0A000D0A6F
:04FFFC003E200000A3
:020000040020DA
:08000000FFFFFFFFFFFFFFFF00
:020000040030CA
:0E000000FF281F3CFFBF85FF0FC00FE00F4021
:00000001FF
