:020000040000FA
:0400000027EF00F0F6
:100008004C82FACF10F0FBCF11F0D9CF12F0DACF33
:1000180013F0F2AA12EF00F014EF00F01DEF00F059
:10002800F2A419EF00F01BEF00F01DEF00F0FBEC5D
:100038001AF013C0DAFF12C0D9FF11C0FBFF10C0BD
:10004800FAFF4C921100BBEF18F0000E0101D46FBB
:10005800000ED56F000ED66F000ED76F000EB86F6A
:10006800000EB96F000EBA6F000EBB6F000EC66FA0
:10007800000EC76F000EC86F000EC96F6CEC1BF046
:100088008A88000E156E000E146EFDEC1BF0F294BB
:10009800F2A451EF00F053EF00F04CEF00F0CC0E5B
:1000A800146E1D0E156E02EC1CF0F28EF28CF0EC44
:1000B80010F0C00E0001A66FFF0EA76F44EC1BF0F6
:1000C800E10E0001A66FFE0EA76F44EC1BF0C90EEF
:1000D8000001A66FFF0EA76F44EC1BF0610E000134
:1000E800A66FFC0EA76F44EC1BF022EC1CF0000E70
:1000F80086EC17F0FA0E0001A66FFF0EA76F44EC0E
:100108001BF0E2EC1BF00009D8B48DEF00F08FEF84
:1001180000F085EF00F058EC1BF00101C56F7B0E75
:100128000001A66FFF0EA76FC5C1A8F0A96B44EC2C
:100138001BF0FAEF08F0410EA66FFB0EA76F44EC18
:100148001BF0B10E0001A66FFD0EA76F0101B8519B
:10015800C65D0001BE6F0101B951C7590001BF6FEB
:100168000101BA51C8590001C06F0101BB51C959F9
:100178000001C16F0A0EC6EF00F0D890C133C0333A
:10018800BF33BE33E82EC1EF00F0BEC0A8F0BFC039
:10019800A9F0C0C0AAF0C1C0ABF044EC1BF0910EAE
:1001A8000001A66FFF0EA76F44EC1BF0EE0E0001D6
:1001B800A66FFF0EA76FD6C1A8F0D7C1A9F0AA6B8A
:1001C800AB6B44EC1BF0FD0E0001A66FFF0EA76F92
:1001D80044EC1BF0EE0E0001A66FFF0EA76FFF0E9A
:1001E8000101D4150001A86FFF0E0101D51500010A
:1001F800A96F000E0101D6150001AA6F000E0101BA
:10020800D7150001AB6F44EC1BF0AE0E0001A66FD2
:10021800FF0EA76F44EC1BF00B0E0001A66FFF0E3C
:10022800A76FD1C0BEF0D2C0BFF0040EC06FD89087
:10023800BF33BE33C02F1BEF01F0BEC0A8F0BFC054
:10024800A9F044EC1BF0430E0001A66FFB0EA76F4C
:1002580044EC1BF0B10E0001A66FFF0EA76F44EC33
:100268001BF0DA0E0001A66FFF0EA76F44EC1BF01F
:10027800F60E0001A66FFE0EA76F44EC1BF0870E6A
:100288000001A66FFE0EA76F44EC1BF0430E0001A1
:10029800A66FFB0EA76F44EC1BF06F0E0001A66F54
:1002A800FE0EA76F44EC1BF0430E0001A66FFB0E79
:1002B800A76F44EC1BF0AE0E0001A66FFC0EA76FF3
:1002C80044EC1BF0360E0001A66FFC0EA76F020E61
:1002D800A96F000EA86F44EC1BF00A0E0001A66F70
:1002E800FB0EA76F020EA96F000EA86F44EC1BF05F
:1002F800430E0001A66FFB0EA76F44EC1BF0A90E7E
:100308000001A66FFB0EA76F44EC1BF00A0E00015C
:10031800A66FFC0EA76F44EC1BF0170E0001A66F2A
:10032800FD0EA76F44EC1BF0430E0001A66FFB0EF9
:10033800A76F44EC1BF07EEF00F0D20EA66FFF0E05
:10034800A76F44EC1BF07EEF00F0000E0101CB6FAD
:10035800000ECA6FCB5109E1280ECA5DD8A0B7EFCD
:1003680001F0B9EF01F0BBEF01F0C7EF01F0F50EB6
:100378000001A66FFF0EA76F44EC1BF00101CA4BEA
:10038800CB2BAEEF01F0FF007EEF00F0000E010175
:10039800CB6F000ECA6FCB5109E1280ECA5DD8A0F9
:1003A800D8EF01F0DAEF01F0DCEF01F07EEF00F0BA
:1003B800F50E0001A66FFF0EA76F44EC1BF00101BC
:1003C800CA4BCB2BCFEF01F0D4C1CCF1D5C1CDF1C5
:1003D800D6C1CEF1D7C1CFF1CCC1B4F0CDC1B5F003
:1003E800CEC1B6F0CFC1B7F0F4EC18F0000E0101A1
:1003F800AF6F6BEF02F0000E0101BD6F000EBC6F16
:10040800020EBD5DD8A00BEF02F00DEF02F00FEF6A
:1004180002F034EF02F0170E0001CC25F66EF76AF1
:10042800F30EF722F86A000EF822DE0E0101BC2551
:10043800D96E070EBD21DA6E0800F5CFDFFF000187
:10044800CC2B190ECC652BEF02F02DEF02F02FEF1D
:1004580002F0000ECC6F0101BC4BBD2B04EF02F083
:10046800CCC115F0CDC116F0CEC117F0CFC118F030
:10047800DE0E196E070E1A6E74EC18F055EC1AF0B1
:100488000101D96FD929D8B44CEF02F04EEF02F030
:1004980042EF02F0050ED919D8A455EF02F057EF34
:1004A80002F034EF02F0CCC114F0CDC115F0CEC18A
:1004B80016F0CFC117F0B4EC19F014C0CCF115C088
:1004C800CDF116C0CEF117C0CFF10101AF2B800ED0
:1004D800AF6171EF02F073EF02F07DEF02F0E2EC32
:1004E8001BF00009D8B47BEF02F07DEF02F0FFEFBC
:1004F80001F0E2EC1BF00009D8B485EF02F087EFB9
:1005080002F089EF02F058EC1BF0CCC1C6F1CDC166
:10051800C7F1CEC1C8F1CFC1C9F10101D451CC5D39
:10052800A76FD551CD59A86FD651CE59A96FD751BC
:10053800CF59AA6F090E0001BE6FD8900101AA33E6
:10054800A933A833A7330001BE2FA1EF02F0370E5D
:10055800A66FFD0EA76F44EC1BF0750E0001A66F89
:10056800FD0EA76FA7C1A8F0A8C1A9F0A9C1AAF05C
:10057800AAC1ABF044EC1BF0800E0001A66FFF0E81
:10058800A76F44EC1BF0EE0E0001A66FFF0EA76FDD
:10059800D6C1A8F0D7C1A9F0AA6BAB6B44EC1BF08D
:1005A800FD0E0001A66FFF0EA76F44EC1BF0EE0EC8
:1005B8000001A66FFF0EA76FFF0E0101D415000101
:1005C800A86FFF0E0101D5150001A96F000E0101EA
:1005D800D6150001AA6F000E0101D7150001AB6FF7
:1005E80044EC1BF0AE0E0001A66FFF0EA76F44ECA3
:1005F8001BF09F0E0001A66FFE0EA76FD9C1A8F0D1
:10060800A96B44EC1BF07EEF00F0A00ED125D16F52
:10061800000ED221D26F7EEF00F0410ED15D010EA7
:10062800D259D8A01AEF03F01CEF03F07EEF00F0C8
:10063800600ED125D16FFF0ED221D26F7EEF00F070
:10064800B8C1D0F1B9C1D1F1BAC1D2F1BBC1D3F1AE
:10065800000ED06F000ECF6F010ECD6FA1EF03F02B
:100668000001D051D8A43BEF03F03DEF03F034EF85
:1006780003F0D0C115F0D1C116F0D2C117F0D3C123
:1006880018F0DE0E196E050E1A6EDCEC17F0010E6E
:100698000001D06FD0C114F0D1C115F0D2C116F04D
:1006A800D3C117F0B4EC19F014C0D0F115C0D1F1D2
:1006B80016C0D2F117C0D3F10101C651D0190DE10E
:1006C800C751D1190AE1C851D21907E1C951D31943
:1006D800D8A471EF03F073EF03F075EF03F0BEEFEA
:1006E80003F00001CF51D8A47CEF03F07EEF03F0B4
:1006F80075EF03F0D0C115F0D1C116F0D2C117F0D3
:10070800D3C118F0DE0E196E030E1A6EDCEC17F06A
:10071800010E0001CF6FD0C114F0D1C115F0D2C1C4
:1007280016F0D3C117F0B4EC19F014C0D0F115C00D
:10073800D1F116C0D2F117C0D3F1E2EC1BF00009D9
:10074800D8A4A9EF03F0ABEF03F0BEEF03F001016B
:10075800C651D0190DE1C751D1190AE1C851D219B2
:1007680007E1C951D319D8A4BCEF03F0BEEF03F0D9
:1007780034EF03F0010E466EE2EC1BF00009D8B42A
:10078800C8EF03F0CAEF03F0CCEF03F058EC1BF00E
:100798000001CD51D8A4D3EF03F0D5EF03F0CCEF8F
:1007A80003F07EEF00F0350EA66FF30EA76F44EC52
:1007B8001BF0E2EC1BF00009D8B4E5EF03F0E7EF1B
:1007C80003F0DDEF03F058EC1BF0D4C1B8F1D5C14C
:1007D800B9F1D6C1BAF1D7C1BBF1D4C1DAF1D5C1EB
:1007E800DBF1D6C1DCF1D7C1DDF1000E0101D86F14
:1007F800010E486E10EF05F00001D051D8B407EF94
:1008080004F009EF04F088EF04F0DAC115F0DBC159
:1008180016F0DCC117F0DDC118F0DE0E196E050EFA
:100828001A6E74EC18F055EC1AF00101D96FD92939
:10083800D8B421EF04F023EF04F017EF04F0D951F6
:100848001F0B050AD8B42BEF04F02DEF04F047EF87
:1008580004F0DAC115F0DBC116F0DCC117F0DDC118
:1008680018F0DE0E196E050E1A6E74EC18F055ECC1
:100878001AF00101D96FD929D8B445EF04F047EF30
:1008880004F03BEF04F0000E0001D06F0101D951D4
:100898001F0B050AD8B453EF04F055EF04F076EFB8
:1008A80004F0800ED8615BEF04F05DEF04F076EFA2
:1008B80004F0D851040DDE0EF324D96E010EF42095
:1008C800DA6EDAC1DEFFDBC1DEFFDCC1DEFFDDC1CF
:1008D800DEFF000ED825D96EDA6A010EDA22D9C1F8
:1008E800DFFFD82BDAC114F0DBC115F0DCC116F03C
:1008F800DDC117F0B4EC19F014C0DAF115C0DBF162
:1009080016C0DCF117C0DDF10001CF51D8B48FEF6C
:1009180004F091EF04F010EF05F0DAC115F0DBC137
:1009280016F0DCC117F0DDC118F0DE0E196E030EEB
:100938001A6E74EC18F055EC1AF00101D96FD92928
:10094800D8B4A9EF04F0ABEF04F09FEF04F0D9514D
:100958001F0B050AD8B4B3EF04F0B5EF04F0CFEFDE
:1009680004F0DAC115F0DBC116F0DCC117F0DDC107
:1009780018F0DE0E196E030E1A6E74EC18F055ECB2
:100988001AF00101D96FD929D8B4CDEF04F0CFEF0F
:1009980004F0C3EF04F0000E0001CF6F0101D9513C
:1009A8001F0B050AD8B4DBEF04F0DDEF04F0FEEF0F
:1009B80004F0800ED861E3EF04F0E5EF04F0FEEFF9
:1009C80004F0D851040DDE0EF324D96E010EF42084
:1009D800DA6EDAC1DEFFDBC1DEFFDCC1DEFFDDC1BE
:1009E800DEFF000ED825D96EDA6A010EDA22D9C1E7
:1009F800DFFFD82BDAC114F0DBC115F0DCC116F02B
:100A0800DDC117F0B4EC19F014C0DAF115C0DBF150
:100A180016C0DCF117C0DDF1E2EC1BF00009D8B418
:100A280018EF05F01AEF05F000EF04F058EC1BF092
:100A3800010E476E2FEF06F0D051D8B426EF05F01F
:100A480028EF05F0A7EF05F0DAC115F0DBC116F0C5
:100A5800DCC117F0DDC118F0DE0E196E050E1A6E36
:100A680074EC18F055EC1AF00101D96FD929D8B4F3
:100A780040EF05F042EF05F036EF05F0D9511F0BB6
:100A8800050AD8B44AEF05F04CEF05F066EF05F01B
:100A9800DAC115F0DBC116F0DCC117F0DDC118F0C2
:100AA800DE0E196E050E1A6E74EC18F055EC1AF07D
:100AB8000101D96FD929D8B464EF05F066EF05F0C4
:100AC8005AEF05F0000E0001D06F0101D9511F0B3C
:100AD800050AD8B472EF05F074EF05F095EF05F04C
:100AE800800ED8617AEF05F07CEF05F095EF05F000
:100AF800D851040DDE0EF324D96E010EF420DA6EFF
:100B0800DAC1DEFFDBC1DEFFDCC1DEFFDDC1DEFFF7
:100B1800000ED825D96EDA6A010EDA22D9C1DFFFB4
:100B2800D82BDAC114F0DBC115F0DCC116F0DDC139
:100B380017F0B4EC19F014C0DAF115C0DBF116C0E7
:100B4800DCF117C0DDF10001CF51D8B4AEEF05F0EC
:100B5800B0EF05F02FEF06F0DAC115F0DBC116F0A3
:100B6800DCC117F0DDC118F0DE0E196E030E1A6E27
:100B780074EC18F055EC1AF00101D96FD929D8B4E2
:100B8800C8EF05F0CAEF05F0BEEF05F0D9511F0B0D
:100B9800050AD8B4D2EF05F0D4EF05F0EEEF05F072
:100BA800DAC115F0DBC116F0DCC117F0DDC118F0B1
:100BB800DE0E196E030E1A6E74EC18F055EC1AF06E
:100BC8000101D96FD929D8B4ECEF05F0EEEF05F0A3
:100BD800E2EF05F0000E0001CF6F0101D9511F0BA4
:100BE800050AD8B4FAEF05F0FCEF05F01DEF06F0A2
:100BF800800ED86102EF06F004EF06F01DEF06F054
:100C0800D851040DDE0EF324D96E010EF420DA6EED
:100C1800DAC1DEFFDBC1DEFFDCC1DEFFDDC1DEFFE6
:100C2800000ED825D96EDA6A010EDA22D9C1DFFFA3
:100C3800D82BDAC114F0DBC115F0DCC116F0DDC128
:100C480017F0B4EC19F014C0DAF115C0DBF116C0D6
:100C5800DCF117C0DDF10001D051D8A436EF06F061
:100C680038EF06F020EF05F0CF51D8A43EEF06F09C
:100C780040EF06F020EF05F0CE51D8A446EF06F07D
:100C880048EF06F020EF05F0DAC1C6F1DBC1C7F185
:100C9800DCC1C8F1DDC1C9F1AE0EA66FFF0EA76FAA
:100CA80044EC1BF00101D851D8B45DEF06F05FEFBA
:100CB80006F07EEF00F0210E0001A66FFE0EA76F72
:100CC80044EC1BF0000E0101C06FC0EF06F0C051EC
:100CD800040DDE0EF324D96E010EF420DA6EDECF99
:100CE800B0F1DECFB1F1DECFB2F1DECFB3F1560E07
:100CF8000001A66FFD0EA76F000E0101C025D96E79
:100D0800DA6A010EDA22DF500001BE6FBE51A86F09
:100D1800A96B44EC1BF0EE0E0001A66FFF0EA76F47
:100D2800B2C1A8F0B3C1A9F0AA6BAB6B44EC1BF03D
:100D3800FD0E0001A66FFF0EA76F44EC1BF0E10E3D
:100D48000001A66FFF0EA76FFF0E0101B01500018D
:100D5800A86FFF0E0101B1150001A96F000E010176
:100D6800B2150001AA6F000E0101B3150001AB6FA7
:100D780044EC1BF00101C02BD851C05DD8A0C7EFCF
:100D880006F0C9EF06F06BEF06F07EEF00F0960E66
:100D9800A66FFA0EA76F44EC1BF0C80E0001A66FF1
:100DA800F30EA76F44EC1BF0AE0E0001A66FFF0E0A
:100DB800A76F44EC1BF0D00E0001A66FFA0EA76FC8
:100DC80044EC1BF0F60E0001A66FFC0EA76F44EC76
:100DD8001BF0B60E0001A66FFE0EA76F44EC1BF0C9
:100DE800770E0001A66FFB0EA76F44EC1BF0810E77
:100DF8000001A66FF30EA76F44EC1BF0480E00012C
:100E0800A66FFF0EA76F44EC1BF0560E0001A66FED
:100E1800FE0EA76F44EC1BF0E2EC1BF00009D8B4FF
:100E280018EF07F01AEF07F010EF07F058EC1BF077
:100E3800B8C1C1F1B9C1C2F1BAC1C3F1BBC1C4F1F2
:100E4800C6C1B4F1C7C1B5F1C8C1B6F1C9C1B7F1DE
:100E58000101C151B45D0001BE6F0101C251B55914
:100E68000001BF6F0101C351B6590001C06F0101F4
:100E7800C451B7590001C16F0A0E48EF07F0D89066
:100E8800C133C033BF33BE33E82E43EF07F0BEC0D3
:100E9800A1F1BFC0A2F1C0C0A3F1C1C0A4F1000E6E
:100EA8000101AB6F000EAC6F000EAD6F000EAE6FA0
:100EB800B2EF07F0C1C115F0C2C116F0C3C117F0F7
:100EC800C4C118F0DE0E196E070E1A6EDCEC17F0AE
:100ED800C1C114F0C2C115F0C3C116F0C4C117F0E6
:100EE800B4EC19F014C0C1F115C0C2F116C0C3F1B9
:100EF80017C0C4F1000E0101BF6F000EBE6F020ED5
:100F0800BF19BE11D8A48BEF07F08DEF07F08FEF54
:100F180007F0ACEF07F0DE0EBE25D96E070EBF2135
:100F2800DA6EDF500001BE6FBE510101A56FA66BDE
:100F38008E0E0001A66FFD0EA76FA5C1A8F0A6C171
:100F4800A9F044EC1BF00101BE4BBF2B83EF07F067
:100F5800010EAB27000EAC23AD23AE23E2EC1BF051
:100F68000009D8A4BAEF07F0BCEF07F0CFEF07F0FD
:100F78000101B451C1190DE1B551C2190AE1B651C7
:100F8800C31907E1B751C419D8A4CDEF07F0CFEFC3
:100F980007F05EEF07F0E2EC1BF00009D8B4D7EFDA
:100FA80007F0D9EF07F0DBEF07F058EC1BF0D30E92
:100FB8000001A66FFC0EA76FABC1A8F0ACC1A9F0E9
:100FC800ADC1AAF0AEC1ABF0A1C1ACF0A2C1ADF009
:100FD800A3C1AEF0A4C1AFF044EC1BF0DA0E0001DF
:100FE800A66FFB0EA76F44EC1BF0D00E0001A66F96
:100FF800FA0EA76F44EC1BF0F60E0001A66FFC0E6C
:10100800A76F44EC1BF0B60E0001A66FFE0EA76F8B
:1010180044EC1BF0890E0001A66FFC0EA76F44EC90
:101028001BF0CC0E0001A66FFE0EA76F44EC1BF060
:101038007EEF00F022EC1CF0000E86EC17F0010E9B
:101048006DEC14F07EEF00F0610E0101C519D8A413
:1010580030EF08F032EF08F05EEF08F0000ED45FD2
:10106800020ED55B000ED65B000ED75B040ED75D73
:10107800D8A041EF08F043EF08F055EF08F0930EC1
:101088000001A66FFD0EA76F44EC1BF0000E0101D6
:10109800D46FFE0ED56FFF0ED66F030ED76F88EF95
:1010A80008F0200E0001A66FFF0EA76F44EC1BF09E
:1010B80088EF08F0000ED427020ED523000ED623A1
:1010C800000ED723040ED75DD8A06DEF08F06FEFA0
:1010D80008F081EF08F0EA0E0001A66FFD0EA76F79
:1010E80044EC1BF0000E0101D46F000ED56F000E0A
:1010F800D66F000ED76F88EF08F0340E0001A66F88
:10110800FF0EA76F44EC1BF05C0E0001A66FFF0EEC
:10111800A76F44EC1BF0EE0E0001A66FFF0EA76F41
:10112800D6C1A8F0D7C1A9F0AA6BAB6B44EC1BF0F1
:10113800FD0E0001A66FFF0EA76F44EC1BF0EE0E2C
:101148000001A66FFF0EA76FFF0E0101D415000165
:10115800A86FFF0E0101D5150001A96F000E01014E
:10116800D6150001AA6F000E0101D7150001AB6F5B
:1011780044EC1BF0AE0E0001A66FFF0EA76F44EC07
:101188001BF07EEF00F0D4C115F0D5C116F0D6C122
:1011980017F0D7C118F0DE0E196E070E1A6EDCECC8
:1011A80017F0A20E0001A66FFF0EA76F44EC1BF00C
:1011B800D4C1B4F0D5C1B5F0D6C1B6F0D7C1B7F037
:1011C800F4EC18F0DE0E0001B46F070EB56FE6EC14
:1011D80011F07EEF00F06F0EA66FFF0EA76FC5C16E
:1011E800A8F0A96B44EC1BF07EEF00F00101C5519B
:1011F8000001BE6FBF6BBF51000AD8B406EF09F0FB
:10120800EFEF08F0BE512B0AD8B409EF03F0060A35
:10121800D8B411EF03F01C0AD8B4E8EF01F00E0AB5
:10122800D8B49FEF00F07E0AD8B428EF08F0110A6E
:10123800D8B424EF03F0070AD8B4D7EF03F00D0AA7
:10124800D8B4A9EF01F03B0AD8B428EF08F0080A8F
:10125800D8B41EEF08F0060AD8B4A1EF01F01D0AB1
:10126800D8B4C7EF08F0010AD8B4CBEF06F0090AE2
:10127800D8B4CAEF01F0EFEF08F027EF00F081C013
:10128800D9FF82C0DAFFDECFF6FFDDCFF7FFF86ABD
:101298000800F550250AD8A454EF09F056EF09F0D4
:1012A800E8EF0BF081C0D9FF82C0DAFFDE2A000E1A
:1012B800DD22000E3A6E000E396E39C03DF03AC09C
:1012C8003EF03B683C68000E0001926F000E916F83
:1012D800B5EF09F03D8081C0D9FF82C0DAFFDE2A70
:1012E800000EDD22B5EF09F03D826FEF09F03D8475
:1012F8006FEF09F03D866FEF09F03D886FEF09F059
:10130800000E926F010E916FB5EF09F081C0D9FF01
:1013180082C0DAFFDECFF6FFDDCFF7FFF86A0800FC
:10132800F550856F866B8651000AD8B49EEF09F098
:1013380084EF09F08551200AD8B47EEF09F0030A3A
:10134800D8B481EF09F0080AD8B47BEF09F0060A8F
:10135800D8B46EEF09F01D0AD8B478EF09F084EF1D
:1013680009F091519211D8B4BCEF09F0BEEF09F021
:101378008AEF09F03DA0C3EF09F0C5EF09F0C6EF09
:1013880009F03D9281C0D9FF82C0DAFFDECFF6FFB7
:10139800DDCFF7FFF86A0800F5502A0AD8A4D7EF7E
:1013A80009F0D9EF09F002EF0AF081C0D9FF82C035
:1013B800DAFFDE2A000EDD2283C0D9FF84C0DAFFFF
:1013C800DFCF85F0020EDE26DFCF86F0000EDD22AD
:1013D80085C0D9FF86C0DAFFDECF39F0DDCF3AF01D
:1013E8003ABEFBEF09F0F9EF09F047EF0AF03D804C
:1013F800396C3A1ED8B03A2A47EF0AF081C0D9FFB3
:1014080082C0DAFFDECF1BF0DDCF1CF0DCEC12F07F
:101418001BC039F01CC03AF019EF0AF081C0D9FF9F
:1014280082C0DAFFDE2A000EDD22D00E0001856FB1
:10143800FF0E866F81C0D9FF82C0DAFFDECFF6FFCC
:10144800DDCFF7FFF86A0800F550876F886B855184
:1014580087278651882388510AE10A0E875DD8A01C
:1014680038EF0AF03BEF0AF0010E3CEF0AF0000EED
:10147800936F946B93519411D8A445EF0AF047EFFA
:101488000AF012EF0AF081C0D9FF82C0DAFFDECF7E
:10149800F6FFDDCFF7FFF86A0800F550630AD8A415
:1014A80058EF0AF05AEF0AF081EF0AF081C0D9FF2D
:1014B80082C0DAFFDE2A000EDD2283C0D9FF84C095
:1014C800DAFFDFCF85F0020EDE26DFCF86F0000ED2
:1014D800DD2285C0D9FF86C0DAFFDF509D6F7FC04F
:1014E8001FF080C020F09DC021F053EC16F01FC003
:1014F8007FF020C080F004EF0CF081C0D9FF82C0DB
:10150800DAFFDECFF6FFDDCFF7FFF86A0800F55007
:10151800640AD8B492EF0AF094EF0AF0A7EF0AF041
:1015280081C0D9FF82C0DAFFDECFF6FFDDCFF7FF3B
:10153800F86A0800F550690AD8A4A5EF0AF0A7EFE1
:101548000AF0E7EF0AF081C0D9FF82C0DAFFDE2A8D
:10155800000EDD2283C0D9FF84C0DAFFDFCF85F01B
:10156800020EDE26DFCF86F0000EDD2285C0D9FF11
:1015780086C0DAFFDECF89F0DDCF8AF0000E8ABFA1
:10158800FF0E8B6F8C6F8D6F8E6F8F6F906F7FC01C
:1015980060F080C061F089C062F08AC063F08BC0DF
:1015A80064F08CC065F08DC066F08EC067F08FC0A7
:1015B80068F090C069F005EC0CF060C07FF061C085
:1015C80080F004EF0CF081C0D9FF82C0DAFFDECFD3
:1015D800F6FFDDCFF7FFF86A0800F550750AD8A4C2
:1015E800F8EF0AF0FAEF0AF03BEF0BF081C0D9FFF1
:1015F80082C0DAFFDE2A000EDD2283C0D9FF84C054
:10160800DAFFDFCF85F0020EDE26DFCF86F0000E90
:10161800DD2285C0D9FF86C0DAFFDECF87F0DDCFB7
:1016280088F087C095F088C096F0976B986B996B97
:101638009A6B9B6B9C6B7FC060F080C061F095C01B
:1016480062F096C063F097C064F098C065F099C0E6
:1016580066F09AC067F09BC068F09CC069F0ECEC3B
:101668000FF060C07FF061C080F004EF0CF081C023
:10167800D9FF82C0DAFFDECFF6FFDDCFF7FFF86AC9
:101688000800F550780AD8B44CEF0BF04EEF0BF089
:1016980061EF0BF081C0D9FF82C0DAFFDECFF6FF21
:1016A800DDCFF7FFF86A0800F550580AD8A45FEFB5
:1016B8000BF061EF0BF0B0EF0BF081C0D9FF82C0E7
:1016C800DAFFDECFF6FFDDCFF7FFF86A0800F5CFC7
:1016D8009DF081C0D9FF82C0DAFFDE2A000EDD222C
:1016E80083C0D9FF84C0DAFFDFCF85F0020EDE2683
:1016F800DFCF86F0000EDD2285C0D9FF86C0DAFF75
:10170800DECF87F0DDCF88F087C095F088C096F0EF
:10171800976B986B996B9A6B9B6B9C6B7FC060F017
:1017280080C061F095C062F096C063F097C064F025
:1017380098C065F099C066F09AC067F09BC068F0E1
:101748009CC069F09DC06AF077EC0DF060C07FF036
:1017580061C080F004EF0CF081C0D9FF82C0DAFFCD
:10176800DECFF6FFDDCFF7FFF86A0800F550250A4F
:10177800D8A4C1EF0BF0C3EF0BF0DBEF0BF081C087
:10178800D9FF82C0DAFFDE2A000EDD22000E176EB6
:10179800250E166E7FC018F080C019F029EC18F0DD
:1017A800000E0001806F010E7F6F04EF0CF081C006
:1017B800D9FF82C0DAFFDE2A000EDD22000E806F1C
:1017C800000E7F6F04EF0CF081C0D9FF82C0DAFFF2
:1017D800DECFF6FFDDCFF7FFF86A0800F550166E8A
:1017E800176A7FC018F080C019F029EC18F081C082
:1017F800D9FF82C0DAFFDE2A000EDD22D4EF0BF01B
:10180800120062C072F063C073F064C074F065C007
:1018180075F066C076F067C077F068C078F069C088
:1018280079F0000179BF1BEF0CF01EEF0CF0010EF0
:101838001FEF0CF0000E706F716B70517111D8B4FE
:1018480028EF0CF02AEF0CF03AEF0CF0791F781F14
:10185800771F761F751F741F731F726D000E732319
:101868007423752376237723782379233CBE3FEFAF
:101878000CF041EF0CF042EF0CF03D923CBE4FEF04
:101888000CF03C5006E13B04D8B04DEF0CF04FEFA4
:101898000CF055EF0CF0000E6D6F010E6C6F59EFE8
:1018A8000CF03BC06CF03CC06DF039C06EF03AC033
:1018B8006FF070517111D8A464EF0CF066EF0CF062
:1018C8006DEF0CF03DA46BEF0CF06DEF0CF070EFCA
:1018D8000CF06E07D8A06F07000E7B6F1F0E7A6F93
:1018E800000E01019F6FF6EF0CF07A07D8A07B0776
:1018F800800E7A25D96E010E7B21DA6E72C014F043
:1019080073C015F074C016F075C017F076C018F0E3
:1019180077C019F078C01AF079C01BF00A0E1C6E57
:10192800000E1D6E000E1E6E000E1F6E000E206E45
:10193800000E216E000E226E000E236E29EC15F0AB
:1019480014C031F015C032F016C033F017C034F0AF
:1019580018C035F019C036F01AC037F01BC038F07F
:1019680031C026F033C027F0F8EC19F02650300FBC
:10197800DF6E00016C07D8A06D076E07D8A06F074F
:1019880072C014F073C015F074C016F075C017F06B
:1019980076C018F077C019F078C01AF079C01BF03B
:1019A8000A0E1C6E000E1D6E000E1E6E000E1F6EBF
:1019B800000E206E000E216E000E226E000E236EA9
:1019C800A9EC13F014C072F015C073F016C074F0CF
:1019D80017C075F018C076F019C077F01AC078F003
:1019E8001BC079F000017BBF02EF0DF07B5108E1CD
:1019F8007A05D8A002EF0DF004EF0DF034EF0DF0EA
:101A0800725173117411751176117711781179115A
:101A1800D8A411EF0DF013EF0DF079EF0CF06DBFB6
:101A280020EF0DF06D5106E16C05D8B01EEF0DF0FA
:101A380020EF0DF079EF0CF06FBF2BEF0DF06F5129
:101A480008E16E05D8A02BEF0DF02DEF0DF034EF67
:101A58000DF03DB232EF0DF034EF0DF079EF0CF0F0
:101A680070517111D8A43BEF0DF03DEF0DF044EF2C
:101A78000DF03DA442EF0DF044EF0DF062EF0DF0D4
:101A88007A07D8A07B0770517111D8A44EEF0DF0DA
:101A980050EF0DF056EF0DF0000E6B6F2B0E6A6FC6
:101AA8005AEF0DF0000E6B6F2D0E6A6F800E7A25BF
:101AB800D96E010E7B21DA6E6AC0DFFF60C026F0A6
:101AC80061C027F0800E7A25286E010E7B21296ED1
:101AD8006EC02AF06FC02BF025EC17F026C060F01E
:101AE80027C061F012003CBE7CEF0DF07EEF0DF0D8
:101AF8007FEF0DF03D923CBE8CEF0DF03C5006E1BF
:101B08003B04D8B08AEF0DF08CEF0DF093EF0DF099
:101B1800000E0001706F010E6F6F97EF0DF03BC064
:101B28006FF03CC070F039C071F03AC072F03DA857
:101B3800A0EF0DF0A2EF0DF0A7EF0DF00001FE0EE3
:101B48007127FF0E722362C073F063C074F064C023
:101B580075F065C076F066C077F067C078F068C049
:101B680079F069C07AF0000E00017C6F1F0E7B6F60
:101B7800000E01019F6F75EF0EF07B07D8A07C0760
:101B88000F0E73157D6F7E6B7EBFD4EF0DF07E5107
:101B980009E10A0E7D5DD8A0D4EF0DF0D6EF0DF067
:101BA800DEEF0DF0570E7D257D6F000E7E217E6FD6
:101BB800E4EF0DF0300E7D257D6F000E7E217E6FE7
:101BC800BF0E316EFF0E326E6A51336E346A315079
:101BD80033263250342234500AE11A0E335CD8A02E
:101BE800F8EF0DF0FBEF0DF0010EFCEF0DF0000E1D
:101BF8006B6F6C6B6B516C11D8B405EF0EF007EF7F
:101C08000EF037EF0EF09F0E316EFF0E326E200E83
:101C18007D11336E000E7E11346E315033263250F2
:101C2800342234500AE11A0E335CD8A01EEF0EF0AD
:101C380021EF0EF0010E22EF0EF0000E6D6F6E6BAD
:101C48006D516E11D8B42BEF0EF02DEF0EF037EF6B
:101C58000EF07DC01AF07EC01BF05CEC19F01AC0C3
:101C68007DF01BC07EF0800E00017B25D96E010E31
:101C78007C21DA6E7DC0DFFF6F07D8A0700771077F
:101C8800D8A0720773C031F074C032F075C033F059
:101C980076C034F077C035F078C036F079C037F0C8
:101CA8007AC038F0050E62EF0EF0D890383237322D
:101CB800363235323432333232323132E82E59EF5D
:101CC8000EF031C073F032C074F033C075F034C018
:101CD80076F035C077F036C078F037C079F038C084
:101CE8007AF000017CBF82EF0EF07C5109E1020E10
:101CF8007B5DD8A082EF0EF084EF0EF0B4EF0EF00B
:101D080073517411751176117711781179117A114F
:101D1800D8A491EF0EF093EF0EF0C1EF0DF070BF65
:101D2800A0EF0EF0705106E16F05D8B09EEF0EF0EF
:101D3800A0EF0EF0C1EF0DF072BFABEF0EF07251D5
:101D480008E17105D8A0ABEF0EF0ADEF0EF0B4EFDF
:101D58000EF03DB2B2EF0EF0B4EF0EF0C1EF0DF0A1
:101D68003DA8B9EF0EF0BBEF0EF0D1EF0EF07B07F8
:101D7800D8A07C07800E7B25D96E010E7C21DA6EF7
:101D88006AC0DFFF7B07D8A07C07800E7B25D96E51
:101D9800010E7C21DA6E300EDF6E60C026F061C065
:101DA80027F0800E7B25286E010E7C21296E71C0DC
:101DB8002AF072C02BF025EC17F026C060F027C07F
:101DC80061F01200C282A2EC1BF00001D151015C4B
:101DD800096ED25102580A6E1BEC1CF0010E0F6EF0
:101DE800C4CF0DF00E6ACAEF0FF04850D8B4FFEF19
:101DF8000EF001EF0FF014EF0FF0010E0001CE6F9F
:101E0800000E476E040E456E000E406E000E3F6ECB
:101E1800DE0E4A6E050E4B6E000E486EEBEF0FF0AD
:101E28000001CD51D8B41BEF0FF01DEF0FF0EBEF11
:101E38000FF0000E466EDE0E4A6E050E4B6E000E5B
:101E4800406E000E3F6E020E456EEBEF0FF0000184
:101E5800D051D8A432EF0FF034EF0FF0EBEF0FF0C2
:101E68003F504A24D96E40504B20DA6EDF500B6E3B
:101E78000B50016E026A16EC1BF03F4A402A020E14
:101E880040183F10D8A44BEF0FF04DEF0FF0EBEFD9
:101E98000FF0010E0001D06FDE0E4A6E030E4B6E7E
:101EA800CF51D8B45AEF0FF05CEF0FF05EEF0FF0A0
:101EB800030E456E0F50D8B464EF0FF067EF0FF0C4
:101EC800010E68EF0FF0000E0F6E000E406E000E50
:101ED8003F6E4650D8B473EF0FF075EF0FF0EBEF8D
:101EE8000FF0000E466E000E456E000ECD6FEBEF44
:101EF8000FF00001D051D8A484EF0FF086EF0FF057
:101F0800EBEF0FF03F504A24D96E40504B20DA6E69
:101F18000DC0DFFF3F4A402A020E40183F10D8A4E8
:101F280098EF0FF09AEF0FF0EBEF0FF0010E0001B2
:101F3800D06FDE0E4A6E030E4B6ECF51D8B4A7EFAA
:101F48000FF0A9EF0FF0ABEF0FF0030E456E0F5037
:101F5800D8B4B1EF0FF0B4EF0FF0010EB5EF0FF0FA
:101F6800000E0F6E000E406E000E3F6E4750D8B444
:101F7800C0EF0FF0C2EF0FF0EBEF0FF0000E476E5F
:101F8800000ECE6F000E456EEBEF0FF045500B6E56
:101F98000C6A0C50000AD8B4D4EF0FF0EBEF0FF036
:101FA8000B50000AD8B4F9EF0EF0010AD8B42BEFA1
:101FB8000FF0030AD8B434EF0FF0010AD8B47DEF5C
:101FC8000FF0070AD8B486EF0FF0EBEF0FF012000E
:101FD8003CBEF1EF0FF0F3EF0FF0F4EF0FF03D928E
:101FE8003CBE01EF10F03C5006E13B04D8B0FFEFD7
:101FF8000FF001EF10F008EF10F0000E00016B6F0A
:10200800010E6A6F0CEF10F03BC06AF03CC06BF039
:1020180039C06CF03AC06DF062C06EF063C06FF00A
:1020280064C070F065C071F066C072F067C073F08C
:1020380068C074F069C075F0000E0001776F1F0E5C
:10204800766F000E01019F6FA1EF10F07607D8A000
:102058007707800E7625D96E010E7721DA6E6EC06D
:1020680014F06FC015F070C016F071C017F072C090
:1020780018F073C019F074C01AF075C01BF00A0E7E
:102088001C6E000E1D6E000E1E6E000E1F6E000EE2
:10209800206E000E216E000E226E000E236EBDEC27
:1020A80016F014C031F015C032F016C033F017C066
:1020B80034F018C035F019C036F01AC037F01BC01C
:1020C80038F03150300FDF6E00016A07D8A06B0777
:1020D8006C07D8A06D076EC014F06FC015F070C003
:1020E80016F071C017F072C018F073C019F074C000
:1020F8001AF075C01BF00A0E1C6E000E1D6E000E45
:102108001E6E000E1F6E000E206E000E216E000E59
:10211800226E000E236EDBEC15F014C06EF015C0B5
:102128006FF016C070F017C071F018C072F019C0C7
:1021380073F01AC074F01BC075F000017651771166
:10214800D8B4A9EF10F0ABEF10F0DBEF10F06E5140
:102158006F11701171117211731174117511D8A466
:10216800B8EF10F0BAEF10F02AEF10F06BBFC7EF1E
:1021780010F06B5106E16A05D8B0C5EF10F0C7EF53
:1021880010F02AEF10F06DBFD2EF10F06D5108E19A
:102198006C05D8A0D2EF10F0D4EF10F0DBEF10F000
:1021A8003DB2D9EF10F0DBEF10F02AEF10F060C06D
:1021B80026F061C027F0800E7625286E010E772163
:1021C800296E6CC02AF06DC02BF025EC17F026C0E4
:1021D80060F027C061F012000C0E0001A66FF40E2B
:1021E800A76F44EC1BF04A0E0001A66FF40EA76F10
:1021F80044EC1BF0880E0001A66FF40EA76F44ECA8
:102208001BF0C60E0001A66FF40EA76F44EC1BF07E
:10221800040E0001A66FF50EA76F44EC1BF0420EEA
:102228000001A66FF50EA76F44EC1BF0800E0001AD
:10223800A66FF50EA76F44EC1BF0FC0E0001A66F0D
:10224800F50EA76F44EC1BF0780E0001A66FF60E92
:10225800A76F44EC1BF0F40E0001A66FF60EA76FF3
:1022680044EC1BF0320E0001A66FF70EA76F44EC8A
:102278001BF0AE0E0001A66FF70EA76F44EC1BF023
:10228800680E0001A66FF80EA76F44EC1BF0A60EAF
:102298000001A66FF80EA76F44EC1BF0600E00015A
:1022A800A66FF90EA76F44EC1BF09E0E0001A66FF7
:1022B800F90EA76F44EC1BF0DC0E0001A66FF90EB7
:1022C800A76F44EC1BF01A0E0001A66FFA0EA76F59
:1022D80044EC1BF0580E0001A66FFA0EA76F44ECF1
:1022E8001BF0220E0001A66FF90EA76F44EC1BF03D
:1022F800220E0001A66FF90EA76F44EC1BF0E40E46
:102308000001A66FF80EA76F44EC1BF0EC0E00015D
:10231800A66FF70EA76F44EC1BF02A0E0001A66FFC
:10232800F80EA76F44EC1BF0700E0001A66FF70EB5
:10233800A76F44EC1BF0B60E0001A66FF60EA76F50
:1023480044EC1BF03A0E0001A66FF60EA76F44ECA2
:102358001BF0BE0E0001A66FF50EA76F44EC1BF034
:10236800800E0001A66FF50EA76F44EC1BF0420E1D
:102378000001A66FF50EA76F44EC1BF0040E0001D8
:10238800A66FF50EA76F44EC1BF0C60E0001A66FF2
:10239800F40EA76F44EC1BF0880E0001A66FF40E34
:1023A800A76F44EC1BF04A0E0001A66FF40EA76F4E
:1023B80044EC1BF00C0E0001A66FF40EA76F44EC62
:1023C8001BF01200F30E0001A66FFF0EA76F44EC7E
:1023D8001BF0000E0001BD6F000EBC6FBC51BD119B
:1023E800D8B4F9EF11F0FBEF11F010EF12F0070E6F
:1023F800BC15B66F000EBD15B76FB651B711D8A48E
:1024080008EF12F00AEF12F010EF12F08F0EA66F1D
:10241800FF0EA76F44EC1BF00001BC51BD11D8B4EE
:1024280018EF12F01AEF12F073EF12F00F0EBC153E
:10243800B66F000EBD15B76FB651B711D8A427EF08
:1024480012F029EF12F073EF12F08E0EA66FFF0E46
:10245800A76F44EC1BF0F00E0001BC25B86FFF0E0F
:10246800BD21B96F62EF12F0B851B425D96EB951D8
:10247800B521DA6E200EDF6044EF12F046EF12F05D
:102488004EEF12F07F0EA66FF30EA76F44EC1BF011
:102498005FEF12F0F70EA66FFF0EA76FB851B425C5
:1024A800D96EB951B521DA6EDF50B66FB651A86F43
:1024B800A96B44EC1BF00001B84BB92BBC51B85DBB
:1024C800BD51B959D8A06BEF12F06DEF12F038EF8B
:1024D80012F0AE0EA66FFF0EA76F44EC1BF0E80ECD
:1024E8000001A66FFF0EA76FBC51B425D96EBD5170
:1024F800B521DA6EDF50B66FB651A86FA96B44EC00
:102508001BF00001BC4BBD2B020EBD5DD8A08FEFA8
:1025180012F091EF12F0F2EF11F08D0EA66FFF0E90
:10252800A76F44EC1BF0F00E0001BC25BA6FFF0E3C
:10253800BD21BB6FCAEF12F0BA51B425D96EBB5199
:10254800B521DA6E200EDF60ACEF12F0AEEF12F0BC
:10255800B6EF12F07F0EA66FF30EA76F44EC1BF0D8
:10256800C7EF12F0F70EA66FFF0EA76FBA51B4258A
:10257800D96EBB51B521DA6EDF50B66FB651A86F70
:10258800A96B44EC1BF00001BA4BBB2BBC51BA5DE4
:10259800BD51BB59D8A0D3EF12F0D5EF12F0A0EF80
:1025A80012F0AE0EA66FFF0EA76F44EC1BF01200E0
:1025B800000E296E000E286E000E226E000E216E8F
:1025C800E8EF12F01B4A1C2A010E276E1BC0F6FF0B
:1025D8001CC0F7FFF86A0800F550200AD8B4F7EFD6
:1025E80012F0F9EF12F017EF13F0F70E1D6EFF0E51
:1025F8001E6E1BC0F6FF1CC0F7FFF86A0800F550F6
:102608001F6E206A1D501F261E502022205009E1EF
:10261800050E1F5CD8A013EF13F015EF13F017EF9A
:1026280013F0000E276E27C023F0246A23502410CD
:10263800D8A421EF13F023EF13F0E6EF12F02DEFFB
:1026480013F0000E226E010E216E1B4A1C2A64EF45
:1026580013F01BC0F6FF1CC0F7FFF86A0800F5501E
:102668001D6E1E6A1E50000AD8B43DEF13F064EFC9
:1026780013F01D502B0AD8B429EF13F0060AD8B46A
:1026880025EF13F064EF13F028C014F029C015F0FB
:10269800000E176E0A0E166E7FEC1BF01BC0F6FFBD
:1026A8001CC0F7FFF86A0800F550145E000E155AB2
:1026B800300E1424286E000E1520296E29EF13F011
:1026C800D00E1D6EFF0E1E6E1BC0F6FF1CC0F7FF5E
:1026D800F86A0800F5501F6E206A1D501F261E500C
:1026E800202220500AE10A0E1F5CD8A07EEF13F0CA
:1026F80081EF13F0010E82EF13F0000E256E266AAB
:1027080025502610D8A48BEF13F08DEF13F048EF67
:1027180013F021502210D8A494EF13F096EF13F081
:10272800A4EF13F028C01DF029C01EF01D1E1E1EA8
:102738001D4A1E2A1DC01BF01EC01CF0A8EF13F076
:1027480028C01BF029C01CF01200000E256E23BE05
:10275800B2EF13F0B0EF13F0C4EF13F0231E221EF4
:10276800211E201E1F1E1E1E1D1E1C6C000E1D225B
:102778001E221F222022212222222322010E256E20
:102788001BBECBEF13F0C9EF13F0DDEF13F01B1EE8
:102798001A1E191E181E171E161E151E146C000E62
:1027A800152216221722182219221A221B22010E7C
:1027B800251A20EE26F0070EDE6AE806FDE21C5018
:1027C8001D101E101F102010211022102310D8B425
:1027D800F0EF13F0F2EF13F044EF14F0010E246E53
:1027E80000EF14F0D8901C361D361E361F362036E2
:1027F800213622362336242A23AE05EF14F007EFBC
:1028080014F0F6EF13F0D8902636273628362936F6
:102818002A362B362C362D361C50145C1D50155874
:102828001E5016581F501758205018582150195824
:1028380022501A5823501B58D8A025EF14F027EF20
:1028480014F038EF14F01C50145E1D50155A1E5029
:10285800165A1F50175A2050185A2150195A2250E8
:102868001A5A23501B5A2680D890233222322132FA
:1028780020321F321E321D321C32242E07EF14F074
:102888002550D8B44AEF14F04CEF14F05CEF14F074
:102898002D1E2C1E2B1E2A1E291E281E271E266CA6
:1028A800000E2722282229222A222B222C222D22FE
:1028B80026C014F027C015F028C016F029C017F05C
:1028C8002AC018F02BC019F02CC01AF02DC01BF02C
:1028D80012000001B66F000E0001B56F000EB46F54
:1028E800FF0EBFEC1BF00001B44BB52BB5BF86EF54
:1028F80014F0B55109E10A0EB45DD8A086EF14F0C2
:1029080088EF14F074EF14F08A98FF0EBFEC1BF0F8
:10291800400EBFEC1BF0000EBFEC1BF0000EBFEC2E
:102928001BF0000EBFEC1BF0000EBFEC1BF0950E69
:10293800BFEC1BF0FF0EBFEC1BF0FF0EBFEC1BF053
:102948000001B76F8A88B605D8A4ADEF14F0AFEFD1
:1029580014F0B8EF14F0060EA66FFE0EA76FB7C0FE
:10296800A8F0A96B44EC1BF08A98FF0EBFEC1BF093
:10297800410EBFEC1BF0000EBFEC1BF0000EBFECCD
:102988001BF0000EBFEC1BF0000EBFEC1BF0FF0E9F
:10299800BFEC1BF0FF0EBFEC1BF0FF0EBFEC1BF0F3
:1029A8000001B76F8A88B751D8A4DDEF14F0DFEFC4
:1029B80014F0B8EF14F0B605D8A4E5EF14F0E7EF7B
:1029C80014F0F0EF14F03C0EA66FFE0EA76FB7C020
:1029D800A8F0A96B44EC1BF08A98FF0EBFEC1BF023
:1029E800500EBFEC1BF0000EBFEC1BF0000EBFEC4E
:1029F8001BF0020EBFEC1BF0000EBFEC1BF0FF0E2D
:102A0800BFEC1BF0FF0EBFEC1BF0FF0EBFEC1BF082
:102A18000001B76F8A88B729D8B415EF15F017EFFA
:102A280015F0F0EF14F0B605D8A41DEF15F01FEF60
:102A380015F028EF15F0CE0EA66FFD0EA76FB7C0E4
:102A4800A8F0A96B44EC1BF01200000E256E1BBE0B
:102A580032EF15F030EF15F044EF15F01B1E1A1E7B
:102A6800191E181E171E161E151E146C000E152290
:102A780016221722182219221A221B22010E256E4D
:102A880023BE4BEF15F049EF15F05BEF15F0231E51
:102A9800221E211E201E1F1E1E1E1D1E1C6C000E27
:102AA8001D221E221F2220222122222223221C50E4
:102AB8001D101E101F102010211022102310D8B432
:102AC80068EF15F06AEF15F0B2EF15F0010E246EFD
:102AD80078EF15F0D8901C361D361E361F36203676
:102AE800213622362336242A23AE7DEF15F07FEFD8
:102AF80015F06EEF15F01C50145C1D5015581E5043
:102B080016581F501758205018582150195822503D
:102B18001A5823501B58D8A094EF15F096EF15F0CB
:102B2800A6EF15F01C50145E1D50155A1E50165A6B
:102B38001F50175A2050185A2150195A22501A5A01
:102B480023501B5AD89023322232213220321F328E
:102B58001E321D321C32242E7FEF15F02550D8B4BA
:102B6800B8EF15F0BAEF15F0CAEF15F01B1E1A1ED4
:102B7800191E181E171E161E151E146C000E15227F
:102B880016221722182219221A221B2214C014F006
:102B980015C015F016C016F017C017F018C018F0B9
:102BA80019C019F01AC01AF01BC01BF0120020EE51
:102BB80024F0070EDE6AE806FDE21C501D101E1008
:102BC8001F102010211022102310D8B4EEEF15F09A
:102BD800F0EF15F042EF16F0010E2C6EFEEF15F037
:102BE800D8901C361D361E361F3620362136223622
:102BF80023362C2A23AE03EF16F005EF16F0F4EF78
:102C080015F0D89024362536263627362836293624
:102C18002A362B361C50145C1D5015581E50165859
:102C28001F501758205018582150195822501A5818
:102C380023501B58D8A023EF16F025EF16F036EFD7
:102C480016F01C50145E1D50155A1E50165A1F506F
:102C5800175A2050185A2150195A22501A5A2350DC
:102C68001B5A2480D89023322232213220321F323C
:102C78001E321D321C322C2E05EF16F024C014F023
:102C880025C015F026C016F027C017F028C018F088
:102C980029C019F02AC01AF02BC01BF012003950B5
:102CA8003A10D8A45AEF16F05CEF16F062EF16F05F
:102CB80039C025F03AC026F068EF16F0FF0E392427
:102CC800256EFF0E3A20266E3DA06DEF16F06FEFD1
:102CD80016F078EF16F021C016F0176A1FC018F02A
:102CE80020C019F029EC18F026BE7DEF16F07FEF12
:102CF80016F081EF16F085EF16F0000E266E000E26
:102D0800256E000E246E000E236E97EF16F0000E4F
:102D1800176E200E166E1FC018F020C019F029EC8F
:102D280018F0234A242A2550235C2450800A226E56
:102D38002650800A2258D8A0A4EF16F0A6EF16F065
:102D48008BEF16F03DB0ABEF16F0ADEF16F0B6EF27
:102D580016F021C016F0176A1FC018F020C019F02D
:102D680029EC18F0010E23241F6E000E2420206E7B
:102D780012001C501D101E101F10201021102210B0
:102D88002310D8B4CAEF16F0CCEF16F014EF17F0F2
:102D9800010E246EDAEF16F0D8901C361D361E365A
:102DA8001F362036213622362336242A23AEDFEF7B
:102DB80016F0E1EF16F0D0EF16F01C50145C1D5021
:102DC80015581E5016581F50175820501858215083
:102DD800195822501A5823501B58D8A0F6EF16F04D
:102DE800F8EF16F008EF17F01C50145E1D50155A36
:102DF8001E50165A1F50175A2050185A2150195A47
:102E080022501A5A23501B5AD89023322232213288
:102E180020321F321E321D321C32242EE1EF16F0F2
:102E280014C014F015C015F016C016F017C017F02E
:102E380018C018F019C019F01AC01AF01BC01BF0FE
:102E480012003DA02AEF17F02CEF17F036EF17F01D
:102E580028C01FF029C020F026C021F027C022F08A
:102E6800D6EC19F02BBE3BEF17F03DEF17F043EF10
:102E780017F02AC02FF02BC030F047EF17F0000EE4
:102E8800306E000E2F6E000E2E6E000E2D6E59EF56
:102E980017F0000E176E200E166E26C018F027C009
:102EA80019F029EC18F02D4A2E2A2F502D5C2E509F
:102EB800800A2C6E3050800A2C58D8A066EF17F084
:102EC80068EF17F04DEF17F03DB06DEF17F06FEFAB
:102ED80017F079EF17F028C01FF029C020F026C09E
:102EE80021F027C022F0D6EC19F028C014F029C030
:102EF80015F0E0EC1AF02F501424266E30501520EF
:102F0800276E1200156E6CBA8CEF17F08EEF17F063
:102F1800DBEF17F01550040D010EF326000EF42216
:102F2800310EF324F66EF30EF420F76EF86A000EF5
:102F3800F8220800F5CF6DFF1550040D310EF3246B
:102F4800F66EF30EF420F76EF86A000EF822080009
:102F5800F5CF6CFF000E6B6E1550040D020EF326B4
:102F6800000EF422310EF324F66EF30EF420F76E01
:102F7800F86A000EF8220800F5CF6EFF1550040D10
:102F8800030EF326000EF422310EF324F66EF30E30
:102F9800F420F76EF86A000EF8220800F5CF14F056
:102FA800144693501418FD0B1418936E6C8A120073
:102FB8008A98FF0EBFEC1BF0510EBFEC1BF01850A7
:102FC800BFEC1BF01750BFEC1BF01650BFEC1BF00A
:102FD8001550BFEC1BF0FF0EBFEC1BF0FF0EBFEC53
:102FE8001BF0FF0AD8B4FBEF17F0FDEF17F0F2EF74
:102FF80017F0FF0EBFEC1BF0FF0AD8B406EF18F06D
:1030080008EF18F0FDEF17F0000E1C6E000E1B6E97
:103018001B501924D96E1C501A20DA6EFF0EBFEC13
:103028001BF0DF6E1B4A1C2A020E1C5CD8A01FEF87
:1030380018F021EF18F00CEF18F0FF0EBFEC1BF0A2
:10304800FF0EBFEC1BF08A88120018501910D8B474
:1030580030EF18F032EF18F03BEF18F01850191055
:10306800D8A439EF18F03BEF18F040EF18F01650DD
:1030780016EC1CF073EF18F020EE04F01850D92667
:103088001950DA22DE50DE10D8B44DEF18F04FEFA9
:1030980018F06AEF18F020EE04F01850D9261950ED
:1030A800DA2210EE02F01850E1261950E222DE5022
:1030B800E65CE650800A1E6EDE50800A1E58D8B0C4
:1030C80068EF18F06AEF18F073EF18F020EE02F0CE
:1030D8001850D9261950DA22DE2A000EDD221200F5
:1030E8008A98FF0EBFEC1BF0580EBFEC1BF018506F
:1030F800BFEC1BF01750BFEC1BF01650BFEC1BF0D9
:103108001550BFEC1BF0FF0EBFEC1BF0FF0EBFEC21
:103118001BF0FF0AD8B493EF18F095EF18F08AEF78
:1031280018F0FF0EBFEC1BF0FF0EBFEC1BF0FF0EFC
:10313800BFEC1BF0FE0EBFEC1BF0000E1C6E000E69
:103148001B6E1B501924D96E1C501A20DA6EDF50E2
:10315800BFEC1BF01B4A1C2A020E1C5CD8A0B7EF60
:1031680018F0B9EF18F0A5EF18F08A8812004A0E87
:10317800F66E380EF76E000EF86E0900F5CFD1F036
:103188000900F5CFD2F0480EF66E380EF76E000E35
:10319800F86E0900F5CF4AF00900F5CF4BF001EEC3
:1031A800DEF018EE00F0EE6AE550E150FCE1E25086
:1031B800FAE101EE00F0A00EEE6AE806FDE100EE8D
:1031C800C2F00F0EEE6AE806FDE100EE39F0110ECE
:1031D800EE6AE806FDE14C904C92000129EF00F000
:1031E800800E0001A66FFF0EA76F44EC1BF0EE0ED9
:1031F8000001A66FFF0EA76FB6C0A8F0B7C0A9F070
:10320800AA6BAB6B44EC1BF0FD0E0001A66FFF0E22
:10321800A76F44EC1BF0EE0E0001A66FFF0EA76F20
:10322800FF0EB415A86FFF0EB515A96F000EB615E1
:10323800AA6F000EB715AB6F44EC1BF0AE0E000181
:10324800A66FFF0EA76F44EC1BF01200A0C0A4F0FD
:10325800A1C0A5F0000E0001C36F000EC26F48EFB9
:1032680019F09EC07FF09FC080F0A40E816F000E01
:10327800826FA2C083F0A3C084F043EC09F0000180
:103288007F51C2278051C323A4C0F6FFA5C0F7FF12
:10329800F86A0800F5500009D8A455EF19F057EF5F
:1032A80019F035EF19F0C2C09EF0C3C09FF01200AC
:1032B8009F0E1C6EFF0E1D6E1AC01EF01BC01FF065
:1032C8001C501E261D501F221F500AE11A0E1E5C9C
:1032D800D8A071EF19F074EF19F0010E75EF19F01D
:1032E800000E206E216A20502110D8B47EEF19F00C
:1032F80080EF19F086EF19F05F0E1A141A6E1B6A28
:103308008AEF19F01AC01AF01BC01BF01200010E48
:103318001A6E200E14181510D8B495EF19F097EFFF
:1033280019F0B0EF19F0F70E166EFF0E176E14C0F5
:1033380018F015C019F016501826175019221950F0
:1033480009E1050E185CD8A0ACEF19F0AEEF19F042
:10335800B0EF19F0000E1A6E1AC014F0156A1200B8
:10336800000E1426020E1522000E1622000E172239
:10337800040E175CD8A0C3EF19F0C5EF19F0CDEF14
:1033880019F0000E146E000E156E000E166E000E6B
:10339800176E14C014F015C015F016C016F017C03B
:1033A80017F01200000E256E000E246EE7EF19F0DC
:1033B80023C016F0176A21C018F022C019F029ECB2
:1033C80018F0244A252A24501F24D96E255020207D
:1033D800DA6EDF50236E2350D8A4F5EF19F0F7EF1B
:1033E80019F0DCEF19F0120027BE05EF1AF027508C
:1033F80006E12604D8B003EF1AF005EF1AF013EF30
:103408001AF026C028F027C029F0281E291E284AAD
:10341800292A28C026F029C027F017EF1AF026C05D
:1034280026F027C027F01200080EB86E900EAB6E7B
:10343800240EAC6E820EAF6E060EB06E000E146EC9
:10344800000E156E0CEC1CF0000E146E000E156EBE
:1034580007EC1CF0000E146E000E156E11EC1CF03B
:10346800000E496E12009F0E166EFF0E176E200E8C
:103478001410186E000E1510196E165018261750D5
:10348800192219500AE11A0E185CD8A04EEF1AF04A
:1034980051EF1AF0010E52EF1AF0000E146E156A71
:1034A80012008A980D0EBFEC1BF0156E8A8815283D
:1034B800D8A461EF1AF063EF1AF066EF1AF0FF0E66
:1034C80070EF1AF0FF0EBFEC1BF0FF0EBFEC1BF005
:1034D800FF0EBFEC1BF0155012009F0E166EFF0E6C
:1034E800176E14C018F015C019F01650182617508A
:1034F800192219500AE11A0E185CD8A086EF1AF0A2
:1035080089EF1AF0010E8AEF1AF0000E146E156A90
:103518001200BF0E166EFF0E176E14C018F015C0FD
:1035280019F0165018261750192219500AE11A0EC8
:10353800185CD8A0A2EF1AF0A5EF1AF0010EA6EFBA
:103548001AF0000E146E156A1200D00E166EFF0ED9
:10355800176E14C018F015C019F016501826175019
:10356800192219500AE10A0E185CD8A0BEEF1AF009
:10357800C1EF1AF0010EC2EF1AF0000E146E156AB0
:103588001200D59C000ED76E000ED66ED650D7CF3F
:1035980016F0176A16C017F0166A1610416E175003
:1035A800426EF294F28A4C0E146E380E156E02ECCE
:1035B8001CF09F0ED56E120014C016F015C017F03F
:1035C800E8EF1AF0144A152A14C0D9FF15C0DAFF1B
:1035D800DF50D8A4F2EF1AF0F4EF1AF0E6EF1AF081
:1035E8001650145C146E17501558156E1200F2948C
:1035F8004250D76E41C0D6FF43504410D8B407EFAD
:103608001BF009EF1BF015EF1BF002D815EF1BF0AC
:103618000500FA6E4350FD6E4450FE6EFF6AFA5084
:103628001200120001C003F002C004F0D890043266
:103638000332D890043203320350BE6E01C003F047
:10364800030E0316033AF00E0316BD50CF0B0310FA
:10365800BD6E1200000E896E000E8A6E000E8B6E13
:103668009268E50E936EBB0E946E3C0E0F013A6F96
:10367800310E396F2F0E386F000E616EF18E120009
:10368800A80E0001B26F000EB36F000E9E6F000E01
:103698009F6FA6C0A0F0A7C0A1F0B20EA26F000E47
:1036A800A36F2AEC19F012009EAA5DEF1BF05FEFE2
:1036B8001BF058EF1BF0000E496EABA266EF1BF033
:1036C80068EF1BF06AEF1BF0AB98AB88AE501200A6
:1036D80020EC1CF0ECEC1BF02EEC1BF0B1EC1BF01A
:1036E800CCEC1BF092EC1BF0F5EC1BF0C5EC1AF0DF
:1036F80018EC1AF0120014501602F3CF18F0F4CF99
:1037080019F014501702F350192615501602F350E9
:10371800192618C014F019C015F012003C0EBD6E21
:10372800000EB66E800EB76E010EB96E000EBF6E3B
:103738001F0EBE6EFC0E0F0149171200D6CF07F000
:10374800D7CF08F00850036E0750056E03C006F087
:1037580005C001F006C002F01200700ED36E040E10
:10376800D26E400E9B6ED2AEBCEF1BF0BEEF1BF0CC
:10377800B7EF1BF01200146E14C06FFFA4AEC7EFB2
:103788001BF0C9EF1BF0C2EF1BF0A49E6F50120094
:10379800000EC16E260EC06E000EC36E000EC46E03
:1037A800110EC26E1200146E9EA8DDEF1BF0DFEF43
:1037B8001BF0D8EF1BF014C0ADFF12009EBAE7EF64
:1037C8001BF0EAEF1BF0010EEBEF1BF0000E1200EE
:1037D800400E6D6E010E6C6E010E6E6E93926C9AB9
:1037E80012003F0EBB6E000EBC6E9E921C0EBA6E8F
:1037F80012001550D76E14C0D6FF120014C043F043
:1038080015C044F0120014C0C8F015C0C9F0120069
:1038180014C0CAF015C0CBF0120014C0C6F015C011
:10382800C7F01200156E1550D7EC1BF012000A50A5
:10383800D76E09C0D6FF1200D09E12006C9A1200F3
:06384800DE05400612003F
:10F3160000809FBBD5E9F8FFFFF8E9D5BB9F806168
:10F32600452B1708010108172B45610140010050C4
:10F336007265737320616E79206B657920746F2016
:10F346007374617274207265636F7264696E67208C
:10F35600617564696F20616E6420707265737320D5
:10F36600616E79206B657920746F2073746F7020DD
:10F376007265636F7264696E672E004C6F672066F4
:10F38600696C65206E616D653A2042726F777365B0
:10F3960020616E642070726F766964652061202E2C
:10F3A60063737620657874656E73696F6E20746F0B
:10F3B60020796F75722066696C65206E616D650DCA
:10F3C6000A00546F2073706F6F6C207465726D69DC
:10F3D6006E616C20636F6E74656E747320696E74F3
:10F3E6006F20612066696C6520666F6C6C6F772094
:10F3F600746865736520696E737472756374696F7A
:10F406006E733A0D0A002E2E2E2E2E2E2E2E2E2EF8
:10F416002E2E2E2E2E2E2E2E2E2E2E2E2E2E2E2E06
:10F426002E2E2E2E2E2E2E2E2E2E2E2E2E2E2E2EF6
:10F436002E2E2E2E2E2E2E2E2E2E2E2E2E2E2E2EE6
:10F446002E0D0A002E2E2E2E2E2E2E2E2E2E2E2E49
:10F456002E2E2E2E2E2E2E2E2E3F3F3F3F3F3F3F4F
:10F466003F3F3F3F3F3F3F3F3F3F2E2E2E2E2E2E0C
:10F476002E2E2E2E2E2E2E2E2E2E2E2E2E2E2E0DC7
:10F486000A002E2E2E2E2E2E2E2E2E2E2E2E2E2EE8
:10F496002E2E2E3F3F3F3F3F3F3F3F3F3F3F3F3FA9
:10F4A6003F3F3F3F3F3F3F3F3F3F3F3F2E2E2E2EAA
:10F4B6002E2E2E2E2E2E2E2E2E2E2E2E2E0D0A00D9
:10F4C6002E2E2E2E2E2E2E2E2E2E2E2E2E2E3F3F34
:10F4D6003F3F3F3F3F3F3F3F3F3F3F3F3F3F3F3F36
:10F4E6003F3F3F3F3F3F3F3F3F3F3F3F3F2E2E2E59
:10F4F6002E2E2E2E2E2E2E2E2E2E2E0D0A002E2E99
:10F506002E2E2E2E2E2E2E2E2E2E3F3F3F3F3F3FAF
:10F516003F3F3F3F3F3F3F3F3F3F3F3F3F3F3F3FF5
:10F526003F3F3F3F3F3F3F3F3F3F3F3F3F2E2E2E18
:10F536002E2E2E2E2E2E2E2E2E0D0A002E2E2E2E58
:10F546002E2E2E2E2E2E3F3F3F3F3F3F3F3F3F3F2B
:10F556003F3F3F3F3F3F3F3F3F3F3F3F3F3F3F3FB5
:10F566003F3F3F3F3F3F3F3F3F3F3F3F3F2E2E2ED8
:10F576002E2E2E2E2E2E2E0D0A002E2E2E2E2E2E18
:10F586002E2E2E3F3F3F3F3F3F3F3F3F3F3F3F3FB8
:10F596003F3F3F3F3F3F3F3F3F3F3F3F3F3F3F3F75
:10F5A6003F3F3F3F3F3F3F3F3F3F3F3F2E2E2E2EA9
:10F5B6002E2E2E2E2E0D0A002E2E2E2E2E2E2E3FC7
:10F5C6003F3F3F3F3F3F3F3F3F3F3F3F3F3F3F3F45
:10F5D6003A3A3A3A3A3A3A3A3A3A3A3F3F3F3F3F6C
:10F5E6003F3F3F3F3F3F3F3F3F3F3F3F2E2E2E2E69
:10F5F6002E2E2E0D0A002E2E2E2E2E2E2E3F3F3F65
:10F606003F3F3F3F3F3F3F3F3F3F3F3F3F3F3F3F04
:10F616003F3F3F3F3F3F3F3F3F3F3F3F3F3F3F3FF4
:10F626003F3F3F3F3F3F3F3F3F3F2E2E2E2E2E2E4A
:10F636002E0D0A002E2E2E2E2E2E3F3F3F3F3F3FF1
:10F646003F3F3F3F3F3F3F3F3F3A3A3A3A3A3F3FDD
:10F656003F3F3F3F3F3A3A3A3A3A3F3F3F3F3F3FCD
:10F666003F3F3F3F3F3F3F3F3F2E2E2E2E2E2E0D3C
:10F676000A002E2E2E2E2E2E3F3F3F3F3F3F3F3F6E
:10F686003F3F3F3F3F3F3F3F3F3F3F3F3F3F3F3F84
:10F696003F3F3F3F3F3F3F3F3F3F3F3F3F3F3F3F74
:10F6A6003F3F3F3F3F3F3F2E2E2E2E2E2E0D0A0070
:10F6B6002E2E2E2E2E3F3F3F3F3F3F3F3F3F3F3FA9
:10F6C6003F3F3F3A3A3A3A3F3F3F3F3F3F3F3F3F58
:10F6D6003F3F3F3F3A3A3A3A3F3F3F3F3F3F3F3F48
:10F6E6003F3F3F3F3F3F2E2E2E2E2E0D0A002E2E41
:10F6F6002E2E2E3F3F3F3F3F3F3F3F3F3F3F3F3F47
:10F706003F3F3F3F3F3F3F3F3F3F3F3F3F3F3F3F03
:10F716003F3F3F3F3F3F3F3F3F3F3F3F3F3F3F3FF3
:10F726003F3F3F3F2E2E2E2E2E0D0A002E2E2E2E22
:10F736003F3F3F3F3A3A3A3A3A3A3A3A3A3A3A3F0A
:10F746003F3F3F3F3F3F3F3F3F3F3F3F3F3F3F3FC3
:10F756003F3F3F3F3A3A3A3A3A3A3A3A3A3A3A3FEA
:10F766003F3F3F2E2E2E2E0D0A002E2E2E2E3F3FD1
:10F776003F3F3F3F3F3F3F3F3F3F3F3F3A3A3A3FA2
:10F786003F3F3F3F3F3F3F3F3F3F3F3F3F3F3F3F83
:10F796003A3A3A3F3F3F3F3F3F3F3F3F3F3F3F3F82
:10F7A6003F2E2E2E2E0D0A002E2E2E3F3F3A3A3A8F
:10F7B6003A3A3A3A3A3A3A3A3A3A3A3A3A3A3A3AA3
:10F7C6003A3F3F3F3F3F3F3F3F3F3A3A3A3A3A3A66
:10F7D6003A3A3A3A3A3A3A3A3A3A3A3A3A3A3F3F79
:10F7E6002E2E2E0D0A002E2E2E3F3F3F3F3F3F3F2F
:10F7F6003F3F3F3F3F3F3A3A3A3F3F3F3F3F3F3F22
:10F806003F3F3F3F3F3F3F3F3F3F3F3F3F3F3A3A0C
:10F816003A3F3F3F3F3F3F3F3F3F3F3F3F3F2E2E19
:10F826002E0D0A002E2E2E2E3F3F3F3F3F3F3F3FDD
:10F836003F3F3F3F3F3A3A3A3F3F3F3F3F3F3F3FE1
:10F846003F3F3F3F3F3F3F3F3F3F3F3A3A3A3F3FD1
:10F856003F3F3F3F3F3F3F3F3F3F3F3F2E2E2E0D17
:10F866000A002E2E3F3F3F3A3A3A3A3A3A3A3A3A65
:10F876003A3A3A3A3A3A3A3A3A3A3A3A3A3A3A3AE2
:10F886003A3A3A3A3A3A3A3A3A3A3A3A3A3A3A3AD2
:10F896003A3A3A3A3A3A3A3A3F3F3F2E2E0D0A0062
:10F8A6002E2E3F3F3F3F3A3A3A3A3A3A3A3A3A3AB6
:10F8B6003A3A3A3A3A3A3A3A3A3A3A3A3F3F3F3A93
:10F8C6003A3A3A3A3A3A3A3A3A3A3A3A3A3A3A3A92
:10F8D6003A3A3A3A3A3F3F3F3F2E2E0D0A002E2E35
:10F8E6002E3F3F3F3F3F3F3F3F3F3F3F3F3F3F3F33
:10F8F6003F3F3F3F3F3F3F3F3F3F3F3F3F3F3F3F12
:10F906003F3F3F3F3F3F3F3F3F3F3F3F3F3F3F3F01
:10F916003F3F3F3F3F3F3F2E2E0D0A002E2E3F3FDB
:10F926003F3F3F3F3F3F3F3F3F3F3F3F3F3F3F3FE1
:10F936003F3F3F3F3F3F3F3F3F3F3F3F3F3F3F3FD1
:10F946003F3F3F3F3F3F3F3F3F3F3F3F3F3F3F3FC1
:10F956003F3F3F3F3F2E2E0D0A002E3F3F3F3F3F8A
:10F966003F3A3A3A3A3A3A3A3A3A3A3A3A3A3A3AEC
:10F976003A3A3A3A3A3F3F3F3F3F3A3A3A3A3A3AC8
:10F986003A3A3A3A3A3A3A3A3A3A3A3A3A3A3A3FCC
:10F996003F3F3F3F2E0D0A002E3F3F3F3F3F3F3F39
:10F9A6003A3A3A3A3A3A3A3A3A3A3A3A3A3A3A3AB1
:10F9B6003A3A3F3F3F3F3F3F3F3A3A3A3A3A3A3A7E
:10F9C6003A3A3A3A3A3A3A3A3A3A3A3A3F3F3F3F7D
:10F9D6003F3F2E0D0A002E3F3F3F3F3F3F3F3A3A03
:10F9E6003A3A3A3A3A3A3A3A3A3A3A3A3A3A3A3F6C
:10F9F6003F3F3F3F3F3F3F3F3A3A3A3A3A3A3A3A39
:10FA06003A3A3A3A3A3A3A3A3A3A3F3F3F3F3F3F32
:10FA16002E0D0A002E3F3F3F3F3F3F3F3F3A3A3AC7
:10FA26003A3A3A3A3A3A3A3A3A3A3A3A3F3F3F3F1C
:10FA36003F3F3F3F3F3F3F3A3A3A3A3A3A3A3A3AFD
:10FA46003A3A3A3A3A3A3F3F3F3F3F3F3F3F2E0D21
:10FA56000A002E3F3F3F3F3F3F3F3F3F3F3A3A3A44
:10FA66003A3A3A3A3A3A3A3F3F3F3F3F3F3F3F3FC3
:10FA76003F3F3F3F3F3F3F3F3A3A3A3A3A3A3A3AB8
:10FA86003A3A3F3F3F3F3F3F3F3F3F3F2E0D0A0041
:10FA9600596F75206D6179207465726D696E617438
:10FAA600652073706F6F6C696E6720617420616E7C
:10FAB6007974696D6520776974682061206B657952
:10FAC6002070726573732E0D0A0052696768742080
:10FAD6006D6F75736520636C69636B206F6E207440
:10FAE6006865207570706572206C656674206F6637
:10FAF600207468652050755454592077696E646F78
:10FB0600770D0A00313A207772697465206120709A
:10FB16006572666563742032362076616C75652081
:10FB260073696E65207761766520746F20746865E9
:10FB360020534420636172640D0A000D0A2D2D2D99
:10FB46002D2D2D2D2D2D2D2D2D2D2D2D2D2D2D2DDF
:10FB56002D2D2D2D2D2D2D2D2D2D2D2D2D2D2D2DCF
:10FB66002D2D2D2D2D2D2D2D2D2D2D2D2D2D0D0A02
:10FB76000053656C6563743A20202020205365731A
:10FB860073696F6E206C6F6767696E673A20416CA8
:10FB96006C2073657373696F6E206F7574707574FE
:10FBA6000D0A002B2F2D20496E6372656173652F38
:10FBB6004465637265617365207468652073616D61
:10FBC600706C652072617465206279203130207511
:10FBD600730D0A00546F20636C6F7365207468653B
:10FBE6002066696C6520666F6C6C6F77207468653B
:10FBF600736520696E737472756374696F6E733A98
:10FC0600200D0A00573A205772697465206D6963A2
:10FC1600726F70686F6E65203D3E205344206361AD
:10FC2600726420617420313630302075730D0A00FD
:10FC3600723A2072656164206120626C6F636B208A
:10FC46006F662025642062797465732066726F6D15
:10FC560020534420636172640D0A004E6F20636F67
:10FC66006E66696775726174696F6E206F6620646F
:10FC76006576656C6F706D656E7420626F61726417
:10FC86000D0A0053656C6563743A202020202053CA
:10FC9600657373696F6E20206C6F6767696E673A6C
:10FCA600204E6F6E650D0A00612F412064656372F8
:10FCB600656173652F696E63726561736520726530
:10FCC600616420616464726573730D0A0053706F1A
:10FCD6006F6C6564202575206F7574206F662074BF
:10FCE600686520257520626C6F636B732E0D0A00A4
:10FCF60053656C6563743A20202020204368616E4A
:10FD060067652073657474696E67732E2E2E0D0AEF
:10FD160000733A2073706F6F6C206D656D6F72792A
:10FD260020746F2061206373762066696C650D0A06
:10FD360000577269746520626C6F636B2073696E1D
:10FD460020776176652076616C7565733A0D0A00D9
:10FD560053746174757320636F64653A202564205B
:10FD66002D2D2D2D20416464726573733A20004158
:10FD76006D6F756E74206F6620626C6F636B732097
:10FD860073746F7265643A2025640D0A00556E64BB
:10FD96006572666C6F77656420746F206869676842
:10FDA60020616464726573730D0A0009506C617991
:10FDB600206C656E67746820696E20626C6F636B79
:10FDC600733A2025640D0A00426C6F636B204C6504
:10FDD6006E67746820526573706F6E73653A20257E
:10FDE600780D0A004F766572666C6F7765642074CD
:10FDF6006F206C6F7720616464726573730D0A00FF
:10FE0600434D44302C2052657365742052657370DF
:10FE16006F6E73653A2025780D0A004C6973746914
:10FE26006E67207772697465206661696C757265A4
:10FE3600733A200D0A00434D44312C20496E6974F3
:10FE460020526573706F6E73653A2025780D0A002F
:10FE5600507265737320616E79206B657920746FBB
:10FE66002073746172740D0A00693A20496E6974D0
:10FE760069616C697A6520534420636172640D0A76
:10FE8600007A3A20436C6561722074686520746557
:10FE9600726D696E616C0D0A00202020205374611A
:10FEA6007475733A2020202020253032780D0A0000
:10FEB60053656C6563743A20202020204C6F676779
:10FEC600696E670D0A0053656C6563743A202020DD
:10FED60020204170706C79200D0A00534420636124
:10FEE6007264202B20706C61796261636B0D0A006D
:10FEF6005A3A2052657365742070726F6365737326
:10FF06006F720D0A000973616D706C652072617401
:10FF1600653A20256475730D0A0044656372656150
:10FF260073656420616464726573730D0A00496EBB
:10FF36006372656173656420616464726573730DD1
:10FF46000A0053656C6563743A20202020204170B6
:10FF5600706C790D0A0053442063617264206164F9
:10FF660064726573733A202000556E6B6E6F776E00
:10FF7600206B65792025630D0A002020202041642E
:10FF860064726573733A202020200009736443610C
:10FF96007264416464726573733A200052656164E9
:10FFA60020626C6F636B3A200D0A003F3A20686549
:10FFB6006C70206D656E750D0A004C6162203130E3
:10FFC6000D0A004465762732310D0A006F3A096F33
:10FFD6006B0D0A006F3A206B0D0A00253034780D40
:10FFE6000A0025303278200025303478000D0A0AC0
:0AFFF600002563003E20003A0000E1
:020000040020DA
:08000000FFFFFFFFFFFFFFFF00
:020000040030CA
:0E000000FF281F3CFFBF85FF0FC00FE00F4021
:00000001FF
