:020000040000FA
:0400000027EF00F0F6
:100008004D82FACF0FF0FBCF10F0D9CF11F0DACF35
:1000180012F0F2AA12EF00F014EF00F01DEF00F05A
:10002800F2A419EF00F01BEF00F01DEF00F09DECBB
:100038001BF012C0DAFF11C0D9FF10C0FBFF0FC0C0
:10004800FAFF4D9211003AEF19F0000E0101F26F1C
:10005800000EF36F000EF46F000EF56F000EEA6FDE
:10006800000EEB6F000EEC6F000EED6F000EEE6FE2
:10007800000EEF6F000EF06F000EF16F470EF66E78
:10008800F30EF76E000EF86E21EEAEF0190E0900B1
:10009800F5CFDEFFE806FBE20EEC1CF08A88000EC6
:1000A800146E000E136E9FEC1CF0F294F2A45FEF36
:1000B80000F061EF00F05AEF00F02C0E136E180EEE
:1000C800146EA4EC1CF0F28EF28C6FEC11F0BB0EE7
:1000D8000001A36FFF0EA46FE6EC1BF0CF0E00012A
:1000E800A36FFE0EA46FE6EC1BF0C40E0001A36F15
:1000F800FF0EA46FE6EC1BF0910E0001A36FFC0E3F
:10010800A46FE6EC1BF0C6EC1CF0000E05EC18F032
:10011800F90E0001A36FFF0EA46FE6EC1BF084EC50
:100128001CF00009D8B49BEF00F09DEF00F093EFAE
:1001380000F0FAEC1BF00101E36F690E0001A36FF8
:10014800FF0EA46FE3C1A5F0A66BE6EC1BF00BEF66
:1001580009F0710EA36FFB0EA46FE6EC1BF09F0E67
:100168000001A36FFD0EA46F0101EA51EE5D0001CD
:10017800B76F0101EB51EF590001B86F0101EC5164
:10018800F0590001B96F0101ED51F1590001BA6F41
:100198000A0ED4EF00F0D890BA33B933B833B73376
:1001A800E82ECFEF00F0B7C0A5F0B8C0A6F0B9C0F0
:1001B800A7F0BAC0A8F0E6EC1BF07F0E0001A36F11
:1001C800FF0EA46FE6EC1BF0E90E0001A36FFF0E13
:1001D800A46FF4C1A5F0F5C1A6F0A76BA86BE6EC77
:1001E8001BF0FC0E0001A36FFF0EA46FE6EC1BF0E2
:1001F800E90E0001A36FFF0EA46FFF0E0101F215B7
:100208000001A56FFF0E0101F3150001A66F000E96
:100218000101F4150001A76F000E0101F515000199
:10022800A86FE6EC1BF09C0E0001A36FFF0EA46FF5
:10023800E6EC1BF0F90E0001A36FFE0EA46FC2C01E
:10024800B7F0C3C0B8F0040EB96FD890B833B7335D
:10025800B92F29EF01F0B7C0A5F0B8C0A6F0E6ECB9
:100268001BF0730E0001A36FFB0EA46FE6EC1BF0EE
:100278009F0E0001A36FFF0EA46FE6EC1BF0D50ED6
:100288000001A36FFF0EA46FE6EC1BF0E40E000163
:10029800A36FFE0EA46FE6EC1BF0750E0001A36FB2
:1002A800FE0EA46FE6EC1BF0730E0001A36FFB0EAD
:1002B800A46FE6EC1BF05D0E0001A36FFE0EA46FA9
:1002C800E6EC1BF0730E0001A36FFB0EA46FE6ECC7
:1002D8001BF0DE0E0001A36FFC0EA46FE6EC1BF012
:1002E800660E0001A36FFC0EA46F020EA66F000E2F
:1002F800A56FE6EC1BF03A0E0001A36FFB0EA46F8E
:10030800020EA66F000EA56FE6EC1BF0730E00013F
:10031800A36FFB0EA46FE6EC1BF0D90E0001A36FD0
:10032800FB0EA46FE6EC1BF03A0E0001A36FFC0E67
:10033800A46FE6EC1BF0240E0001A36FFD0EA46F62
:10034800E6EC1BF0730E0001A36FFB0EA46FE6EC46
:100358001BF08CEF00F0CD0EA36FFF0EA46FE6EC40
:100368001BF08CEF00F0000E0101E56F000EE46F4A
:10037800E55109E1280EE45DD8A0C5EF01F0C7EF0B
:1003880001F0C9EF01F0D5EF01F0F00E0001A36F05
:10039800FF0EA46FE6EC1BF00101E44BE52BBCEF6C
:1003A80001F0FF008CEF00F0000E0101E56F000E78
:1003B800E46FE55109E1280EE45DD8A0E6EF01F00D
:1003C800E8EF01F0EAEF01F08CEF00F0F00E000129
:1003D800A36FFF0EA46FE6EC1BF00101E44BE52BC5
:1003E800DDEF01F0F2C1EAF1F3C1EBF1F4C1ECF198
:1003F800F5C1EDF1000E0101D76F89EF02F0000E93
:100408000101D26F000EDF6F000EDE6F020EDF5D9E
:10041800D8A011EF02F013EF02F015EF02F036EF5B
:1004280002F0AE0E0001BB25D96EDA6A010EDA229F
:10043800FC0E0101DE25E16E070EDF21E26EDFCF43
:10044800E7FF0001BB2B190EBB652DEF02F02FEF64
:1004580002F031EF02F0000EBB6F0101DE4BDF2B23
:100468000AEF02F080C114F081C115F082C116F0C4
:1004780083C117F0FC0E186E070E196EF3EC18F016
:10048800F7EC1AF00101F66FF629D8B44EEF02F036
:1004980050EF02F044EF02F0D22B1F0ED219D8A46D
:1004A80058EF02F05AEF02F05CEF02F065EF02F04D
:1004B800050EF619D8A463EF02F065EF02F036EFE7
:1004C80002F0F20E0001A36FFF0EA46FD7C1A5F0D2
:1004D800A66BE6EC1BF0C80E146E000E136EBBEC98
:1004E8001AF080C113F081C114F082C115F083C1E4
:1004F80016F038EC1AF013C080F114C081F115C061
:1005080082F116C083F10101D72B800ED7618FEFDE
:1005180002F091EF02F09BEF02F084EC1CF000096E
:10052800D8B499EF02F09BEF02F003EF02F084ECED
:100538001CF00009D8B4A3EF02F0A5EF02F0A7EF72
:1005480002F0FAEC1BF080C1EEF181C1EFF182C13B
:10055800F0F183C1F1F1630E0001A36FFD0EA46FEA
:100568000101EA51EE5D0001B76F0101EB51EF594E
:100578000001B86F0101EC51F0590001B96F010198
:10058800ED51F1590001BA6F0A0ED0EF02F0D89080
:10059800BA33B933B833B733E82ECBEF02F0B7C06C
:1005A800A5F0B8C0A6F0B9C0A7F0BAC0A8F0E6ECAC
:1005B8001BF0EAC1ADF0EBC1AEF0ECC1AFF0EDC19C
:1005C800B0F074EC19F0EEC1ADF0EFC1AEF0F0C1CF
:1005D800AFF0F1C1B0F074EC19F08CEF00F0A00EA0
:1005E800C225C26F000EC321C36F8CEF00F0410E0D
:1005F800C25D010EC359D8A004EF03F006EF03F063
:100608008CEF00F0600EC225C26FFF0EC321C36FCE
:100618008CEF00F00101EE51EA190DE1EF51EB19F1
:100628000AE1F051EC1907E1F151ED19D8A41FEFD7
:1006380003F021EF03F023EF03F08CEF00F0EAC1A1
:10064800E6F1EBC1E7F1ECC1E8F1EDC1E9F1000E2B
:100658000001BF6F000EBE6F010EBC6FA1EF03F06B
:100668000001BF51D8A43BEF03F03DEF03F034EF96
:1006780003F0E6C114F0E7C115F0E8C116F0E9C1CE
:1006880017F0FC0E186E050E196E5BEC18F0010ED3
:100698000001BF6FE6C113F0E7C114F0E8C115F01F
:1006A800E9C116F038EC1AF013C0E6F114C0E7F10E
:1006B80015C0E8F116C0E9F10101EE51E6190DE1A6
:1006C800EF51E7190AE1F051E81907E1F151E91989
:1006D800D8A471EF03F073EF03F075EF03F0BEEFEA
:1006E80003F00001BE51D8A47CEF03F07EEF03F0C5
:1006F80075EF03F0E6C114F0E7C115F0E8C116F094
:10070800E9C117F0FC0E186E030E196E5BEC18F0B9
:10071800010E0001BE6FE6C113F0E7C114F0E8C195
:1007280015F0E9C116F038EC1AF013C0E6F114C060
:10073800E7F115C0E8F116C0E9F184EC1CF00009F6
:10074800D8A4A9EF03F0ABEF03F0BEEF03F001016B
:10075800EE51E6190DE1EF51E7190AE1F051E819F8
:1007680007E1F151E919D8A4BCEF03F0BEEF03F09B
:1007780034EF03F0010E486E84EC1CF00009D8B485
:10078800C8EF03F0CAEF03F0CCEF03F0FAEC1BF06C
:100798000001BC51D8A4D3EF03F0D5EF03F0CCEFA0
:1007A80003F08CEF00F0650EA36FF30EA46FE6EC78
:1007B8001BF084EC1CF00009D8B4E5EF03F0E7EF78
:1007C80003F0DDEF03F0FAEC1BF0F2C1EAF1F3C13C
:1007D800EBF1F4C1ECF1F5C1EDF1F2C1F8F1F3C1BF
:1007E800F9F1F4C1FAF1F5C1FBF1000E0101F76F5F
:1007F800010E4A6E22EF05F00001BF51D8B407EF91
:1008080004F009EF04F091EF04F0000E0101D86F35
:10081800090ED86512EF04F014EF04F016EF04F097
:100828003FEF04F0F8C114F0F9C115F0FAC116F061
:10083800FBC117F0FC0E186E050E196EF3EC18F0DC
:10084800F7EC1AF00101F66FF629D8B42EEF04F090
:1008580030EF04F024EF04F0F6511F0B050AD8A47A
:1008680038EF04F03AEF04F03CEF04F03FEF04F007
:10087800D82B0CEF04F0000E0001BF6F0101F651F8
:100888001F0B050AD8B44BEF04F04DEF04F06EEFE0
:1008980004F0800EF76153EF04F055EF04F06EEFAB
:1008A80004F0F751040DFC0EF324D96E010EF42068
:1008B800DA6EF8C1DEFFF9C1DEFFFAC1DEFFFBC167
:1008C800DEFF000EF725D96EDA6A010EDA22F6C1CC
:1008D800DFFFF72BF8C113F0F9C114F0FAC115F0D6
:1008E800FBC116F038EC1AF013C0F8F114C0F9F196
:1008F80015C0FAF116C0FBF1C2C0B7F0C3C0B8F01A
:100908000001D890B833B733D890B833B733B7C0ED
:1009180013F0B8C014F0BBEC1AF00001BE51D8B403
:1009280098EF04F09AEF04F022EF05F0000E0101B1
:10093800D96F090ED965A3EF04F0A5EF04F0A7EF6E
:1009480004F0D0EF04F0F8C114F0F9C115F0FAC1C1
:1009580016F0FBC117F0FC0E186E030E196EF3ECBF
:1009680018F0F7EC1AF00101F66FF629D8B4BFEFCA
:1009780004F0C1EF04F0B5EF04F0F6511F0B050ABF
:10098800D8A4C9EF04F0CBEF04F0CDEF04F0D0EF1A
:1009980004F0D92B9DEF04F0000E0001BE6F010199
:1009A800F6511F0B050AD8B4DCEF04F0DEEF04F0B3
:1009B800FFEF04F0800EF761E4EF04F0E6EF04F0D7
:1009C800FFEF04F0F751040DFC0EF324D96E010E6D
:1009D800F420DA6EF8C1DEFFF9C1DEFFFAC1DEFFEE
:1009E800FBC1DEFF000EF725D96EDA6A010EDA22A6
:1009F800F6C1DFFFF72BF8C113F0F9C114F0FAC103
:100A080015F0FBC116F038EC1AF013C0F8F114C059
:100A1800F9F115C0FAF116C0FBF1C2C0B7F0C3C0B6
:100A2800B8F00001D890B833B733D890B833B7339B
:100A3800B7C013F0B8C014F0BBEC1AF084EC1CF08B
:100A48000009D8B42AEF05F02CEF05F000EF04F008
:100A5800FAEC1BF0010E496E41EF06F0BF51D8B415
:100A680038EF05F03AEF05F0B9EF05F0F8C114F0EA
:100A7800F9C115F0FAC116F0FBC117F0FC0E186E9B
:100A8800050E196EF3EC18F0F7EC1AF00101F66F89
:100A9800F629D8B452EF05F054EF05F048EF05F009
:100AA800F6511F0B050AD8B45CEF05F05EEF05F0B0
:100AB80078EF05F0F8C114F0F9C115F0FAC116F095
:100AC800FBC117F0FC0E186E050E196EF3EC18F04A
:100AD800F7EC1AF00101F66FF629D8B476EF05F0B5
:100AE80078EF05F06CEF05F0000E0001BF6F010113
:100AF800F6511F0B050AD8B484EF05F086EF05F010
:100B0800A7EF05F0800EF7618CEF05F08EEF05F08A
:100B1800A7EF05F0F751040DFC0EF324D96E010E72
:100B2800F420DA6EF8C1DEFFF9C1DEFFFAC1DEFF9C
:100B3800FBC1DEFF000EF725D96EDA6A010EDA2254
:100B4800F6C1DFFFF72BF8C113F0F9C114F0FAC1B1
:100B580015F0FBC116F038EC1AF013C0F8F114C008
:100B6800F9F115C0FAF116C0FBF10001BE51D8B475
:100B7800C0EF05F0C2EF05F041EF06F0F8C114F040
:100B8800F9C115F0FAC116F0FBC117F0FC0E186E8A
:100B9800030E196EF3EC18F0F7EC1AF00101F66F7A
:100BA800F629D8B4DAEF05F0DCEF05F0D0EF05F060
:100BB800F6511F0B050AD8B4E4EF05F0E6EF05F08F
:100BC80000EF06F0F8C114F0F9C115F0FAC116F0FB
:100BD800FBC117F0FC0E186E030E196EF3EC18F03B
:100BE800F7EC1AF00101F66FF629D8B4FEEF05F01C
:100BF80000EF06F0F4EF05F0000E0001BE6F0101F2
:100C0800F6511F0B050AD8B40CEF06F00EEF06F0EC
:100C18002FEF06F0800EF76114EF06F016EF06F0DE
:100C28002FEF06F0F751040DFC0EF324D96E010ED8
:100C3800F420DA6EF8C1DEFFF9C1DEFFFAC1DEFF8B
:100C4800FBC1DEFF000EF725D96EDA6A010EDA2243
:100C5800F6C1DFFFF72BF8C113F0F9C114F0FAC1A0
:100C680015F0FBC116F038EC1AF013C0F8F114C0F7
:100C7800F9F115C0FAF116C0FBF10001BF51D8A473
:100C880048EF06F04AEF06F032EF05F0BE51D8A45F
:100C980050EF06F052EF06F032EF05F0BD51D8A440
:100CA80058EF06F05AEF06F032EF05F0F8C1EEF112
:100CB800F9C1EFF1FAC1F0F1FBC1F1F19C0EA36F9C
:100CC800FF0EA46FE6EC1BF00101F751D8B46FEFEB
:100CD80006F071EF06F08CEF00F00F0E0001A36F25
:100CE800FE0EA46FE6EC1BF0000E0101E26FD2EFDE
:100CF80006F0E251040DFC0EF324D96E010EF42027
:100D0800DA6EDECFD3F1DECFD4F1DECFD5F1DECF90
:100D1800D6F1440E0001A36FFD0EA46F000E010171
:100D2800E225D96EDA6A010EDA22DF500001B76FC8
:100D3800B751A56FA66BE6EC1BF0E90E0001A36F97
:100D4800FF0EA46FD5C1A5F0D6C1A6F0A76BA86BFE
:100D5800E6EC1BF0FC0E0001A36FFF0EA46FE6EC9F
:100D68001BF0DC0E0001A36FFF0EA46FFF0E010144
:100D7800D3150001A56FFF0E0101D4150001A66F60
:100D8800000E0101D5150001A76F000E0101D6154F
:100D98000001A86FE6EC1BF00101E22BF751E25DC0
:100DA800D8A0D9EF06F0DBEF06F07DEF06F08CEF68
:100DB80000F0C60EA36FFA0EA46FE6EC1BF0F80E57
:100DC8000001A36FF30EA46FE6EC1BF09C0E00016C
:100DD800A36FFF0EA46FE6EC1BF0000E0001A36FDB
:100DE800FB0EA46FE6EC1BF0030E0001A36FFD0ED3
:100DF800A46FE6EC1BF0A40E0001A36FFE0EA46F17
:100E0800E6EC1BF0A70E0001A36FFB0EA46FE6EC47
:100E18001BF0B10E0001A36FF30EA46FE6EC1BF0FC
:100E2800360E0001A36FFF0EA46FE6EC1BF0440E14
:100E38000001A36FFE0EA46FE6EC1BF084EC1CF01F
:100E48000009D8B42AEF07F02CEF07F022EF07F0DB
:100E5800FAEC1BF0EAC1DAF1EBC1DBF1ECC1DCF131
:100E6800EDC1DDF1EEC1C8F1EFC1C9F1F0C1CAF1C0
:100E7800F1C1CBF1000E0101CE6F000ECF6F000E55
:100E8800D06F000ED16F9DEF07F0DAC114F0DBC10F
:100E980015F0DCC116F0DDC117F0FC0E186E070E58
:100EA800196E5BEC18F0DAC113F0DBC114F0DCC189
:100EB80015F0DDC116F038EC1AF013C0DAF114C0E1
:100EC800DBF115C0DCF116C0DDF1000E0101E16FA8
:100ED800000EE06F020EE119E011D8A476EF07F0DA
:100EE80078EF07F07AEF07F097EF07F0FC0EE025B0
:100EF800D96E070EE121DA6EDF500001B76FB751E6
:100F08000101CC6FCD6B7C0E0001A36FFD0EA46FA9
:100F1800CCC1A5F0CDC1A6F0E6EC1BF00101E04B79
:100F2800E12B6EEF07F0010ECE27000ECF23D02362
:100F3800D12384EC1CF00009D8A4A5EF07F0A7EF93
:100F480007F0BAEF07F00101C851DA190DE1C951EC
:100F5800DB190AE1CA51DC1907E1CB51DD19D8A424
:100F6800B8EF07F0BAEF07F049EF07F084EC1CF090
:100F78000009D8B4C2EF07F0C4EF07F0C6EF07F0D6
:100F8800FAEC1BF08D0E0001A36FFE0EA46FCEC10C
:100F9800A5F0CFC1A6F0D0C1A7F0D1C1A8F0E6EC6A
:100FA8001BF0AE0E0001A36FFF0EA46F0101EA5102
:100FB800EE5D0001B76F0101EB51EF590001B86F09
:100FC8000101EC51F0590001B96F0101ED51F159DE
:100FD8000001BA6F0A0EF6EF07F0D890BA33B933AA
:100FE800B833B733E82EF1EF07F0B7C0A5F0B8C0B3
:100FF800A6F0B9C0A7F0BAC0A8F0E6EC1BF00A0E3C
:101008000001A36FFC0EA46FE6EC1BF0000E0001BC
:10101800A36FFB0EA46FE6EC1BF0030E0001A36F99
:10102800FD0EA46FE6EC1BF0A40E0001A36FFE0EEC
:10103800A46FE6EC1BF0B90E0001A36FFC0EA46FC1
:10104800E6EC1BF0BA0E0001A36FFE0EA46FE6ECEF
:101058001BF08CEF00F0C6EC1CF0000E05EC18F04D
:10106800010EECEC14F08CEF00F0610E0101E319B5
:10107800D8A441EF08F043EF08F06FEF08F0000E36
:10108800F25F020EF35B000EF45B000EF55B040EDC
:10109800F55DD8A052EF08F054EF08F066EF08F0BD
:1010A800810E0001A36FFD0EA46FE6EC1BF0000E8D
:1010B8000101F26FFE0EF36FFF0EF46F030EF56F72
:1010C80099EF08F00E0E0001A36FFF0EA46FE6EC77
:1010D8001BF099EF08F0000EF227020EF323000E22
:1010E800F423000EF523040EF55DD8A07EEF08F07A
:1010F80080EF08F092EF08F0D80E0001A36FFD0E04
:10110800A46FE6EC1BF0000E0101F26F000EF36F06
:10111800000EF46F000EF56F99EF08F0220E000133
:10112800A36FFF0EA46FE6EC1BF04A0E0001A36F3D
:10113800FF0EA46FE6EC1BF0E90E0001A36FFF0E93
:10114800A46FF4C1A5F0F5C1A6F0A76BA86BE6ECF7
:101158001BF0FC0E0001A36FFF0EA46FE6EC1BF062
:10116800E90E0001A36FFF0EA46FFF0E0101F21537
:101178000001A56FFF0E0101F3150001A66F000E17
:101188000101F4150001A76F000E0101F51500011A
:10119800A86FE6EC1BF09C0E0001A36FFF0EA46F76
:1011A800E6EC1BF08CEF00F0F2C114F0F3C115F07F
:1011B800F4C116F0F5C117F0FC0E186E070E196E83
:1011C8005BEC18F0900E0001A36FFF0EA46FE6EC25
:1011D8001BF0F2C1ADF0F3C1AEF0F4C1AFF0F5C150
:1011E800B0F074EC19F0FC0E0001AD6F070EAE6F95
:1011F80065EC12F08CEF00F05D0EA36FFF0EA46F8C
:10120800E3C1A5F0A66BE6EC1BF08CEF00F0010142
:10121800E3510001B76FB86BB851000AD8B417EFA3
:1012280009F000EF09F0B7512B0AD8B4F3EF02F038
:10123800060AD8B4FBEF02F01C0AD8B4F6EF01F0A6
:101248000E0AD8B4ADEF00F07E0AD8B439EF08F032
:10125800110AD8B40EEF03F0070AD8B4D7EF03F099
:101268000D0AD8B4B7EF01F03B0AD8B439EF08F04B
:10127800080AD8B42FEF08F0060AD8B4AFEF01F087
:101288001D0AD8B4D8EF08F0010AD8B4DDEF06F08B
:10129800090AD8B4D8EF01F000EF09F027EF00F001
:1012A8007EC0D9FF7FC0DAFFDECFF6FFDDCFF7FFC4
:1012B800F86A0800F550250AD8A465EF09F067EF29
:1012C80009F0F9EF0BF07EC0D9FF7FC0DAFFDE2A04
:1012D800000EDD22000E3C6E000E3B6E3BC03FF060
:1012E8003CC040F03D683E68000E00018F6F000E64
:1012F8008E6FC6EF09F03F807EC0D9FF7FC0DAFF4E
:10130800DE2A000EDD22C6EF09F03F8280EF09F0E9
:101318003F8480EF09F03F8680EF09F03F8880EF37
:1013280009F0000E8F6F010E8E6FC6EF09F07EC0B8
:10133800D9FF7FC0DAFFDECFF6FFDDCFF7FFF86A0F
:101348000800F550826F836B8351000AD8B4AFEF61
:1013580009F095EF09F08251200AD8B48FEF09F00F
:10136800030AD8B492EF09F0080AD8B48CEF09F050
:10137800060AD8B47FEF09F01D0AD8B489EF09F03E
:1013880095EF09F08E518F11D8B4CDEF09F0CFEF5A
:1013980009F09BEF09F03FA0D4EF09F0D6EF09F070
:1013A800D7EF09F03F927EC0D9FF7FC0DAFFDECFCA
:1013B800F6FFDDCFF7FFF86A0800F5502A0AD8A42F
:1013C800E8EF09F0EAEF09F013EF0AF07EC0D9FF61
:1013D8007FC0DAFFDE2A000EDD2280C0D9FF81C07F
:1013E800DAFFDFCF82F0020EDE26DFCF83F0000EB9
:1013F800DD2282C0D9FF83C0DAFFDECF3BF0DDCF2C
:101408003CF03CBE0CEF0AF00AEF0AF058EF0AF085
:101418003F803B6C3C1ED8B03C2A58EF0AF07EC097
:10142800D9FF7FC0DAFFDECF1AF0DDCF1BF05BEC0F
:1014380013F01AC03BF01BC03CF02AEF0AF07EC044
:10144800D9FF7FC0DAFFDE2A000EDD22D00E0001B0
:10145800826FFF0E836F7EC0D9FF7FC0DAFFDECFB9
:10146800F6FFDDCFF7FFF86A0800F550846F856B4B
:10147800825184278351852385510AE10A0E845DB0
:10148800D8A049EF0AF04CEF0AF0010E4DEF0AF030
:10149800000E906F916B90519111D8A456EF0AF0FD
:1014A80058EF0AF023EF0AF07EC0D9FF7FC0DAFFB9
:1014B800DECFF6FFDDCFF7FFF86A0800F550630AC4
:1014C800D8A469EF0AF06BEF0AF092EF0AF07EC039
:1014D800D9FF7FC0DAFFDE2A000EDD2280C0D9FFE7
:1014E80081C0DAFFDFCF82F0020EDE26DFCF83F085
:1014F800000EDD2282C0D9FF83C0DAFFDF509A6F69
:101508007CC01EF07DC01FF09AC020F0D2EC16F00F
:101518001EC07CF01FC07DF015EF0CF07EC0D9FF17
:101528007FC0DAFFDECFF6FFDDCFF7FFF86A0800ED
:10153800F550640AD8B4A3EF0AF0A5EF0AF0B8EFA3
:101548000AF07EC0D9FF7FC0DAFFDECFF6FFDDCF1D
:10155800F7FFF86A0800F550690AD8A4B6EF0AF050
:10156800B8EF0AF0F8EF0AF07EC0D9FF7FC0DAFFC3
:10157800DE2A000EDD2280C0D9FF81C0DAFFDFCF6E
:1015880082F0020EDE26DFCF83F0000EDD2282C05D
:10159800D9FF83C0DAFFDECF86F0DDCF87F0000EFB
:1015A80087BFFF0E886F896F8A6F8B6F8C6F8D6F07
:1015B8007CC030F07DC031F086C032F087C033F097
:1015C80088C034F089C035F08AC036F08BC037F057
:1015D8008CC038F08DC039F08AEC0DF030C07CF04A
:1015E80031C07DF015EF0CF07EC0D9FF7FC0DAFF67
:1015F800DECFF6FFDDCFF7FFF86A0800F550750A71
:10160800D8A409EF0BF00BEF0BF04CEF0BF07EC0FA
:10161800D9FF7FC0DAFFDE2A000EDD2280C0D9FFA5
:1016280081C0DAFFDFCF82F0020EDE26DFCF83F043
:10163800000EDD2282C0D9FF83C0DAFFDECF84F03E
:10164800DDCF85F084C092F085C093F0946B956BE4
:10165800966B976B986B996B7CC030F07DC031F0BE
:1016680092C032F093C033F094C034F095C035F096
:1016780096C036F097C037F098C038F099C039F066
:101688006BEC10F030C07CF031C07DF015EF0CF041
:101698007EC0D9FF7FC0DAFFDECFF6FFDDCFF7FFD0
:1016A800F86A0800F550780AD8B45DEF0BF05FEFE0
:1016B8000BF072EF0BF07EC0D9FF7FC0DAFFDECFF0
:1016C800F6FFDDCFF7FFF86A0800F550580AD8A4EE
:1016D80070EF0BF072EF0BF0C1EF0BF07EC0D9FF8B
:1016E8007FC0DAFFDECFF6FFDDCFF7FFF86A08002C
:1016F800F5CF9AF07EC0D9FF7FC0DAFFDE2A000E50
:10170800DD2280C0D9FF81C0DAFFDFCF82F0020E70
:10171800DE26DFCF83F0000EDD2282C0D9FF83C032
:10172800DAFFDECF84F0DDCF85F084C092F085C08B
:1017380093F0946B956B966B976B986B996B7CC0D9
:1017480030F07DC031F092C032F093C033F094C0D5
:1017580034F095C035F096C036F097C037F098C091
:1017680038F099C039F09AC03AF0FCEC0EF030C06D
:101778007CF031C07DF015EF0CF07EC0D9FF7FC042
:10178800DAFFDECFF6FFDDCFF7FFF86A0800F55085
:10179800250AD8A4D2EF0BF0D4EF0BF0ECEF0BF046
:1017A8007EC0D9FF7FC0DAFFDE2A000EDD22000EE0
:1017B800166E250E156E7CC017F07DC018F0A8ECCB
:1017C80018F0000E00017D6F010E7C6F15EF0CF014
:1017D8007EC0D9FF7FC0DAFFDE2A000EDD22000EB0
:1017E8007D6F000E7C6F15EF0CF07EC0D9FF7FC0B7
:1017F800DAFFDECFF6FFDDCFF7FFF86A0800F55015
:10180800156E166A7CC017F07DC018F0A8EC18F0A9
:101818007EC0D9FF7FC0DAFFDE2A000EDD22E5EFA9
:101828000BF01200C28244EC1CF00001C251015CB2
:10183800096EC35102580A6EBDEC1CF0C4CF0DF0FE
:101848000E6A68EF0DF04A50D8B42DEF0CF02FEF68
:101858000CF044EF0CF0010E0001BD6F000E496E54
:10186800040E476E000E426E000E416EFC0EC06FF5
:10187800050EC16F010E4C6E000E4A6E89EF0DF019
:101888000001BC51D8B44BEF0CF04DEF0CF089EFD0
:101898000DF0010E4C6E000E486EFC0EC06F050E6A
:1018A800C16F000E426E000E416E020E476E89EF48
:1018B8000DF04C50D8B463EF0CF065EF0CF06EEF00
:1018C8000CF00001BF51D8B46CEF0CF06EEF0CF0C7
:1018D80089EF0DF04C50D8A474EF0CF076EF0CF0B3
:1018E80081EF0CF00001BE51D8A47DEF0CF07FEF22
:1018F8000CF081EF0CF089EF0DF041500001C0258C
:10190800D96E4250C121DA6EDF500B6E0B50016E5A
:10191800026AB8EC1BF0414A422A020E42184110F2
:10192800D8A499EF0CF09BEF0CF089EF0DF04C5018
:10193800D8B4A1EF0CF0A3EF0CF0B6EF0CF0000E4A
:101948000001BF6FFC0EC06F030EC16FBE51D8A45B
:10195800B0EF0CF0B2EF0CF0C7EF0CF0030E476ECF
:10196800C7EF0CF0000E0001BE6FFC0EC06F050E35
:10197800C16FBF51D8A4C3EF0CF0C5EF0CF0C7EF8F
:101988000CF0B2EF0CF04C50D8B4CDEF0CF0D0EF17
:101998000CF0010ED1EF0CF0000E4C6E000E426EF2
:1019A800000E416E4850D8B4DCEF0CF0DEEF0CF0BE
:1019B80089EF0DF0000E486E000E476E000EBC6FEA
:1019C80089EF0DF04C50D8B4ECEF0CF0EEEF0CF0C2
:1019D800F7EF0CF00001BF51D8A4F5EF0CF0F7EFCA
:1019E8000CF089EF0DF04C50D8A4FDEF0CF0FFEF90
:1019F8000CF00AEF0DF00001BE51D8B406EF0DF05F
:101A080008EF0DF00AEF0DF089EF0DF041500001DD
:101A1800C025D96E4250C121DA6E0DC0DFFF414AA0
:101A2800422A020E42184110D8A41DEF0DF01FEFF4
:101A38000DF089EF0DF04C50D8B425EF0DF027EFDD
:101A48000DF039EF0DF0010EBF6FFC0EC06F030EE5
:101A5800C16FBE51D8B433EF0DF035EF0DF049EF3B
:101A68000DF0030E476E49EF0DF0010EBE6FFC0E30
:101A7800C06F050EC16FBF51D8B445EF0DF047EFE9
:101A88000DF049EF0DF035EF0DF04C50D8B44FEF95
:101A98000DF052EF0DF0010E53EF0DF0000E4C6EED
:101AA800000E426E000E416E4950D8B45EEF0DF044
:101AB80060EF0DF089EF0DF0000E496E000EBD6F5E
:101AC800000E476E89EF0DF047500B6E0C6A0C50F4
:101AD800000AD8B472EF0DF089EF0DF00B50000A30
:101AE800D8B427EF0CF0010AD8B45DEF0CF0030A64
:101AF800D8B481EF0CF0010AD8B4E6EF0CF0070A6D
:101B0800D8B40AEF0DF089EF0DF0120032C070F072
:101B180033C071F034C072F035C073F036C074F061
:101B280037C075F038C076F039C077F0000177BF5C
:101B3800A0EF0DF0A3EF0DF0010EA4EF0DF0000ED5
:101B48006E6F6F6B6E516F11D8B4ADEF0DF0AFEFD4
:101B58000DF0BFEF0DF0771F761F751F741F731FF1
:101B6800721F711F706D000E71237223732374230B
:101B78007523762377233EBEC4EF0DF0C6EF0DF034
:101B8800C7EF0DF03F923EBED4EF0DF03E5006E198
:101B98003D04D8B0D2EF0DF0D4EF0DF0DAEF0DF030
:101BA800000E6B6F010E6A6FDEEF0DF03DC06AF03C
:101BB8003EC06BF03BC06CF03CC06DF06E516F11D5
:101BC800D8A4E9EF0DF0EBEF0DF0F2EF0DF03FA424
:101BD800F0EF0DF0F2EF0DF0F5EF0DF06C07D8A077
:101BE8006D07000E796F1F0E786F000E0101AD6F43
:101BF8007BEF0EF07807D8A079078E0E7825D96E7E
:101C0800010E7921DA6E70C013F071C014F072C041
:101C180015F073C016F074C017F075C018F076C0D0
:101C280019F077C01AF00A0E1B6E000E1C6E000E1B
:101C38001D6E000E1E6E000E1F6E000E206E000E32
:101C4800216E000E226EA8EC15F013C060F014C0CF
:101C580061F015C062F016C063F017C064F018C0D8
:101C680065F019C066F01AC067F060C025F062C060
:101C780026F07CEC1AF02550300FDF6E00016A0761
:101C8800D8A06B076C07D8A06D0770C013F071C09F
:101C980014F072C015F073C016F074C017F075C058
:101CA80018F076C019F077C01AF00A0E1B6E000EF5
:101CB8001C6E000E1D6E000E1E6E000E1F6E000EB6
:101CC800206E000E216E000E226E28EC14F013C058
:101CD80070F014C071F015C072F016C073F017C020
:101CE80074F018C075F019C076F01AC077F00001CA
:101CF80079BF87EF0EF0795108E17805D8A087EF12
:101D08000EF089EF0EF0B9EF0EF0705171117211EB
:101D180073117411751176117711D8A496EF0EF01E
:101D280098EF0EF0FEEF0DF06BBFA5EF0EF06B51C4
:101D380006E16A05D8B0A3EF0EF0A5EF0EF0FEEFAE
:101D48000DF06DBFB0EF0EF06D5108E16C05D8A035
:101D5800B0EF0EF0B2EF0EF0B9EF0EF03FB2B7EF02
:101D68000EF0B9EF0EF0FEEF0DF06E516F11D8A422
:101D7800C0EF0EF0C2EF0EF0C9EF0EF03FA4C7EFB0
:101D88000EF0C9EF0EF0E7EF0EF07807D8A079074C
:101D98006E516F11D8A4D3EF0EF0D5EF0EF0DBEF34
:101DA8000EF0000E696F2B0E686FDFEF0EF0000E5D
:101DB800696F2D0E686F8E0E7825D96E010E792108
:101DC800DA6E68C0DFFF30C025F031C026F08E0E15
:101DD8007825276E010E7921286E6CC029F06DC018
:101DE8002AF0A4EC17F025C030F026C031F012001C
:101DF8003EBE01EF0FF003EF0FF004EF0FF03F923C
:101E08003EBE11EF0FF03E5006E13D04D8B00FEF93
:101E18000FF011EF0FF018EF0FF0000E00016D6FCB
:101E2800010E6C6F1CEF0FF03DC06CF03EC06DF002
:101E38003BC06EF03CC06FF03FA825EF0FF027EFD6
:101E48000FF02CEF0FF00001FE0E6E27FF0E6F2330
:101E580032C070F033C071F034C072F035C073F026
:101E680036C074F037C075F038C076F039C077F0F6
:101E7800000E0001796F1F0E786F000E0101AD6F23
:101E8800FAEF0FF07807D8A079070F0E70157A6F60
:101E98007B6B7BBF59EF0FF07B5109E10A0E7A5D2E
:101EA800D8A059EF0FF05BEF0FF063EF0FF0570E6C
:101EB8007A257A6F000E7B217B6F69EF0FF0300E69
:101EC8007A257A6F000E7B217B6FBF0E606FFF0E45
:101ED800616F3A50626F636B60516227615163238F
:101EE80063510AE11A0E625DD8A07DEF0FF080EF12
:101EF8000FF0010E81EF0FF0000E686F696B6851EB
:101F08006911D8B48AEF0FF08CEF0FF0BCEF0FF027
:101F18009F0E606FFF0E616F200E7A11626F000EC8
:101F28007B11636F605162276151632363510AE13A
:101F38001A0E625DD8A0A3EF0FF0A6EF0FF0010E06
:101F4800A7EF0FF0000E6A6F6B6B6A516B11D8B474
:101F5800B0EF0FF0B2EF0FF0BCEF0FF07AC019F04E
:101F68007BC01AF0E0EC19F019C07AF01AC07BF0C7
:101F78008E0E00017825D96E010E7921DA6E7AC0AD
:101F8800DFFF6C07D8A06D076E07D8A06F0770C079
:101F980060F071C061F072C062F073C063F074C029
:101FA80064F075C065F076C066F077C067F0050E1E
:101FB800E7EF0FF0D89067336633653364336333E4
:101FC800623361336033E82EDEEF0FF060C070F0EB
:101FD80061C071F062C072F063C073F064C074F0E5
:101FE80065C075F066C076F067C077F0000179BF0C
:101FF80007EF10F0795109E1020E785DD8A007EFDC
:1020080010F009EF10F039EF10F0705171117211E2
:1020180073117411751176117711D8A416EF10F099
:1020280018EF10F046EF0FF06DBF25EF10F06D516F
:1020380006E16C05D8B023EF10F025EF10F046EF5D
:102048000FF06FBF30EF10F06F5108E16E05D8A0A8
:1020580030EF10F032EF10F039EF10F03FB237EFF9
:1020680010F039EF10F046EF0FF03FA83EEF10F0F8
:1020780040EF10F056EF10F07807D8A079078E0ED1
:102088007825D96E010E7921DA6E3AC0DFFF78071C
:10209800D8A079078E0E7825D96E010E7921DA6ECF
:1020A800300EDF6E30C025F031C026F08E0E782558
:1020B800276E010E7921286E6EC029F06FC02AF0B4
:1020C800A4EC17F025C030F026C031F012003EBE57
:1020D80070EF10F072EF10F073EF10F03F923EBE09
:1020E80080EF10F03E5006E13D04D8B07EEF10F0CE
:1020F80080EF10F087EF10F0000E0001696F010EFD
:10210800686F8BEF10F03DC068F03EC069F03BC0CF
:102118006AF03CC06BF032C06CF033C06DF034C074
:102128006EF035C06FF036C070F037C071F038C04F
:1021380072F039C073F0000E0001756F1F0E746FD6
:10214800000E0101AD6F20EF11F07407D8A07507DC
:102158008E0E7425D96E010E7521DA6E6CC013F0DF
:102168006DC014F06EC015F06FC016F070C017F097
:1021780071C018F072C019F073C01AF00A0E1B6E05
:10218800000E1C6E000E1D6E000E1E6E000E1F6EE1
:10219800000E206E000E216E000E226E3CEC17F031
:1021A80013C060F014C061F015C062F016C063F08F
:1021B80017C064F018C065F019C066F01AC067F05F
:1021C80000016051300FDF6E6807D8A069076A0701
:1021D800D8A06B076CC013F06DC014F06EC015F07A
:1021E8006FC016F070C017F071C018F072C019F007
:1021F80073C01AF00A0E1B6E000E1C6E000E1D6EC8
:10220800000E1E6E000E1F6E000E206E000E216E58
:10221800000E226E5AEC16F013C06CF014C06DF06C
:1022280015C06EF016C06FF017C070F018C071F0CE
:1022380019C072F01AC073F0000174517511D8B446
:1022480028EF11F02AEF11F05AEF11F06C516D11CF
:102258006E116F117011711172117311D8A437EFCB
:1022680011F039EF11F0A9EF10F069BF46EF11F046
:10227800695106E16805D8B044EF11F046EF11F056
:10228800A9EF10F06BBF51EF11F06B5108E16A052F
:10229800D8A051EF11F053EF11F05AEF11F03FB2FF
:1022A80058EF11F05AEF11F0A9EF10F030C025F0F7
:1022B80031C026F08E0E7425276E010E7521286E0A
:1022C8006AC029F06BC02AF0A4EC17F025C030F0E2
:1022D80026C031F012003C0E0001A36FF40EA46F6B
:1022E800E6EC1BF07A0E0001A36FF40EA46FE6EC87
:1022F8001BF0B80E0001A36FF40EA46FE6EC1BF000
:10230800F60E0001A36FF40EA46FE6EC1BF0340E7A
:102318000001A36FF50EA46FE6EC1BF0720E00012E
:10232800A36FF50EA46FE6EC1BF0B00E0001A36FCF
:10233800F50EA46FE6EC1BF02C0E0001A36FF60E51
:10234800A46FE6EC1BF0A80E0001A36FF60EA46FB5
:10235800E6EC1BF0240E0001A36FF70EA46FE6EC69
:102368001BF0620E0001A36FF70EA46FE6EC1BF0E2
:10237800DE0E0001A36FF70EA46FE6EC1BF0980EBB
:102388000001A36FF80EA46FE6EC1BF0D60E000157
:10239800A36FF80EA46FE6EC1BF0900E0001A36F7C
:1023A800F90EA46FE6EC1BF0CE0E0001A36FF90E38
:1023B800A46FE6EC1BF00C0E0001A36FFA0EA46FDD
:1023C800E6EC1BF04A0E0001A36FFA0EA46FE6ECD0
:1023D8001BF0880E0001A36FFA0EA46FE6EC1BF049
:1023E800520E0001A36FF90EA46FE6EC1BF0520E1B
:1023F8000001A36FF90EA46FE6EC1BF0140E0001A8
:10240800A36FF90EA46FE6EC1BF01C0E0001A36F7E
:10241800F80EA46FE6EC1BF05A0E0001A36FF80E3D
:10242800A46FE6EC1BF0A00E0001A36FF70EA46FDB
:10243800E6EC1BF0E60E0001A36FF60EA46FE6ECC7
:102448001BF06A0E0001A36FF60EA46FE6EC1BF0FA
:10245800EE0E0001A36FF50EA46FE6EC1BF0B00EB4
:102468000001A36FF50EA46FE6EC1BF0720E0001DD
:10247800A36FF50EA46FE6EC1BF0340E0001A36FFA
:10248800F50EA46FE6EC1BF0F60E0001A36FF40E38
:10249800A46FE6EC1BF0B80E0001A36FF40EA46F56
:1024A800E6EC1BF07A0E0001A36FF40EA46FE6ECC5
:1024B8001BF03C0E0001A36FF40EA46FE6EC1BF0BA
:1024C8001200EE0E0001A36FFF0EA46FE6EC1BF0E6
:1024D800000E0001B66F000EB56FB551B611D8B435
:1024E80078EF12F07AEF12F08FEF12F0070EB515B1
:1024F800AF6F000EB615B06FAF51B011D8A487EF0B
:1025080012F089EF12F08FEF12F07D0EA36FFF0E1D
:10251800A46FE6EC1BF00001B551B611D8B497EFE3
:1025280012F099EF12F0F2EF12F00F0EB515AF6F2F
:10253800000EB615B06FAF51B011D8A4A6EF12F0C7
:10254800A8EF12F0F2EF12F07C0EA36FFF0EA46F4B
:10255800E6EC1BF0F00E0001B525B16FFF0EB621B9
:10256800B26FE1EF12F0B151AD25D96EB251AE2183
:10257800DA6E200EDF60C3EF12F0C5EF12F0CDEF78
:1025880012F0AF0EA36FF30EA46FE6EC1BF0DEEFB4
:1025980012F0F60EA36FFF0EA46FB151AD25D96EE0
:1025A800B251AE21DA6EDF50AF6FAF51A56FA66B97
:1025B800E6EC1BF00001B14BB22BB551B15DB65141
:1025C800B259D8A0EAEF12F0ECEF12F0B7EF12F020
:1025D8009C0EA36FFF0EA46FE6EC1BF0E30E000148
:1025E800A36FFF0EA46FB551AD25D96EB651AE21BC
:1025F800DA6EDF50AF6FAF51A56FA66BE6EC1BF03C
:102608000001B54BB62B020EB65DD8A00EEF13F045
:1026180010EF13F071EF12F07B0EA36FFF0EA46F93
:10262800E6EC1BF0F00E0001B525B36FFF0EB621E6
:10263800B46F49EF13F0B351AD25D96EB451AE2143
:10264800DA6E200EDF602BEF13F02DEF13F035EF6D
:1026580013F0AF0EA36FF30EA46FE6EC1BF046EF7A
:1026680013F0F60EA36FFF0EA46FB351AD25D96E0C
:10267800B451AE21DA6EDF50AF6FAF51A56FA66BC4
:10268800E6EC1BF00001B34BB42BB551B35DB6516A
:10269800B459D8A052EF13F054EF13F01FEF13F012
:1026A8009C0EA36FFF0EA46FE6EC1BF01200000E49
:1026B800286E000E276E000E216E000E206E67EF4A
:1026C80013F01A4A1B2A010E266E1AC0F6FF1BC009
:1026D800F7FFF86A0800F550200AD8B476EF13F02F
:1026E80078EF13F096EF13F0F70E1C6EFF0E1D6EC9
:1026F8001AC0F6FF1BC0F7FFF86A0800F5501E6EF7
:102708001F6A1C501E261D501F221F5009E1050E6E
:102718001E5CD8A092EF13F094EF13F096EF13F02D
:10272800000E266E26C022F0236A22502310D8A459
:10273800A0EF13F0A2EF13F065EF13F0ACEF13F076
:10274800000E216E010E206E1A4A1B2AE3EF13F0C9
:102758001AC0F6FF1BC0F7FFF86A0800F5501C6E98
:102768001D6A1D50000AD8B4BCEF13F0E3EF13F054
:102778001C502B0AD8B4A8EF13F0060AD8B4A4EF5B
:1027880013F0E3EF13F027C013F028C014F0000E85
:10279800166E0A0E156E21EC1CF01AC0F6FF1BC04F
:1027A800F7FFF86A0800F550135E000E145A300E51
:1027B8001324276E000E1420286EA8EF13F0D00EF5
:1027C8001C6EFF0E1D6E1AC0F6FF1BC0F7FFF86ADD
:1027D8000800F5501E6E1F6A1C501E261D501F2231
:1027E8001F500AE10A0E1E5CD8A0FDEF13F000EF9F
:1027F80014F0010E01EF14F0000E246E256A245027
:102808002510D8A40AEF14F00CEF14F0C7EF13F05A
:1028180020502110D8A413EF14F015EF14F023EF73
:1028280014F027C01CF028C01DF01C1E1D1E1C4AD9
:102838001D2A1CC01AF01DC01BF027EF14F027C07A
:102848001AF028C01BF01200000E246E22BE31EFD1
:1028580014F02FEF14F043EF14F0221E211E201E57
:102868001F1E1E1E1D1E1C1E1B6C000E1C221D2260
:102878001E221F22202221222222010E246E1ABE8D
:102888004AEF14F048EF14F05CEF14F01A1E191E0A
:10289800181E171E161E151E141E136C000E142269
:1028A800152216221722182219221A22010E241A7A
:1028B80020EE25F0070EDE6AE806FDE21B501C102C
:1028C8001D101E101F10201021102210D8B46FEFF9
:1028D80014F071EF14F0C3EF14F0010E236E7FEFC4
:1028E80014F0D8901B361C361D361E361F3620367F
:1028F80021362236232A22AE84EF14F086EF14F014
:1029080075EF14F0D890253626362736283629361E
:102918002A362B362C361B50135C1C5014581D506D
:1029280015581E5016581F50175820501858215027
:10293800195822501A58D8A0A4EF14F0A6EF14F092
:10294800B7EF14F01B50135E1C50145A1D50155A43
:102958001E50165A1F50175A2050185A2150195AEB
:1029680022501A5A2580D8902232213220321F3222
:102978001E321D321C321B32232E86EF14F02450D7
:10298800D8B4C9EF14F0CBEF14F0DBEF14F02C1E21
:102998002B1E2A1E291E281E271E261E256C000EE9
:1029A80026222722282229222A222B222C2225C02D
:1029B80013F026C014F027C015F028C016F029C05F
:1029C80017F02AC018F02BC019F02CC01AF012000A
:1029D8000001AF6F000E0001AE6F000EAD6FFF0E6D
:1029E80061EC1CF00001AD4BAE2BAEBF05EF15F04E
:1029F800AE5109E10A0EAD5DD8A005EF15F007EF5D
:102A080015F0F3EF14F08A98FF0E61EC1CF0400EFD
:102A180061EC1CF0000E61EC1CF0000E61EC1CF087
:102A2800000E61EC1CF0000E61EC1CF0950E61ECE0
:102A38001CF0FF0E61EC1CF0FF0E61EC1CF00001B5
:102A4800B06F8A88AF05D8A42CEF15F02EEF15F0DB
:102A580037EF15F0F40EA36FFD0EA46FB0C0A5F00C
:102A6800A66BE6EC1BF08A98FF0E61EC1CF0410E99
:102A780061EC1CF0000E61EC1CF0000E61EC1CF027
:102A8800000E61EC1CF0000E61EC1CF0FF0E61EC16
:102A98001CF0FF0E61EC1CF0FF0E61EC1CF0000155
:102AA800B06F8A88B051D8A45CEF15F05EEF15F0CE
:102AB80037EF15F0AF05D8A464EF15F066EF15F001
:102AC8006FEF15F02A0EA36FFE0EA46FB0C0A5F02D
:102AD800A66BE6EC1BF08A98FF0E61EC1CF0500E1A
:102AE80061EC1CF0000E61EC1CF0000E61EC1CF0B7
:102AF800020E61EC1CF0000E61EC1CF0FF0E61ECA4
:102B08001CF0FF0E61EC1CF0FF0E61EC1CF00001E4
:102B1800B06F8A88B029D8B494EF15F096EF15F005
:102B28006FEF15F0AF05D8A49CEF15F09EEF15F0E8
:102B3800A7EF15F0BC0EA36FFD0EA46FB0C0A5F0F3
:102B4800A66BE6EC1BF01200000E246E1ABEB1EF65
:102B580015F0AFEF15F0C3EF15F01A1E191E181E69
:102B6800171E161E151E141E136C000E1422152295
:102B780016221722182219221A22010E246E22BEAA
:102B8800CAEF15F0C8EF15F0DAEF15F0221E211E76
:102B9800201E1F1E1E1E1D1E1C1E1B6C000E1C222E
:102BA8001D221E221F222022212222221B501C10FD
:102BB8001D101E101F10201021102210D8B4E7EF8E
:102BC80015F0E9EF15F031EF16F0010E236EF7EF6F
:102BD80015F0D8901B361C361D361E361F3620368B
:102BE80021362236232A22AEFCEF15F0FEEF15F02F
:102BF800EDEF15F01B50135C1C5014581D50155860
:102C08001E5016581F501758205018582150195840
:102C180022501A58D8A013EF16F015EF16F025EF2A
:102C280016F01B50135E1C50145A1D50155A1E5096
:102C3800165A1F50175A2050185A2150195A225004
:102C48001A5AD8902232213220321F321E321D32B7
:102C58001C321B32232EFEEF15F02450D8B437EF68
:102C680016F039EF16F049EF16F01A1E191E181E45
:102C7800171E161E151E141E136C000E1422152284
:102C880016221722182219221A2213C013F014C070
:102C980014F015C015F016C016F017C017F018C0BC
:102CA80018F019C019F01AC01AF0120020EE23F01B
:102CB800070EDE6AE806FDE21B501C101D101E10F0
:102CC8001F10201021102210D8B46DEF16F06FEFEE
:102CD80016F0C1EF16F0010E2B6E7DEF16F0D890AE
:102CE8001B361C361D361E361F3620362136223638
:102CF8002B2A22AE82EF16F084EF16F073EF16F04F
:102D0800D8902336243625362636273628362936CF
:102D18002A361B50135C1C5014581D5015581E5051
:102D280016581F501758205018582150195822501B
:102D38001A58D8A0A2EF16F0A4EF16F0B5EF16F0C7
:102D48001B50135E1C50145A1D50155A1E50165A0B
:102D58001F50175A2050185A2150195A22501A5ADF
:102D68002380D8902232213220321F321E321D3267
:102D78001C321B322B2E84EF16F023C013F024C014
:102D880014F025C015F026C016F027C017F028C08B
:102D980018F029C019F02AC01AF012003B503C1054
:102DA800D8A4D9EF16F0DBEF16F0E1EF16F03BC030
:102DB80024F03CC025F0E7EF16F0FF0E3B24246E0C
:102DC800FF0E3C20256E3FA0ECEF16F0EEEF16F05C
:102DD800F7EF16F020C015F0166A1EC017F01FC0D6
:102DE80018F0A8EC18F025BEFCEF16F0FEEF16F070
:102DF80000EF17F004EF17F0000E256E000E246E9A
:102E0800000E236E000E226E16EF17F0000E166EDF
:102E1800200E156E1EC017F01FC018F0A8EC18F091
:102E2800224A232A2450225C2350800A216E2550EE
:102E3800800A2158D8A023EF17F025EF17F00AEFE2
:102E480017F03FB02AEF17F02CEF17F035EF17F017
:102E580020C015F0166A1EC017F01FC018F0A8ECA5
:102E680018F0010E22241E6E000E23201F6E120081
:102E78001B501C101D101E101F1020102110221096
:102E8800D8B449EF17F04BEF17F093EF17F0010E96
:102E9800236E59EF17F0D8901B361C361D361E3698
:102EA8001F36203621362236232A22AE5EEF17F04F
:102EB80060EF17F04FEF17F01B50135C1C501458BD
:102EC8001D5015581E5016581F5017582050185886
:102ED8002150195822501A58D8A075EF17F077EFDB
:102EE80017F087EF17F01B50135E1C50145A1D5033
:102EF800155A1E50165A1F50175A2050185A21504A
:102F0800195A22501A5AD8902232213220321F32AE
:102F18001E321D321C321B32232E60EF17F013C0F5
:102F280013F014C014F015C015F016C016F017C031
:102F380017F018C018F019C019F01AC01AF01200CA
:102F48003FA0A9EF17F0ABEF17F0B5EF17F027C0C8
:102F58001EF028C01FF025C020F026C021F05AEC32
:102F68001AF02ABEBAEF17F0BCEF17F0C2EF17F04D
:102F780029C02EF02AC02FF0C6EF17F0000E2F6ED2
:102F8800000E2E6E000E2D6E000E2C6ED8EF17F070
:102F9800000E166E200E156E25C017F026C018F00C
:102FA800A8EC18F02C4A2D2A2E502C5C2D50800AA3
:102FB8002B6E2F50800A2B58D8A0E5EF17F0E7EFBB
:102FC80017F0CCEF17F03FB0ECEF17F0EEEF17F07B
:102FD800F8EF17F027C01EF028C01FF025C020F01A
:102FE80026C021F05AEC1AF027C013F028C014F0BC
:102FF80082EC1BF02E501324256E2F501420266EC1
:103008001200146E6CBA0BEF18F00DEF18F05AEFAF
:1030180018F01450040D010EF326000EF422610E70
:10302800F324F66EF30EF420F76EF86A000EF82219
:103038000800F5CF6DFF1450040D610EF324F66EF1
:10304800F30EF420F76EF86A000EF8220800F5CFA8
:103058006CFF000E6B6E1450040D020EF326000E6A
:10306800F422610EF324F66EF30EF420F76EF86A7C
:10307800000EF8220800F5CF6EFF1450040D030E61
:10308800F326000EF422610EF324F66EF30EF420FC
:10309800F76EF86A000EF8220800F5CF13F0134611
:1030A80093501318FD0B1318936E6C8A12008A98AC
:1030B800FF0E61EC1CF0510E61EC1CF0175061EC36
:1030C8001CF0165061EC1CF0155061EC1CF014500B
:1030D80061EC1CF0FF0E61EC1CF0FF0E61EC1CF0C3
:1030E800FF0AD8B47AEF18F07CEF18F071EF18F0F7
:1030F800FF0E61EC1CF0FF0AD8B485EF18F087EFDB
:1031080018F07CEF18F0000E1B6E000E1A6E1A50A5
:103118001824D96E1B501920DA6EFF0E61EC1CF0D2
:10312800DF6E1A4A1B2A020E1B5CD8A09EEF18F00D
:10313800A0EF18F08BEF18F0FF0E61EC1CF0FF0EFB
:1031480061EC1CF08A88120017501810D8B4AFEF41
:1031580018F0B1EF18F0BAEF18F017501810D8A4FB
:10316800B8EF18F0BAEF18F0BFEF18F01550B8EC38
:103178001CF0F2EF18F020EE04F01750D926185082
:10318800DA22DE50DE10D8B4CCEF18F0CEEF18F00B
:10319800E9EF18F020EE04F01750D9261850DA227B
:1031A80010EE02F01750E1261850E222DE50E65CDD
:1031B800E650800A1D6EDE50800A1D58D8B0E7EF31
:1031C80018F0E9EF18F0F2EF18F020EE02F01750BF
:1031D800D9261850DA22DE2A000EDD2212008A983B
:1031E800FF0E61EC1CF0580E61EC1CF0175061ECFE
:1031F8001CF0165061EC1CF0155061EC1CF01450DA
:1032080061EC1CF0FF0E61EC1CF0FF0E61EC1CF091
:10321800FF0AD8B412EF19F014EF19F009EF19F0FA
:10322800FF0E61EC1CF0FF0E61EC1CF0FF0E61EC70
:103238001CF0FE0E61EC1CF0000E1B6E000E1A6EE8
:103248001A501824D96E1B501920DA6EDF5061EC21
:103258001CF01A4A1B2A020E1B5CD8A036EF19F084
:1032680038EF19F024EF19F08A881200840EF66EF0
:10327800390EF76E000EF86E00EEC0F010EE04F096
:103288000900F5CFEEFFE550E150FAE1920EF66E37
:10329800390EF76E000EF86E0900F5CF4CF001EE0E
:1032A800FCF018EE00F0EE6AE550E150FCE1E25067
:1032B800FAE101EE00F0AE0EEE6AE806FDE100016B
:1032C800BF6BBE6BBD6BBC6BBB6B00EE3BF0110EF6
:1032D800EE6AE806FDE14D904D92000129EF00F0FD
:1032E8006E0E0001A36FFF0EA46FE6EC1BF0E90E53
:1032F8000001A36FFF0EA46FAFC0A5F0B0C0A6F089
:10330800A76BA86BE6EC1BF0FC0E0001A36FFF0E89
:10331800A46FE6EC1BF0E90E0001A36FFF0EA46F8B
:10332800FF0EAD15A56FFF0EAE15A66F000EAF15FB
:10333800A76F000EB015A86FE6EC1BF09C0E0001FD
:10334800A36FFF0EA46FE6EC1BF012009DC0A1F066
:103358009EC0A2F0000E0101856F000E846FCCEFB5
:1033680019F09BC07CF09CC07DF0A10E00017E6F1F
:10337800000E7F6F9FC080F0A0C081F054EC09F070
:1033880000017C510101842700017D510101852341
:10339800A1C0F6FFA2C0F7FFF86A0800F5500009BF
:1033A800D8A4D9EF19F0DBEF19F0B5EF19F084C103
:1033B8009BF085C19CF012009F0E1B6EFF0E1C6EC9
:1033C80019C01DF01AC01EF01B501D261C501E22CD
:1033D8001E500AE11A0E1D5CD8A0F5EF19F0F8EF9F
:1033E80019F0010EF9EF19F0000E1F6E206A1F5038
:1033F8002010D8B402EF1AF004EF1AF00AEF1AF00E
:103408005F0E1914196E1A6A0EEF1AF019C019F026
:103418001AC01AF01200010E196E200E131814109B
:10342800D8B419EF1AF01BEF1AF034EF1AF0F70EB0
:10343800156EFF0E166E13C017F014C018F0155055
:10344800172616501822185009E1050E175CD8A047
:1034580030EF1AF032EF1AF034EF1AF0000E196E4E
:1034680019C013F0146A1200000E1326020E14225B
:10347800000E1522000E1622040E165CD8A047EF87
:103488001AF049EF1AF051EF1AF0000E136E000E01
:10349800146E000E156E000E166E13C013F014C0D5
:1034A80014F015C015F016C016F01200000E246EA8
:1034B800000E236E6BEF1AF022C015F0166A20C0BA
:1034C80017F021C018F0A8EC18F0234A242A23503A
:1034D8001E24D96E24501F20DA6EDF50226E22502F
:1034E800D8A479EF1AF07BEF1AF060EF1AF0120007
:1034F80026BE89EF1AF0265006E12504D8B087EFDA
:103508001AF089EF1AF097EF1AF025C027F026C0B5
:1035180028F0271E281E274A282A27C025F028C059
:1035280026F09BEF1AF025C025F026C026F01200E1
:10353800080EB86E900EAB6E240EAC6E820EAF6E97
:10354800060EB06E000E136E000E146EAEEC1CF07C
:10355800000E136E000E146EA9EC1CF0000E136E14
:10356800000E146EB3EC1CF0000E4B6E1200000E31
:10357800166E000E156ECDEF1AF000F000F000F098
:1035880000F000F000F000F000F000F000F0154A44
:10359800162A1350155C14501658D8A0D6EF1AF0F6
:1035A800D8EF1AF0C1EF1AF012009F0E156EFF0E39
:1035B800166E200E1310176E000E1410186E15508C
:1035C80017261650182218500AE11A0E175CD8A0B0
:1035D800F0EF1AF0F3EF1AF0010EF4EF1AF0000E04
:1035E800136E146A12008A980D0E61EC1CF0146EAA
:1035F8008A881428D8A403EF1BF005EF1BF008EF06
:103608001BF0FF0E12EF1BF0FF0E61EC1CF0FF0E1B
:1036180061EC1CF0FF0E61EC1CF0145012009F0EC0
:10362800156EFF0E166E13C017F014C018F0155063
:1036380017261650182218500AE11A0E175CD8A03F
:1036480028EF1BF02BEF1BF0010E2CEF1BF0000EE8
:10365800136E146A1200BF0E156EFF0E166E13C09D
:1036680017F014C018F015501726165018221850C5
:103678000AE11A0E175CD8A044EF1BF047EF1BF0C5
:10368800010E48EF1BF0000E136E146A1200D00EE4
:10369800156EFF0E166E13C017F014C018F01550F3
:1036A80017261650182218500AE10A0E175CD8A0DF
:1036B80060EF1BF063EF1BF0010E64EF1BF0000ED0
:1036C800136E146A1200D59C000ED76E000ED66ECB
:1036D800D650D7CF15F0166A15C016F0156A151012
:1036E800436E1650446EF294F28A900E136E390EA1
:1036F800146EA4EC1CF09F0ED56E120013C015F0CA
:1037080014C016F08AEF1BF0134A142A13C0D9FF0D
:1037180014C0DAFFDF50D8A494EF1BF096EF1BF02B
:1037280088EF1BF01550135C136E16501458146E66
:103738001200F2944450D76E43C0D6FF455046104D
:10374800D8B4A9EF1BF0ABEF1BF0B7EF1BF002D812
:10375800B7EF1BF00500FA6E4550FD6E4650FE6E41
:10376800FF6AFA501200120001C003F002C004F010
:10377800D89004320332D890043203320350BE6E1C
:1037880001C003F0030E0316033AF00E0316BD50F2
:10379800CF0B0310BD6E1200000E896E000E8A6EEC
:1037A800000E8B6E9268E50E936EBB0E946E3C0E07
:1037B8000F013A6F310E396F2F0E386F000E616EA0
:1037C800F18E1200A50E0001AB6F000EAC6F000E5B
:1037D8009B6F000E9C6FA3C09DF0A4C09EF0AB0E23
:1037E8009F6F000EA06FAAEC19F012009EAAFFEFBF
:1037F8001BF001EF1CF0FAEF1BF0000E4B6EABA2B2
:1038080008EF1CF00AEF1CF00CEF1CF0AB98AB882B
:10381800AE501200C4EC1CF08EEC1CF0D0EC1BF087
:1038280053EC1CF06EEC1CF034EC1CF097EC1CF024
:1038380067EC1BF09CEC1AF0120013501502F3CF42
:1038480017F0F4CF18F013501602F350182614503E
:103858001502F350182617C013F018C014F0120000
:103868003C0EBD6E000EB66E800EB76E010EB96EC0
:10387800000EBF6E1F0EBE6EFC0E0F014917120020
:10388800D6CF07F0D7CF08F00850036E0750056E63
:1038980003C006F005C001F006C002F01200700E69
:1038A800D36E040ED26E400E9B6ED2AE5EEF1CF04D
:1038B80060EF1CF059EF1CF01200136E13C06FFF7D
:1038C800A4AE69EF1CF06BEF1CF064EF1CF0A49E33
:1038D8006F501200000EC16E260EC06E000EC36E31
:1038E800000EC46E110EC26E1200136E9EA87FEFFA
:1038F8001CF081EF1CF07AEF1CF013C0ADFF120032
:103908009EBA89EF1CF08CEF1CF0010E8DEF1CF0B5
:10391800000E1200400E6D6E010E6C6E010E6E6E82
:1039280093926C9A12003F0EBB6E000EBC6E9E9274
:10393800050EBA6E12001450D76E13C0D6FF1200CF
:1039480013C045F014C046F0120013C08AF114C029
:103958008BF1120013C08CF114C08DF1120013C04A
:1039680088F114C089F11200146E145079EC1CF01F
:1039780012000A50D76E09C0D6FF1200FC05400697
:0B398800D09E12006C9A120012000189
:10F3460000809FBBD5E9F8FFFFF8E9D5BB9F806138
:10F35600452B1708010108172B4561014001005094
:10F366007265737320616E79206B657920746F20E6
:10F376007374617274207265636F7264696E67205C
:10F38600617564696F20616E6420707265737320A5
:10F39600616E79206B657920746F2073746F7020AD
:10F3A6007265636F7264696E672E004C6F672066C4
:10F3B600696C65206E616D653A2042726F77736580
:10F3C60020616E642070726F766964652061202EFC
:10F3D60063737620657874656E73696F6E20746FDB
:10F3E60020796F75722066696C65206E616D650D9A
:10F3F6000A00546F2073706F6F6C207465726D69AC
:10F406006E616C20636F6E74656E747320696E74C2
:10F416006F20612066696C6520666F6C6C6F772063
:10F42600746865736520696E737472756374696F49
:10F436006E733A0D0A002E2E2E2E2E2E2E2E2E2EC8
:10F446002E2E2E2E2E2E2E2E2E2E2E2E2E2E2E2ED6
:10F456002E2E2E2E2E2E2E2E2E2E2E2E2E2E2E2EC6
:10F466002E2E2E2E2E2E2E2E2E2E2E2E2E2E2E2EB6
:10F476002E0D0A002E2E2E2E2E2E2E2E2E2E2E2E19
:10F486002E2E2E2E2E2E2E2E2E3F3F3F3F3F3F3F1F
:10F496003F3F3F3F3F3F3F3F3F3F2E2E2E2E2E2EDC
:10F4A6002E2E2E2E2E2E2E2E2E2E2E2E2E2E2E0D97
:10F4B6000A002E2E2E2E2E2E2E2E2E2E2E2E2E2EB8
:10F4C6002E2E2E3F3F3F3F3F3F3F3F3F3F3F3F3F79
:10F4D6003F3F3F3F3F3F3F3F3F3F3F3F2E2E2E2E7A
:10F4E6002E2E2E2E2E2E2E2E2E2E2E2E2E0D0A00A9
:10F4F6002E2E2E2E2E2E2E2E2E2E2E2E2E2E3F3F04
:10F506003F3F3F3F3F3F3F3F3F3F3F3F3F3F3F3F05
:10F516003F3F3F3F3F3F3F3F3F3F3F3F3F2E2E2E28
:10F526002E2E2E2E2E2E2E2E2E2E2E0D0A002E2E68
:10F536002E2E2E2E2E2E2E2E2E2E3F3F3F3F3F3F7F
:10F546003F3F3F3F3F3F3F3F3F3F3F3F3F3F3F3FC5
:10F556003F3F3F3F3F3F3F3F3F3F3F3F3F2E2E2EE8
:10F566002E2E2E2E2E2E2E2E2E0D0A002E2E2E2E28
:10F576002E2E2E2E2E2E3F3F3F3F3F3F3F3F3F3FFB
:10F586003F3F3F3F3F3F3F3F3F3F3F3F3F3F3F3F85
:10F596003F3F3F3F3F3F3F3F3F3F3F3F3F2E2E2EA8
:10F5A6002E2E2E2E2E2E2E0D0A002E2E2E2E2E2EE8
:10F5B6002E2E2E3F3F3F3F3F3F3F3F3F3F3F3F3F88
:10F5C6003F3F3F3F3F3F3F3F3F3F3F3F3F3F3F3F45
:10F5D6003F3F3F3F3F3F3F3F3F3F3F3F2E2E2E2E79
:10F5E6002E2E2E2E2E0D0A002E2E2E2E2E2E2E3F97
:10F5F6003F3F3F3F3F3F3F3F3F3F3F3F3F3F3F3F15
:10F606003A3A3A3A3A3A3A3A3A3A3A3F3F3F3F3F3B
:10F616003F3F3F3F3F3F3F3F3F3F3F3F2E2E2E2E38
:10F626002E2E2E0D0A002E2E2E2E2E2E2E3F3F3F34
:10F636003F3F3F3F3F3F3F3F3F3F3F3F3F3F3F3FD4
:10F646003F3F3F3F3F3F3F3F3F3F3F3F3F3F3F3FC4
:10F656003F3F3F3F3F3F3F3F3F3F2E2E2E2E2E2E1A
:10F666002E0D0A002E2E2E2E2E2E3F3F3F3F3F3FC1
:10F676003F3F3F3F3F3F3F3F3F3A3A3A3A3A3F3FAD
:10F686003F3F3F3F3F3A3A3A3A3A3F3F3F3F3F3F9D
:10F696003F3F3F3F3F3F3F3F3F2E2E2E2E2E2E0D0C
:10F6A6000A002E2E2E2E2E2E3F3F3F3F3F3F3F3F3E
:10F6B6003F3F3F3F3F3F3F3F3F3F3F3F3F3F3F3F54
:10F6C6003F3F3F3F3F3F3F3F3F3F3F3F3F3F3F3F44
:10F6D6003F3F3F3F3F3F3F2E2E2E2E2E2E0D0A0040
:10F6E6002E2E2E2E2E3F3F3F3F3F3F3F3F3F3F3F79
:10F6F6003F3F3F3A3A3A3A3F3F3F3F3F3F3F3F3F28
:10F706003F3F3F3F3A3A3A3A3F3F3F3F3F3F3F3F17
:10F716003F3F3F3F3F3F2E2E2E2E2E0D0A002E2E10
:10F726002E2E2E3F3F3F3F3F3F3F3F3F3F3F3F3F16
:10F736003F3F3F3F3F3F3F3F3F3F3F3F3F3F3F3FD3
:10F746003F3F3F3F3F3F3F3F3F3F3F3F3F3F3F3FC3
:10F756003F3F3F3F2E2E2E2E2E0D0A002E2E2E2EF2
:10F766003F3F3F3F3A3A3A3A3A3A3A3A3A3A3A3FDA
:10F776003F3F3F3F3F3F3F3F3F3F3F3F3F3F3F3F93
:10F786003F3F3F3F3A3A3A3A3A3A3A3A3A3A3A3FBA
:10F796003F3F3F2E2E2E2E0D0A002E2E2E2E3F3FA1
:10F7A6003F3F3F3F3F3F3F3F3F3F3F3F3A3A3A3F72
:10F7B6003F3F3F3F3F3F3F3F3F3F3F3F3F3F3F3F53
:10F7C6003A3A3A3F3F3F3F3F3F3F3F3F3F3F3F3F52
:10F7D6003F2E2E2E2E0D0A002E2E2E3F3F3A3A3A5F
:10F7E6003A3A3A3A3A3A3A3A3A3A3A3A3A3A3A3A73
:10F7F6003A3F3F3F3F3F3F3F3F3F3A3A3A3A3A3A36
:10F806003A3A3A3A3A3A3A3A3A3A3A3A3A3A3F3F48
:10F816002E2E2E0D0A002E2E2E3F3F3F3F3F3F3FFE
:10F826003F3F3F3F3F3F3A3A3A3F3F3F3F3F3F3FF1
:10F836003F3F3F3F3F3F3F3F3F3F3F3F3F3F3A3ADC
:10F846003A3F3F3F3F3F3F3F3F3F3F3F3F3F2E2EE9
:10F856002E0D0A002E2E2E2E3F3F3F3F3F3F3F3FAD
:10F866003F3F3F3F3F3A3A3A3F3F3F3F3F3F3F3FB1
:10F876003F3F3F3F3F3F3F3F3F3F3F3A3A3A3F3FA1
:10F886003F3F3F3F3F3F3F3F3F3F3F3F2E2E2E0DE7
:10F896000A002E2E3F3F3F3A3A3A3A3A3A3A3A3A35
:10F8A6003A3A3A3A3A3A3A3A3A3A3A3A3A3A3A3AB2
:10F8B6003A3A3A3A3A3A3A3A3A3A3A3A3A3A3A3AA2
:10F8C6003A3A3A3A3A3A3A3A3F3F3F2E2E0D0A0032
:10F8D6002E2E3F3F3F3F3A3A3A3A3A3A3A3A3A3A86
:10F8E6003A3A3A3A3A3A3A3A3A3A3A3A3F3F3F3A63
:10F8F6003A3A3A3A3A3A3A3A3A3A3A3A3A3A3A3A62
:10F906003A3A3A3A3A3F3F3F3F2E2E0D0A002E2E04
:10F916002E3F3F3F3F3F3F3F3F3F3F3F3F3F3F3F02
:10F926003F3F3F3F3F3F3F3F3F3F3F3F3F3F3F3FE1
:10F936003F3F3F3F3F3F3F3F3F3F3F3F3F3F3F3FD1
:10F946003F3F3F3F3F3F3F2E2E0D0A002E2E3F3FAB
:10F956003F3F3F3F3F3F3F3F3F3F3F3F3F3F3F3FB1
:10F966003F3F3F3F3F3F3F3F3F3F3F3F3F3F3F3FA1
:10F976003F3F3F3F3F3F3F3F3F3F3F3F3F3F3F3F91
:10F986003F3F3F3F3F2E2E0D0A002E3F3F3F3F3F5A
:10F996003F3A3A3A3A3A3A3A3A3A3A3A3A3A3A3ABC
:10F9A6003A3A3A3A3A3F3F3F3F3F3A3A3A3A3A3A98
:10F9B6003A3A3A3A3A3A3A3A3A3A3A3A3A3A3A3F9C
:10F9C6003F3F3F3F2E0D0A002E3F3F3F3F3F3F3F09
:10F9D6003A3A3A3A3A3A3A3A3A3A3A3A3A3A3A3A81
:10F9E6003A3A3F3F3F3F3F3F3F3A3A3A3A3A3A3A4E
:10F9F6003A3A3A3A3A3A3A3A3A3A3A3A3F3F3F3F4D
:10FA06003F3F2E0D0A002E3F3F3F3F3F3F3F3A3AD2
:10FA16003A3A3A3A3A3A3A3A3A3A3A3A3A3A3A3F3B
:10FA26003F3F3F3F3F3F3F3F3A3A3A3A3A3A3A3A08
:10FA36003A3A3A3A3A3A3A3A3A3A3F3F3F3F3F3F02
:10FA46002E0D0A002E3F3F3F3F3F3F3F3F3A3A3A97
:10FA56003A3A3A3A3A3A3A3A3A3A3A3A3F3F3F3FEC
:10FA66003F3F3F3F3F3F3F3A3A3A3A3A3A3A3A3ACD
:10FA76003A3A3A3A3A3A3F3F3F3F3F3F3F3F2E0DF1
:10FA86000A002E3F3F3F3F3F3F3F3F3F3F3A3A3A14
:10FA96003A3A3A3A3A3A3A3F3F3F3F3F3F3F3F3F93
:10FAA6003F3F3F3F3F3F3F3F3A3A3A3A3A3A3A3A88
:10FAB6003A3A3F3F3F3F3F3F3F3F3F3F2E0D0A0011
:10FAC600596F75206D6179207465726D696E617408
:10FAD600652073706F6F6C696E6720617420616E4C
:10FAE6007974696D6520776974682061206B657922
:10FAF6002070726573732E0D0A0052696768742050
:10FB06006D6F75736520636C69636B206F6E20740F
:10FB16006865207570706572206C656674206F6606
:10FB2600207468652050755454592077696E646F47
:10FB3600770D0A00313A207772697465206120706A
:10FB46006572666563742032362076616C75652051
:10FB560073696E65207761766520746F20746865B9
:10FB660020534420636172640D0A000D0A2D2D2D69
:10FB76002D2D2D2D2D2D2D2D2D2D2D2D2D2D2D2DAF
:10FB86002D2D2D2D2D2D2D2D2D2D2D2D2D2D2D2D9F
:10FB96002D2D2D2D2D2D2D2D2D2D2D2D2D2D0D0AD2
:10FBA6000053656C6563743A2020202020536573EA
:10FBB60073696F6E206C6F6767696E673A20416C78
:10FBC6006C2073657373696F6E206F7574707574CE
:10FBD6000D0A002B2F2D20496E6372656173652F08
:10FBE6004465637265617365207468652073616D31
:10FBF600706C6520726174652062792031302075E1
:10FC0600730D0A00546F20636C6F7365207468650A
:10FC16002066696C6520666F6C6C6F77207468650A
:10FC2600736520696E737472756374696F6E733A67
:10FC3600200D0A00573A205772697465206D696372
:10FC4600726F70686F6E65203D3E2053442063617D
:10FC5600726420617420313630302075730D0A00CD
:10FC6600723A2072656164206120626C6F636B205A
:10FC76006F662025642062797465732066726F6DE5
:10FC860020534420636172640D0A004E6F20636F37
:10FC96006E66696775726174696F6E206F6620643F
:10FCA6006576656C6F706D656E7420626F617264E7
:10FCB6000D0A0053656C6563743A2020202020539A
:10FCC600657373696F6E20206C6F6767696E673A3C
:10FCD600204E6F6E650D0A00612F412064656372C8
:10FCE600656173652F696E63726561736520726500
:10FCF600616420616464726573730D0A0053656CF8
:10FD06006563743A20202020204368616E67652071
:10FD160073657474696E67732E2E2E0D0A00733A1E
:10FD26002073706F6F6C206D656D6F727920746FC4
:10FD36002061206373762066696C650D0A00537432
:10FD46006174757320636F64653A202564202D2DD8
:10FD56002D2D20416464726573733A2000416D6FE6
:10FD6600756E74206F6620626C6F636B732073749C
:10FD76006F7265643A2025640D0A00556E646572DB
:10FD8600666C6F77656420746F20686967682061A8
:10FD96006464726573730D0A0009506C6179206C96
:10FDA600656E67746820696E20626C6F636B733A68
:10FDB6002025640D0A00426C6F636B204C656E67EC
:10FDC600746820526573706F6E73653A2025780DDE
:10FDD6000A004F766572666C6F77656420746F20D3
:10FDE6006C6F7720616464726573730D0A00434D0E
:10FDF60044302C20526573657420526573706F6EA3
:10FE060073653A2025780D0A004C697374696E672C
:10FE1600207772697465206661696C757265733ADC
:10FE2600200D0A00434D44312C20496E697420523E
:10FE36006573706F6E73653A2025780D0A005072EF
:10FE460065737320616E79206B657920746F2073FA
:10FE5600746172740D0A00693A20496E69746961A9
:10FE66006C697A6520534420636172640D0A007AD6
:10FE76003A20436C65617220746865207465726D02
:10FE8600696E616C0D0A0053706F6F6C6564202596
:10FE960075206F7574206F66207468652000536541
:10FEA6006C6563743A20202020204C6F6767696E6A
:10FEB600670D0A0053656C6563743A202020202084
:10FEC6004170706C79200D0A00534420636172649E
:10FED600202B20706C61796261636B0D0A005A3ABF
:10FEE6002052657365742070726F636573736F72E9
:10FEF6000D0A000973616D706C6520726174653A54
:10FF060020256475730D0A00446563726561736527
:10FF16006420616464726573730D0A00496E6372CE
:10FF2600656173656420616464726573730D0A00AC
:10FF360053656C6563743A20202020204170706CF4
:10FF4600790D0A005344206361726420616464720F
:10FF56006573733A202000556E6B6E6F776E206B5B
:10FF660065792025630D0A002020202041646472F3
:10FF76006573733A2020202000097364436172641C
:10FF8600416464726573733A20005265616420624D
:10FF96006C6F636B3A200D0A003F3A2068656C70FF
:10FFA600206D656E750D0A00257520626C6F636B9A
:10FFB600732E0D0A004C61622031300D0A00446533
:10FFC600762732310D0A006F3A096F6B0D0A006F02
:10FFD6003A206B0D0A00253034780D0A00253032A0
:10FFE60078200025303478000D0A0A0025640D00BB
:09FFF6002563003E20003A0000E2
:020000040020DA
:08000000FFFFFFFFFFFFFFFF00
:020000040030CA
:0E000000FF281F3CFFBF85FF0FC00FE00F4021
:00000001FF
